:020000040800F2
:100000000000082489110008410D0008430D000874
:10001000450D0008470D0008490D000800000000CC
:100020000000000000000000000000004B0D000870
:100030004D0D0008000000004F0D0008510D000894
:10004000D9110008D9110008D9110008D9110008E8
:10005000D9110008D9110008D9110008D9110008D8
:10006000D9110008D9110008D9110008D9110008C8
:10007000D9110008D9110008D9110008D9110008B8
:10008000D9110008D9110008D9110008D9110008A8
:10009000D9110008D9110008D9110008D911000898
:1000A000D9110008D9110008D9110008D911000888
:1000B000D9110008D9110008D9110008D911000878
:1000C000D9110008D9110008D9110008D911000868
:1000D000D9110008D9110008550D0008610D00085C
:1000E000D9110008D911000800000000D91100083A
:1000F000D9110008D9110008D9110008D911000838
:10010000D9110008D9110008D9110008D911000827
:10011000D9110008D9110008D9110008D911000817
:10012000D9110008D9110008D9110008D911000807
:10013000D9110008D9110008D9110008D9110008F7
:1001400000000000000000000000000000000000AF
:10015000D9110008D9110008D9110008D9110008D7
:10016000D9110008D9110008D9110008D9110008C7
:10017000D9110008D9110008D9110008D9110008B7
:10018000D9110008D9110008D9110008D9110008A7
:10019000D9110008D9110008D9110008D911000897
:1001A000D9110008D9110008D9110008D911000887
:1001B000D9110008D9110008D9110008D911000877
:1001C000D9110008D91100086D0D0008790D00083B
:1001D000D91100087D0D0008D9110008D9110008B7
:1001E000D9110008D9110008D9110008D911000847
:1001F000D9110008D9110008D9110008D911000837
:10020000D9110008D9110008D9110008D911000826
:10021000D9110008D9110008D9110008D911000816
:10022000D9110008D9110008D911000800000000F8
:10023000D9110008D911000800000000D9110008E8
:10024000D9110008D9110008D9110008D9110008E6
:10025000D9110008D9110008D9110008D9110008D6
:10026000D9110008D9110008D9110008D9110008C6
:10027000D9110008D9110008D911000800000000A8
:10028000D9110008D9110008D91100080000000098
:0802900000000000D911000874
:1002A00010B5054C237833B9044B13B10448AFF3B0
:1002B00000800123237010BD7C0100240000000099
:1002C0006891000808B5034B1BB103490348AFF31D
:1002D000008008BD00000000800100246891000833
:1002E00001F0FF01102A2BDB10F0070F08D010F8E7
:1002F000013B013A8B422DD010F0070F42B3F6D1EB
:10030000F0B441EA012141EA014122F007047FF003
:1003100000070023F0E80256083C85EA010586EA5A
:10032000010685FA47F5A3FA87F586FA47F6A5FA96
:1003300087F68EB9EED1F0BC01F0FF0102F00702A2
:1003400032B110F8013B013A83EA010313B1F8D14D
:100350000020704701387047002D06BF354603382E
:10036000073815F0010F07D1013015F4807F02BF67
:10037000013015F4C03F0130F0BC0138704700BFB8
:1003800053B94AB9002908BF00281CBF4FF0FF31FC
:100390004FF0FF3000F074B9ADF1080C6DE904CEF8
:1003A00000F006F8DDF804E0DDE9022304B0704750
:1003B0002DE9F047089D04468E46002B4DD18A4218
:1003C000944669D9B2FA82F252B101FA02F3C2F14B
:1003D000200120FA01F10CFA02FC41EA030E9440DC
:1003E0004FEA1C48210CBEFBF8F61FFA8CF708FBFD
:1003F00016E341EA034306FB07F199420AD91CEBD5
:10040000030306F1FF3080F01F81994240F21C8106
:10041000023E63445B1AA4B2B3FBF8F008FB10334E
:1004200044EA034400FB07F7A7420AD91CEB040483
:1004300000F1FF3380F00A81A74240F20781644453
:10044000023840EA0640E41B00261DB1D4400023D8
:10045000C5E900433146BDE8F0878B4209D9002D3C
:1004600000F0EF800026C5E9000130463146BDE8C6
:10047000F087B3FA83F6002E4AD18B4202D3824230
:1004800000F2F980841A61EB030301209E46002DDF
:10049000E0D0C5E9004EDDE702B9FFDEB2FA82F234
:1004A000002A40F09280A1EB0C014FEA1C471FFA92
:1004B0008CFE0126200CB1FBF7F307FB131140EA79
:1004C00001410EFB03F0884208D91CEB010103F146
:1004D000FF3802D2884200F2CB804346091AA4B208
:1004E000B1FBF7F007FB101144EA01440EFB00FEDC
:1004F000A64508D91CEB040400F1FF3102D2A64541
:1005000000F2BB800846A4EB0E0440EA03409CE7DF
:10051000C6F12007B34022FA07FC4CEA030C20FA8C
:1005200007F401FA06F31C43F9404FEA1C4900FAAC
:1005300006F3B1FBF9F8200C1FFA8CFE09FB181129
:1005400040EA014108FB0EF0884202FA06F20BD99C
:100550001CEB010108F1FF3A80F08880884240F2EC
:100560008580A8F102086144091AA4B2B1FBF9F030
:1005700009FB101144EA014100FB0EFE8E4508D92B
:100580001CEB010100F1FF346CD28E456AD90238B0
:10059000614440EA0840A0FB0294A1EB0E01A14295
:1005A000C846A64656D353D05DB1B3EB080261EB03
:1005B0000E0101FA07F722FA06F3F1401F43C5E9DD
:1005C000007100263146BDE8F087C2F12003D84013
:1005D0000CFA02FC21FA03F3914001434FEA1C4755
:1005E0001FFA8CFEB3FBF7F007FB10360B0C43EA47
:1005F000064300FB0EF69E4204FA02F408D91CEBF7
:10060000030300F1FF382FD29E422DD902386344F4
:100610009B1B89B2B3FBF7F607FB163341EA034194
:1006200006FB0EF38B4208D91CEB010106F1FF38E3
:1006300016D28B4214D9023E6144C91A46EA0046DA
:1006400038E72E46284605E70646E3E61846F8E66C
:100650004B45A9D2B9EB020864EB0C0E0138A3E7B5
:100660004646EAE7204694E74046D1E7D0467BE796
:10067000023B614432E7304609E76444023842E70E
:10068000704700BF10B5FF2486B001238DF80F001E
:100690000DF117020DF10F010548009403F01CFC49
:1006A00008B18DF817409DF8170006B010BD00BFC7
:1006B000A801002470B50B4E044600220D463046BA
:1006C000042101F0BBF92046FFF7DCFF0446284671
:1006D000FFF7D8FF30460122042101F0AFF9204690
:1006E00070BD00BF0000025838B50A4D0446002214
:1006F0000421284601F0A2F92046FFF7C3FFFF209E
:10070000FFF7C0FF044601222846042101F096F9B4
:10071000204638BD0000025870B506460C46154606
:10072000042100220B4801F089F93046FFF7AAFFA7
:1007300025440646AC4206D101220421054801F0B9
:100740007DF9304670BDFF20FFF79CFF04F8010BD8
:10075000F0E700BF0000025870B506460C4615468B
:10076000042100220A4801F069F93046FFF78AFFA8
:1007700025440646AC4206D101220421044801F07A
:100780005DF9304670BD14F8010BFFF77BFFF1E710
:10079000000002580F4B07B5186805221B796946FF
:1007A000009030208DF80430FFF7D6FF052269460F
:1007B0001020FFF7B1FF6B46052013F8012BA52A87
:1007C00006D1013810F0FF00F7D103B05DF804FB4B
:1007D0000120FAE7A091000810B5002208210A487C
:1007E0000A4C01F02BF901220421074801F026F9F7
:1007F000FFF7D0FF00B910BD204606F0F5FF4FF41B
:100800007A7000F051FDF3E700000258A69100084D
:1008100010B5044600220821144801F00FF92146C2
:100820002022A020114CFFF797FF012208210F483A
:1008300001F004F91021204601F0FAF80028F9D15E
:100840000720FFF751FF044601462720FFF732FF3C
:10085000E30605D5FF21E120FFF72CFF102010BD96
:1008600014F0200F0CBFFF202020F8E700000258F2
:1008700010B5194C00220821204601F0DFF80522AE
:1008800016493020FFF768FF052215492A20FFF797
:1008900063FF01212120FFF70DFF01212220FFF737
:1008A00009FF1A212420FFF705FF28212520FFF743
:1008B00001FF07212620FFF7FDFE0E212020FFF774
:1008C000F9FE20460122082101F0B8F80120BDE818
:1008D000104000F0E9BC00BF00000258B4910008CD
:1008E000AF910008F0B514228BB00021404F0DEB02
:1008F0000200404D07F094FF3F4B38460721D3F8E4
:10090000E0200124002642F00402C3F8E020D3F8DE
:10091000E02002F004020092009AD3F8E02042F0B6
:100920008002C3F8E020D3F8E02002F080020192B8
:10093000019AD3F8E02042F00102C3F8E020D3F896
:10094000E02002F001020292029AD3F8E02042F085
:100950000202C3F8E020D3F8E02002F00202039282
:10096000039AD3F8E02042F00802C3F8E020012205
:10097000D3F8E03003F008030493049B01F05EF821
:10098000284600220C2101F059F84FF400524FF490
:10099000881305A938460794CDE9052300F05CFFCC
:1009A000072305A938460327CDE905340223CDE9FD
:1009B000073600F051FF042305A92846079608973B
:1009C000CDE9053400F048FF082305A92846CDE904
:1009D0000534CDE9074700F03FFF102305A928465D
:1009E0000794CDE9053600F037FF0BB0F0BD00BF2E
:1009F00000080258000002580044025800B59DB09B
:100A00004C22002109A807F00BFF2022002101A899
:100A100007F006FF022001F0A1FD00230093254B03
:100A20009A6942F440429A619A6902F44042009203
:100A3000214AD16A41F00101D162D26A02F0010279
:100A40000092009A9A699204FCD5012221204FF469
:100A500080334FF00C0C0F9214925022CDE9090311
:100A6000022309A8CDE91233CDE91523CDE91733C7
:100A70000023CDE919C31B9301F09CFD08B172B6A8
:100A8000FEE73F22032308210390CDE90123402301
:100A90004FF48062CDE90413042106930DEB0100AD
:100AA000CDE9072302F0B8F808B172B6FEE71DB031
:100AB0005DF804FB004802580004005800B5B1B0CE
:100AC000B822002102A807F0ABFE4FF0004301A8B6
:100AD00001934FF00053159302F0FAFA08B172B681
:100AE000FEE731B05DF804FBF0B589B0444B6A46CF
:100AF00003F1080516461868083353F8041C144619
:100B0000AB4203C42246F6D11868112299889B791A
:100B10003C4DA37120600DF10F00A180002107F072
:100B20007FFE394C00F080FB384FFFF767FFFFF77F
:100B3000C5FFFFF7D7FE06F0FDFD00F0DFF900F07E
:100B40006FF800F02DFA00F05FFAFFF745FEFFF7AF
:100B50008FFE06F087FC0021284603F031FF2B684A
:100B60004FF42F725A632378032BFDD8DFE803F08C
:100B70000213202A06F088FD0028F4D001234FF448
:100B80002F72237003683B602B6841F658305A631C
:100B900000F08AFBE7E706F077FD0028E3D00223A8
:100BA000026823701A4B1A6040F6C4122B68ECE7F7
:100BB00006F084FC0028D6D0164B02681A60032386
:100BC0002370D0E73B683046CDF80230104B1B68ED
:100BD000CDF806300F4B1B68CDF80A30FFF718FE32
:100BE000002202210C4800F029FFC82000F05CFB25
:100BF00001220221084800F021FF0023E0E700BFA6
:100C00008091000834020024980100249C010024F3
:100C1000A0010024A40100240008025872B6FEE7D7
:100C2000164A4FF4800310B5154CC4E90023002385
:100C300007222046C4E902324FF08062C4E906234D
:100C40004FF08042C4E90433C4E90833C4E90A33ED
:100C5000C4E90D23C4E90F33C4E91133C4E91333E4
:100C6000C4E9153303F0A2F808B1FFF7D7FF2268F3
:100C7000136843F00103136010BD00BF0030014052
:100C8000A801002410B5B6B004461422002102A821
:100C900007F0C6FDBC22002107A807F0C1FD2268AD
:100CA0001B4B9A4231D14FF4805307A807934FF45E
:100CB00080431E9302F00CFA08B1FFF7AFFF154B0B
:100CC00002A91548D3F8F02042F48052C3F8F0206E
:100CD000D3F8F02002F480520092009AD3F8E0207A
:100CE00042F00102C3F8E020E022D3F8E03003F044
:100CF00001030193019B0223CDE902230023CDE9E7
:100D000004330523069300F0A7FD36B010BD00BFE5
:100D1000003001400044025800000258074B82B0E6
:100D2000D3F8F42042F00202C3F8F420D3F8F430F0
:100D300003F002030193019B02B070470044025884
:100D4000FEE7FEE7FEE7FEE7FEE770477047704705
:100D500000F098BA014803F0B7BE00BF800200243B
:100D6000014803F0B1BE00BF10030024014801F0A8
:100D700057B800BFFC2C0024FFF7F8BFFFF7F6BF01
:100D80000B4A0346116810B509B90A491160106889
:100D900009490A4C0344091B8B4206D907F008FD98
:100DA0000C2303604FF0FF3010BD1360FCE700BF61
:100DB000300200243834002400000824000400001D
:100DC000254AD2F8883043F47003C2F88830234AA9
:100DD000136803F00F03062B05D8136823F00F03E5
:100DE00043F0070313601E4B1A6842F001021A60B9
:100DF00000221A611B4A19680A4018491A600A68D9
:100E0000120705D50A6822F00F0242F007020A60B5
:100E1000002215499A61DA611A6299621349D9620E
:100E2000134919635A639963DA6319645A64196838
:100E300021F4802119601A660E4B1B681B0C1B04E1
:100E4000B3F1005F03D20C4B0122C3F808210B4B16
:100E500043F2D2021A60704700ED00E00020005219
:100E6000004402587FEDF6EA000202020000FF0192
:100E7000800201010010005C00800051004000521F
:100E8000036882B0B3F1804F0CD1074BD3F8E82050
:100E900042F00102C3F8E820D3F8E83003F0010380
:100EA0000193019B02B070470044025810B586B010
:100EB00004461422002101A807F0B2FC2368B3F114
:100EC000804F15D10B4B01A90B48D3F8E02042F01D
:100ED0000102C3F8E0200222D3F8E03003F001035E
:100EE0000093009B0123CDE90132059300F0B4FC8F
:100EF00006B010BD004402580000025810B58EB074
:100F000010220021002403A807F08AFC1C2221469D
:100F100002940DEB0200CDE9004407F081FC1F486C
:100F2000EF234FF080428460C0E9002340F69F73B6
:100F3000C0E903348023836103F0B2FA08B1FFF7FC
:100F40006DFE4FF4805303A91448039303F0DAFBBA
:100F500008B1FFF763FE114803F0D2FA08B1FFF7BA
:100F60005DFE002469460D480094029403F02AFDBA
:100F700008B1FFF753FE6023002207A90748099430
:100F80000B94CDE9073403F031FB08B1FFF746FEBF
:100F90000248FFF78BFF0EB010BD00BF34020024E3
:100FA00008B517484FF46123164AC0E9002300230F
:100FB0000C22C0E902330361C0E90523C0E907330D
:100FC000C0E9093304F049FC08B1FFF727FE00210E
:100FD0000B4804F06FFD08B1FFF720FE4FF02061D1
:100FE000074804F08BFD08B1FFF718FE044804F031
:100FF00046FD18B1BDE80840FFF710BE08BD00BFB0
:10100000800200240044004008B516484FF41653EF
:10101000154AC0E9002300230C22C0E90233036112
:10102000C0E90523C0E90733C0E9093304F015FC22
:1010300008B1FFF7F3FD00210A4804F03BFD08B1B9
:10104000FFF7ECFD0021074804F058FD08B1FFF759
:10105000E5FD044804F013FD18B1BDE80840FFF7B2
:10106000DDBD08BD100300240048004010B5B8B035
:1010700004461422002104A807F0D2FBBC22002160
:1010800009A807F0CDFB23683A4A934238D10223DE
:1010900009A8099302F01CF808B1FFF7BFFD364B11
:1010A000602100243548D3F8E82042F40032C3F828
:1010B000E820D3F8E82002F400320092009AD3F836
:1010C000E02042F00802C3F8E020D3F8E03003F05B
:1010D00008030193019B0223CDE90413032304A910
:1010E000CDE906430723089300F0B6FB26202246ED
:1010F000214600F003F9262000F032F938B010BD87
:101100001F4A9342FAD1022309A8099301F0E0FF94
:1011100008B1FFF783FD184B002404A91948D3F840
:10112000E82042F48022C3F8E820D3F8E82002F453
:1011300080220292029AD3F8E02042F00202C3F821
:10114000E0204FF44062D3F8E03003F00203039351
:10115000039B0223CDE904230723CDE9064408932A
:1011600000F07AFB27202246214600F0C7F827200E
:10117000C2E700BF0044004000440258000C02587F
:101180000048004000040258DFF834D0FFF718FE92
:101190000C480D490D4A002302E0D458C4500433D2
:1011A000C4188C42F9D30A4A0A4C002301E01360A8
:1011B0000432A242FBD307F001FBFFF795FC704716
:1011C00000000824000000247C010024B41A010857
:1011D0007C01002438340024FEE7000038B50F4BB2
:1011E0000546187808B9012038BD4FF47A730C4AC7
:1011F000B3FBF0F31068B0FBF3F000F0BFF8044667
:101200000028F0D10F2DEED8024629464FF0FF30CE
:1012100000F074F8034B20461D60E5E70800002449
:10122000000000240C00002410B5032000F054F846
:1012300001F052FC0F49104A8B69C3F30323D35CBE
:1012400003F01F03D8408B6903F00F03D35C0B4AF4
:1012500003F01F0320FA03F31360094B18600F20FB
:10126000FFF7BCFF044618B9FFF758FD204610BD34
:101270000124FBE700440258B9910008040000244F
:1012800000000024034A044B11681B780B441360D0
:10129000704700BFA003002408000024014B186819
:1012A000704700BFA003002438B50446FFF7F6FFDF
:1012B0000546631C1EBF044B1B78E418FFF7EEFFC6
:1012C000431BA342FAD338BD08000024014B186821
:1012D000000C70470010005C07490302CA6803F461
:1012E000E06322F4E0621204120C134343F0BF6384
:1012F00043F40033CB60704700ED00E0164B30B58F
:10130000DC68C4F30224C4F10705231D042D28BFA3
:101310000425062B4FF0FF338CBF033C002403FA57
:1013200005F5002803FA04F321EA050122EA030285
:1013300001FA04F141EA02034FEA0313DBB206DBD0
:1013400000F1604000F5614080F8003330BD00F0EE
:101350000F00024A1354F9E700ED00E014ED00E03D
:10136000002808DB0123420900F01F0003FA00F007
:10137000014B43F82200704700E100E00138B0F172
:10138000807F0BD24FF0E023054AF0215861002006
:1013900082F82310072298611A6170470120704774
:1013A00000ED00E0F8B50546FFF778FF074645B1C8
:1013B00095F83530022B06D080236B65002385F825
:1013C0003430012053E12C68A94EB4424AD0A94BD5
:1013D0009C4247D018339C4244D018339C4241D0A1
:1013E00018339C423ED018339C423BD018339C4269
:1013F00038D018339C4235D003F556739C4231D017
:1014000018339C422ED018339C422BD018339C4268
:1014100028D018339C4225D018339C4222D0183350
:101420009C421FD018339C421CD0236823F00E032B
:101430002360914B9C421FD014339C421CD0143328
:101440009C4219D014339C4216D014339C4213D0C2
:1014500014339C4210D014339C420DD014339C4260
:1014600012D109E02368B44223F01E0323606369AC
:1014700023F08003636176D12A6EB442136823F4AB
:101480008073136040F0AB80236823F00103236076
:101490002368DB0700F1CD802B68EA6DB342A86DAD
:1014A00002F01F0200F0D18072498B4200F0CD8023
:1014B00018318B4200F0C98018318B4200F0C58092
:1014C00018318B4200F0C18018318B4200F0BD8092
:1014D00018318B4200F0B98018318B4200F0B58092
:1014E00001F556718B4200F0B08018318B4200F04C
:1014F000AC8018318B4200F0A88018318B4200F08C
:10150000A48018318B4200F0A08018318B4200F08B
:101510009C8018318B4200F0988018318B4200F08B
:101520009480012101FA02F24260534A934200F092
:1015300092801432934200F08E801432934200F075
:101540008A801432934200F086801432934200F075
:101550008280143293427ED0143293427BD0143274
:1015600093427ED177E0434B9C4285D018339C4216
:1015700082D018339C423FF47FAF18339C423FF433
:101580007BAF18339C423FF477AF18339C423FF453
:1015900073AF18339C423FF46FAF03F556739C4210
:1015A0003FF46AAF18339C423FF466AF18339C4255
:1015B0003FF462AF18339C423FF45EAF18339C4255
:1015C0003FF45AAF18339C423FF456AF18339C4255
:1015D0003FF452AF18339C423FF44EAF29E7254BFE
:1015E0009C423FF451AF18339C423FF44DAF183347
:1015F0009C423FF449AF18339C423FF445AF183347
:101600009C423FF441AF18339C423FF43DAF183346
:101610009C423FF439AF03F556739C423FF434AF1C
:1016200018339C423FF430AF18339C423FF42CAF48
:101630002AE7FFF733FEC01B05287FF629AF2023DA
:101640006B65032385F83530B8E63F21B34201FAD4
:1016500002F2826012D1D5E919325A60EB6E002B8A
:101660003BD10123002085F8353085F83400F8BDE2
:101670001000024028000240085402581B4A9342BE
:10168000E9D018329342E6D018329342E3D01832B0
:101690009342E0D018329342DDD018329342DAD030
:1016A00018329342D7D002F556729342D3D01832F3
:1016B0009342D0D018329342CDD018329342CAD040
:1016C00018329342C7D018329342C4D01832934292
:1016D000C1D018329342BED027E71A6822F4807234
:1016E0001A60D5E91C325A60BBE700BF28000240EF
:1016F00010B528B190F83530022B03D08023436514
:1017000001207FE00368504A934252D04F498B42F8
:101710004FD018318B424CD018318B4249D0183100
:101720008B4246D018318B4243D018318B4240D087
:1017300018318B423DD001F556718B4239D01831AA
:101740008B4236D018318B4233D018318B4230D097
:1017500018318B422DD018318B422AD018318B4250
:1017600027D018318B4224D01A6822F00E021A605A
:101770001A6822F001021A60354A934243D1026E80
:10178000136823F480731360D0E9161303F01F026B
:10179000012393404B60D0E919325A60C36E002B8D
:1017A00046D01A6822F480721A60D0E91C325A605E
:1017B0003EE00421934280F835101ED0234A934224
:1017C0001BD01832934218D01832934215D01832D9
:1017D000934212D0183293420FD0183293420CD059
:1017E0001832934209D002F55672934205D018324E
:1017F000934202D018329342FFD01A6822F00102BD
:101800001A60002010BD134A9342B8D0143293429C
:10181000B5D014329342B2D014329342AFD01432C6
:101820009342ACD014329342A9D014329342A6D042
:101830000123002480F83530036D80F834400BB16B
:101840009847DEE71846DDE7100002402800024016
:10185000085402581C5402582DE9F74F0023DFF8B2
:10186000CC914FF0B0440A6832FA03F502D103B0CC
:10187000BDE8F08F4FF0010E0EFA03FE1EEA0202E1
:1018800000F0BD804E684FEA43084FF0030C06F0AD
:1018900003050CFA08FC6F1E6FEA0C0C012F34D8FC
:1018A000876807EA0C0ACF6807FA08F747EA0A07C9
:1018B0008760476827EA0E0EC6F300179F4047EA85
:1018C0000E074760C768022D07EA0C0E8F6807FAFB
:1018D00008F747EA0E07C76019D14FEAD30A03F0A9
:1018E000070B4FF00F0E00EB8A0A4FEA8B0BDAF86A
:1018F00020700EFA0BFE27EA0E0E0F6907FA0BF79F
:1019000047EA0E07CAF8207001E0032DDAD1076814
:1019100005FA08F516F4403F07EA0C0747EA050701
:1019200007606CD0D9F8F45023F0030703F0030CE0
:101930004FF00F0E45F0020507F1B0474FEA8C0C4F
:10194000C9F8F45007F58067D9F8F45005F002059E
:101950000195019D0EFA0CF5D7F8088028EA050ECE
:10196000314DA8424DD005F58065A8424BD005F514
:101970008065A84249D005F58065A84247D005F5A5
:101980008065A84245D005F58065A84243D005F59D
:101990008065A84241D005F58065A8423FD005F595
:1019A0008065A8423DD005F58065A8420CBF092599
:1019B0000A2505FA0CF516F4801F45EA0E05BD60F0
:1019C0006FEA020725680CBF3D40154316F4001F5F
:1019D000256065680CBF3D40154316F4003F656007
:1019E000D4F884500CBF3D401543F603C4F884502E
:1019F000D4F8805054BF3D401543C4F880500133A3
:101A000031E70025D5E70125D3E70225D1E70325F6
:101A1000CFE70425CDE70525CBE70625C9E7072550
:101A2000C7E70825C5E700BF000002580044025878
:101A30000369194214BF0120002070470AB1816177
:101A400070470904FBE7F0B504468BB060B390F82B
:101A5000BD34056803F0FF021BB980F8BC2405F013
:101A6000CFFF03236E46271D84F8BD34EB6B25465C
:101A700013F4807355F8100B08BF236104F048F984
:101A80000FCD0FC60FCD0FC695E80300254686E89B
:101A9000030097E80E0055F8100B04F079F806469D
:101AA00020B1022384F8BD34012552E001462068AC
:101AB00004F034F93046D4F804C024264FF0010E67
:101AC0000146C2B2013094451BD800232426194692
:101AD000D8B20133844522D86E460FCD0FC60FCD44
:101AE0000FC695E8030086E8030097E80E0020681B
:101AF00004F094F901230546F0B1022284F8BD24D4
:101B0000D2E706FB024383F83DE083F83C20A3F8CC
:101B1000442083F840105965C3E91211D1E706FB50
:101B2000004282F87D1282F87C0282F88012C2F8AC
:101B30009412C2E9A211CBE784F8380084F8BD34CE
:101B4000636A012B02D1204600F0F4FC206804F007
:101B500007FD28460BB0F0BD10B50446006894F8A8
:101B6000BC34012B15D0012384F8BC34A36A012BAB
:101B700006D1A369012B03D0836B43F480338363C5
:101B800004F0C0F8206804F0DDFC002084F8BC04F8
:101B900010BD0220FCE710B590F8BC240446012AD1
:101BA0000BD0012280F8381080F8BC24006804F0C3
:101BB000B9FC002084F8BC0410BD0220FCE770B51D
:101BC00001F00F0611F0800F05464FF0240006EBE0
:101BD000C6044FEA84041FD004F13C0100FB065008
:101BE0000124294480F83D40CA604A780E700B7188
:101BF00002B10E81022B04BF00234B7195F8BC3457
:101C0000012B12D00123286885F8BC3404F0C7F9F1
:101C1000002085F8BC0470BD04F51F7100FB065060
:101C20000024294480F87D42DEE70220F3E710B566
:101C3000044601F00F0011F0800F4FF0240200EB7A
:101C4000C0034FEA830316D003F13C0102FB0042BC
:101C50000123214482F83D30087094F8BC34012BF4
:101C600012D00123206884F8BC3404F0D7F9002096
:101C700084F8BC0410BD03F51F7102FB0042002371
:101C8000214482F87D32E7E70220F3E738B501F01E
:101C90000F05242404FB050104FB050401F51F7155
:101CA000C4F894320023C4F88C22C4F89C3284F81F
:101CB0007D3284F87C5203690068012B08BFC4F8A8
:101CC0009022DAB21DB904F0FFF9002038BD04F00B
:101CD000CBFAFAE701F00F01242303FB0100D0F84F
:101CE0009C02704738B501F00F05242404FB050160
:101CF00004FB05043C3163650023E264E3650123D2
:101D000084F83C5084F83D3003690068012B08BF1B
:101D10002265DAB21DB904F0D7F9002038BD04F00D
:101D2000A3FAFAE738B501F00F05436804469D426F
:101D30002CD811F0800F4FF024001ED000FB05417D
:101D4000012300FB05423C3182F83D3001230D7038
:101D50008B7094F8BC249A421AD0206884F8BC3462
:101D600004F08CFB2DB904F2C442217C206804F0FD
:101D700049FC002084F8BC0438BD00FB01431A462E
:101D800003F51F71002382F87D32DFE70120F3E7BE
:101D90000220F1E738B501F00F02436804469A4289
:101DA0002AD802EBC20311F0800F4FF024004FEA53
:101DB000830318D003F13C0100FB024001232144BE
:101DC00080F83D3000250A708D7094F8BC34012BEA
:101DD00014D00123206884F8BC3404F07AFB284630
:101DE00084F8BC5438BD03F51F7100FB024000238A
:101DF000214480F87D32E5E70120F3E70220F1E796
:101E000001F00F030A0603EBC3034FEA83034CBF41
:101E100003F13C0103F51F710144006804F0CEB9E1
:101E20002DE9F04F066889B00446304604F0D5FB32
:101E30000390002840F06F81206804F09FFB002889
:101E400000F06981D6F8083806F500652068C3F30C
:101E50000D23C4F8FC3404F091FB810704D52268FB
:101E6000536903F002035361206804F087FBC20644
:101E70002CD52268936923F010039361D6F8208053
:101E8000C8F3434308F00F07022B40F0478147F6A1
:101E9000F07318EA030F14D02423C8F30A1930464C
:101EA00003FB07474A46D7F88C1204F0C7FAD7F865
:101EB0008C324B44C7F88C32D7F89C324B44C7F86D
:101EC0009C322268936943F010039361206804F008
:101ED00055FB030300F13481206804F04FFB4703F6
:101EE0000CD5274606F5106A4FF00009206804F06B
:101EF00051FB0490049B002B40F0EA81206804F021
:101F00003DFB002813DA6B6823F001036B6094F843
:101F1000F434012B40F085820021204684F8F4142B
:101F200000F01BFB2268536903F0004353612068F3
:101F300004F024FB00050AD5AB68D90702D520467A
:101F400005F0F4FD2268536903F4006353612068CF
:101F500004F014FB020114D523685A6902F00062F0
:101F60005A6194F8F424002A40F05F82012120464F
:101F700084F8F4145B6DC3F38303C4F8F83400F001
:101F8000ECFA206804F0FAFAC30433D56B68102128
:101F9000206823F001036B6003F0EEFE06F510638A
:101FA0004FF67F3162680398824200F24782EB6904
:101FB00043F00113EB61236B002B00F05982D5F83D
:101FC000843043F00B03C5F884306B6C43F00B0393
:101FD0006B64D6F8003804F2C442217C23F4FE631B
:101FE0002068C6F8003804F00DFB2268536903F43A
:101FF00080535361206804F0C1FA870416D5206825
:1020000004F0EFFA206803F0BFFF2768E06000F0FB
:1020100029FF227B0146384603F004FE204605F0E6
:1020200072FD2268536903F400535361206804F081
:10203000A5FA000707D5204605F061FD226853691F
:1020400003F008035361206804F098FA010600F1D8
:102050001A82206804F092FAC2020CD5A04606F556
:10206000126901276368BB4200F226822268536925
:1020700003F480135361206804F080FA83022DD5A5
:10208000D4F804E0234606F5326001218E4520D9BC
:1020900093F8A4C20268BCF1010F40F02382002A29
:1020A00080F22082D4F8FC7402F4803207F0010739
:1020B000BA4240F0178283F8A3C2B26942F08002AC
:1020C000B2617269170600F10D826B6843F4007308
:1020D0006B602268536903F400135361206804F0B5
:1020E0004DFA410007D5204605F044FD22685369AA
:1020F00003F080435361206804F040FA42070AD598
:1021000023685D686B0702D5204605F037FD22681D
:1021100053682B43536009B0BDE8F08F062B7FF462
:10212000D0AE082204F2C4413046C8F30A1804F0C5
:1021300085F9242303FB0747D7F89C324344BEE6C6
:1021400006F53068A2460027206804F01BFA0490C8
:10215000049B002B3FF4C0AE049BD80776D55FFAF2
:1021600087FB2068594604F01DFA10F0010F8146E4
:102170001CD0012320682169C8F8083000F53063BD
:102180000129D0F840C003EB47139A6840F08B80D8
:10219000110707D5A7498C4508D9100406D54FF477
:1021A000004202E091065AD520229A6019F0080FE9
:1021B00021D008239F48C8F8083023681A6C03F51B
:1021C0003063824203EB4713996804D9090402D5AE
:1021D0004FF4004199602046059205F079FC954B3B
:1021E000059A9A4207D92169012904D104F2C4420F
:1021F000206804F007FA19F0100F02D01023C8F875
:10220000083019F0020F14D073691A0603D56B68F1
:1022100043F480636B609AF87F32012B06D1002370
:10222000594620468AF87F3205F09CFC0223C8F804
:10223000083019F0200F02D02023C8F8083019F414
:10224000005F03D04FF40053C8F80830049B0137F7
:1022500008F120080AF1240A5B08049378E712F0D9
:10226000280FA3D173498C4501D9120497D41A6958
:10227000DAF89832C2F312029B1ACAF89C326FB98C
:10228000D4F894222AB904F2C442012104F0BAF924
:1022900004E0D4F88C221344C4F88C32594620460A
:1022A00005F01CFC82E764498C4507D111043FF519
:1022B00076AF9006F2D520229A60EFE7002FEDD19D
:1022C000D4F89432002BE9D104F2C4423946DDE758
:1022D000049BDB0740F19C805FFA89FB206859462C
:1022E00004F069F910F0010F804620D0012109F0B7
:1022F0000F026B6B01FA02F223EA02036B630B46D7
:10230000CAF80810216999420DD1D7E91223134464
:10231000FB64B9F1000F06D1636D23B904F2C44226
:10232000206804F06FF95946204605F0E0FB18F0EC
:10233000080F02D00823CAF8083018F0100F02D096
:102340001023CAF8083018F0400F02D04023CAF812
:10235000083018F0020F12D04946304603F00CFD49
:1023600097F83F30012B07D14FF000035946204624
:1023700087F83F3005F0FAFB0223CAF8083018F05E
:10238000800F45D0FA6D7B6D9A4241D89B1ABA6C8A
:1023900021689342059128BF134603339B08069397
:1023A00001F5106303EB49130793079B069899699E
:1023B000FA6D89B27B6D814228D39A420CD3059B7A
:1023C00009F00F010120D3F8342800FA01F122EAC4
:1023D0000102C3F834281BE0A3EB0208BB6C5A4689
:1023E0000598984528BF984608F103039B08069373
:1023F000237C00931FFA88F3F96C03F021FFFB6C38
:102400004344FB64FB6D4344FB65CEE79A42D6D25E
:10241000049B09F1010924370AF1200A5B0804939F
:1024200068E5204605F09AFB7CE5204605F07EFB3A
:10243000A7E500BF0A30544F0A31544F996020334A
:1024400053F8202C22F4001243F8202CC3F8E81192
:10245000D3F8E02122F40012C3F8E021D3F8E02100
:1024600042F00062C3F8E021039A0132039299E539
:102470006B6943F4005343F02B036B612B6943F00A
:102480000B032B61A5E5B369012704F27F284FF008
:10249000240923F08003B3616368BB427FF6D9ADA2
:1024A00009FB07F318F80330012B03D1F9B22046DA
:1024B000FFF7A6FC0137EFE798F86430D9F8002061
:1024C000012B09D1002A07DA67F07F01204688F83E
:1024D0006330C9B2FFF794FC013708F1240809F111
:1024E0002009BFE5013124332030CFE50068120414
:1024F00070B5446A19B922438262002070BD836AB4
:102500004D1E04EB134400235E1CDBB29D4205D834
:102510003F31224300EB81004260EEE7403300EBA5
:1025200083035B6804EB13443346EDE70368002044
:102530005962704702680021012380F8F414C0F842
:1025400000350846936943F000639361536D43F08F
:10255000805343F0030353657047704738B5104C00
:10256000E36813F0040FE36805D103F00703181ABA
:1025700018BF012038BD23F007031843E060FEF7C1
:102580008DFE054663689B0401D50020F2E7FEF747
:1025900085FE401BB0F57A7FF4D90120EAE700BF41
:1025A00000480258024AD36843F08073D3607047F2
:1025B00000480258F8B5044608B901208BE00368CA
:1025C000DF075ED423689E0700F1AF802368DA0638
:1025D00027D59E4B1A69996A02F03802082A07D05B
:1025E000182A40F0078101F00302012A40F002811D
:1025F0001B68DB0502D5E369802BDED1FEF766FEA2
:1026000041F20303216A9842904B00F2EC805A6831
:10261000202922F0F8420CBF42F0804242EA816257
:102620005A602368190700F1278123689A0600F190
:10263000488123685D071ED5854D2B6843F4807360
:102640002B60FEF72BFE06462B68DA0540F15E8113
:10265000A3687E4D012B40F060812B6F43F0010396
:102660002B6741F28837FEF719FE784E0546336F27
:102670009B0740F17881606A002840F07B81002050
:1026800029E0724B1A69996A02F03802102A05D0C3
:10269000182A0AD101F00302022A06D11B689D0301
:1026A00090D56368002B8DD187E76268B2F5803FD3
:1026B00012D11A6842F480321A60FEF7EFFD634EC1
:1026C0000546336898033FF57DAFFEF7E7FD401BF5
:1026D0006428F6D90320F8BD5C4D2B689AB923F421
:1026E00080332B602B6823F480232B60FEF7D6FD0C
:1026F00006462B6899037FF565AFFEF7CFFD801B7B
:102700006428F6D9E6E7B2F5A02F07D143F4802379
:102710002B602B6843F480332B60CEE723F48033A7
:102720002B602B6823F48023F6E7484BE1681A6995
:10273000986A12F0380203D0182A2BD1820729D1C7
:102740001B685B0702D500293FF437AF3F4D2A686D
:1027500022F019020A432A60FEF7A0FD06462B6804
:102760005F0711D5FEF7B2FD41F2030322699842DB
:102770006B6822D823F47C33402A0CBF43F4003327
:1027800043EA02336B6021E7FEF788FD801B0228D5
:10279000E5D99FE71A68A9B122F019022B4D0A4327
:1027A0001A60FEF77BFD06462B685807DAD4FEF761
:1027B00075FD801B0228F7D98CE723F0FE4343EA1E
:1027C0000263DFE722F00102204E1A60FEF766FD89
:1027D0000546336859077FF5F9AEFEF75FFD401BEC
:1027E0000228F6D976E7DA6822F07C5242EA0162E2
:1027F000DA6016E7E2696AB31A68144D42F08002A3
:102800001A60FEF74BFD06462B68DF0511D5FEF773
:102810005DFD41F20303226A984210D86B68202ABA
:1028200023F0F8430CBF43F0804343EA82636B60BC
:10283000F7E6FEF733FD801B0228E5D94AE7EB688F
:1028400023F07C5343EA0263EB60EAE6004402585B
:10285000004802581A689F4E22F080021A60FEF764
:102860001DFD05463368D8057FF5DBAEFEF716FD86
:10287000401B0228F6D92DE76369964D83B16B6F33
:1028800043F001036B67FEF709FD06466B6F9B077C
:102890003FF5CBAEFEF702FD801B0228F6D919E703
:1028A0006B6F23F001036B67FEF7F8FC06466B6F56
:1028B0009F077FF5BAAEFEF7F1FC801B0228F6D920
:1028C00008E7A369834D83B12B6843F480532B60E1
:1028D000FEF7E4FC06462B6898043FF5AAAEFEF727
:1028E000DDFC801B0228F6D9F4E62B6823F4805324
:1028F0002B60FEF7D3FC06462B6899047FF599AE52
:10290000FEF7CCFC801B0228F6D9E3E6FEF7C6FCF6
:10291000801B64287FF698AEDCE6B3B92B6F41F2DA
:10292000883723F001032B672B6F23F004032B67F9
:10293000FEF7B4FC06462B6F98077FF59CAEFEF7BA
:10294000ADFC801BB842F6D9C4E6052B2B6F03D132
:1029500043F004032B6780E623F001032B672B6F02
:1029600023F004037CE6FEF799FC401BB8427FF697
:102970007EAEAFE6574D2B6903F03803182B7AD0A3
:102980002B68022823F080732B6067D1FEF786FC4A
:1029900006462B6899015BD4AB6AA26A23F47C7368
:1029A00023F003031343E26A43EA0213AB62636B4F
:1029B000A26B013B013A5B0212049BB202F4FE02DD
:1029C0001343226B013AC2F308021343E26B013A4C
:1029D000120602F0FE4213432B63EB6A23F001035D
:1029E000EB626B6BA26C23F47F4323F0F80343EAA2
:1029F000C2036B63EB6A226C23F00C031343EB629C
:102A0000EB6A626C23F002031343EB62EB6A43F45C
:102A10008033EB62EB6A43F40033EB62EB6A43F41E
:102A20008023EB62EB6A43F00103EB622B6843F017
:102A300080732B60FEF732FC264D04462B689A010A
:102A40003FF51DAEFEF72AFC001B0228F6D941E631
:102A5000FEF724FC801B02289BD93BE6FEF71EFCF8
:102A600004462B689B017FF50AAEFEF717FC001B9E
:102A70000228F6D92EE60128AA6A2B6B3FF42BAE6A
:102A800002F00301A06A81427FF497ADC2F3051200
:102A9000E16A8A427FF491AD226BC3F30801013AE7
:102AA00091427FF48AAD626BC3F34621013A9142B1
:102AB0007FF483ADA26BC3F30641013A91427FF4E8
:102AC0007CADE06BC3F306630138181A18BF012010
:102AD00001E600BF00440258484B1A6902F0380270
:102AE000102A30B500F08680182A0CD0002A40F059
:102AF00083801A68424812F0200F03D01B68C3F38A
:102B0000C103D84030BD996A9D6ADC6A15F47C7FA8
:102B1000C5F305105A6BF5D0C2F3CC0204F00104E2
:102B200007EE900A01F003016243B7EE006AF8EE87
:102B3000E76A012907EE902AFAEEE97A4CD00229D9
:102B40003CD0002948D11A68920627D519682C4A2A
:102B5000C1F3C1011B6BCA40C3F3080307EE102A7F
:102B6000F8EEC75A85EEA67A06EE903AF8EEE66AD7
:102B700076EEA77A77EE867A204B67EE877A1B6B24
:102B8000C3F34623013307EE103AF8EEC76A87EE27
:102B9000A67AFCEEC77A17EE900AB3E71B6BC3F375
:102BA000080307EE103AB8EEC77A77EE277A77EE89
:102BB000867A9FED146A86EE267ADDE71B6BC3F3F7
:102BC000080307EE103AB8EEC77A77EE277A77EE69
:102BD000867A9FED0D6AEEE71B6BC3F3080307EEE1
:102BE000103AB8EEC77A77EE277A77EE867A9FEDBD
:102BF000076AE0E7064885E7064883E7004402588D
:102C00000090D0030024744C001B374B0024744AFE
:102C1000001BB70000093D002DE9F0410D460446B8
:102C200010B90120BDE8F081884A136803F00F0352
:102C30008B42C0F0938023685F0700F19B801E07E2
:102C40000BD583496669C86900F07000864204D9D3
:102C5000CA6922F070023243CA61D8060BD57C499A
:102C6000A669C86900F4E060864204D9CA6922F402
:102C7000E0623243CA6199060BD57549E669086A74
:102C800000F07000864204D90A6A22F070023243D2
:102C90000A629A070BD56E49E668886900F00F0052
:102CA000864204D98A6922F00F0232438A61DF0723
:102CB0006ED423689E0700F1A18064490A6802F07F
:102CC0000F02AA4200F2A880580700F1B18019074C
:102CD0000BD55F496569C86900F07000854204D270
:102CE000CA6922F070022A43CA61DA060BD5584934
:102CF000A569C86900F4E060854204D2CA6922F47B
:102D0000E0622A43CA619B060BD5514AE069116A09
:102D100001F07001884204D2136A23F07003034368
:102D20001362FFF7D9FE4A494A4A8B69C3F303236A
:102D3000D35C03F01F03D8408B6903F00F03D35C0F
:102D4000454A03F01F0320FA03F31360434B186056
:102D5000434BBDE8F0411868FEF740BA136823F012
:102D60000F030B431360136803F00F038B427FF4D0
:102D700058AF60E736492669886900F070008642DE
:102D80007FF65DAF8A6922F0700232438A6156E7AE
:102D90002F4BA1689A6922F470620A439A616268B3
:102DA0001B68022A1DD113F4003F3FF43AAF284EAE
:102DB00041F28838336923F0070313433361FEF788
:102DC0006DFA07463369626803F03803B3EBC20F4C
:102DD0003FF46FAFFEF762FAC01B4045F2D9032003
:102DE00020E7032A02D113F0007FDEE7012A02D197
:102DF00013F4807FD9E713F0040FD6E71449E6688F
:102E0000886900F00F008642BFF457AF8A6922F04C
:102E10000F0232438A6150E70A6822F00F022A4308
:102E20000A600A6802F00F02AA427FF4FAAE4BE78A
:102E300007492569886900F070008542BFF447AFF3
:102E40008A6922F070022A438A6140E7002000521A
:102E500000440258B9910008040000240000002436
:102E60000C00002410B50C4CFFF736FE0B49A3698B
:102E7000C3F30323CA5CA36902F01F0203F00F032C
:102E800020FA02F2CB5C03F01F0322FA03F0044B9A
:102E90001860044B1A6010BD00440258B991000834
:102EA000040000240000002408B5FFF7DBFF054BF9
:102EB000054ADB69C3F30213D35C03F01F03D84058
:102EC00008BD00BF00440258B991000808B5FFF7DB
:102ED000C9FF054B054ADB69C3F30223D35C03F04A
:102EE0001F03D84008BD00BF00440258B991000834
:102EF000F8B53A4C06460D46A36A03F00303032BCC
:102F000069D0236823F080632360FEF7C7F9074682
:102F100023681A014BD4A36A326823F47C3343EA52
:102F20000233A362B368F268013B013A5B02120408
:102F30009BB202F4FE0213437268013AC2F3080224
:102F400013433269013A120602F0FE421343A363AF
:102F5000E36A726923F0C0031343E362E36AB26970
:102F600023F020031343E362E36A23F01003E362D8
:102F7000E36BF26923F47F4323F0F80343EAC203CF
:102F8000E363E36A43F01003E362E36AB5B943F431
:102F90000023E362114C236843F080632360FEF753
:102FA0007DF9054623681B010FD5002005E0FEF7DB
:102FB00075F9C01B0228ABD90320F8BD012D0CBF49
:102FC00043F4801343F40013E3E7FEF767F9401B73
:102FD0000228E7D9F0E70120EFE700BF00440258DC
:102FE000F8B53A4C06460D46A36A03F00303032BDB
:102FF00069D0236823F080532360FEF74FF907461A
:1030000023689A004BD4A36A326823F07C7343EAA6
:103010000253A362B368F268013B013A5B021204F7
:103020009BB202F4FE0213437268013AC2F3080233
:1030300013433269013A120602F0FE42134323643D
:10304000E36A726923F440631343E362E36AB2699B
:1030500023F400731343E362E36A23F48073E362AF
:10306000636CF26923F47F4323F0F80343EAC2035D
:103070006364E36A43F48073E362E36AB5B943F4DB
:103080008003E362114C236843F080532360FEF712
:1030900005F9054623689B000FD5002005E0FEF7E3
:1030A000FDF8C01B0228ABD90320F8BD012D0CBFD1
:1030B00043F4000343F08073E3E7FEF7EFF8401BAF
:1030C0000228E7D9F0E70120EFE700BF00440258EB
:1030D0002DE9F8430668054616F0006609D0436EF0
:1030E000B3F5001F2ED013D8F3B1B3F5801F21D054
:1030F00001262B68DC0540F1EA806B6D042B00F2A1
:10310000E580DFE813F024002B00DD002900290012
:10311000B3F5401FECD1A64A0026696E136D23F467
:1031200040130B431365E4E7A14AD36A43F4003329
:10313000D362F0E702210430FFF7DAFE06460028EA
:10314000D7D1E8E702212430FFF74AFFF6E7984A93
:10315000D36A43F40033D362344604E00021281DCF
:10316000FFF7C6FE0446002C40F0B380904A696D1C
:10317000136D23F007030B4313652B6898050DD5DA
:10318000AB6D802B00F0C28000F2A580002B00F018
:10319000B180402B00F0B480012634462B685905DD
:1031A00010D5D5F8A430B3F5800F00F0D48000F22C
:1031B000B580002B00F0C380B3F5001F00F0C58080
:1031C000012634462B681A0510D5D5F8A830B3F17E
:1031D000007F00F0E58000F2C680002B00F0D48074
:1031E000B3F1807F00F0D680012634462B689B0126
:1031F0000DD5AB6C202B00F0EF8000F2DB80002BB4
:1032000000F0DB80102B00F0E180012634462B68B3
:10321000DF040FD5EB6DB3F5005F00F0018100F224
:10322000E380002B00F0F080B3F5805F00F0F280C7
:10323000012634462B6898040FD52B6EB3F5003F5A
:1032400000F00E8100F2F480002B00F0FA80B3F55C
:10325000803F00F0FF80012634462B68590410D5CA
:10326000D5F8AC30B3F1005F00F01B8100F20081B3
:10327000002B00F00681B3F1805F00F00C81012685
:1032800034462B681A040DD5EB6EB3F1805F00F065
:103290001081B3F1005F00F01A81002B00F00E8165
:1032A000012634462B68DB0140F127816B6C032B30
:1032B00000F26781DFE813F0180113015F011801C4
:1032C000002105F12400FFF78BFE4BE70126344671
:1032D00053E7264651E7C02B03D0B3F5807F7FF438
:1032E0005BAFCCB9324AA96D136D23F4E0730B4385
:1032F000136553E72E4AD36A43F40033D362F0E7F1
:103300000021281DFFF7F4FD0446EAE7002105F13E
:103310002400FFF765FEF7E726463FE7B3F5C00F49
:1033200003D0B3F5000F7FF44BAFD4B9204AD5F8E2
:10333000A410936D23F460030B43936542E71C4A8A
:10334000D36A43F40033D362EFE70021281DFFF76F
:10335000CFFD0446E9E7002105F12400FFF740FE18
:10336000F7E726462EE7B3F1407F03D0B3F1806F35
:103370007FF43AAFD4B90E4AD5F8A810936D23F074
:10338000E0630B43936531E7094AD36A43F40033A2
:10339000D362EFE70021281DFFF7AAFD0446E9E705
:1033A000002105F12400FFF71BFEF7E726461DE785
:1033B00000440258302B7FF428AF9CB99D4AA96C79
:1033C000D36C23F030030B43D36420E7994AD36ACC
:1033D00043F40033D362F0E70221281DFFF788FD94
:1033E0000446EAE7264612E7B3F5405F03D0B3F59B
:1033F000804F7FF41DAFCCB98E4AE96D136D23F475
:10340000E0430B43136515E78A4AD36A43F400335C
:10341000D362F0E70021281DFFF76AFD0446EAE7C2
:10342000002105F12400FFF7DBFDF7E7264601E761
:1034300023F48032B2F5802F03D0B3F5403F7FF400
:103440000AAF9CB97B4A296E136D23F4E0230B432A
:10345000136502E70121281DFFF74AFD0446F0E746
:10346000012105F12400FFF7BBFDF7E72646F4E64E
:1034700023F08052B2F1804F03D0B3F1405F7FF46C
:10348000FEAEA4B96B4AD5F8AC10936D23F0E043BF
:103490000B439365F5E60121281DFFF729FD04463E
:1034A000EFE7012105F12400FFF79AFDF7E7264633
:1034B000E7E6604AD36A43F40033D3626CB95D4AED
:1034C000E96E136D23F040530B431365EAE60121C7
:1034D000281DFFF70DFD0446F0E72646E2E6554AB3
:1034E000D36A43F40033D362002C4DD1514A696C46
:1034F000D36C23F003030B43D3642B685F024DD5D9
:103500004D4F3B6843F480733B60FDF7C7FE804638
:103510003B68D8053AD5002C6CD1464BD5F8B000A5
:103520001A6F424012F4407F0BD01A6F196F22F4C9
:10353000407241F480311967196F21F480311967A5
:103540001A67B0F5807F40D0D5F8B030394903F420
:103550004072B2F5407F49D10869384A20F47C5066
:1035600002EA131202430A61C3F30B03314A116FDB
:103570000B43136712E00221281DFFF7B9FC044634
:10358000B2E701263446B8E72646B6E7FDF786FEE1
:10359000A0EB08006428BBD9032634462B68DA0761
:1035A00008D5AB6F102B3CD026D85BB3082B32D09C
:1035B000012634462B689B074FD56B6F052B62D8CD
:1035C000DFE803F0433E5B434343FDF767FEDFF86C
:1035D0006480074641F28839D8F870309907B3D42F
:1035E000FDF75CFEC01B4845F6D9D5E70A6922F411
:1035F0007C52B8E72646D1E723F00802202A01D002
:10360000182BD5D19CB90B4AA96F536D23F0380301
:103610000B435365CEE70121281DFFF769FC0446E3
:10362000F0E7012105F12400FFF7DAFCF7E7264671
:10363000C0E700BF0044025800480258CFFFFF0017
:103640000121281DFFF754FC0446FCB9A64A696F06
:10365000536D23F007030B4353652B685F0727D592
:10366000D5F89030052B00F23981DFE813F0160011
:1036700011003101160016001600012105F1240089
:10368000FFF7AEFCE0E701263446E6E72646E4E72E
:103690000121281DFFF72CFC0446002C40F021815D
:1036A000914AD5F89010936D23F007030B4393656F
:1036B0002B68980610D5D5F88C30B3F1005F00F078
:1036C0002E8100F21381002B00F01981B3F1805F8D
:1036D00000F01F81012634462B68590610D5D5F815
:1036E0009830B3F5006F00F03B8100F22081002B91
:1036F00000F02681B3F5806F00F02C81012634465E
:103700002B681A0610D5D5F89C30B3F5804F00F021
:10371000488100F22D81002B00F03381B3F5005F6A
:1037200000F03981012634462B681B0714D5D5F8E3
:103730008030B3F5805F07D1022105F12400FFF747
:103740004FFC002818BF0126674AD5F88010536D3A
:1037500023F440530B4353652B68DF0614D5D5F88B
:103760009430B3F5807F07D1022105F12400FFF7E3
:1037700037FC002818BF01265B4AD5F89410936DDA
:1037800023F440730B4393652B6818031AD5D5F8BF
:10379000A010B1F5803F00F00C81B1F5003F06D0DC
:1037A000002940F00C81281DFFF7A2FB0446002CE5
:1037B00040F008814C4AD5F8A010936D23F44033B3
:1037C0000B4393652B6859031CD5D5F88430B3F5AA
:1037D000001F00F0F980B3F5401F08D0B3F5801F3B
:1037E00040F0F980404AD36A43F40033D362002C9E
:1037F00040F0F4803C4AD5F88410536D23F4401314
:103800000B4353652B68DA0309D5EB6C002B00F0F2
:10381000E780B3F5803F00F0F180012634462B6845
:103820009B0007D5022105F12400FFF7D9FB0028F2
:1038300018BF01262B689F030AD5E96FB1F5807F79
:1038400000F0F28000F2E280002900F0E58001261D
:10385000DC0206D52449286F0A6D22F0004202439B
:103860000A65D80007D52049D5F8B4000A6922F4C2
:10387000804202430A61990206D51B49A86E0A6D6F
:1038800022F0807202430A655A0009D5164A11696E
:1038900021F4004111611169D5F8B80001431161AB
:1038A000002B06DA1049286DCA6C22F04052024300
:1038B000CA641B0207D50C4AD5F88810536D23F44F
:1038C00040030B435365301E18BF0120BDE8F88349
:1038D000012105F12400FFF783FBDDE601263446D4
:1038E000E6E62646E4E600BF0044025823F0805294
:1038F000B2F1804F03D0B3F1405F7FF4EBAEA4B9D7
:103900004D4AD5F88C10536D23F0E0430B435365BB
:10391000E2E60021281DFFF7EBFA0446EFE702215B
:1039200005F12400FFF75CFBF7E72646D4E623F415
:103930008062B2F5805F03D0B3F5406F7FF4DEAEF6
:10394000A4B93D4AD5F89810936D23F4E0530B4386
:103950009365D5E60021281DFFF7CAFA0446EFE774
:10396000022105F12400FFF73BFBF7E72646C7E6F7
:1039700023F40052B2F5004F03D0B3F5C04F7FF4EB
:10398000D1AEA4B92C4AD5F89C10936D23F46043B2
:103990000B439365C8E60021281DFFF7A9FA0446EA
:1039A000EFE7022105F12400FFF71AFBF7E72646AF
:1039B000BAE6022105F12400FFF712FBF6E6012624
:1039C0003446FFE62646FDE6012105F12400FFF717
:1039D00007FB04460BE70126344613E7264611E7AA
:1039E000154AD36A43F40033D3626CB9124AE96CC6
:1039F000D36C23F480330B43D36410E70221281DDA
:103A0000FFF776FA0446F0E7264608E721F48072CD
:103A1000B2F5007F7FF41BAF64B90748426D22F412
:103A200040720A43426513E70348C26A42F4003217
:103A3000C262F1E726460BE70044025808B5FFF7DB
:103A400011FA054B054A1B6AC3F30213D35C03F05A
:103A50001F03D84008BD00BF00440258B9910008B8
:103A60004E4A70B5946A966AD56A16F47C3FC6F3DE
:103A70000531D36B00F08D8007EE901AC3F3CC03B1
:103A8000C5F3001104F00304F8EEE76A4B43012C80
:103A9000B7EE006A07EE903AFAEEE97A6BD0022CA4
:103AA0005BD0002C67D113689B0646D51168936BD9
:103AB000C1F3C1013A4AC3F30803CA4007EE102A12
:103AC000F8EEC75A85EEA67A06EE903AF8EEE66A68
:103AD00076EEA77A77EE867A304A67EE877A936B2E
:103AE000C3F3462307EE103AB8EEC77A37EE067AEC
:103AF000C7EE876AFCEEE66AC0ED006A936BC3F31B
:103B0000064307EE103AB8EEC77A37EE067AC7EEEC
:103B1000876AFCEEE66AC0ED016A936BC3F3066345
:103B200007EE103AB8EEC77A37EE066A87EE867A65
:103B3000BCEEC77A80ED027A70BD936BDFED195A47
:103B4000C3F3080307EE103AB8EEC77A77EE277A88
:103B500077EE867A85EEA67ABEE7936BDFED125A92
:103B6000C3F3080307EE103AB8EEC77A77EE277A68
:103B700077EE867AEEE7936BDFED0C5AC3F308031A
:103B800007EE103AB8EEC77A77EE277A77EE867AA4
:103B9000E0E7C0E900118160CEE700BF00440258B1
:103BA0000090D0030024744C001B374B0024744A4F
:103BB0004E4A70B5946A966AD56A16F07C7FC6F351
:103BC0000551536C00F08D8007EE901AC3F3CC03BF
:103BD000C5F3002104F00304F8EEE76A4B43012C1F
:103BE000B7EE006A07EE903AFAEEE97A6BD0022C53
:103BF0005BD0002C67D113689B0646D51168136C07
:103C0000C1F3C1013A4AC3F30803CA4007EE102AC0
:103C1000F8EEC75A85EEA67A06EE903AF8EEE66A16
:103C200076EEA77A77EE867A304A67EE877A136C5B
:103C3000C3F3462307EE103AB8EEC77A37EE067A9A
:103C4000C7EE876AFCEEE66AC0ED006A136CC3F348
:103C5000064307EE103AB8EEC77A37EE067AC7EE9B
:103C6000876AFCEEE66AC0ED016A136CC3F3066373
:103C700007EE103AB8EEC77A37EE066A87EE867A14
:103C8000BCEEC77A80ED027A70BD136CDFED195A75
:103C9000C3F3080307EE103AB8EEC77A77EE277A37
:103CA00077EE867A85EEA67ABEE7136CDFED125AC0
:103CB000C3F3080307EE103AB8EEC77A77EE277A17
:103CC00077EE867AEEE7136CDFED0C5AC3F3080348
:103CD00007EE103AB8EEC77A77EE277A77EE867A53
:103CE000E0E7C0E900118160CEE700BF0044025860
:103CF0000090D0030024744C001B374B0024744AFE
:103D0000036859699A6942F008029A619A6942F017
:103D100010029A611A6822F001021A601A6922F4EC
:103D20005B7222F003021A619A6822F440429A60A0
:103D300090F88120042A0BD08A0609D5D0F8842077
:103D400042F08002C0F884209A6942F020029A6111
:103D500090F88120032A0BD04A0609D5D0F8842098
:103D600042F00402C0F884209A6942F040029A614D
:103D70008A0509D5D0F8842042F00102C0F88420D9
:103D80009A6942F400729A61CA0509D5D0F8842074
:103D900042F00802C0F884209A6942F480729A6165
:103DA0000023A0F86230A0F86A307047F8B50446E6
:103DB00008B90120F8BD02680023464983628A429F
:103DC000C36809D0A1F578418A4205D001F5806128
:103DD0008A4201D00F2BECD8E16B08334909DB088C
:103DE00001FB03333B498A4267D0A1F578418A42FF
:103DF00063D001F580618A425FD0082BD9D894F84E
:103E0000813003F0FF0223B9204684F88020FCF7BC
:103E100039FF22680223616884F881301368A56B3A
:103E200023F001031360A3699668B3F1806F06F471
:103E3000F81604D1B1F5800F41D1002D44D0A76A06
:103E40000B43E0692B433843E76B3843E76838435B
:103E500030439060606B0343606A0343206903430F
:103E600060690343206A0343E06C0343A068034393
:103E7000A06C0343A06D0343D36059B9936823F446
:103E8000C05343F400639360936823F4C06343F426
:103E900080639360136D23F0010313654B0205D516
:103EA000D368616D23F000430B43D36000200123EE
:103EB000C4F8840084F881307CE7102B9EE7002949
:103EC000BDD1B5F1805FBAD1106840F48050106068
:103ED000B5E700BF003001402DE9F0471D4690F8DE
:103EE000803004468946012B9246089E17D0012354
:103EF000D0F8008080F88030FDF7D0F994F8813058
:103F000007466168012BDAB20BD0B1F5800F03D1FF
:103F1000A3680BB9042A04D0002384F8803002205F
:103F20000AE0B9F1000F03D0BAF1000F00D02DB9AB
:103F30000023012084F88030BDE8F08794F88130B8
:103F4000042B02D0052384F8813022680023C4F8B2
:103F500064A0B1F5800FC4F88430A4F86A50A4F8C6
:103F60006250A4F86850C4F85C90A4F86050C4E9AA
:103F70001C3353684FEA13434FEA034343EA0503F4
:103F80005360136843F00103136003D1136843F4D3
:103F900000731360E3680F2B5ED9A84648F2080946
:103FA0002268536999070ED56DB1E36D53F8041B70
:103FB0001162E365B4F86230013B9BB2A4F8623051
:103FC000B4F86250ADB2536913EA090F11D0B8F1D9
:103FD000000F0ED0126B636E43F8042B6366B4F8C7
:103FE0006A30013B9BB2A4F86A30B4F86A801FFAC9
:103FF00088F8FDF753F9C01BB04212D3721C12D0DF
:104000002046FFF77DFE0023032084F88030D4F89B
:10401000843043F48073C4F88430012384F8813001
:104020008AE7002EECD045EA08039BB2002BB7D1FB
:1040300023685B691B0740F18B802046FFF760FE19
:10404000002384F88030012384F88130D4F8840080
:10405000003818BF01206FE7072B3AD9A94622681C
:1040600053699B070FD575B1E36D33F8021BA8F8B0
:104070002010E365B4F86230013B9BB2A4F86230D3
:10408000B4F86250ADB25369D80712D5B9F1000F38
:104090000FD0B8F83020636E23F8022B6366B4F8B3
:1040A0006A30013B9BB2A4F86A30B4F86A901FFAF8
:1040B00089F9FDF7F3F8C01BB04207D3711C9FD1FB
:1040C00045EA09039BB2002BC9D1B1E7002EF7D115
:1040D00096E7A84623685A69920710D57DB1E26D2C
:1040E000127883F82020E36D0133E365B4F8623081
:1040F000013B9BB2A4F86230B4F86250ADB22368C1
:104100005A69D00713D5B8F1000F10D093F83030AA
:10411000626E1370636E01336366B4F86A30013BFC
:104120009BB2A4F86A30B4F86A801FFA88F8FDF7E9
:10413000B5F8C01BB04208D3711C7FF461AF45EAEB
:1041400008039BB2002BC5D172E7002EF7D157E7C9
:10415000FDF7A4F8C01B864209D8721C3FF468AF73
:10416000D4F8843043F02003C4F8843065E7002E8F
:104170007FF45EAFF4E70000036A23F0010370B53B
:104180000362036A4468826923F002030D6822F423
:10419000803222F073022A438D682B431B4DA842C4
:1041A0000FD005F58065A8420BD005F57055A842E3
:1041B00007D005F58065A84203D005F58065A842C3
:1041C0001ED1CD6823F008032B43104DA84223F0E5
:1041D00004030FD005F58065A8420BD005F5705596
:1041E000A84207D005F58065A84203D005F5806593
:1041F000A84205D124F44075D1E9054634432C4347
:10420000446082614A684263036270BD00000140FD
:10421000036A23F4807370B50362036A4468C26959
:1042200023F400730D6822F4803222F073022A43D3
:104230008D6843EA0523164DA84203D005F5806535
:10424000A8420DD1CD6823F4006343EA0523104D45
:10425000A84223F480630ED005F58065A8420AD0F9
:104260000C4DA84207D005F58065A84203D005F59E
:104270008065A84206D124F44055D1E9054634436F
:1042800045EA04144460C2614A68C263036270BDB7
:104290000000014000400140036A23F4805330B520
:1042A0000362036A4468C26923F400530D6822F074
:1042B000807222F4E64242EA05228D6843EA053321
:1042C0000E4DA8420FD005F58065A8420BD005F52C
:1042D0007055A84207D005F58065A84203D005F5C2
:1042E0008065A84204D124F480444D6944EA8514D1
:1042F0004460C2614A680264036230BD000001404C
:10430000036A23F4803330B50362036A4468426D64
:1043100023F400330D6822F4803222F070022A4325
:104320008D6843EA05430F4DA8420FD005F580651F
:10433000A8420BD005F57055A84207D005F5806559
:10434000A84203D005F58065A84204D124F4803446
:104350004D6944EA0524446042654A688265036207
:1043600030BD00BF00000140036A23F4801330B564
:104370000362036A4468426D23F400130D6822F05F
:10438000807222F4E04242EA05228D6843EA055336
:104390000E4DA8420FD005F58065A8420BD005F55B
:1043A0007055A84207D005F58065A84203D005F5F1
:1043B0008065A84204D124F480244D6944EA852410
:1043C000446042654A68C265036230BD0000014036
:1043D00070470000304A0368904212D0B0F1804F1D
:1043E0000FD0A2F57C4290420BD002F58062904241
:1043F00007D002F58062904203D002F578429042E5
:1044000019D14A6823F070031343234A90421DD008
:10441000B0F1804F1AD0A2F57C42904216D002F53E
:104420008062904212D002F5806290420ED002F576
:10443000784290420AD0194A904207D002F5806231
:10444000904203D002F58062904203D123F440737E
:10445000CA6813434A6923F08003134303608B68DF
:10446000C3620B6883620C4B98420FD003F58063E4
:1044700098420BD003F57053984207D003F5806340
:10448000984203D003F58063984201D10B6903631E
:1044900001234361704700BF00000140004001401C
:1044A00010B5044650B390F83D3003F0FF021BB93D
:1044B00080F83C20FCF7E4FC02232068211D84F8EE
:1044C0003D30FFF787FF0123002084F8483084F84F
:1044D0003E3084F83F3084F8403084F8413084F82E
:1044E000423084F8433084F8443084F8453084F80E
:1044F000463084F8473084F83D3010BD0120FCE799
:1045000010B5044650B390F83D3003F0FF021BB9DC
:1045100080F83C20FFF75CFF02232068211D84F80F
:104520003D30FFF757FF0123002084F8483084F81E
:104530003E3084F83F3084F8403084F8413084F8CD
:10454000423084F8433084F8443084F8453084F8AD
:10455000463084F8473084F83D3010BD0120FCE738
:10456000036A23F0100370B50362036A446882692A
:1045700023F020030D6822F0807222F4E64242EA22
:1045800005228D6843EA0513164DA84203D005F5B0
:104590008065A8420DD1CD6823F0800343EA05135E
:1045A000104DA84223F040030ED005F58065A842C7
:1045B0000AD00D4DA84207D005F58065A84203D06A
:1045C00005F58065A84206D124F44065D1E9054689
:1045D000344345EA8404446082614A68826303622A
:1045E00070BD00BF000001400040014070B590F870
:1045F0003C300546012B79D001200C2A85F83C007F
:1046000052D008D8042A2DD0082A3CD0C2B10023A9
:1046100085F83C3070BD102A57D0142AF7D128688D
:10462000FFF7A2FE2B6809695A6D42F400625A65D1
:104630005A6D22F480625A655A6D42EA012253E0B3
:104640002868FFF799FD2B6809699A6942F008020A
:104650009A619A6922F004029A619A690A439A61FE
:104660000020D4E72868FFF77BFF2B6809699A6967
:1046700042F400629A619A6922F480629A619A69AE
:1046800042EA0122EBE72868FFF7C2FD2B680969BF
:10469000DA6942F00802DA61DA6922F00402DA61CA
:1046A000DA690A43DA61DBE72868FFF7F5FD2B6872
:1046B0000969DA6942F40062DA61DA6922F4806237
:1046C000DA61DA6942EA0122ECE72868FFF718FEAE
:1046D0002B6809695A6D42F008025A655A6D22F03A
:1046E00004025A655A6D0A435A65B9E7022091E7F8
:1046F000114310B5846841EA032324F47F44234323
:10470000836010BD70B590F83C300446012B4FF02B
:10471000020300F0AE80012280F83D30564B80F855
:104720003C20006885682B4083600B68702B57D055
:104730003DD8502B6AD01ED8402B00F0818006D87F
:10474000202B0ED00BD833F010020AD00122012307
:1047500084F83D30002384F83C30104670BD302B87
:10476000F4D1826822F4401222F070021A4342F01F
:10477000070282603EE0602BE9D14D68CE68016A95
:1047800021F0100101628269036A22F4704223F071
:10479000A00342EA063243EA05138261036283689A
:1047A00023F4401323F0700343F0670346E0B3F5AE
:1047B000005F21D004D8B3F5805218BF0122C6E7AC
:1047C0002E498B42CDD005D823F01001B1F5801FC2
:1047D000C7D0BCE72A498B42C3D010318B42F7E7E0
:1047E000CB68D1E90121FFF783FF2268936843F08A
:1047F000770393600022AAE7CB68D1E90121FFF794
:1048000077FF2268936843F48043F2E74A68CE68F2
:10481000016A056A21F00A0125F001050A430562D3
:10482000836923F0F00343EA06138361026283681D
:1048300023F4401323F0700343F057038360D9E758
:104840004A68CE68016A056A21F00A0125F001056F
:104850000A430562836923F0F00343EA0613836188
:104860000262836823F4401323F0700343F047038C
:10487000E4E71A4671E700BF8800CEFF2000100071
:104880003000100001F01F01036A10B501248A40B6
:104890008C4023EA04030362036A1A43026210BDD8
:1048A00010B5044629B990F83E30012B28D00120DC
:1048B0004AE0042907D190F83F30012BF7D10223B9
:1048C00080F83F301FE008290DD190F84030013BBF
:1048D00018BF0123002BEAD108294FF0020334D17D
:1048E00084F840300FE00C2902D190F84130EEE717
:1048F000102902D190F84230E9E790F84330E6E71A
:10490000022380F83E3001222068FFF7BBFF2368B6
:10491000284A934226D002F58062934222D002F5C3
:10492000705293421ED002F5806293421AD002F573
:104930008062934216D0B3F1804F1BD199681E4A12
:104940000A40062A32D1002010BD0C2902D184F879
:104950004130D8E7102902D184F84230D3E784F8F7
:104960004330D0E75A6C42F400425A64114A9342F1
:10497000E1D1E3E7114A9342E0D002F5806293422D
:10498000DCD002F580629342D8D002F5784293429F
:10499000D4D0A2F56C429342D0D002F59432934227
:1049A000CCD01A6842F001021A60CCE7B2F5803F21
:1049B000F7D1C8E7000001400700010000040040F3
:1049C000FFF76EBF30B590F83C30012B4FF002037B
:1049D0003DD080F83D301F4D0368AB425A689C685B
:1049E00003D005F58065AB4203D122F470024D6817
:1049F0002A430D6822F070022A435A60154A9342F6
:104A00001AD0B3F1804F17D0A2F57C42934213D055
:104A100002F5806293420FD002F5806293420BD080
:104A200002F57842934207D0A2F56C42934203D03C
:104A300002F59432934204D1896824F080020A433B
:104A40009A60012380F83D30002380F83C301846FE
:104A500030BD00BF0000014010B5026852E8003FC1
:104A600023F4907342E8003102680029F5D10F4C1D
:104A700002F1080353E8003F234002F1080C4CE820
:104A800000310029F4D1C36E012B07D152E8003F59
:104A900023F0100342E800310029F7D12023C0F8A9
:104AA00088300023C366036710BD00BFFEFFFFEF21
:104AB000704708B5806B0023A0F85E30A0F8563030
:104AC00002F046FD08BD704703682DE9F041DA6940
:104AD00040F60F061968044632429D6810D19606CA
:104AE00040F1968001F0200605F080573E4300F02B
:104AF0008F80036F002B00F08480BDE8F0411847E1
:104B0000A64EA7482E400840304300F08180D707CA
:104B100009D5C80507D501201862D4F88C0040F0EB
:104B20000100C4F88C00970709D5E80707D50220D3
:104B30001862D4F88C0040F00400C4F88C005707C9
:104B400009D5E80707D504201862D4F88C0040F096
:104B50000200C4F88C0017070BD501F02000304389
:104B600007D008201862D4F88C0040F00800C4F880
:104B70008C0016050AD5480108D54FF4006018626C
:104B8000D4F88C3043F02003C4F88C30D4F88C3047
:104B9000002B36D093060AD501F0200105F0805590
:104BA00051EA050303D0236F0BB1204698472368D1
:104BB0002046D4F88C509B6805F0280503F040038C
:104BC0001D4320D0FFF748FF226893685F0615D584
:104BD00002F1080353E8003F23F0400302F108000C
:104BE00040E800310029F3D1E06F38B16D4B036527
:104BF000FCF77EFD28B1E06F036D7EE7204602F0F2
:104C0000A7FCBDE8F08102F0A3FCC4F88C50F8E7E3
:104C1000E06E012840F0A880D60640F1A580C806C5
:104C200040F1A28010221A629A6852066AD5E16F9A
:104C30005D480A6882421ED0183082421BD018306C
:104C4000824218D01830824215D01830824212D0D9
:104C5000183082420FD0183082420CD01830824275
:104C600009D000F55670824205D01830824202D039
:104C700018308242FFD0526892B2002AC1D0B4F8F4
:104C80005C009042BDD9A4F85E20CA69B2F5807F6D
:104C90002ED053E8002F22F4807243E8002100292F
:104CA000F7D103F1080252E8002F22F0010203F1CC
:104CB000080040E800210029F3D103F1080252E87E
:104CC000002F22F0400203F1080040E800210029F3
:104CD000F3D12022C4F88820E16653E8002F22F0A7
:104CE000100243E800210029F7D1E06FFCF75AFBDE
:104CF000B4F85E30B4F85C10C91A89B22046FFF7E8
:104D0000E2FE7EE7B4F85E108AB2B4F85E1089B2B3
:104D100000293FF476AFB4F85C10891A89B20029F3
:104D20003FF46FAF53E8002F22F4907243E8002065
:104D30000028F7D11D4D03F1080252E8002F2A4048
:104D400003F1080646E800200028F4D1202220675D
:104D5000C4F88820E06653E8002F22F0100243E8F0
:104D600000200028F7D1C9E7D70209D56E0207D580
:104D70004FF4801220461A62BDE8F04100F07CBE7C
:104D8000100615D501F0800005F4000528430FD06A
:104D9000636F002B3FF435AF2046AEE601000010F4
:104DA00020010004B34A000810000240FEFFFFEF9C
:104DB000570611D54E060FD553E8002F22F04002BA
:104DC00043E800210029F7D1202320466167C4F879
:104DD0008430FFF76DFE14E7150206D5480004D5B0
:104DE0002046BDE8F04100F049BED3017FF509AF90
:104DF0000029BFF606AF2046BDE8F04100F03DBEF9
:104E0000D0F88820222A08B5036845D15B6AB0F83B
:104E10006010826D0B401370836D01338365B0F8B1
:104E20005E30013B9BB2A0F85E30B0F85E309BB2C2
:104E300073BB026852E8003F23F4907342E80031EC
:104E400003680029F5D103F1080252E8002F22F08F
:104E5000010203F1080C4CE800210029F3D12022C3
:104E60000167C0F88820C26E012A12D1C16653E8DA
:104E7000002F22F0100243E800210029F7D1DA695F
:104E8000D20601D510221A62B0F85C10FFF71BFEA3
:104E900008BD02F027FCFBE79A6942F008029A611C
:104EA000F6E7D0F88820222A08B5036842D1596A6B
:104EB000B0F860201140826D22F8021B8265B0F8C4
:104EC0005E20013A92B2A0F85E20B0F85E2092B265
:104ED00062BB53E8002F22F4907243E800210029BE
:104EE000F7D103F1080252E8002F22F0010203F18A
:104EF000080C4CE800210029F3D120220167C0F8FA
:104F00008820C26E012A12D1C16653E8002F22F018
:104F1000100243E800210029F7D1DA69D20601D551
:104F200010221A62B0F85C10FFF7CDFD08BD02F048
:104F3000D9FBFBE79A6942F008029A61F6E70000A4
:104F40002DE9F84F03680446DD69D3F800809E68B8
:104F5000D0F88820222A40F0A780B0F860704FF087
:104F6000000AB0F8689006F00106DFF84CB1B9F11C
:104F7000000F01D0AB0620D4B4F85E309BB2D3B1A1
:104F8000B4F868209A4216D9226802F1080353E85F
:104F9000003F23F08053083242E8003122680029A4
:104FA000F2D1444B236752E8003F43F0200342E82C
:104FB00000310029F7D1BDE8F88F2368A26D5B6A44
:104FC0003B401370A36D0133A365B4F85E30013B21
:104FD0009BB2A4F85E302368DD6969072AD0EA072E
:104FE0000AD518F4807F07D001221A62D4F88C20E9
:104FF00042F00102C4F88C20A80708D53EB1022275
:105000001A62D4F88C2042F00402C4F88C2069079C
:1050100008D53EB104221A62D4F88C3043F0020362
:10502000C4F88C30D4F88C3023B1204602F090FACA
:10503000C4F88CA0B4F85E309BB2002B97D12268E4
:1050400052E8003F23F4807342E8003123680029CE
:10505000F5D103F1080252E8002F02EA0B0203F136
:10506000080040E800210029F3D120222167C4F87C
:105070008820E26E012A13D1E16653E8002F22F066
:10508000100243E800210029F7D1DA69D20601D5E0
:1050900010221A62B4F85C102046FFF714FD66E790
:1050A000204602F01FFB62E79A6942F008029A610B
:1050B00081E700BF014E0008FEFFFFEF2DE9F84F2A
:1050C00003680446DD69D3F800809E68D0F8882024
:1050D000222A40F0A580B0F860704FF0000AB0F8C6
:1050E000689006F00106DFF848B1B9F1000F01D071
:1050F000AB0620D4B4F85E309BB2D3B1B4F86820CC
:105100009A4216D9226802F1080353E8003F23F0BF
:105110008053083242E8003122680029F2D1434B23
:10512000236752E8003F43F0200342E800310029A2
:10513000F7D1BDE8F88F2368A26D596A394022F88B
:10514000021BA265B4F85E20013A92B2A4F85E2078
:10515000DD6969072AD0EA070AD518F4807F07D0ED
:1051600001221A62D4F88C2042F00102C4F88C208B
:10517000A80708D53EB102221A62D4F88C2042F06A
:105180000402C4F88C20690708D53EB104221A62D3
:10519000D4F88C3043F00203C4F88C30D4F88C304F
:1051A00023B1204602F0D4F9C4F88CA0B4F85E30E4
:1051B0009BB2002B99D1226852E8003F23F4807300
:1051C00042E8003123680029F5D103F1080252E8D2
:1051D000002F02EA0B0203F1080040E80021002939
:1051E000F3D120222167C4F88820E26E012A13D16E
:1051F000E16653E8002F22F0100243E80021002965
:10520000F7D1DA69D20601D510221A62B4F85C101F
:105210002046FFF758FC68E7204602F063FA64E78F
:105220009A6942F008029A6183E700BFA34E000822
:10523000FEFFFFEFD0F88C007047000030B5044649
:105240000368C06987B02169A2681D680A43616963
:105250000A439749024329400A43E1681A605A68A1
:1052600022F440520A43A1695A60924A93421CBFF9
:10527000226A11439A6822F06E4222F430620A4395
:10528000616A9A60DA6A22F00F020A43DA628A4A95
:1052900093421BD1894B5B6D03F03803282B6CD8EC
:1052A000874AB0F5004FD35C40F03281082B00F202
:1052B000C080082B61D8DFE813F0E700EC00600045
:1052C0006000EF00600060006000F4007D4A9342DF
:1052D00007D17A4B5B6D03F00703052B4DD87A4A53
:1052E000DFE77A4A934207D1744B5B6D03F0070303
:1052F000052B42D8764AD4E7764A934207D16F4BC2
:105300005B6D03F00703052B37D8734AC9E7734A6F
:10531000934207D1694B5B6D03F00703052B2CD833
:105320006F4ABEE76F4A934207D1644B5B6D03F04F
:105330003803282B21D86C4AB3E76C4A934207D133
:105340005E4B5B6D03F00703052B16D8684AA8E790
:10535000684A934207D1594B5B6D03F00703052B55
:105360000BD8654A9DE7534A934206D102F50E32A7
:10537000936D03F00703052B01D901200EE05F496F
:10538000CB5C102B23D011D8042B16D0082B19D0AE
:10539000022BF2D1FEF752FB10BB00204FF001139D
:1053A000A3660023C4E91C3307B030BD202B3ED0D8
:1053B000402BE2D14FF4004012E06846FEF750FB6C
:1053C0000198E9E703A8FEF7F3FB0498E4E7136804
:1053D0004B4813F0200F03D01368C3F3C103D84028
:1053E000484B626A656833F8122005EB4501B0FB53
:1053F000F2F39942C1D8B3EB053FBED8002319465A
:10540000FAF7BEFF2A4609026B0841EA1061000262
:10541000C0184FF0000341F10001FAF7B1FF3A4B19
:10542000A0F540729A42A8D82368D860B5E73748FB
:10543000D6E7202B3AD0402B0BD0102B9DD11F4B01
:105440002F481A6812F0200F03D01B68C3F3C10362
:10545000D840616A2B4B626833F81130B0FBF3F32C
:10546000500800EB43004FF6EF73B0FBF2F0A0F1F1
:1054700010029A4281D820F00F03C0F34200226844
:105480009BB21843D06088E7FDF70EFD002884D05A
:10549000DFE7FDF71BFDF9E76846FEF7E1FA019843
:1054A000F4E703A8FEF784FB0498EFE71748D0E77A
:1054B000F369FFCF000C005800100140004402586F
:1054C000C991000800440040F291000800480040E3
:1054D000F2910008004C0040F2910008005000409A
:1054E000F291000800140140C991000800780040C2
:1054F000F2910008007C0040F2910008F891000849
:105500000090D003FE910008FFFC0F0000093D0051
:10551000082B17D8082B3FF630AF01A252F823F022
:1055200087550008935500087B5300087B530008FB
:10553000995500087B5300087B5300087B530008F3
:10554000A3550008202B31D0402B31D0102B7FF4F5
:1055500014AF194B19481A6812F0200F03D01B68BA
:10556000C3F3C103D840616A154A636832F8112059
:10557000B0FBF2F000EB5300B0FBF3F04FF6EF732B
:10558000A0F110024EE7FDF78FFC00283FF405AFB5
:10559000E9E7FDF79BFCF8E76846FEF761FA01983A
:1055A000F3E703A8FEF704FB0498EEE70548DAE703
:1055B0004FF40040D7E700BF004402580090D003EA
:1055C000FE91000800093D00836ADA0710B506D590
:1055D0000168C46A4A6822F4003222434A609C0788
:1055E00006D50168046B4A6822F4803222434A607F
:1055F000590706D50168446B4A6822F48022224389
:105600004A601A0706D50168846B4A6822F4004292
:1056100022434A60DC0606D50168C46B8A6822F41E
:10562000805222438A60990606D50168046C8A6814
:1056300022F4005222438A605A0610D50168446C55
:105640004A68B4F5801F22F4801242EA04024A60DC
:1056500005D14A68846C22F4C00222434A601B06CA
:1056600006D50268C16C536823F400230B435360D2
:1056700010BD2DE9F041DDF8188004460E461546B0
:105680001F462268D36936EA03030CBF01230023B7
:10569000AB4201D0002027E0B8F1FF3FF2D0FBF78A
:1056A000FDFDC01B4045206802D8B8F1000F1DD198
:1056B00050E8003F23F4D07340E80032002AF7D1CD
:1056C00000F1080353E8003F23F0010300F1080153
:1056D00041E80032002AF3D12023C4F88430C4F812
:1056E0008830032084F88020BDE8F08103685A07E1
:1056F000C7D5C3691B05C4D54FF40063036250E8E6
:10570000003F23F4D07340E80032002AF7D100F1C3
:10571000080353E8003F23F0010300F1080141E8CA
:105720000032002AF3D12023C4F88430C4F8883032
:10573000C4F88C30D5E72DE9FF419846D0F8843085
:1057400004460E46202B174650D100294CD0002A83
:105750004AD090F88030012B48D00123002580F8F2
:1057600080302123C0F88C50C0F88430FBF796FDC0
:10577000A2680346A4F85470B2F5805FA4F856708E
:1057800003D122690AB935461646002284F88020E2
:10579000B4F85620CDF8008092B242B9402120469C
:1057A000FFF767FF58B92023C4F8843008E00022CF
:1057B000802120460393FFF75CFF039B18B1032071
:1057C00004B0BDE8F08121685EB935F8022BC2F360
:1057D00008028A62B4F85620013A92B2A4F8562020
:1057E000D6E716F8012BF4E70120E9E70220E7E706
:1057F00030B50025044685B0C0F88C50FBF74EFD4F
:10580000226803461268110717D4226812685207EB
:1058100009D56FF07E424FF48001204600920022AD
:10582000FFF727FFB0B920230020C4F8843084F8A4
:105830008000C4F88830E0660DE06FF07E4203908F
:105840004FF40011204600922A46FFF712FF039BF7
:105850000028DAD0032005B030BD10B5044650B39F
:10586000D0F884301BB980F88030FBF7FFFB22684A
:1058700024232046C4F88430136823F00103136006
:10588000FFF7DCFC012816D0A36A13B12046FFF70E
:105890009BFE236820465A6822F490425A609A6818
:1058A00022F02A029A601A6842F00102BDE8104014
:1058B0001A60FFF79DBF012010BD0000836830B55E
:1058C000B3F5805F81654FF00001A0F85C20A0F87F
:1058D0005E20016739D10369002B34D140F2FF13F8
:1058E000A0F860300023C0F88C302223C0F8883044
:1058F000016801F1080353E8003F43F00103083158
:1059000041E800340368002CF2D1456E8468B5F19B
:10591000005F01693AD1B0F86850954236D8B4F5C5
:10592000805F23D12A4A2B4C002918BF22460267E8
:10593000002280F88020D9B153E8002F42F4807211
:1059400043E80021F7E7FF23CAE723B90369002BE7
:10595000F9D07F23C4E7B3F1805F04D10369002B42
:10596000F7D03F23BCE7A0F86010BBE7194ADEE799
:1059700003F1080252E8002F42F0805203F10800C0
:1059800040E800210029F3D1002030BDB4F5805F4C
:1059900012D1114A114C002918BF22460267002279
:1059A00080F8802051B153E8002F42F4907243E810
:1059B00000210029F7D1E7E7084AEFE753E8002F75
:1059C00042F0200243E800210029F7D1DCE700BFC4
:1059D000BD500008414F0008A34E0008014E0008CA
:1059E000D0F88830202B30B41FD1D9B1D2B190F883
:1059F0008030012B19D00123046880F88030002307
:105A0000C3660B4B9C420AD063681B0207D554E85F
:105A1000003F43F0806344E80035002DF7D130BCEF
:105A2000FFF74CBF012030BC70470220FBE700BFEE
:105A3000000C0058436E30B51BB94FF0011383665C
:105A400030BD03680A4D9A6899680A4CC2F34262F5
:105A5000490F6B5C615C1B01B3FBF1F3A0F86A308A
:105A6000AB5CA25C1B01B3FBF2F3A0F86830E7E784
:105A70001E9200081692000870477047704790F811
:105A80008030012B14D002682423C0F884301168C0
:105A9000136821F0005123F00103136000234366D3
:105AA0001160202280F88030C0F8842018467047AA
:105AB0000220704738B590F880300446012B1BD087
:105AC000012380F880302423C0F8843003681D68E7
:105AD0001A6822F001021A609A6822F060421143AB
