:020000040800F2
:1000000000000824B9070008A5050008AB05000892
:10001000B1050008B7050008BD0500080000000094
:10002000000000000000000000000000C305000800
:10003000D105000800000000DF050008ED050008FC
:10004000090800080908000809080008090800084C
:10005000090800080908000809080008090800083C
:10006000090800080908000809080008090800082C
:10007000090800080908000809080008090800081C
:10008000090800080908000809080008090800080C
:1000900009080008090800080908000809080008FC
:1000A00009080008090800080908000809080008EC
:1000B00009080008090800080908000809080008DC
:1000C00009080008090800080908000809080008CC
:1000D00009080008090800080908000809080008BC
:1000E000F9050008090800080000000009080008D8
:1000F000090800080908000809080008090800089C
:10010000090800080908000809080008090800088B
:10011000090800080908000809080008090800087B
:10012000090800080908000809080008090800086B
:10013000090800080908000809080008090800085B
:1001400000000000000000000000000000000000AF
:10015000090800080908000809080008090800083B
:10016000090800080908000809080008090800082B
:10017000090800080908000809080008090800081B
:10018000090800080908000809080008090800080B
:1001900009080008090800080908000809080008FB
:1001A00009080008090800080908000809080008EB
:1001B00009080008090800080908000809080008DB
:1001C00009080008090800080908000809080008CB
:1001D00009080008090600080908000809080008BD
:1001E00009080008090800080908000809080008AB
:1001F000090800080908000809080008090800089B
:10020000090800080908000809080008090800088A
:10021000090800080908000809080008090800087A
:100220000908000809080008090800080000000083
:100230000908000809080008000000000908000873
:10024000090800080908000809080008090800084A
:10025000090800080908000809080008090800083A
:10026000090800080908000809080008090800082A
:100270000908000809080008090800080000000033
:100280000908000809080008090800080000000023
:0802900000000000090800084D
:1002A00010B5054C237833B9044B13B10448AFF3B0
:1002B00000800123237010BD6401002400000000B1
:1002C000DC95000808B5034B1BB103490348AFF3A5
:1002D000008008BD0000000068010024DC950008D3
:1002E00001F0FF01102A2BDB10F0070F08D010F8E7
:1002F000013B013A8B422DD010F0070F42B3F6D1EB
:10030000F0B441EA012141EA014122F007047FF003
:1003100000070023F0E80256083C85EA010586EA5A
:10032000010685FA47F5A3FA87F586FA47F6A5FA96
:1003300087F68EB9EED1F0BC01F0FF0102F00702A2
:1003400032B110F8013B013A83EA010313B1F8D14D
:100350000020704701387047002D06BF354603382E
:10036000073815F0010F07D1013015F4807F02BF67
:10037000013015F4C03F0130F0BC0138704700BFB8
:1003800080B588B000AF07F10C0300221A605A60F4
:100390009A60DA601A612D4BD3F8E0302B4A43F0B3
:1003A0000403C2F8E030294BD3F8E03003F0040333
:1003B000BB60BB68254BD3F8E030244A43F0800390
:1003C000C2F8E030214BD3F8E03003F080037B60CB
:1003D0007B681E4BD3F8E0301C4A43F00103C2F89F
:1003E000E0301A4BD3F8E03003F001033B603B6888
:1003F00001220721164800F08BFD4FF40053FB60EB
:100400004FF488133B6101237B6107F10C0319460C
:100410000F4800F0CDFB0723FB6001233B61022363
:100420007B610023BB6107F10C031946084800F00B
:10043000BFFB00220021282000F085FB282000F0CF
:100440009CFB00BF2037BD4680BD00BF0044025862
:100450000008025880B500AF00F0D8F900F006F8A7
:10046000FFF78EFF07F060FDFEE7000080B59CB04F
:1004700000AF07F124034C220021184608F02CFCA1
:100480003B1D20220021184608F026FC022002F025
:1004900047F800233B60314B9B69304A43F44043AB
:1004A00093612E4B9B6903F440433B602C4BDB6A0A
:1004B0002B4A43F00103D362294BDB6A03F00103AB
:1004C0003B603B6800BF254B9B6903F40053B3F5C9
:1004D000005FF8D121237B624FF48033BB6201239C
:1004E000FB630223BB640223FB6401233B655023AF
:1004F0007B650223BB650223FB6502233B660C235D
:100500007B660023BB660023FB6607F124031846C5
:1005100002F050F80346002B01D000F023F83F23EF
:100520007B600323BB600023FB6008233B61402307
:100530007B614023BB614FF48063FB6140233B62DE
:100540003B1D0421184602F063FC0346002B01D03A
:1005500000F008F800BF7037BD4680BD0048025863
:100560000004005880B400AF72B600BFFEE7000080
:1005700080B483B000AF0A4BD3F8F430084A43F09C
:100580000203C2F8F430064BD3F8F43003F0020350
:100590007B607B6800BF0C37BD465DF8047B70470D
:1005A0000044025880B400AFFEE780B400AFFEE71D
:1005B00080B400AFFEE780B400AFFEE780B400AFC8
:1005C000FEE780B400AF00BFBD465DF8047B704716
:1005D00080B400AF00BFBD465DF8047B704780B4B7
:1005E00000AF00BFBD465DF8047B704780B500AF2B
:1005F00000F07EF900BF80BD80B500AF4FF4005021
:1006000000F09FFC00BF80BD80B500AF024800F045
:1006100009FE00BF80BD00BF6C96002480B582B08B
:1006200000AF0346FB80FB88B3F5005F01D105F006
:100630005BFC00BF0837BD4680BD000080B586B0BA
:1006400000AF7860144A154BD31A7B617B693B611C
:10065000134B1B68002B02D1114B124A1A60104B2E
:100660001A687B6813443A699A4207D208F0FCFA88
:1006700003460C221A604FF0FF3309E0084B1B6859
:10068000FB60074B1A687B681344054A1360FB68DC
:1006900018461837BD4680BD00000824000400003D
:1006A00080010024A89D002480B400AF374BD3F80C
:1006B0008830364A43F47003C2F88830344B1B68E4
:1006C00003F00F03062B07D8314B1B6823F00F03F1
:1006D0002F4A43F0070313602E4B1B682D4A43F04B
:1006E000010313602B4B00221A612A4B1A68294917
:1006F000294B13400B60264B1B6803F00803002BAB
:1007000007D0234B1B6823F00F03214A43F0070354
:100710001360204B00229A611E4B0022DA611D4BB0
:1007200000221A621B4B1D4A9A621A4B1C4ADA625B
:10073000184B1C4A1A63174B00225A63154B194A6F
:100740009A63144B0022DA63124B164A1A64114B57
:1007500000225A640F4B1B680E4A23F48023136057
:100760000C4B00221A66104B1A68104B1340B3F161
:10077000005F02D20E4B01221A600E4B43F2D202EE
:100780001A6000BFBD465DF8047B704700ED00E0D5
:1007900000200052004402587FEDF6EA00020202F7
:1007A0000000FF01800201010010005C0000FFFF5B
:1007B0000881005100400052DFF834D0FFF774FF89
:1007C0000C480D490D4A002302E0D458C4500433AC
:1007D000C4188C42F9D30A4A0A4C002301E0136082
:1007E0000432A242FBD308F045FAFFF733FE70470C
:1007F0000000082400000024640100248C1E01086D
:1008000064010024A89D0024FEE7000080B582B0AA
:1008100000AF032000F08CF902F0B0FC0246154B4B
:100820009B691B0A03F00F031349CB5C03F01F0302
:1008300022FA03F37B600F4B9B6903F00F030E4A10
:10084000D35C03F01F037A6822FA03F30B4A1360A8
:100850000B4A7B6813600F2000F014F80346002B4E
:1008600001D0012302E0FFF783FE0023184608377A
:10087000BD4680BD00440258409600080400002494
:100880000000002480B582B000AF7860154B1B7863
:10089000002B01D1012321E0134B1A68114B1B7867
:1008A00019464FF47A73B3FBF1F3B2FBF3F3184636
:1008B00000F071F90346002B01D001230EE07B68A4
:1008C0000F2B0AD8002279684FF0FF3000F03BF977
:1008D000064A7B681360002300E0012318460837AE
:1008E000BD4680BD0C000024000000240800002448
:1008F00080B400AF064B1B781A46064B1B681344A6
:10090000044A136000BFBD465DF8047B704700BF1A
:100910000C0000248401002480B400AF034B1B684A
:100920001846BD465DF8047B704700BF8401002473
:1009300080B584B000AF7860FFF7EEFFB8607B68E9
:10094000FB60FB68B3F1FF3F05D00A4B1B781A46EA
:10095000FB681344FB6000BFFFF7DEFF0246BB6885
:10096000D31AFA689A42F7D800BF00BF1037BD46C5
:1009700080BD00BF0C00002480B400AF034B1B6897
:100980001B0C1846BD465DF8047B70470010005CE8
:1009900080B485B000AF78607B6803F00703FB602C
:1009A0000B4BDB68BB60BA684FF6FF031340BB60BC
:1009B000FB681A02BB681A43064B1343BB60044A28
:1009C000BB68D36000BF1437BD465DF8047B704739
:1009D00000ED00E00000FA0580B400AF044BDB68D6
:1009E0001B0A03F007031846BD465DF8047B7047F9
:1009F00000ED00E080B483B000AF0346FB80B7F9A0
:100A00000630002B0BDBFB8803F01F020749B7F908
:100A100006305B09012000FA02F241F8232000BFF2
:100A20000C37BD465DF8047B704700BF00E100E075
:100A300080B483B000AF03463960FB80B7F906305D
:100A4000002B0ADB3B68DAB20C49B7F90630120119
:100A5000D2B20B4483F800230AE03B68DAB20849BB
:100A6000FB8803F00F03043B1201D2B20B441A7649
:100A700000BF0C37BD465DF8047B704700E100E025
:100A800000ED00E080B489B000AFF860B9607A6032
:100A9000FB6803F00703FB61FB69C3F10703042B49
:100AA00028BF0423BB61FB690433062B02D9FB6911
:100AB000033B00E000237B614FF0FF32BB6902FA89
:100AC00003F3DA43BB681A407B699A404FF0FF3169
:100AD0007B6901FA03F3D9437B680B401343184643
:100AE0002437BD465DF8047B7047000080B582B0B6
:100AF00000AF78607B68013BB3F1807F01D30123B5
:100B00000FE00A4A7B68013B53600F214FF0FF3032
:100B1000FFF78EFF054B00229A60044B07221A60F4
:100B2000002318460837BD4680BD00BF10E000E036
:100B300080B582B000AF78607868FFF729FF00BF0A
:100B40000837BD4680BD80B586B000AF0346B960AA
:100B50007A60FB81FFF740FF78617A68B96878694D
:100B6000FFF790FF0246B7F90E3011461846FFF71F
:100B70005FFF00BF1837BD4680BD80B582B000AFB3
:100B80000346FB80B7F906301846FFF733FF00BF76
:100B90000837BD4680BD80B582B000AF7860786808
:100BA000FFF7A4FF034618460837BD4680BD000086
:100BB00080B489B000AF786039600023FB61894B55
:100BC0007B6194E13B681A680121FB6901FA03F338
:100BD00013403B613B69002B00F086813B685B68FA
:100BE00003F00303012B05D03B685B6803F00303AC
:100BF000022B30D17B689B68BB61FB695B000322E1
:100C000002FA03F3DB43BA691340BB613B68DA685D
:100C1000FB695B0002FA03F3BA691343BB617B68AB
:100C2000BA699A607B685B68BB610122FB6902FA62
:100C300003F3DB43BA691340BB613B685B681B0984
:100C400003F00102FB6902FA03F3BA691343BB61C3
:100C50007B68BA695A603B685B6803F00303032B47
:100C600017D07B68DB68BB61FB695B00032202FA7B
:100C700003F3DB43BA691340BB613B689A68FB69C5
:100C80005B0002FA03F3BA691343BB617B68BA697C
:100C9000DA603B685B6803F00303022B23D1FB6936
:100CA000DA087B68083253F82230BB61FB6903F035
:100CB00007039B000F2202FA03F3DB43BA691340D8
:100CC000BB613B681A69FB6903F007039B0002FAEA
:100CD00003F3BA691343BB61FB69DA087B68083226
:100CE000B96943F822107B681B68BB61FB695B0034
:100CF000032202FA03F3DB43BA691340BB613B688A
:100D00005B6803F00302FB695B0002FA03F3BA6954
:100D10001343BB617B68BA691A603B685B6803F484
:100D20004033002B00F0E0802F4BD3F8F4302E4AF4
:100D300043F00203C2F8F4302B4BD3F8F43003F045
:100D40000203FB60FB68294AFB699B08023352F8E7
:100D50002330BB61FB6903F003039B000F2202FAFF
:100D600003F3DB43BA691340BB617B68204A9342BB
:100D700052D07B681F4A934231D07B681E4A93420F
:100D80002BD07B681D4A934225D07B681C4A934236
:100D90001FD07B681B4A934219D07B681A4A934242
:100DA00013D07B68194A93420DD07B68184A93424E
:100DB00007D07B68174A934201D109232DE00A230B
:100DC0002BE0082329E0072327E0062325E005235D
:100DD00023E0042321E003231FE002231DE001237D
:100DE0001BE000BF80000058004402580004005877
:100DF000000002580004025800080258000C025873
:100E0000001002580014025800180258001C025822
:100E100000200258002402580023FA6902F003025D
:100E200092009340BA691343BB613849FB699B0840
:100E30000233BA6941F823204FF0B0431B68BB610D
:100E40003B69DB43BA691340BB613B685B6803F4F1
:100E50008013002B03D0BA693B691343BB614FF089
:100E6000B042BB6913604FF0B0435B68BB613B6944
:100E7000DB43BA691340BB613B685B6803F4001352
:100E8000002B03D0BA693B691343BB614FF0B042FA
:100E9000BB6953607B695B68BB613B69DB43BA69D3
:100EA0001340BB613B685B6803F40033002B03D045
:100EB000BA693B691343BB617B69BA695A607B6954
:100EC0001B68BB613B69DB43BA691340BB613B688C
:100ED0005B6803F48033002B03D0BA693B6913438A
:100EE000BB617B69BA691A60FB690133FB613B68CE
:100EF0001A68FB6922FA03F3002B7FF463AE00BF8C
:100F000000BF2437BD465DF8047B704700040058DD
:100F100080B483B000AF78600B467B8013467B7053
:100F20007B78002B03D07A887B689A6103E07B880A
:100F30001A047B689A6100BF0C37BD465DF8047BDC
:100F4000704780B582B000AF0346FB804FF0B043DE
:100F5000D3F88820FB881340002B08D04FF0B04214
:100F6000FB88C2F88830FB881846FFF757FB00BFA4
:100F70000837BD4680BDF0B58FB00AAF78607B689A
:100F8000002B01D1012316E17B681B68BB607B68E5
:100F900093F8BD34DBB2002B06D17B68002283F8C6
:100FA000BC24786807F0CCFA7B68032283F8BD2460
:100FB000BB68DB6B03F48073002B02D17B680022DB
:100FC0001A617B681B68184603F04DFC7B681B6840
:100FD0003B607E686D4606F110040FCC0FC50FCC48
:100FE0000FC594E8030085E80300331D0ECB386875
:100FF00003F018FB0346002B05D07B68022283F820
:10100000BD240123D7E07B681B680021184603F04C
:101010003BFC0023FB734AE0FA7B79681346DB0054
:1010200013449B000B443D3301221A70FA7B79680C
:101030001346DB0013449B000B443C33FA7B1A70CD
:10104000FA7BFB7B98B279681346DB0013449B0064
:101050000B44443302461A80FA7B79681346DB005E
:1010600013449B000B44403300221A70FA7B7968CA
:101070001346DB0013449B000B44483300221A60E4
:10108000FA7B79681346DB0013449B000B444C3316
:1010900000221A60FA7B79681346DB0013449B0038
:1010A0000B44543300221A60FB7B0133FB73FA7B41
:1010B0007B685B689A42AFD30023FB7344E0FA7B02
:1010C00079681346DB0013449B000B4403F27D2335
:1010D00000221A70FA7B79681346DB0013449B00E8
:1010E0000B4403F51F73FA7B1A70FA7B7968134679
:1010F000DB0013449B000B4403F5207300221A709D
:10110000FA7B79681346DB0013449B000B4403F51C
:10111000227300221A60FA7B79681346DB001344BD
:101120009B000B4403F5237300221A60FA7B796855
:101130001346DB0013449B000B4403F52573002288
:101140001A60FB7B0133FB73FA7B7B685B689A4216
:10115000B5D37B681B683B607E686D4606F1100462
:101160000FCC0FC50FCC0FC594E8030085E8030032
:10117000331D0ECB386803F0D3FB0346002B05D09C
:101180007B68022283F8BD24012314E07B680022DF
:1011900083F838207B68012283F8BD247B685B6A72
:1011A000012B02D1786801F08BF97B681B68184627
:1011B00004F021FD002318461437BD46F0BD80B56C
:1011C00084B000AF78607B681B68FB607B6893F835
:1011D000BC34012B01D1022320E07B68012283F87B
:1011E000BC247B689B6A012B09D17B689B69012B1E
:1011F00005D0FB689B6B43F48032FB689A637B6885
:101200001B68184603F01EFB7B681B68184604F039
:10121000D1FC7B68002283F8BC24002318461037D9
:10122000BD4680BD90B58DB000AF78607B681B680F
:101230003B623B6AFB617B681B68184604F08FFDCC
:101240000346002B40F0B7847B681B68184604F007
:10125000F3FC0346002B00F0AD84FB6903F500634B
:101260009B681B0AC3F30D027B68C3F8FC247B68F0
:101270001B68184604F0E0FC034603F00203022B4F
:1012800007D17B681B685A697B681B6802F0020201
:101290005A617B681B68184604F0CEFC034603F0D5
:1012A0001003102B61D17B681B689A697B681B68EF
:1012B00022F010029A613B6A1B6ABB61BB6903F0B2
:1012C0000F021346DB0013449B0003F51E737A687C
:1012D000134404337B61BB695B0C03F00F03022BE7
:1012E00024D1BA6947F6F0731340002B35D07B69DF
:1012F0001969BB691B099BB2C3F30A039BB21A4667
:10130000386A04F005FB7B691A69BB691B09C3F3E2
:101310000A031A447B691A617B691A6ABB691B0953
:10132000C3F30A031A447B691A6216E0BB695B0CBB
:1013300003F00F03062B10D17B6803F2C44308228D
:101340001946386A04F0E4FA7B691A6ABB691B091A
:10135000C3F30A031A447B691A627B681B689A69A3
:101360007B681B6842F010029A617B681B68184614
:1013700004F062FC034603F40023B3F5002F40F0B1
:10138000A78000237B627B681B68184604F067FC1B
:10139000B86299E0BB6A03F00103002B00F08E8075
:1013A0007B681B687A6AD2B21146184604F08BFC3F
:1013B00038613B6903F00103002B0CD07B6A5A01B2
:1013C000FB69134403F530631A4601239360796A7D
:1013D000786800F0EFFE3B6903F00803002B0CD0A7
:1013E0007B6A5A01FB69134403F530631A460823EC
:1013F0009360796A786800F0C5FF3B6903F01003D9
:10140000002B08D07B6A5A01FB69134403F5306353
:101410001A46102393603B6903F00203002B30D07F
:101420003B6A5B6903F08003802B09D1FB6903F5FC
:1014300000635B68FA6902F5006243F480635360FD
:101440007A6A1346DB0013449B0003F51E737A6827
:10145000134404337B617B69DB78012B08D17B6902
:101460000022DA707B6ADBB21946786807F08CF9E3
:101470007B6A5A01FB69134403F530631A46022361
:1014800093603B6903F02003002B08D07B6A5A016C
:10149000FB69134403F530631A46202393603B69CC
:1014A00003F40053002B09D07B6A5A01FB691344F3
:1014B00003F530631A464FF4005393607B6A01339F
:1014C0007B62BB6A5B08BB62BB6A002B7FF462AFC6
:1014D0007B681B68184604F0AFFB034603F48023C7
:1014E000B3F5802F40F0DB807B681B68184604F062
:1014F000D0FBB86200237B62CDE0BB6A03F001033E
:10150000002B00F0C2807B681B687A6AD2B2114659
:10151000184604F0F6FB38613B6903F00103002B29
:1015200057D07B6A03F00F03012202FA03F3FB603A
:10153000FB6903F500635A6BFB68DB43F96901F54E
:10154000006113404B637B6A5A01FB69134403F546
:1015500010631A46012393607B681B69012B32D10B
:1015600079687A6A1346DB0013449B000B444C33C2
:10157000196878687A6A1346DB0013449B000344B9
:1015800048331B68194478687A6A1346DB001344B1
:101590009B0003444C3319607B6A002B13D179689C
:1015A0007A6A1346DB0013449B000B4454331B68D8
:1015B000002B08D17B6818687B6803F2C4431A4685
:1015C000012104F0FFFB7B6ADBB21946786807F063
:1015D00056F83B6903F00803002B08D07B6A5A01D8
:1015E000FB69134403F510631A46082393603B69B3
:1015F00003F01003002B08D07B6A5A01FB691344E7
:1016000003F510631A46102393603B6903F040030F
:10161000002B08D07B6A5A01FB69134403F5106361
:101620001A46402393603B6903F00203002B23D04A
:10163000796A386A03F0D2FA7A6A1346DB001344F7
:101640009B0038337A68134404337B617B69DB7811
:10165000012B08D17B690022DA707B6ADBB2194664
:10166000786807F0A3F87B6A5A01FB69134403F515
:1016700010631A46022393603B6903F08003002B3A
:1016800003D0796A786800F008FD7B6A01337B62D9
:10169000BB6A5B08BB62BB6A002B7FF42EAF7B6822
:1016A0001B68184604F0C8FA034603F00043B3F180
:1016B000004F22D1FB6903F500635B68FA6902F50C
:1016C000006223F0010353607B6893F8F434012B2C
:1016D00008D17B68002283F8F4240021786800F0A8
:1016E00013FF02E0786807F041F87B681B685A69CD
:1016F0007B681B6802F000425A617B681B681846D1
:1017000004F09AFA034603F40063B3F5006F12D1B4
:10171000FB6903F500639B6803F00103012B02D111
:10172000786806F0FDFF7B681B685A697B681B6858
:1017300002F400625A617B681B68184604F07CFA68
:10174000034603F00063B3F1006F21D17B681B688F
:101750005A697B681B6802F000625A617B6893F8E3
:10176000F434002B11D17B68012283F8F4247B68C8
:101770001B685B6D9B0803F00F027B68C3F8F824BD
:101780000121786800F0C0FE02E0786806F0C8FF2A
:101790007B681B68184604F04FFA034603F4805335
:1017A000B3F5805F40F0B780FB6903F500635B68C9
:1017B000FA6902F5006223F0010353607B681B683D
:1017C0001021184603F00AFA0023FB6246E0FB6A88
:1017D0005A01FB69134403F510631A464FF67F3331
:1017E0009360FB6A5A01FB69134403F510631B689D
:1017F000FA6A5101FA690A4402F5106223F40013EF
:101800001360FB6A5A01FB69134403F530631A46FF
:101810004FF67F339360FB6A5A01FB69134403F56B
:1018200030631B68FA6A5101FA690A4402F53062B2
:1018300023F400131360FB6A5A01FB69134403F598
:1018400030631B68FA6A5101FA690A4402F5306292
:1018500043F000631360FB6A0133FB627B685B68E3
:10186000FA6A9A42B3D3FB6903F50063DB69FA694C
:1018700002F5006243F00113D3617B681B6B002B00
:1018800016D0FB6903F50063D3F88430FA6902F5DA
:10189000006243F00B03C2F88430FB6903F5006378
:1018A0005B6CFA6902F5006243F00B03536415E0C8
:1018B000FB6903F500635A69FB6903F50063194688
:1018C00042F22B0313434B61FB6903F500631B6971
:1018D000FA6902F5006243F00B031361FB6903F53B
:1018E00000631B68FA6902F5006223F4FE6313606B
:1018F0007B6818687B681B69D9B27B6803F2C443B4
:101900001A4604F05FFA7B681B685A697B681B689B
:1019100002F480525A617B681B68184604F08CF907
:10192000034603F40053B3F5005F24D17B681B68C2
:10193000184604F023FA7B681B68184603F0CBF9BD
:1019400003461A467B68DA607B681C6801F090FDEC
:1019500001467B68DB68DBB21A46204602F0D0FE07
:10196000786806F0B4FE7B681B685A697B681B6860
:1019700002F400525A617B681B68184604F05CF957
:10198000034603F00803082B0AD1786806F091FE9D
:101990007B681B685A697B681B6802F008025A6101
:1019A0007B681B68184604F047F9034603F0800380
:1019B000802B22D13B6A9B6923F080023B6A9A61AB
:1019C00001237B6214E079687A6A1346DB001344D2
:1019D0009B000B4403F27F231B78012B05D17B6A0C
:1019E000DBB21946786800F027FB7B6A01337B6223
:1019F0007B685B687A6A9A42E5D37B681B68184605
:101A000004F01AF9034603F48013B3F5801F3BD1A9
:101A100001237B622BE07B6A5A01FB69134403F5C7
:101A200010631B68BB6179687A6A1346DB00134454
:101A30009B000B4440331B78012B15D1BB69002B55
:101A400012DA79687A6A1346DB0013449B000B4470
:101A50003F3301221A707B6ADBB263F07F03DBB293
:101A60001946786800F0E8FA7B6A01337B627B688C
:101A70005B687A6A9A42CED37B681B685A697B6836
:101A80001B6802F480125A617B681B68184604F0D8
:101A9000D3F8034603F40013B3F5001F55D1012317
:101AA0007B6245E07B6A5A01FB69134403F53063AE
:101AB0001B68BB6179687A6A1346DB0013449B009C
:101AC0000B4403F520731B78012B2ED1BB69002B2F
:101AD0002BDABB6903F480327B68D3F8FC3403F063
:101AE00001039A4221D179687A6A1346DB001344D4
:101AF0009B000B4403F27F2301221A703B6A9B690F
:101B000043F080023B6A9A613B6A5B6903F08003A1
:101B1000002B0AD1FB6903F500635B68FA6902F5E3
:101B2000006243F40073536007E07B6A01337B6219
:101B30007B685B687A6A9A42B4D37B681B685A698F
:101B40007B681B6802F400125A617B681B681846A8
:101B500004F072F8034603F08043B3F1804F0AD1DA
:101B6000786806F035FE7B681B685A697B681B68DD
:101B700002F080425A617B681B68184604F05CF8EA
:101B8000034603F00403042B15D17B681B685B68D4
:101B9000BB61BB6903F00403002B02D0786806F038
:101BA00025FE7B681B6859687B681B68BA690A4315
:101BB0005A6000E000BF3437BD4690BD80B582B0AA
:101BC00000AF78600B46FB707B6893F8BC34012B48
:101BD00001D1022313E07B68012283F8BC247B68D7
:101BE000FA7883F838207B681B68FA781146184623
:101BF00003F0BAFF7B68002283F8BC240023184658
:101C00000837BD4680BD80B584B000AF7860084617
:101C100011461A460346FB700B463B801346BB70C9
:101C20000023FB7297F90330002B0FDAFB7803F0E7
:101C30000F021346DB0013449B0038337A681344C9
:101C40000433FB60FB6801225A700FE0FB7803F05D
:101C50000F021346DB0013449B0003F51E737A68E2
:101C600013440433FB60FB6800225A70FB7803F0D6
:101C70000F03DAB2FB681A703A88FB68DA60FB6817
:101C8000BA781A71FB685B78002B04D0FB681B786C
:101C90009AB2FB681A81BB78022B02D1FB68002242
:101CA0005A717B6893F8BC34012B01D102230EE0FA
:101CB0007B68012283F8BC247B681B68F96818469E
:101CC00003F02EF87B68002283F8BC24FB7A1846C8
:101CD0001037BD4680BD80B584B000AF78600B463C
:101CE000FB7097F90330002B0FDAFB7803F00F023B
:101CF0001346DB0013449B0038337A6813440433E3
:101D0000FB60FB6801225A700FE0FB7803F00F02C2
:101D10001346DB0013449B0003F51E737A681344DB
:101D20000433FB60FB6800225A70FB7803F00F035A
:101D3000DAB2FB681A707B6893F8BC34012B01D1CE
:101D400002230EE07B68012283F8BC247B681B68B9
:101D5000F968184603F06CF87B68002283F8BC240D
:101D6000002318461037BD4680BD80B586B000AF51
:101D7000F8607A603B600B46FB72FB7A03F00F025F
:101D80001346DB0013449B0003F51E73FA681344EB
:101D900004337B617B697A681A617B693A689A616E
:101DA0007B6900221A627B6900225A70FB7A03F079
:101DB0000F03DAB27B691A70FB681B69012B02D131
:101DC0007A687B695A61FB7A03F00F03002B09D113
:101DD000FB681868FB681B69DBB21A46796903F077
:101DE00053FB08E0FB681868FB681B69DBB21A4606
:101DF000796903F0F9F8002318461837BD4680BD0D
:101E000080B483B000AF78600B46FB70FB7803F0C2
:101E10000F0279681346DB0013449B000B4403F563
:101E200027731B6818460C37BD465DF8047B704766
:101E300080B586B000AFF8607A603B600B46FB72FD
:101E4000FB7A03F00F021346DB0013449B00383388
:101E5000FA68134404337B617B697A681A617B6991
:101E60003A689A617B6900221A627B6901225A7082
:101E7000FB7A03F00F03DAB27B691A70FB681B6907
:101E8000012B02D17A687B695A61FB7A03F00F0358
:101E9000002B09D1FB681868FB681B69DBB21A4686
:101EA000796903F0F1FA08E0FB681868FB681B69C0
:101EB000DBB21A46796903F097F800231846183701
:101EC000BD4680BD80B584B000AF78600B46FB7026
:101ED000FB7803F00F027B685B689A4201D901230B
:101EE00050E097F90330002B0FDAFB7803F00F0274
:101EF0001346DB0013449B0038337A6813440433E1
:101F0000FB60FB6801225A700DE0FA781346DB0093
:101F100013449B0003F51E737A6813440433FB607B
:101F2000FB6800225A70FB6801229A70FB7803F06C
:101F30000F03DAB2FB681A707B6893F8BC34012B8C
:101F400001D102231EE07B68012283F8BC247B6858
:101F50001B68F968184603F033FDFB7803F00F03A4
:101F6000002B0AD17B6818687B681B69D9B27B6833
:101F700003F2C4431A4603F025FF7B68002283F86E
:101F8000BC24002318461037BD4680BD80B584B000
:101F900000AF78600B46FB70FB7803F00F027B68A4
:101FA0005B689A4201D9012342E097F90330002B84
:101FB0000FDAFB7803F00F021346DB0013449B009B
:101FC00038337A6813440433FB60FB6801225A708B
:101FD0000FE0FB7803F00F021346DB0013449B0075
:101FE00003F51E737A6813440433FB60FB68002218
:101FF0005A70FB6800229A70FB7803F00F03DAB284
:10200000FB681A707B6893F8BC34012B01D1022362
:102010000EE07B68012283F8BC247B681B68F968AA
:10202000184603F03BFD7B68002283F8BC240023A4
:1020300018461037BD4680BD80B584B000AF7860CB
:102040000B46FB7097F90330002B0CDAFB7803F09A
:102050000F021346DB0013449B0038337A681344A5
:102060000433FB600CE0FB7803F00F021346DB0047
:1020700013449B0003F51E737A6813440433FB601A
:102080007B681B68F968184603F05AFB0346FB722D
:10209000FB7A18461037BD4680BD80B58AB002AFC6
:1020A000786039607B681B687B617B693B613A685B
:1020B0001346DB0013449B0038337A68134404331F
:1020C000FB60FB681A6AFB689B699A4201D901238D
:1020D0006CE0FB689A69FB681B6AD31AFB61FB68BA
:1020E000DB68FA699A4202D9FB68DB68FB61FB692D
:1020F00003339B08BB612BE0FB689A69FB681B6A92
:10210000D31AFB61FB68DB68FA699A4202D9FB6863
:10211000DB68FB61FB6903339B08BB61FB681969E2
:102120003B68DAB2FB6998B27B681B69DBB200934B
:102130000346786903F0AEFBFB681A69FB691A4431
:10214000FB681A61FB681A6AFB691A44FB681A6229
:102150003B685A013B69134403F510639B699BB2CA
:10216000BA699A4209D8FB681A6AFB689B699A4265
:1021700003D2FB689B69002BBED1FB689A69FB68A0
:102180001B6A9A4211D83B6803F00F03012202FA3E
:1021900003F3BB603B6903F500635A6BBB68DB4329
:1021A000396901F5006113404B630023184620375D
:1021B000BD4680BD80B588B000AF786039607B686F
:1021C0001B68FB61FB69BB61FB693C3304331B6823
:1021D0007B613B685A01BB69134403F530639B681C
:1021E0003B617B681B69012B7BD13B6903F00803D2
:1021F000002B15D07B69614A934240F2B9803B695C
:1022000003F40043002B00F0B3803B685A01BB6924
:10221000134403F530631A464FF400439360A7E07C
:102220003B6903F02003002B09D03B685A01BB69CE
:10223000134403F530631A462023936098E03B690A
:1022400003F02803002B40F093807B694B4A9342B4
:102250000FD93B6903F40043002B0AD03B685A01B5
:10226000BB69134403F530631A464FF4004393608F
:102270007EE03A681346DB0013449B0003F51E73AF
:102280007A6813440433FB60FB68DA693B685901E0
:10229000BB690B4403F530631B69C3F31203D21A05
:1022A000FB681A623B68002B14D1FB689B69002B0A
:1022B00009D17B6818687B6803F2C4431A46012180
:1022C00003F080FD06E0FB681A69FB681B6A1A448C
:1022D000FB681A613B68DBB21946786806F0B4F90E
:1022E00046E07B69264A934224D13B6903F40043CC
:1022F000002B0AD03B685A01BB69134403F53063D5
:102300001A464FF40043936032E03B6903F0200328
:10231000002B08D03B685A01BB69134403F53063B6
:102320001A46202393603B68DBB21946786806F0B2
:102330008BF91DE03B68002B14D179683A6813468D
:10234000DB0013449B000B4403F525731B68002B33
:1023500008D17B6818687B6803F2C4431A460021E1
:1023600003F030FD3B68DBB21946786806F06CF983
:10237000002318462037BD4680BD00BF0A30544FA9
:102380000A31544F80B586B000AF786039607B6801
:102390001B687B617B693B617B693C3304331B6851
:1023A000FB603B685A013B69134403F530639B684B
:1023B000BB60FB68154A93420ED9BB6803F4004327
:1023C000002B09D03B685A013B69134403F5306385
:1023D0001A464FF400439360786806F023F9FB68CF
:1023E0000A4A93420CD97B681B69012B08D17B6890
:1023F00018687B6803F2C4431A46012103F0E2FC2B
:10240000002318461837BD4680BD00BF0A30544F20
:1024100080B485B000AF78600B46FB7013463B80FC
:102420007B681B685B6ABB60FB78002B07D13B882D
:1024300019047B681B68BA680A439A6228E07B68C3
:102440001B689B6A1B0CBA681344BB600023FB73B8
:102450000DE07B681A68FB7B40339B0013445B688C
:102460001B0CBA681344BB60FB7B0133FB73FA7B24
:10247000FB78013B9A42ECD33B8818047B681968CF
:10248000FB78013BBA68024340339B000B445A601F
:10249000002318461437BD465DF8047B704780B4AE
:1024A00083B000AF78600B467B807B681B687A88BE
:1024B0005A62002318460C37BD465DF8047B70470E
:1024C00080B485B000AF78607B681B68FB607B6878
:1024D0000122C3F800257B68002283F8F424FB68FE
:1024E0009B6943F00062FB689A61FB685A6D054B7B
:1024F0001343FA685365002318461437BD465DF848
:10250000047B70470300001080B483B000AF786094
:102510000B46FB7000BF0C37BD465DF8047B70476F
:1025200080B584B000AF7860194BDB6803F004031A
:10253000042B0AD0164BDB6803F007037A689A4233
:1025400001D001231FE000231DE0114BDB6823F0C5
:1025500007020F497B681343CB60FEF7DDF9F86093
:1025600009E0FEF7D9F90246FB68D31AB3F57A7F82
:1025700001D9012307E0064B5B6803F40053B3F570
:10258000005FEED1002318461037BD4680BD00BF66
:102590000048025880B400AF054BDB68044A43F0A2
:1025A0008073D36000BFBD465DF8047B704700BFF9
:1025B0000048025880B58CB000AF78607B68002B73
:1025C00002D1012300F01DBC7B681B6803F00103EE
:1025D000002B00F08780994B1B6903F03803FB62E6
:1025E000964B9B6ABB62FB6A102B07D0FB6A182BC9
:1025F00010D1BB6A03F00303022B0BD18F4B1B6876
:1026000003F40033002B6CD07B685B68002B68D12F
:102610000123F6E37B685B68B3F5803F06D1874B07
:102620001B68864A43F4803313602EE07B685B6846
:10263000002B0CD1814B1B68804A23F4803313603C
:102640007E4B1B687D4A23F4802313601DE07B686A
:102650005B68B3F5A02F0CD1784B1B68774A43F425
:1026600080231360754B1B68744A43F480331360F6
:102670000BE0724B1B68714A23F4803313606F4B7D
:102680001B686E4A23F4802313607B685B68002B11
:1026900013D0FEF741F9786208E0FEF73DF90246F3
:1026A0007B6AD31A642B01D90323AAE3634B1B680B
:1026B00003F40033002BF0D014E0FEF72DF978621C
:1026C00008E0FEF729F902467B6AD31A642B01D988
:1026D000032396E3594B1B6803F40033002BF0D11E
:1026E00000E000BF7B681B6803F00203002B00F0D2
:1026F000CB80524B1B6903F038033B624F4B9B6A04
:10270000FB613B6A002B07D03B6A182B56D1FB6953
:1027100003F00303002B51D1484B1B6803F0040363
:10272000002B05D07B68DB68002B01D1012368E317
:10273000424B1B6823F019027B68DB683F49134357
:102740000B60FEF7E9F8786208E0FEF7E5F802466C
:102750007B6AD31A022B01D9032352E3374B1B6840
:1027600003F00403002BF0D0FEF706F9034641F214
:102770000302934217D87B681B69402B08D12F4B6B
:102780005B6823F47C332D4A43F4003353607BE0D1
:102790002A4B5B6823F47C327B681B691B03274947
:1027A00013434B6070E0254B5B6823F0FE427B686F
:1027B0001B691B06214913434B6065E07B68DB689E
:1027C000002B48D01D4B1B6823F019027B68DB6887
:1027D0001A4913430B60FEF79FF8786208E0FEF792
:1027E0009BF802467B6AD31A022B01D9032308E324
:1027F000124B1B6803F00403002BF0D0FEF7BCF86B
:10280000034641F2030293421AD87B681B69402BAE
:1028100008D10A4B5B6823F47C33084A43F4003345
:10282000536031E0054B5B6823F47C327B681B69A5
:102830001B03024913434B6026E000BF00440258CB
:102840009A4B5B6823F0FE427B681B691B06974925
:1028500013434B6018E0954B1B68944A23F0010327
:102860001360FEF759F8786208E0FEF755F8024663
:102870007B6AD31A022B01D90323C2E28B4B1B685C
:1028800003F00403002BF0D17B681B6803F01003F6
:10289000002B00F0A980854B1B6903F03803BB6156
:1028A000824B9B6A7B61BB69082B07D0BB69182BE5
:1028B0003AD17B6903F00303012B35D17B4B1B68B5
:1028C00003F48073002B05D07B68DB69802B01D07B
:1028D000012396E2FEF750F8034641F203029342C9
:1028E00017D87B681B6A202B08D1704B5B6823F0DC
:1028F000F8436E4A43F08043536075E06B4B5B686E
:1029000023F0F8427B681B6A9B06684913434B60BF
:102910006AE0664BDB6823F07C527B681B6A1B060F
:1029200062491343CB605FE07B68DB69002B42D0D8
:102930005E4B1B685D4A43F080031360FDF7ECFFBC
:10294000786208E0FDF7E8FF02467B6AD31A022BA3
:1029500001D9032355E2554B1B6803F48073002B08
:10296000F0D0FEF709F8034641F20302934217D86C
:102970007B681B6A202B08D14C4B5B6823F0F84323
:102980004A4A43F0804353602EE0484B5B6823F093
:10299000F8427B681B6A9B06444913434B6023E063
:1029A000424BDB6823F07C527B681B6A1B063F4965
:1029B0001343CB6018E03D4B1B683C4A23F0800377
:1029C0001360FDF7A9FF786208E0FDF7A5FF024656
:1029D0007B6AD31A022B01D9032312E2334B1B6803
:1029E00003F48073002BF0D17B681B6803F00803AD
:1029F000002B36D07B685B69002B19D02B4B5B6FAB
:102A00002A4A43F001035367FDF786FF786208E026
:102A1000FDF782FF02467B6AD31A022B01D90323FA
:102A2000EFE1224B5B6F03F00203002BF0D018E0C4
:102A30001E4B5B6F1D4A23F001035367FDF76CFFCC
:102A4000786208E0FDF768FF02467B6AD31A022B22
:102A500001D90323D5E1154B5B6F03F00203002B73
:102A6000F0D17B681B6803F02003002B39D07B6812
:102A70009B69002B1CD00D4B1B680C4A43F4805300
:102A80001360FDF749FF786208E0FDF745FF024655
:102A90007B6AD31A022B01D90323B2E1034B1B68D3
:102AA00003F40053002BF0D01BE000BF0044025899
:102AB0009B4B1B689A4A23F480531360FDF72CFF4D
:102AC000786208E0FDF728FF02467B6AD31A022BE2
:102AD00001D9032395E1924B1B6803F40053002BAB
:102AE000F0D17B681B6803F00403002B00F08180A9
:102AF0008C4B1B688B4A43F480731360FDF70CFF0B
:102B0000786208E0FDF708FF02467B6AD31A642B5F
:102B100001D9032375E1834B1B6803F48073002BF9
:102B2000F0D07B689B68012B06D17D4B1B6F7C4AE4
:102B300043F0010313672DE07B689B68002B0CD1E9
:102B4000774B1B6F764A23F001031367744B1B6F9F
:102B5000734A23F0040313671CE07B689B68052B12
:102B60000CD16F4B1B6F6E4A43F0040313676C4B21
:102B70001B6F6B4A43F0010313670BE0684B1B6F3D
:102B8000674A23F001031367654B1B6F644A23F008
:102B9000040313677B689B68002B15D0FDF7BCFE10
:102BA00078620AE0FDF7B8FE02467B6AD31A41F26A
:102BB0008832934201D9032323E1594B1B6F03F061
:102BC0000203002BEED014E0FDF7A6FE78620AE0C7
:102BD000FDF7A2FE02467B6AD31A41F28832934285
:102BE00001D903230DE14E4B1B6F03F00203002BB1
:102BF000EED17B685B6A002B00F00281484B1B69B9
:102C000003F03803182B00F0BD807B685B6A022B51
:102C100040F09E80424B1B68414A23F08073136052
:102C2000FDF77AFE786208E0FDF776FE02467B6AE1
:102C3000D31A022B01D90323E3E0394B1B6803F0BD
:102C40000073002BF0D1364B9A6A374B13407A68E9
:102C5000916A7A68D26A12010A43314913438B623E
:102C60007B681B6B013BC3F308027B685B6B013B1A
:102C70005B029BB21A437B689B6B013B1B0403F412
:102C8000FE031A437B68DB6B013B1B0603F0FE432C
:102C9000234913430B63224BDB6A214A23F00103D0
:102CA000D3621F4B5A6B214B13407A68926CD2004F
:102CB0001B4913434B631A4BDB6A23F00C027B68FE
:102CC0001B6C17491343CB62154BDB6A23F00202DE
:102CD0007B685B6C12491343CB62114BDB6A104A71
:102CE00043F48033D3620E4BDB6A0D4A43F4003366
:102CF000D3620B4BDB6A0A4A43F48023D362084B4E
:102D0000DB6A074A43F00103D362054B1B68044AA0
:102D100043F080731360FDF7FFFD786211E000BFA0
:102D200000440258004802580CFCFFFF0700FFFF58
:102D3000FDF7F2FD02467B6AD31A022B01D9032369
:102D40005FE0324B1B6803F00073002BF0D057E0BC
:102D50002E4B1B682D4A23F080731360FDF7DCFDBA
:102D6000786208E0FDF7D8FD02467B6AD31A022B91
:102D700001D9032345E0254B1B6803F00073002BAA
:102D8000F0D13DE0214B9B6A3B61204B1B6BFB600C
:102D90007B685B6A012B31D03B6903F003027B68DF
:102DA0009B6A9A422AD13B691B0903F03F027B6868
:102DB000DB6A9A4222D1FB68C3F308027B681B6B73
:102DC000013B9A421AD1FB685B0A03F07F027B68E1
:102DD0005B6B013B9A4211D1FB681B0C03F07F0235
:102DE0007B689B6B013B9A4208D1FB681B0E03F08A
:102DF0007F027B68DB6B013B9A4201D0012300E03C
:102E0000002318463037BD4680BD00BF004402583D
:102E100080B586B000AF786039607B68002B01D147
:102E200001239CE18A4B1B6803F00F033A689A4226
:102E300010D9874B1B6823F00F0285493B68134369
:102E40000B60834B1B6803F00F033A689A4201D072
:102E5000012384E17B681B6803F00403002B10D07E
:102E60007B681A697B4B9B6903F070039A4208D90F
:102E7000784B9B6923F070027B681B69754913438B
:102E80008B617B681B6803F00803002B10D07B6804
:102E90005A69704BDB6903F070039A4208D96D4B95
:102EA000DB6923F070027B685B696A491343CB617D
:102EB0007B681B6803F01003002B10D07B689A69B5
:102EC000644BDB6903F4E0639A4208D9614BDB6928
:102ED00023F4E0627B689B695E491343CB617B68A6
:102EE0001B6803F02003002B10D07B68DA69594B74
:102EF0001B6A03F070039A4208D9564B1B6A23F0F1
:102F000070027B68DB69534913430B627B681B6863
:102F100003F00203002B10D07B68DA684D4B9B69ED
:102F200003F00F039A4208D94A4B9B6923F00F0222
:102F30007B68DB68474913438B617B681B6803F040
:102F40000103002B55D0434B9B6923F470627B68CF
:102F50009B68404913438B617B685B68022B07D1F8
:102F60003C4B1B6803F40033002B21D10123F6E016
:102F70007B685B68032B07D1364B1B6803F000733B
:102F8000002B15D10123EAE07B685B68012B07D198
:102F9000304B1B6803F48073002B09D10123DEE062
:102FA0002C4B1B6803F00403002B01D10123D6E056
:102FB000284B1B6923F007027B685B682549134394
:102FC0000B61FDF7A9FC78610AE0FDF7A5FC02465C
:102FD0007B69D31A41F28832934201D90323BEE0C0
:102FE0001C4B1B6903F038027B685B68DB009A426C
:102FF000EBD17B681B6803F00203002B10D07B68C9
:10300000DA68144B9B6903F00F039A4208D2114B04
:103010009B6923F00F027B68DB680E4913438B61C9
:103020000B4B1B6803F00F033A689A4214D2084B0B
:103030001B6823F00F0206493B6813430B60044BE7
:103040001B6803F00F033A689A4205D0012386E01B
:1030500000200052004402587B681B6803F0040300
:10306000002B10D07B681A693F4B9B6903F07003FB
:103070009A4208D23C4B9B6923F070027B681B6923
:10308000394913438B617B681B6803F00803002BED
:1030900010D07B685A69344BDB6903F070039A42A5
:1030A00008D2314BDB6923F070027B685B692E49E3
:1030B0001343CB617B681B6803F01003002B10D017
:1030C0007B689A69284BDB6903F4E0639A4208D273
:1030D000254BDB6923F4E0627B689B69224913433B
:1030E000CB617B681B6803F02003002B10D07B684A
:1030F000DA691D4B1B6A03F070039A4208D21A4B1F
:103100001B6A23F070027B68DB69174913430B626B
:1031100000F034F80246144B9B691B0A03F00F03BE
:103120001249CB5C03F01F0322FA03F33B610E4B01
:103130009B6903F00F030D4AD35C03F01F033A6948
:1031400022FA03F30A4A13600A4A3B6913600A4BE6
:103150001B681846FDF796FB0346FB73FB7B18467E
:103160001837BD4680BD00BF004402584096000895
:1031700004000024000000240800002480B489B06A
:1031800000AFB34B1B6903F03803182B00F25581D5
:1031900001A252F823F000BFFD3100083B340008C3
:1031A0003B3400083B3400083B3400083B34000843
:1031B0003B3400083B340008233200083B3400084D
:1031C0003B3400083B3400083B3400083B34000823
:1031D0003B3400083B340008293200083B34000827
:1031E0003B3400083B3400083B3400083B34000803
:1031F0003B3400083B3400082F320008944B1B6816
:1032000003F02003002B09D0914B1B68DB0803F06F
:103210000303904A22FA03F3BB6111E18D4BBB61BA
:103220000EE18D4BBB610BE18C4BBB6108E1884B20
:103230009B6A03F003037B61854B9B6A1B0903F0C8
:103240003F033B61824BDB6A03F00103FB60804B71
:103250005B6BDB08C3F30C03FA6802FB03F307EEB6
:10326000903AF8EE677AC7ED027A3B69002B00F0DE
:10327000E1807B69022B00F083807B69022B00F2E6
:10328000A1807B69002B03D07B69012B56D099E08C
:103290006F4B1B6803F02003002B2DD06C4B1B6879
:1032A000DB0803F003036B4A22FA03F37B607B68BD
:1032B00007EE903AF8EE676A3B6907EE903AF8EE4F
:1032C000677A86EEA77A624B1B6BC3F3080307EE9F
:1032D000903AF8EE676A97ED026ADFED615AC6EE42
:1032E000257A76EEA77AF7EE006A77EEA67A67EE91
:1032F000277AC7ED077A87E03B6907EE903AF8EE48
:10330000677ADFED586A86EEA77A514B1B6BC3F3E1
:10331000080307EE903AF8EE676A97ED026ADFED70
:10332000505AC6EE257A76EEA77AF7EE006A77EE67
:10333000A67A67EE277AC7ED077A65E03B6907EE64
:10334000903AF8EE677ADFED486A86EEA77A404B4E
:103350001B6BC3F3080307EE903AF8EE676A97ED2C
:10336000026ADFED3F5AC6EE257A76EEA77AF7EECF
:10337000006A77EEA67A67EE277AC7ED077A43E010
:103380003B6907EE903AF8EE677ADFED386A86EE31
:10339000A77A2F4B1B6BC3F3080307EE903AF8EEA6
:1033A000676A97ED026ADFED2E5AC6EE257A76EE51
:1033B000A77AF7EE006A77EEA67A67EE277AC7ED6E
:1033C000077A21E03B6907EE903AF8EE677ADFED85
:1033D000266A86EEA77A1E4B1B6BC3F3080307EE23
:1033E000903AF8EE676A97ED026ADFED1D5AC6EE75
:1033F000257A76EEA77AF7EE006A77EEA67A67EE80
:10340000277AC7ED077A00BF114B1B6B5B0A03F0ED
:103410007F0301333B603B6807EE903AB8EE677A72
:10342000D7ED076AC6EE877AFCEEE77A17EE903A98
:10343000BB6105E00023BB6102E0074BBB6100BF3D
:10344000BB6918462437BD465DF8047B704700BF52
:10345000004402580090D00300093D00001BB70053
:10346000000000460024744C0024744A001B374BB3
:1034700080B582B000AFFFF781FE0246104B9B691A
:103480001B0A03F00F030F49CB5C03F01F0322FA62
:1034900003F37B600A4B9B6903F00F03094AD35C7B
:1034A00003F01F037A6822FA03F3074A1360074AFE
:1034B0007B681360044B1B6818460837BD4680BD07
:1034C0000044025840960008040000240000002434
:1034D00080B586B000AF78600023FB750023BB7514
:1034E0007B681B6803F00063002B3FD07B685B6E3A
:1034F000B3F5401F2AD0B3F5401F24D8B3F5001F01
:1035000018D0B3F5001F1ED8002B03D0B3F5801FD1
:1035100007D018E0A34BDB6AA24A43F40033D3621E
:1035200015E07B6804330221184600F017FF0346BC
:10353000FB750CE07B6824330221184600F0C0FFC5
:103540000346FB7503E00123FB7500E000BFFB7D34
:10355000002B09D1934B1B6D23F440127B685B6EEB
:10356000904913430B6501E0FB7DBB757B681B68CD
:1035700003F48073002B3DD07B685B6D042B26D851
:1035800001A252F823F000BF9D350008AB350008BA
:10359000BD350008D5350008D5350008814BDB6AFC
:1035A000804A43F40033D36215E07B680433002182
:1035B000184600F0D3FE0346FB750CE07B6824330D
:1035C0000021184600F07CFF0346FB7503E0012351
:1035D000FB7500E000BFFB7D002B09D1714B1B6D1B
:1035E00023F007027B685B6D6E4913430B6501E0B6
:1035F000FB7DBB757B681B6803F40073002B42D016
:103600007B689B6DB3F5807F2BD0B3F5807F25D889
:10361000C02B28D0C02B21D8802B16D0802B1DD8B2
:10362000002B02D0402B07D018E05E4BDB6A5D4ACE
:1036300043F40033D36217E07B680433002118465B
:1036400000F08CFE0346FB750EE07B6824330021FE
:10365000184600F035FF0346FB7505E00123FB75B6
:1036600002E000BF00E000BFFB7D002B09D14D4B05
:103670001B6D23F4E0727B689B6D4A4913430B6515
:1036800001E0FB7DBB757B681B6803F48063002B46
:1036900049D07B68D3F8A430B3F5000F30D0B3F530
:1036A000000F2AD8B3F5C00F2CD0B3F5C00F24D823
:1036B000B3F5800F18D0B3F5800F1ED8002B03D0C0
:1036C000B3F5001F07D018E0364BDB6A354A43F4E8
:1036D0000033D36217E07B6804330021184600F002
:1036E0003DFE0346FB750EE07B682433002118463F
:1036F00000F0E6FE0346FB7505E00123FB7502E0E2
:1037000000BF00E000BFFB7D002B0AD1254B9B6D65
:1037100023F460027B68D3F8A430224913438B65FD
:1037200001E0FB7DBB757B681B6803F40063002B25
:103730004BD07B68D3F8A830B3F1806F30D0B3F1B1
:10374000806F2AD8B3F1407F2ED0B3F1407F24D8C8
:10375000B3F1007F18D0B3F1007F1ED8002B03D047
:10376000B3F1807F07D018E00E4BDB6A0D4A43F4BB
:103770000033D36219E07B6804330021184600F05F
:10378000EDFD0346FB7510E07B68243300211846ED
:1037900000F096FE0346FB7507E00123FB7504E08D
:1037A00000BF02E00044025800BFFB7D002B0AD19D
:1037B000994B9B6D23F0E0627B68D3F8A830964963
:1037C00013438B6501E0FB7DBB757B681B6803F0D1
:1037D0000073002B32D07B689B6C302B1CD0302BBD
:1037E00017D8202B0CD0202B13D8002B16D0102B41
:1037F0000FD1894BDB6A884A43F40033D3620EE071
:103800007B6804330221184600F0A8FD0346FB75CF
:1038100005E00123FB7502E000BF00E000BFFB7D77
:10382000002B09D17C4BDB6C23F030027B689B6C56
:1038300079491343CB6401E0FB7DBB757B681B6852
:1038400003F48053002B47D07B68DB6DB3F5804FCA
:1038500030D0B3F5804F2AD8B3F5405F2CD0B3F504
:10386000405F24D8B3F5005F18D0B3F5005F1ED8D1
:10387000002B03D0B3F5805F07D018E0664BDB6AFE
:10388000654A43F40033D36217E07B6804330021B8
:10389000184600F063FD0346FB750EE07B68243399
:1038A0000021184600F00CFE0346FB7505E00123DD
:1038B000FB7502E000BF00E000BFFB7D002B09D1DB
:1038C000554B1B6D23F4E0427B68DB6D524913437B
:1038D0000B6501E0FB7DBB757B681B6803F400533F
:1038E000002B49D07B681B6EB3F5A02F2ED0B3F50B
:1038F000A02F28D8B3F5802F2AD0B3F5802F22D857
:10390000B3F5403F26D0B3F5403F1CD8B3F5003F98
:1039100010D0B3F5003F16D8002B1DD0B3F5803F73
:1039200011D17B6804330121184600F017FD0346CE
:10393000FB7512E07B6824330121184600F0C0FDBE
:103940000346FB7509E00123FB7506E000BF04E0B8
:1039500000BF02E000BF00E000BFFB7D002B09D1EB
:103960002D4B1B6D23F4E0227B681B6E2A49134309
:103970000B6501E0FB7DBB757B681B6803F480432E
:10398000002B4DD07B68D3F8AC30B3F1A04F2ED0D4
:10399000B3F1A04F28D8B3F1804F2AD0B3F1804FB4
:1039A00022D8B3F1405F26D0B3F1405F1CD8B3F109
:1039B000005F10D0B3F1005F16D8002B1DD0B3F11B
:1039C000805F11D17B6804330121184600F0C6FCEA
:1039D0000346FB7512E07B6824330121184600F092
:1039E0006FFD0346FB7509E00123FB7506E000BF90
:1039F00004E000BF02E000BF00E000BFFB7D002B41
:103A00000CD1054B9B6D23F0E0427B68D3F8AC30C2
:103A1000014913438B6503E000440258FB7DBB75ED
:103A20007B681B6803F40043002B2FD07B68DB6EA0
:103A3000B3F1005F0ED0B3F1005F14D8002B15D0A6
:103A4000B3F1805F0FD1AF4BDB6AAE4A43F4003372
:103A5000D3620CE07B6804330121184600F07EFC41
:103A60000346FB7503E00123FB7500E000BFFB7D0F
:103A7000002B09D1A34B1B6D23F040527B68DB6EFA
:103A8000A04913430B6501E0FB7DBB757B681B6898
:103A900003F08073002B32D07B685B6C032B1BD848
:103AA00001A252F823F000BFDF3A0008B93A00083B
:103AB000C73A0008DF3A0008924BDB6A914A43F4A8
:103AC0000033D3620CE07B6804330221184600F017
:103AD00045FC0346FB7503E00123FB7500E000BFD6
:103AE000FB7D002B09D1874BDB6C23F003027B6845
:103AF0005B6C84491343CB6401E0FB7DBB757B6841
:103B00001B6803F48003002B00F086807E4B1B684B
:103B10007D4A43F480731360FCF7FEFE386109E0D0
:103B2000FCF7FAFE02463B69D31A642B02D9032341
:103B3000FB7505E0744B1B6803F48073002BEFD01A
:103B4000FB7D002B66D16F4B1A6F7B68D3F8B030CA
:103B5000534003F44073002B13D06A4B1B6F23F4C4
:103B60004073FB60674B1B6F664A43F480331367F7
:103B7000644B1B6F634A23F480331367614AFB680D
:103B800013677B68D3F8B030B3F5807F15D1FCF7AD
:103B9000C3FE38610BE0FCF7BFFE02463B69D31A57
:103BA00041F28832934202D90323FB7505E0554B5D
:103BB0001B6F03F00203002BEDD0FB7D002B26D101
:103BC0007B68D3F8B03003F44073B3F5407F0DD178
:103BD0004C4B1B6923F47C527B68D3F8B030190935
:103BE0004A4B0B40474913430B6105E0454B1B69AA
:103BF000444A23F47C531361424B1A6F7B68D3F819
:103C0000B030C3F30B033F4913430B6704E0FB7D64
:103C1000BB7501E0FB7DBB757B681B6803F001038E
:103C2000002B00F085807B689B6F282B66D801A253
:103C300052F823F0113D0008FD3C0008FD3C00084F
:103C4000FD3C0008FD3C0008FD3C0008FD3C000870
:103C5000FD3C0008D93C0008FD3C0008FD3C000884
:103C6000FD3C0008FD3C0008FD3C0008FD3C000850
:103C7000FD3C0008EB3C0008FD3C0008FD3C000852
:103C8000FD3C0008FD3C0008FD3C0008FD3C000830
:103C9000FD3C0008113D0008FD3C0008FD3C00080B
:103CA000FD3C0008FD3C0008FD3C0008FD3C000810
:103CB000FD3C0008113D0008FD3C0008FD3C0008EB
:103CC000FD3C0008FD3C0008FD3C0008FD3C0008F0
:103CD000FD3C0008113D00087B68043301211846B3
:103CE00000F03CFB0346FB7513E07B6824330121A5
:103CF000184600F0E5FB0346FB750AE00123FB755F
:103D000007E000BF0044025800480258CFFFFF0000
:103D100000BFFB7D002B09D1964B5B6D23F0380271
:103D20007B689B6F934913434B6501E0FB7DBB753B
:103D30007B681B6803F00203002B38D07B685B6F45
:103D4000052B21D801A252F823F000BF8F3D0008B7
:103D5000653D0008773D00088F3D00088F3D000855
:103D60008F3D00087B6804330121184600F0F6FA05
:103D70000346FB750CE07B6824330121184600F0F4
:103D80009FFB0346FB7503E00123FB7500E000BFCA
:103D9000FB7D002B09D1774B5B6D23F007027B681D
:103DA0005B6F744913434B6501E0FB7DBB757B681A
:103DB0001B6803F00403002B3AD07B68D3F89030E3
:103DC000052B21D801A252F823F000BF0F3E0008B6
:103DD000E53D0008F73D00080F3E00080F3E0008D3
:103DE0000F3E00087B6804330121184600F0B6FA44
:103DF0000346FB750CE07B6824330121184600F074
:103E00005FFB0346FB7503E00123FB7500E000BF89
:103E1000FB7D002B0AD1574B9B6D23F007027B687B
:103E2000D3F89030534913438B6501E0FB7DBB759C
:103E30007B681B6803F02003002B4BD07B68D3F812
:103E40008C30B3F1A04F2ED0B3F1A04F28D8B3F1EE
:103E5000804F2AD0B3F1804F22D8B3F1405F26D0F3
:103E6000B3F1405F1CD8B3F1005F10D0B3F1005F35
:103E700016D8002B1DD0B3F1805F11D17B680433BD
:103E80000021184600F06AFA0346FB7512E07B68D1
:103E900024330221184600F013FB0346FB7509E0AA
:103EA0000123FB7506E000BF04E000BF02E000BF95
:103EB00000E000BFFB7D002B0AD12E4B5B6D23F091
:103EC000E0427B68D3F88C302A4913434B6501E00C
:103ED000FB7DBB757B681B6803F04003002B4DD056
:103EE0007B68D3F89830B3F5A05F2ED0B3F5A05F10
:103EF00028D8B3F5805F2AD0B3F5805F22D8B3F518
:103F0000406F26D0B3F5406F1CD8B3F5006F10D0CA
:103F1000B3F5006F16D8002B1DD0B3F5806F11D10B
:103F20007B6804330021184600F018FA0346FB753D
:103F300012E07B6824330221184600F0C1FA0346E0
:103F4000FB7509E00123FB7506E000BF04E000BF3C
:103F500002E000BF00E000BFFB7D002B0CD1054B51
:103F60009B6D23F4E0527B68D3F8983001491343EA
:103F70008B6503E000440258FB7DBB757B681B68C2
:103F800003F08003002B4BD07B68D3F89C30B3F553
:103F9000204F2ED0B3F5204F28D8B3F5004F2AD0AC
:103FA000B3F5004F22D8B3F5C04F26D0B3F5C04FBC
:103FB0001CD8B3F5804F10D0B3F5804F16D8002B26
:103FC0001DD0B3F5005F11D17B6804330021184682
:103FD00000F0C4F90346FB7512E07B68243302212C
:103FE000184600F06DFA0346FB7509E00123FB75E6
:103FF00006E000BF04E000BF02E000BF00E000BF39
:10400000FB7D002B0AD19D4B9B6D23F460427B68A6
:10401000D3F89C30994913438B6501E0FB7DBB7558
:104020007B681B6803F00803002B1AD07B68D3F869
:104030008030B3F5805F0AD17B68243302211846B3
:1040400000F03EFA0346002B01D00123BB758B4BD9
:104050005B6D23F440527B68D3F88030874913436B
:104060004B657B681B6803F01003002B1AD07B683C
:10407000D3F89430B3F5807F0AD17B6824330221D2
:10408000184600F01DFA0346002B01D00123BB7532
:104090007A4B9B6D23F440727B68D3F89430774958
:1040A00013438B657B681B6803F40023002B34D01B
:1040B0007B68D3F8A030B3F5003F1DD0B3F5003FC7
:1040C00017D8002B03D0B3F5803F09D011E07B68EF
:1040D00004330021184600F041F90346FB750CE05B
:1040E0007B6824330221184600F0EAF90346FB7589
:1040F00003E00123FB7500E000BFFB7D002B0AD12C
:104100005E4B9B6D23F440327B68D3F8A0305B4953
:1041100013438B6501E0FB7DBB757B681B6803F473
:104120008023002B33D07B68D3F88430B3F5401F55
:104130001CD0B3F5401F16D8B3F5801F03D0B3F5DC
:10414000001F07D00FE04D4BDB6A4C4A43F40033AD
:10415000D3620CE07B6824330121184600F0B0F9EB
:104160000346FB7503E00123FB7500E000BFFB7D08
:10417000002B0AD1414B5B6D23F440127B68D3F8CE
:1041800084303E4913434B6501E0FB7DBB757B6882
:104190001B6803F48033002B29D07B68DB6C002B79
:1041A00003D0B3F5803F07D00FE0344BDB6A334ACE
:1041B00043F40033D3620BE07B68043302211846DA
:1041C00000F0CCF80346FB7502E00123FB7500BF4D
:1041D000FB7D002B09D1294BDB6C23F480327B68FB
:1041E000DB6C26491343CB6401E0FB7DBB757B6828
:1041F0001B6803F00053002B0AD07B682433022194
:10420000184600F05DF90346002B01D00123BB7571
:104210007B681B6803F40033002B33D07B68DB6FB3
:10422000B3F5407F17D0B3F5407F11D8B3F5007FC9
:1042300013D0B3F5007F0BD8002B10D0B3F5807FDF
:1042400006D10E4BDB6A0D4A43F40033D36207E01C
:104250000123FB7504E000BF02E000BF00E000BFE7
:10426000FB7D002B0CD1054B5B6D23F440727B680A
:10427000DB6F024913434B6504E000BF0044025862
:10428000FB7DBB757B681B6803F48013002B08D093
:10429000314B1B6D23F000427B681B6F2E4913438B
:1042A0000B657B681B6803F08053002B09D02A4BF9
:1042B0001B6923F480427B68D3F8B430264913434A
:1042C0000B617B681B6803F40013002B08D0224BA2
:1042D0001B6D23F080727B689B6E1F4913430B6537
:1042E0007B681B6803F08043002B0DD01A4B1B69C1
:1042F000194A23F400431361174B1A697B68D3F8FA
:10430000B830154913430B617B681B68002B08DA32
:10431000114BDB6C23F040527B681B6D0E4913433D
:10432000CB647B681B6803F40003002B09D00A4BA5
:104330005B6D23F440027B68D3F888300649134351
:104340004B65BB7D002B01D1002300E00123184603
:104350001837BD4680BD00BF0044025880B584B008
:1043600000AF786039600023FB73534B9B6A03F006
:104370000303032B01D1012399E04F4B1B684E4AE5
:1043800023F080631360FCF7C7FAB86008E0FCF71D
:10439000C3FA0246BB68D31A022B01D9032386E075
:1043A000454B1B6803F00063002BF0D1424B9B6A26
:1043B00023F47C327B681B681B033F4913438B62E9
:1043C0007B685B68013BC3F308027B689B68013B29
:1043D0005B029BB21A437B68DB68013B1B0403F45E
:1043E000FE031A437B681B69013B1B0603F0FE4377
:1043F000314913438B63304BDB6A23F0C0027B6887
:104400005B692D491343CB622B4BDB6A23F02002FF
:104410007B689B6928491343CB62274BDB6A264A9A
:1044200023F01003D362244BDA6B244B13407A68D9
:10443000D269D20020491343CB631F4BDB6A1E4A6B
:1044400043F01003D3623B68002B06D11A4BDB6AA2
:10445000194A43F40023D3620FE03B68012B06D1D5
:10446000154BDB6A144A43F48013D36205E0124B08
:10447000DB6A114A43F40013D3620F4B1B680E4AE8
:1044800043F080631360FCF747FAB86008E0FCF77C
:1044900043FA0246BB68D31A022B01D9032306E074
:1044A000054B1B6803F00063002BF0D0FB7B184624
:1044B0001037BD4680BD00BF004402580700FFFF13
:1044C00080B584B000AF786039600023FB73534B34
:1044D0009B6A03F00303032B01D1012399E04F4BA7
:1044E0001B684E4A23F080531360FCF715FAB8603E
:1044F00008E0FCF711FA0246BB68D31A022B01D977
:10450000032386E0454B1B6803F00053002BF0D1DA
:10451000424B9B6A23F07C727B681B681B053F49FA
:1045200013438B627B685B68013BC3F308027B68C3
:104530009B68013B5B029BB21A437B68DB68013BD3
:104540001B0403F4FE031A437B681B69013B1B0633
:1045500003F0FE43314913430B64304BDB6A23F411
:1045600040627B685B692D491343CB622B4BDB6A4E
:1045700023F400727B689B6928491343CB62274B65
:10458000DB6A264A23F48073D362244B5A6C244B93
:1045900013407A68D269D200204913434B641F4B01
:1045A000DB6A1E4A43F48073D3623B68002B06D15A
:1045B0001A4BDB6A194A43F48003D3620FE03B686D
:1045C000012B06D1154BDB6A144A43F40003D36276
:1045D00005E0124BDB6A114A43F08073D3620F4B44
:1045E0001B680E4A43F080531360FCF795F9B860DE
:1045F00008E0FCF791F90246BB68D31A022B01D9F7
:10460000032306E0054B1B6803F00053002BF0D09A
:10461000FB7B18461037BD4680BD00BF00440258E2
:104620000700FFFF84B080B584B000AF786007F169
:104630001C0080E80E003B6B012B20D17B689B6B3C
:1046400023F480327B689A637B68DA682A4B1340D4
:104650007A68D3607B68DB6823F440127B68DA6099
:10466000FB6C012B05D17B68DB6843F480127B680F
:10467000DA60786801F004FC0346FB731AE07B689B
:10468000DB6843F040027B68DA60786801F0F8FB91
:104690000346FB733B6C002B06D17B689B6B43F49A
:1046A00080327B689A6305E07B689B6B23F48032E1
:1046B0007B689A63BB6A012B16D17B68DB6D9AB26B
:1046C0007B68DA657B68DA6D0C4B13437A68D365D7
:1046D0007B689B6843F006027B689A607B689B68F6
:1046E00043F020027B689A60FB7B18461037BD467A
:1046F000BDE8804004B07047BFFFBDFF0000EE037F
:1047000080B487B000AFF860B9601346FB71FB79E5
:10471000022B65D1BB68414A934206D9BB68404A27
:10472000934202D20F237B6162E0BB683C4A934212
:1047300006D3BB683B4A934202D20E237B6157E00B
:10474000BB68384A934206D3BB68374A934202D2C9
:104750000D237B614CE0BB68334A934206D3BB68B0
:10476000324A934202D80C237B6141E0BB682F4A56
:10477000934206D9BB682E4A934202D80B237B6131
:1047800036E0BB682A4A934206D9BB68294A93425D
:1047900002D80A237B612BE0BB68264A934206D9E4
:1047A000BB68254A934202D209237B6120E0BB68A3
:1047B000214A934206D3BB68204A934202D8082379
:1047C0007B6115E0BB681D4A934206D9BB681C4A51
:1047D000934202D207237B610AE006237B6107E054
:1047E000FB79002B02D109237B6101E009237B6166
:1047F000FB68DB6823F47052FB68DA60FB68DA68F8
:104800007B699B0203F470531A43FB68DA60002350
:1048100018461C37BD465DF8047B7047BFACD80016
:10482000C0E1E4000024F400807306019F491A01EE
:10483000FF2C31013FA44C0100366E011FABA601D5
:104840000048E80180B483B000AF78607B689B6863
:1048500043F001027B689A60002318460C37BD467E
:104860005DF8047B704780B483B000AF78607B68EC
:104870009B6823F001027B689A60002318460C377E
:10488000BD465DF8047B704780B584B000AF7860AA
:104890000B46FB700023FB607B68DB6823F0C042A3
:1048A0007B68DA60FB78012B15D17B68DB6843F00D
:1048B00000527B68DA600120FCF73AF8FB680133AC
:1048C000FB60786801F04BFA0346012B1ED0FB68B1
:1048D000312BF0D91AE0FB78002B15D17B68DB680F
:1048E00043F080427B68DA600120FCF721F8FB6826
:1048F0000133FB60786801F032FA0346002B05D0E3
:10490000FB68312BF0D901E0012305E0FB68322B75
:1049100001D1012300E0002318461037BD4680BDB9
:1049200084B080B586B000AF786007F1240080E8DD
:104930000E000023FB757B68FB6000233B6109E0F0
:104940007A683B6940339B00134400225A603B69FC
:1049500001333B613B690E2BF2D9FB6C002B1CD160
:10496000FB6803F500635B68FA6802F5006243F0D8
:10497000020353607B689B6B23F400127B689A638D
:104980007B681B6843F040027B681A607B681B6889
:1049900043F080027B681A6005E07B689B6B43F400
:1049A00000127B689A63FB6803F560631A46002374
:1049B0001360FB6803F500631946FB6803F50063A9
:1049C0001A460B681360BB6B012B0CD1FB6A002BE2
:1049D00004D10021786800F065F908E001217868C9
:1049E00000F060F903E00321786800F05BF9102122
:1049F000786800F0F3F80346002B01D00123FB7523
:104A0000786800F01FF90346002B01D00123FB75E5
:104A1000FB6803F500631A4600231361FB6803F586
:104A200000631A4600235361FB6803F500631A46CE
:104A30000023D36100233B6143E03B695A01FB68DB
:104A4000134403F510631B6803F00043B3F1004FF8
:104A500018D13B69002B0AD13B695A01FB6813440A
:104A600003F510631A464FF00063136013E03B69CF
:104A70005A01FB68134403F510631A464FF0904344
:104A8000136008E03B695A01FB68134403F51063A7
:104A90001A46002313603B695A01FB68134403F56F
:104AA00010631A46002313613B695A01FB681344E3
:104AB00003F510631A464FF67F3393603B69013369
:104AC0003B617B6A3A699A42B7D300233B6143E07A
:104AD0003B695A01FB68134403F530631B6803F01C
:104AE0000043B3F1004F18D13B69002B0AD13B6959
:104AF0005A01FB68134403F530631A464FF0006314
:104B0000136013E03B695A01FB68134403F53063FB
:104B10001A464FF09043136008E03B695A01FB6866
:104B2000134403F530631A46002313603B695A01AE
:104B3000FB68134403F530631A46002313613B6995
:104B40005A01FB68134403F530631A464FF67F336E
:104B500093603B6901333B617B6A3A699A42B7D300
:104B6000FB6803F500631B69FA6802F5006223F431
:104B7000807313617B6800229A617B686FF08042CA
:104B80005A613B6B002B05D17B689B6943F0100297
:104B90007B689A617B689A690E4B13437A689361CC
:104BA000FB6B002B05D07B689B6943F008027B6898
:104BB0009A61FB6C012B05D17B689A69064B134304
:104BC0007A689361FB7D18461837BD46BDE8804082
:104BD00004B0704700383C800400004080B485B0C9
:104BE00000AF786039600023FB60FB680133FB6035
:104BF000FB68134A934201D903231BE07B681B69BE
:104C0000002BF2DA0023FB603B689B0143F020029B
:104C10007B681A61FB680133FB60FB68084A9342BA
:104C200001D9032306E07B681B6903F02003202BD6
:104C3000F0D0002318461437BD465DF8047B70475A
:104C4000400D030080B485B000AF78600023FB60A6
:104C5000FB680133FB60FB68114A934201D90323CF
:104C600018E07B681B69002BF2DA0023FB607B688D
:104C700010221A61FB680133FB60FB68084A93420B
:104C800001D9032306E07B681B6903F01003102B96
:104C9000F0D0002318461437BD465DF8047B7047FA
:104CA000400D030080B485B000AF78600B46FB7008
:104CB0007B68FB60FB6803F500631A68FB78F968A2
:104CC00001F5006113430B60002318461437BD46FD
:104CD0005DF8047B704780B487B000AF78607B6874
:104CE0003B613B6903F500639B6803F00603FB60CF
:104CF000FB68002B02D10023FB750AE0FB68022B46
:104D000002D0FB68062B02D10223FB7501E00F23C2
:104D1000FB75FB7D18461C37BD465DF8047B70476C
:104D200080B485B000AF786039607B68FB603B6819
:104D30001B78BB603B685B78012B39D1FB6803F5BE
:104D40000063DA693B681B7803F00F03012101FA65
:104D500003F39BB2F96801F500611343CB61BB68B3
:104D60005A01FB68134403F510631B6803F4004306
:104D7000002B53D1BB685A01FB68134403F5106341
:104D80001A683B68DB68C3F30A013B681B799B0424
:104D90001943BB689B050B431A43BB685901FB6869
:104DA0000B4403F510631946204B13430B6035E0A9
:104DB000FB6803F50063DA693B681B7803F00F03B7
:104DC000012101FA03F31B04F96801F500611343A3
:104DD000CB61BB685A01FB68134403F530631B6861
:104DE00003F40043002B19D1BB685A01FB6813443C
:104DF00003F530631A683B68DB68C3F30A013B685C
:104E00001B799B040B431A43BB685901FB680B4495
:104E100003F530631946054B13430B600023184616
:104E20001437BD465DF8047B704700BF008000105A
:104E300080B485B000AF786039607B68FB603B6808
:104E40001B78BB603B685B78012B61D1BB685A0162
:104E5000FB68134403F510631B6803F00043B3F1D0
:104E6000004F1FD1BB685A01FB68134403F5106360
:104E70001B68BA685101FA680A4402F5106243F0EF
:104E800000631360BB685A01FB68134403F51063A9
:104E90001B68BA685101FA680A4402F5106243F0CF
:104EA00080431360FB6803F50063DA6B3B681B7893
:104EB00003F00F03012101FA03F39BB2DB43F9680E
:104EC00001F500611340CB63FB6803F50063DA6909
:104ED0003B681B7803F00F03012101FA03F39BB237
:104EE000DB43F96801F500611340CB61BB685A01EF
:104EF000FB68134403F510631A68BB685901FB682B
:104F00000B4403F510631946354B13400B6060E00A
:104F1000BB685A01FB68134403F530631B6803F058
:104F20000043B3F1004F1FD1BB685A01FB68134423
:104F300003F530631B68BA685101FA680A4402F548
:104F4000306243F000631360BB685A01FB6813448E
:104F500003F530631B68BA685101FA680A4402F528
:104F6000306243F080431360FB6803F50063DA6B43
:104F70003B681B7803F00F03012101FA03F31B04C4
:104F8000DB43F96801F500611340CB63FB6803F56F
:104F90000063DA693B681B7803F00F03012101FA13
:104FA00003F31B04DB43F96801F500611340CB6197
:104FB000BB685A01FB68134403F530631A68BB6889
:104FC0005901FB680B4403F530631946054B134048
:104FD0000B60002318461437BD465DF8047B70470C
:104FE000007833EC0078F3EF80B58AB002AFF86058
:104FF000B9601346FB71FB68FB61BB681B78BB6142
:10500000BB685B78012B40F06381BB689B69002B18
:1050100032D1BB695A01FB69134403F510631A6965
:10502000BB695901FB690B4403F510631946A54B95
:1050300013400B61BB695A01FB69134403F510630C
:105040001B69BA695101FA690A4402F5106243F416
:1050500000231361BB695A01FB69134403F5106314
:105060001A69BB695901FB690B4403F510631946C2
:10507000954B13400B6174E0BB695A01FB69134403
:1050800003F510631A69BB695901FB690B4403F509
:10509000106319468C4B13400B61BB695A01FB69C5
:1050A000134403F510631A69BB695901FB690B448A
:1050B00003F510631946834B13400B61BB695A011A
:1050C000FB69134403F510631A69BB689969BB68EF
:1050D000DB680B44591EBB68DB68B1FBF3F3D904F2
:1050E0007A4B0B40B9694801F969014401F5106137
:1050F00013430B61BB695A01FB69134403F5106349
:105100001A69BB689B69C3F31203B9694801F9695D
:10511000014401F5106113430B61BB681B79012B3E
:105120001FD1BB695A01FB69134403F510631B6966
:10513000BA695101FA690A4402F5106223F0C043CA
:105140001361BB695A01FB69134403F510631B69C2
:10515000BA695101FA690A4402F5106243F000533A
:105160001361FB79012B4BD1BB685B69002B09D024
:10517000BB695A01FB69134403F510631A46BB6807
:105180005B695361BB681B79012B28D1FB6903F56F
:1051900000639B6803F48073002B10D1BB695A0134
:1051A000FB69134403F510631B68BA695101FA697E
:1051B0000A4402F5106243F0005313600FE0BB692C
:1051C0005A01FB69134403F510631B68BA69510166
:1051D000FA690A4402F5106243F080531360BB6918
:1051E0005A01FB69134403F510631B68BA69510146
:1051F000FA690A4402F5106243F00443136037E190
:10520000BB695A01FB69134403F510631B68BA6953
:105210005101FA690A4402F5106243F00443136035
:10522000BB681B79012B15D0BB689B69002B00F074
:105230001F81FB6903F500635A6BBB681B7803F0A1
:105240000F03012101FA03F3F96901F5006113432A
:105250004B630DE1FB6903F500639B6803F4807306
:10526000002B10D1BB695A01FB69134403F510638D
:105270001B68BA695101FA690A4402F5106243F0E9
:10528000005313600FE0BB695A01FB69134403F537
:1052900010631B68BA695101FA690A4402F5106289
:1052A00043F080531360BB681969BB681A78BB6808
:1052B0009B6998B2FB7900930346F86800F0EAFA1C
:1052C000D6E000BFFFFF07E00000F8FF0000F81F76
:1052D000BB695A01FB69134403F530631A69BB6962
:1052E0005901FB690B4403F530631946634B1340C6
:1052F0000B61BB695A01FB69134403F530631A69FA
:10530000BB695901FB690B4403F5306319465C4BDB
:1053100013400B61BB689B69002B23D1BB695A0109
:10532000FB69134403F530631A69BB68DB68C3F398
:105330001203B9694801F969014401F53061134369
:105340000B61BB695A01FB69134403F530631B69A8
:10535000BA695101FA690A4402F5306243F4002344
:10536000136137E0BB689A69BB68DB6813445A1E57
:10537000BB68DB68B2FBF3F3FB82BB68DB68FA8ACD
:1053800003FB02F2BB68DA61BB695A01FB69134493
:1053900003F530631A69FB8AD9043A4B0B40B969AB
:1053A0004801F969014401F5306113430B61BB69A0
:1053B0005A01FB69134403F530631A69BB68DB6962
:1053C000C3F31203B9694801F969014401F5306179
:1053D00013430B61FB79012B0DD1BB681B69002BBB
:1053E00009D0BB681969BB695A01FB69134403F50D
:1053F00030630A465A61BB681B79012B28D1FB69CF
:1054000003F500639B6803F48073002B10D1BB6924
:105410005A01FB69134403F530631B68BA695101F3
:10542000FA690A4402F5306243F0005313600FE05A
:10543000BB695A01FB69134403F530631B68BA6901
:105440005101FA690A4402F5306243F08053136057
:10545000BB695A01FB69134403F530631B68BA69E1
:105460005101FA690A4402F5306243F004431360C3
:10547000002318462037BD4680BD00BF0000F8FF5E
:10548000FFFF07E00000F81F80B487B000AFF860AE
:10549000B9601346FB71FB687B61BB681B783B619D
:1054A000BB685B78012B40F0CE80BB689B69002B0A
:1054B00032D13B695A017B69134403F510631A69C1
:1054C0003B6959017B690B4403F5106319469A4BFC
:1054D00013400B613B695A017B69134403F5106368
:1054E0001B693A6951017A690A4402F5106243F472
:1054F000002313613B695A017B69134403F5106370
:105500001A693B6959017B690B4403F5106319461D
:105510008A4B13400B614EE03B695A017B6913448F
:1055200003F510631A693B6959017B690B4403F564
:1055300010631946814B13400B613B695A017B692B
:10554000134403F510631A693B6959017B690B44E5
:1055500003F510631946784B13400B61BB689A69D9
:10556000BB68DB689A4203D9BB68DA68BB689A619A
:105570003B695A017B69134403F510631B693A695F
:1055800051017A690A4402F5106243F40023136161
:105590003B695A017B69134403F510631A69BB68C0
:1055A0009B69C3F31203396948017969014401F524
:1055B000106113430B61FB79012B1ED1BB685B6942
:1055C000002B09D03B695A017B69134403F5106332
:1055D0001A46BB685B6953613B695A017B69134496
:1055E00003F510631B683A6951017A690A4402F5B0
:1055F000106243F00443136097E03B695A017B69F2
:10560000134403F510631B683A6951017A690A442F
:1056100002F5106243F004431360BB689B69002BE2
:1056200000F083807B6903F500635A6BBB681B78CD
:1056300003F00F03012101FA03F3796901F5006119
:1056400013434B6371E03B695A017B69134403F5D3
:1056500030631A693B6959017B690B4403F5306378
:105660001946364B13400B613B695A017B69134461
:1056700003F530631A693B6959017B690B4403F5F3
:10568000306319462C4B13400B61BB689B69002BA0
:1056900003D0BB68DA68BB689A61BB68DA68BB682C
:1056A000DA613B695A017B69134403F530631B6976
:1056B0003A6951017A690A4402F5306243F40023E1
:1056C00013613B695A017B69134403F530631A691E
:1056D000BB68DB69C3F31203396948017969014486
:1056E00001F5306113430B61FB79012B0DD1BB68D0
:1056F0001B69002B09D0BB6819693B695A017B699A
:10570000134403F530630A465A613B695A017B69C9
:10571000134403F530631B683A6951017A690A44FE
:1057200002F5306243F004431360002318461C372F
:10573000BD465DF8047B7047FFFF07E00000F8FFFF
:1057400080B487B000AF786039600023FB6000232D
:10575000FB757B683B613B685B78012B4AD13B68FA
:105760001B785A013B69134403F510631B6803F06F
:105770000043B3F1004F40F086803B681B785A012C
:105780003B69134403F510631B683A6812785101B2
:105790003A690A4402F5106243F0006313603B6803
:1057A0001B785A013B69134403F510631B683A6880
:1057B000127851013A690A4402F5106243F08043BD
:1057C0001360FB680133FB60FB6842F21072934286
:1057D00002D90123FB7556E03B681B785A013B69EF
:1057E000134403F510631B6803F00043B3F1004F4B
:1057F000E7D048E03B681B785A013B69134403F546
:1058000030631B6803F00043B3F1004F3BD13B68AA
:105810001B785A013B69134403F530631B683A68EF
:10582000127851013A690A4402F5306243F000638C
:1058300013603B681B785A013B69134403F53063DE
:105840001B683A68127851013A690A4402F53062DD
:1058500043F080431360FB680133FB60FB6842F256
:105860001072934202D90123FB750CE03B681B7850
:105870005A013B69134403F530631B6803F000438E
:10588000B3F1004FE7D0FB7D18461C37BD465DF8ED
:10589000047B704780B489B000AFF860B9601146EE
:1058A0001A460B46FB711346BB80FB687B61BB68E5
:1058B000FB6197F82830002B23D1BB8803339B086A
:1058C0003B610023BB6118E0FB791A037B69134439
:1058D00003F580531A46FB691B681360FB690133AB
:1058E000FB61FB690133FB61FB690133FB61FB6910
:1058F0000133FB61BB690133BB61BA693B699A4201
:10590000E2D3002318462437BD465DF8047B704778
:1059100080B48BB000AFF860B9601346FB80FB68C1
:10592000BB61BB687B62FB889B089BB27B61FB8889
:1059300003F00303FB8300233B6214E0BB6903F520
:1059400080531A687B6A1A607B6A01337B627B6AC8
:1059500001337B627B6A01337B627B6A01337B624A
:105960003B6A01333B623A6A7B699A42E6D3FB8B1E
:10597000002B1ED000233B62BB6903F580531A46FF
:1059800007F1100312681A603A693B6ADBB2DB0068
:1059900022FA03F3DAB27B6A1A703B6A01333B6284
:1059A0007B6A01337B62FB8B013BFB83FB8B002B10
:1059B000EAD17B6A18462C37BD465DF8047B7047F8
:1059C00080B485B000AF786039607B68FB603B686D
:1059D0001B78BB603B685B78012B2CD1BB685A01FC
:1059E000FB68134403F510631B68002B12DBBB68D4
:1059F000002B0FD0BB685A01FB68134403F51063FA
:105A00001B68BA685101FA680A4402F5106223F073
:105A100080431360BB685A01FB68134403F51063AD
:105A20001B68BA685101FA680A4402F5106243F42F
:105A3000001313602BE0BB685A01FB68134403F5A5
:105A400030631B68002B12DBBB68002B0FD0BB68D8
:105A50005A01FB68134403F530631B68BA685101AF
:105A6000FA680A4402F5306223F080431360BB6891
:105A70005A01FB68134403F530631B68BA6851018F
:105A8000FA680A4402F5306243F4001313600023FD
:105A900018461437BD465DF8047B704780B485B066
:105AA00000AF786039607B68FB603B681B78BB6047
:105AB0003B685B78012B28D1BB685A01FB68134413
:105AC00003F510631B68BA685101FA680A4402F5CD
:105AD000106223F4001313603B681B79032B03D07F
