:020000040800F2
:1000000000000824F9150008710F0008770F000898
:100010007D0F0008830F0008890F00080000000012
:100020000000000000000000000000008F0F00082A
:100030009D0F000800000000AB0F0008B90F00087A
:100040004916000849160008491600084916000814
:100050004916000849160008491600084916000804
:1000600049160008491600084916000849160008F4
:1000700049160008491600084916000849160008E4
:1000800049160008491600084916000849160008D4
:1000900049160008491600084916000849160008C4
:1000A00049160008491600084916000849160008B4
:1000B00049160008491600084916000849160008A4
:1000C0004916000849160008491600084916000894
:1000D0004916000849160008C50F0008D90F000886
:1000E00049160008491600080000000049160008DB
:1000F0004916000849160008491600084916000864
:100100004916000849160008491600084916000853
:100110004916000849160008491600084916000843
:100120004916000849160008491600084916000833
:100130004916000849160008491600084916000823
:1001400000000000000000000000000000000000AF
:100150004916000849160008491600084916000803
:1001600049160008491600084916000849160008F3
:1001700049160008491600084916000849160008E3
:1001800049160008491600084916000849160008D3
:1001900049160008491600084916000849160008C3
:1001A00049160008491600084916000849160008B3
:1001B00049160008491600084916000849160008A3
:1001C0004916000849160008ED0F00080110000844
:1001D00049160008151000084916000849160008BD
:1001E0004916000849160008491600084916000873
:1001F0004916000849160008491600084916000863
:100200004916000849160008491600084916000852
:100210004916000849160008491600084916000842
:100220004916000849160008491600080000000099
:100230004916000849160008000000004916000889
:100240004916000849160008491600084916000812
:100250004916000849160008491600084916000802
:1002600049160008491600084916000849160008F2
:100270004916000849160008491600080000000049
:100280004916000849160008491600080000000039
:080290000000000049160008FF
:1002A00010B5054C237833B9044B13B10448AFF3B0
:1002B00000800123237010BDA40100240000000071
:1002C0005806010808B5034B1BB103490348AFF3B7
:1002D000008008BD00000000A801002458060108A5
:1002E00001F0FF01102A2BDB10F0070F08D010F8E7
:1002F000013B013A8B422DD010F0070F42B3F6D1EB
:10030000F0B441EA012141EA014122F007047FF003
:1003100000070023F0E80256083C85EA010586EA5A
:10032000010685FA47F5A3FA87F586FA47F6A5FA96
:1003300087F68EB9EED1F0BC01F0FF0102F00702A2
:1003400032B110F8013B013A83EA010313B1F8D14D
:100350000020704701387047002D06BF354603382E
:10036000073815F0010F07D1013015F4807F02BF67
:10037000013015F4C03F0130F0BC0138704700BFB8
:1003800053B94AB9002908BF00281CBF4FF0FF31FC
:100390004FF0FF3000F074B9ADF1080C6DE904CEF8
:1003A00000F006F8DDF804E0DDE9022304B0704750
:1003B0002DE9F047089D04468E46002B4DD18A4218
:1003C000944669D9B2FA82F252B101FA02F3C2F14B
:1003D000200120FA01F10CFA02FC41EA030E9440DC
:1003E0004FEA1C48210CBEFBF8F61FFA8CF708FBFD
:1003F00016E341EA034306FB07F199420AD91CEBD5
:10040000030306F1FF3080F01F81994240F21C8106
:10041000023E63445B1AA4B2B3FBF8F008FB10334E
:1004200044EA034400FB07F7A7420AD91CEB040483
:1004300000F1FF3380F00A81A74240F20781644453
:10044000023840EA0640E41B00261DB1D4400023D8
:10045000C5E900433146BDE8F0878B4209D9002D3C
:1004600000F0EF800026C5E9000130463146BDE8C6
:10047000F087B3FA83F6002E4AD18B4202D3824230
:1004800000F2F980841A61EB030301209E46002DDF
:10049000E0D0C5E9004EDDE702B9FFDEB2FA82F234
:1004A000002A40F09280A1EB0C014FEA1C471FFA92
:1004B0008CFE0126200CB1FBF7F307FB131140EA79
:1004C00001410EFB03F0884208D91CEB010103F146
:1004D000FF3802D2884200F2CB804346091AA4B208
:1004E000B1FBF7F007FB101144EA01440EFB00FEDC
:1004F000A64508D91CEB040400F1FF3102D2A64541
:1005000000F2BB800846A4EB0E0440EA03409CE7DF
:10051000C6F12007B34022FA07FC4CEA030C20FA8C
:1005200007F401FA06F31C43F9404FEA1C4900FAAC
:1005300006F3B1FBF9F8200C1FFA8CFE09FB181129
:1005400040EA014108FB0EF0884202FA06F20BD99C
:100550001CEB010108F1FF3A80F08880884240F2EC
:100560008580A8F102086144091AA4B2B1FBF9F030
:1005700009FB101144EA014100FB0EFE8E4508D92B
:100580001CEB010100F1FF346CD28E456AD90238B0
:10059000614440EA0840A0FB0294A1EB0E01A14295
:1005A000C846A64656D353D05DB1B3EB080261EB03
:1005B0000E0101FA07F722FA06F3F1401F43C5E9DD
:1005C000007100263146BDE8F087C2F12003D84013
:1005D0000CFA02FC21FA03F3914001434FEA1C4755
:1005E0001FFA8CFEB3FBF7F007FB10360B0C43EA47
:1005F000064300FB0EF69E4204FA02F408D91CEBF7
:10060000030300F1FF382FD29E422DD902386344F4
:100610009B1B89B2B3FBF7F607FB163341EA034194
:1006200006FB0EF38B4208D91CEB010106F1FF38E3
:1006300016D28B4214D9023E6144C91A46EA0046DA
:1006400038E72E46284605E70646E3E61846F8E66C
:100650004B45A9D2B9EB020864EB0C0E0138A3E7B5
:100660004646EAE7204694E74046D1E7D0467BE796
:10067000023B614432E7304609E76444023842E70E
:10068000704700BF80B500AF002208210B4802F080
:10069000DBF801220421094802F0D6F806E00848F8
:1006A0000EF069F84FF47A7001F062F800F024F867
:1006B0000346002BF3D100BF00BF80BD00000258ED
:1006C0007006010880B586B002AF0346FB7107F1E2
:1006D0000F02F91DFF2300930123064806F014F8CA
:1006E0000346002B01D0FF23FB73FB7B184610371A
:1006F000BD4680BDD001002480B582B000AF174A4E
:100700003B4692E803001860043319703B4605220B
:100710001946302000F09AF83B4605221946102071
:1007200000F062F80023FB7109E0FB7908333B44D9
:1007300013F8083CA52B06D1FB790133FB71FB793B
:10074000042BF2D900E000BFFB79052B01D0012377
:1007500000E0002318460837BD4680BD7C0601082E
:1007600080B584B000AF03460A46FB711346BB71E7
:10077000002204210B4802F067F8FB791846FFF7C6
:10078000A1FF0346FB73BB791846FFF79BFF0122CD
:100790000421044802F058F8FB7B18461037BD4688
:1007A00080BD00BF0000025880B584B000AF034692
:1007B000FB71002204210B4802F046F8FB79184631
:1007C000FFF780FFFF20FFF77DFF0346FB73012249
:1007D0000421044802F038F8FB7B18461037BD4668
:1007E00080BD00BF0000025890B585B000AF034641
:1007F0003960FB711346BB7100220421124802F0DC
:1008000023F8FB791846FFF75DFF0346BB7300230F
:10081000FB730AE0FB7B3A68D418FF20FFF752FF16
:1008200003462370FB7B0133FB73FA7BBB799A424F
:10083000F0D301220421044802F006F8BB7B1846DD
:100840001437BD4690BD00BF0000025880B584B08B
:1008500000AF03463960FB711346BB7100220421CF
:10086000114801F0F1FFFB791846FFF72BFF034613
:10087000BB730023FB7309E03B685A1C3A601B788A
:100880001846FFF71FFFFB7B0133FB73FA7BBB7935
:100890009A42F1D301220421034801F0D5FFBB7B2A
:1008A00018461037BD4680BD0000025880B584B0A0
:1008B00000AF7860002208211A4801F0C5FF20220D
:1008C0007968A020FFF7C2FF01220821154801F036
:1008D000BBFF00BF1021134801F09EFF0346002B11
:1008E000F8D10720FFF760FF0346FB73FB7B194637
:1008F0002720FFF735FFFB7B03F01003002B05D00B
:10090000FF21E120FFF72CFF102307E0FB7B03F022
:100910002003002B01D0202300E0FF2318461037CE
:10092000BD4680BD0000025880B500AF00220821FE
:10093000174801F089FF052216493020FFF786FF8E
:10094000052215492A20FFF781FF01212120FFF709
:1009500007FF01212220FFF703FF1A212420FFF7C0
:10096000FFFE28212520FFF7FBFE07212620FFF7A9
:10097000F7FE0E212020FFF7F3FE01220821044894
:1009800001F062FF012000F0F3FE00BF80BD00BF58
:1009900000000258F0060108F806010880B58AB088
:1009A00000AF07F1140300221A605A609A60DA60FF
:1009B0001A614E4BD3F8E0304C4A43F00403C2F8BE
:1009C000E0304A4BD3F8E03003F004033B613B696D
:1009D000464BD3F8E030454A43F08003C2F8E0309C
:1009E000424BD3F8E03003F08003FB60FB683F4BE1
:1009F000D3F8E0303D4A43F00103C2F8E0303B4B0E
:100A0000D3F8E03003F00103BB60BB68374BD3F889
:100A1000E030364A43F00203C2F8E030334BD3F8FB
:100A2000E03003F002037B607B68304BD3F8E030AA
:100A30002E4A43F00803C2F8E0302C4BD3F8E030E4
:100A400003F008033B603B6801220721284801F0BE
:100A5000FBFE00220C21274801F0F6FE4FF4005364
:100A60007B614FF48813BB610123FB6107F1140321
:100A700019461F4801F020FD07237B610123BB615C
:100A80000223FB6100233B6207F114031946184857
:100A900001F012FD04237B610123BB610023FB6194
:100AA00003233B6207F114031946124801F004FDC9
:100AB00008237B610123BB610123FB6103233B62AC
:100AC00007F1140319460B4801F0F6FC10237B6173
:100AD0000023BB610123FB6107F11403194605489C
:100AE00001F0EAFC00BF2837BD4680BD0044025833
:100AF000000802580000025890B58DB000AF574B67
:100B00003C1D0FCB07C4238002341B0C237007F15C
:100B1000130300221A605A609A60DA601A744FF464
:100B20002F73FB6200F092FD00F0A6F800F020F9B0
:100B3000FFF734FF0DF0E8FC00F034FB00F03AF969
:100B400000F0FEFB00F04AFCFFF79CFDFFF7ECFE17
:100B50000DF0A0FA0023BB620021414806F09EF987
:100B60003F4B1B68FA6A5A633E4B1B78032BFBD83A
:100B700001A252F823F000BF890B0008B70B000850
:100B8000E50B0008010C00080DF0B8FAB862BB6A6A
:100B9000002B5CD0334B01221A70BB6A1B68324AAF
:100BA00013602F4B1B684FF42F725A6341F6583075
:100BB00000F0DEFD4BE00DF0A1FAB862BB6A002B3D
:100BC00047D0284B02221A70BB6A1B68274A136061
:100BD000234B1B6840F6C4125A6341F6583000F0AC
:100BE000C7FD36E00DF0C0FAB862BB6A002B32D008
:100BF000BB6A1B681E4A13601A4B03221A702AE054
:100C0000194B7B627B6A1B68C7F80630174B7B6207
:100C10007B6A1B68C7F80A30154B7B627B6A1B68CE
:100C2000C7F80E303B1D1846FFF740FE0022022198
:100C3000104801F009FEC82000F09AFD01220221AF
:100C40000C4801F001FE074B00221A708CE700BF30
:100C50008AE700BF88E700BF86E700BF8406010877
:100C60005C020024C0010024C4010024C801002447
:100C7000CC0100240008025880B59CB000AF07F1F9
:100C800024034C22002118460FF042F83B1D20227D
:100C9000002118460FF03CF8022003F0C3F80023AF
:100CA0003B60314B9B69304A43F4404393612E4B88
:100CB0009B6903F440433B602C4BDB6A2B4A43F0B7
:100CC0000103D362294BDB6A03F001033B603B68FD
:100CD00000BF254B9B6903F40053B3F5005FF8D1C7
:100CE00021237B624FF48033BB620123FB63022329
:100CF000BB640223FB6401233B6550237B65022315
:100D0000BB650223FB6502233B660C237B66002345
:100D1000BB660023FB6607F12403184603F0CCF8FA
:100D20000346002B01D000F03FF83F237B600323F4
:100D3000BB600023FB6008233B6140237B614023B1
:100D4000BB614FF48063FB6140233B623B1D042188
:100D5000184603F0DFFC0346002B01D000F024F816
:100D600000BF7037BD4680BD0048025800040058DF
:100D700080B5B0B000AF3B1DBC22002118460EF07C
:100D8000C7FF4FF000437B604FF000537B653B1D76
:100D9000184604F04BF80346002B01D000F004F88D
:100DA00000BFC037BD4680BD80B400AF72B600BF83
:100DB000FEE7000080B500AF2B4B2C4A1A602A4B8F
:100DC0004FF480025A60284B00229A60264B07227B
:100DD000DA60254B00221A61234B00225A61224B14
:100DE0004FF080629A61204B0022DA611E4B002294
:100DF0001A621D4B00225A621B4B00229A621A4B48
:100E00000022DA62184B4FF080425A63164B0022E0
:100E10009A63154B0022DA63134B00221A64124BBB
:100E200000225A64104B00229A640F4B0022DA64AD
:100E30000D4B00221A650C4B00225A650A4B00220A
:100E40009A65094805F05AFB0346002B01D0FFF7CD
:100E5000ABFF054B1B681A68034B1B6842F001028D
:100E60001A6000BF80BD00BFD001002400300140E7
:100E700080B5B8B000AF786007F1CC0300221A60EB
:100E80005A609A60DA601A6107F11003BC220021EF
:100E900018460EF03DFF7B681B68254A934242D1FD
:100EA0004FF480533B614FF48043FB6607F110031E
:100EB000184603F0BBFF0346002B01D0FFF774FF79
:100EC0001C4BD3F8F0301B4A43F48053C2F8F03087
:100ED000184BD3F8F03003F48053FB60FB68154BDC
:100EE000D3F8E030134A43F00103C2F8E030114B6D
:100EF000D3F8E03003F00103BB60BB68E023C7F820
:100F0000CC300223C7F8D0300023C7F8D4300023F8
:100F1000C7F8D8300523C7F8DC3007F1CC031946F1
:100F2000054801F0C9FA00BFE037BD4680BD00BFEB
:100F300000300140004402580000025880B483B0E1
:100F400000AF0A4BD3F8F430084A43F00203C2F86A
:100F5000F430064BD3F8F43003F002037B607B6877
:100F600000BF0C37BD465DF8047B70470044025853
:100F700080B400AFFEE780B400AFFEE780B400AFFE
:100F8000FEE780B400AFFEE780B400AFFEE780B4B8
:100F900000AF00BFBD465DF8047B704780B400AF72
:100FA00000BFBD465DF8047B704780B400AF00BF52
:100FB000BD465DF8047B704780B500AF00F0B8FB1C
:100FC00000BF80BD80B500AF024807F07FF800BFCA
:100FD00080BD00BFA802002480B500AF024807F022
:100FE00075F800BF80BD00BF3803002480B500AF96
:100FF000024801F099FD00BF80BD00BF242D0024F0
:1010000080B500AF024801F08FFD00BF80BD00BF7A
:10101000242D002480B500AF024801F085FD00BFFB
:1010200080BD00BF242D002480B586B000AF78605D
:10103000144A154BD31A7B617B693B61134B1B68C8
:10104000002B02D1114B124A1A60104B1A687B68B0
:1010500013443A699A4207D20EF022FE03460C224C
:101060001A604FF0FF3309E0084B1B68FB60074B29
:101070001A687B681344054A1360FB6818461837E2
:10108000BD4680BD00000824000400005802002472
:101090006034002480B400AF374BD3F88830364A30
:1010A00043F47003C2F88830344B1B6803F00F031D
:1010B000062B07D8314B1B6823F00F032F4A43F050
:1010C000070313602E4B1B682D4A43F00103136086
:1010D0002B4B00221A612A4B1A682949294B1340CD
:1010E0000B60264B1B6803F00803002B07D0234B33
:1010F0001B6823F00F03214A43F007031360204BC2
:1011000000229A611E4B0022DA611D4B00221A62F6
:101110001B4B1D4A9A621A4B1C4ADA62184B1C4A36
:101120001A63174B00225A63154B194A9A63144BE2
:101130000022DA63124B164A1A64114B00225A64D9
:101140000F4B1B680E4A23F4802313600C4B0022C4
:101150001A66104B1A68104B1340B3F1005F02D2AD
:101160000E4B01221A600E4B43F2D2021A6000BFEE
:10117000BD465DF8047B704700ED00E000200052A2
:10118000004402587FEDF6EA000202020000FF016F
:10119000800201010010005C0000FFFF0881005187
:1011A0000040005280B58EB000AF07F12803002246
:1011B0001A605A609A60DA6007F11C0300221A6014
:1011C0005A609A603B4600221A605A609A60DA6060
:1011D0001A615A619A612D4B4FF080421A602B4B75
:1011E000EF225A60294B00229A60284B40F69F72EA
:1011F000DA60264B00221A61244B80229A61234830
:1012000005F093FD0346002B01D0FFF7CDFD4FF411
:101210008053BB6207F1280319461C4806F060F8AA
:101220000346002B01D0FFF7BFFD184805F0D4FDA1
:101230000346002B01D0FFF7B7FD0023FB6100231D
:101240007B6207F11C031946104806F075FD034642
:10125000002B01D0FFF7A8FD60233B6000237B60DB
:101260000023BB6000233B613B4600221946074830
:1012700005F022FF0346002B01D0FFF795FD034840
:1012800000F026F800BF3837BD4680BD5C02002460
:1012900080B485B000AF78607B681B68B3F1804F85
:1012A0000ED10A4BD3F8E830084A43F00103C2F8E4
:1012B000E830064BD3F8E83003F00103FB60FB682D
:1012C00000BF1437BD465DF8047B704700440258E8
:1012D00080B588B000AF786007F10C0300221A6077
:1012E0005A609A60DA601A617B681B68B3F1804FBC
:1012F0001ED1114BD3F8E0300F4A43F00103C2F87E
:10130000E0300D4BD3F8E03003F00103BB60BB6865
:101310000123FB6002233B6100237B610023BB614F
:101320000123FB6107F10C031946044801F0C4F8DE
:1013300000BF2037BD4680BD00440258000002585F
:1013400080B500AF234B244A1A60224B4FF4612230
:101350005A60204B00229A601E4B0022DA601D4B1F
:1013600000221A611B4B0C225A611A4B00229A610F
:10137000184B0022DA61174B00221A62154B00222B
:101380005A62144B00229A62124806F063FD03462B
:10139000002B01D0FFF708FD00210E4808F0FBFFED
:1013A0000346002B01D0FFF7FFFC4FF020610948F6
:1013B00009F02FF80346002B01D0FFF7F5FC054894
:1013C00008F0B0FF0346002B01D0FFF7EDFC00BF93
:1013D00080BD00BFA80200240044004080B500AFDB
:1013E000224B234A1A60214B4FF416525A601F4B6E
:1013F00000229A601D4B0022DA601C4B00221A6109
:101400001A4B0C225A61194B00229A61174B002289
:10141000DA61164B00221A62144B00225A62134BF7
:1014200000229A62114806F015FD0346002B01D0F8
:10143000FFF7BAFC00210D4808F0ADFF0346002B72
:1014400001D0FFF7B1FC0021084808F0E2FF034695
:10145000002B01D0FFF7A8FC044808F063FF034607
:10146000002B01D0FFF7A0FC00BF80BD3803002493
:101470000048004080B5BAB000AF786007F1D403EF
:1014800000221A605A609A60DA601A6107F1180344
:10149000BC22002118460EF03BFC7B681B68514AB9
:1014A00093424AD10223BB610023C7F88C3007F175
:1014B0001803184603F0BAFC0346002B01D0FFF7CF
:1014C00073FC494BD3F8E830474A43F40033C2F881
:1014D000E830454BD3F8E83003F400337B617B6997
:1014E000414BD3F8E030404A43F00803C2F8E03003
:1014F0003D4BD3F8E03003F008033B613B696023C8
:10150000C7F8D4300223C7F8D8300023C7F8DC303E
:101510000323C7F8E0300723C7F8E43007F1D4030A
:101520001946324800F0C8FF00220021262000F0B2
:101530002AFA262000F041FA4FE07B681B682C4A0B
:1015400093424AD10223BB610023C7F88C3007F1D4
:101550001803184603F06AFC0346002B01D0FFF77E
:1015600023FC214BD3F8E8301F4A43F48023C2F810
:10157000E8301D4BD3F8E83003F48023FB60FB68B0
:10158000194BD3F8E030184A43F00203C2F8E030B8
:10159000154BD3F8E03003F00203BB60BB684FF497
:1015A0004063C7F8D4300223C7F8D8300023C7F807
:1015B000DC300023C7F8E0300723C7F8E43007F138
:1015C000D40319460B4800F077FF002200212720A2
:1015D00000F0D9F9272000F0F0F900BFE837BD4648
:1015E00080BD00BF0044004000440258000C025877
:1015F0000048004000040258DFF834D0FFF74AFDED
:101600000C480D490D4A002302E0D458C45004335D
:10161000C4188C42F9D30A4A0A4C002301E0136033
:101620000432A242FBD30EF041FBFFF765FA70478C
:101630000000082400000024A40100247C8F01087D
:10164000A401002460340024FEE7000080B582B0CD
:1016500000AF032000F08CF903F012FA0246154B9C
:101660009B691B0A03F00F031349CB5C03F01F03B4
:1016700022FA03F37B600F4B9B6903F00F030E4AC2
:10168000D35C03F01F037A6822FA03F30B4A13605A
:101690000B4A7B6813600F2000F014F80346002B00
:1016A00001D0012302E0FFF749FC00231846083768
:1016B000BD4680BD00440258000701080400002414
:1016C0000000002480B582B000AF7860154B1B7815
:1016D000002B01D1012321E0134B1A68114B1B7819
:1016E00019464FF47A73B3FBF1F3B2FBF3F31846E8
:1016F00000F071F90346002B01D001230EE07B6856
:101700000F2B0AD8002279684FF0FF3000F03BF928
:10171000064A7B681360002300E00123184608375F
:10172000BD4680BD0C0000240000002408000024F9
:1017300080B400AF064B1B781A46064B1B68134457
:10174000044A136000BFBD465DF8047B704700BFCC
:101750000C000024C803002480B400AF034B1B68B6
:101760001846BD465DF8047B704700BFC8030024DF
:1017700080B584B000AF7860FFF7EEFFB8607B689B
:10178000FB60FB68B3F1FF3F05D00A4B1B781A469C
:10179000FB681344FB6000BFFFF7DEFF0246BB6837
:1017A000D31AFA689A42F7D800BF00BF1037BD4677
:1017B00080BD00BF0C00002480B400AF034B1B6849
:1017C0001B0C1846BD465DF8047B70470010005C9A
:1017D00080B485B000AF78607B6803F00703FB60DE
:1017E0000B4BDB68BB60BA684FF6FF031340BB606E
:1017F000FB681A02BB681A43064B1343BB60044ADA
:10180000BB68D36000BF1437BD465DF8047B7047EA
:1018100000ED00E00000FA0580B400AF044BDB6887
:101820001B0A03F007031846BD465DF8047B7047AA
:1018300000ED00E080B483B000AF0346FB80B7F951
:101840000630002B0BDBFB8803F01F020749B7F9BA
:1018500006305B09012000FA02F241F8232000BFA4
:101860000C37BD465DF8047B704700BF00E100E027
:1018700080B483B000AF03463960FB80B7F906300F
:10188000002B0ADB3B68DAB20C49B7F906301201CB
:10189000D2B20B4483F800230AE03B68DAB208496D
:1018A000FB8803F00F03043B1201D2B20B441A76FB
:1018B00000BF0C37BD465DF8047B704700E100E0D7
:1018C00000ED00E080B489B000AFF860B9607A60E4
:1018D000FB6803F00703FB61FB69C3F10703042BFB
:1018E00028BF0423BB61FB690433062B02D9FB69C3
:1018F000033B00E000237B614FF0FF32BB6902FA3B
:1019000003F3DA43BB681A407B699A404FF0FF311A
:101910007B6901FA03F3D9437B680B4013431846F4
:101920002437BD465DF8047B7047000080B582B067
:1019300000AF78607B68013BB3F1807F01D3012366
:101940000FE00A4A7B68013B53600F214FF0FF30E4
:10195000FFF78EFF054B00229A60044B07221A60A6
:10196000002318460837BD4680BD00BF10E000E0E8
:1019700080B582B000AF78607868FFF729FF00BFBC
:101980000837BD4680BD80B586B000AF0346B9605C
:101990007A60FB81FFF740FF78617A68B9687869FF
:1019A000FFF790FF0246B7F90E3011461846FFF7D1
:1019B0005FFF00BF1837BD4680BD80B582B000AF65
:1019C0000346FB80B7F906301846FFF733FF00BF28
:1019D0000837BD4680BD80B582B000AF78607868BA
:1019E000FFF7A4FF034618460837BD4680BD000038
:1019F00080B586B000AF7860FFF7AEFE38617B68D7
:101A0000002B01D10123DCE27B6893F83530DBB297
:101A1000022B08D07B6880225A657B68002283F8FD
:101A200034200123CDE27B681B68764A93424AD07A
:101A30007B681B68744A934245D07B681B68734A75
:101A4000934240D07B681B68714A93423BD07B68CD
:101A50001B68704A934236D07B681B686E4A93427B
:101A600031D07B681B686D4A93422CD07B681B6821
:101A70006B4A934227D07B681B686A4A934222D004
:101A80007B681B68684A93421DD07B681B68674A65
:101A9000934218D07B681B68654A934213D07B68D9
:101AA0001B68644A93420ED07B681B68624A93426B
:101AB00009D07B681B68614A934204D07B681B682D
:101AC0005F4A934201D1012300E00023002B13D091
:101AD0007B681B681A687B681B6822F01E021A600C
:101AE0007B681B685A697B681B6822F080025A6118
:101AF0007B681B687B610AE07B681B681A687B68EF
:101B00001B6822F00E021A607B681B687B617B6891
:101B10001B683C4A934272D07B681B683A4A9342E6
:101B20006DD07B681B68394A934268D07B681B681C
:101B3000374A934263D07B681B68364A93425ED033
:101B40007B681B68344A934259D07B681B68334AD0
:101B5000934254D07B681B68314A93424FD07B68D4
:101B60001B68304A93424AD07B681B682E4A9342D6
:101B700045D07B681B682D4A934240D07B681B6828
:101B80002B4A93423BD07B681B682A4A934236D04B
:101B90007B681B68284A934231D07B681B68274AC0
:101BA00093422CD07B681B68254A934227D07B68E0
:101BB0001B68244A934222D07B681B68224A9342C6
:101BC0001DD07B681B68214A934218D07B681B6834
:101BD0001F4A934213D07B681B681E4A93420ED063
:101BE0007B681B681C4A934209D07B681B681B4AB0
:101BF000934204D07B681B68194A934232D1012377
:101C000031E000BF100002402800024040000240C6
:101C1000580002407000024088000240A0000240CC
:101C2000B800024010040240280402404004024070
:101C3000580402407004024088040240A00402409C
:101C4000B8040240085402581C5402583054025838
:101C500044540258585402586C5402588054025844
:101C6000945402580023002B07D07B681B6E1A681F
:101C70007B681B6E22F480721A607B681B686D4A59
:101C800093424AD07B681B686B4A934245D07B687D
:101C90001B686A4A934240D07B681B68684A93423B
:101CA0003BD07B681B68674A934236D07B681B68D1
:101CB000654A934231D07B681B68644A93422CD0BA
:101CC0007B681B68624A934227D07B681B68614A25
:101CD000934222D07B681B685F4A93421DD07B6889
:101CE0001B685E4A934218D07B681B685C4A93422B
:101CF00013D07B681B685B4A93420ED07B681B68DD
:101D0000594A934209D07B681B68584A934204D0D1
:101D10007B681B68564A934208D17B681B681A6827
:101D20007B681B6822F001021A6007E07B681B6871
:101D30001A687B681B6822F001021A6013E0FFF743
:101D40000BFD02463B69D31A052B0CD97B68202278
:101D50005A657B68032283F835207B68002283F86C
:101D6000342001232DE17B691B6803F00103002B64
:101D7000E5D17B681B682F4A93424AD07B681B6879
:101D80002D4A934245D07B681B682C4A934240D031
:101D90007B681B682A4A93423BD07B681B68294AB0
:101DA000934236D07B681B68274A934231D07B68C8
:101DB0001B68264A93422CD07B681B68244A9342B6
:101DC00027D07B681B68234A934222D07B681B681C
:101DD000214A93421DD07B681B68204A934218D049
:101DE0007B681B681E4A934213D07B681B681D4AA0
:101DF00093420ED07B681B681B4A934209D07B68D4
:101E00001B681A4A934204D07B681B68184A9342A5
:101E100001D1012300E00023002B2BD07B689B6DB8
:101E2000BB607B68DB6D03F01F033F229A40BB68F9
:101E30009A602AE010000240280002404000024060
:101E4000580002407000024088000240A00002409A
:101E5000B80002401004024028040240400402403E
:101E6000580402407004024088040240A00402406A
:101E7000B80402407B689B6DFB607B68DB6D03F000
:101E80001F0301229A40FB685A607B681B684F4A17
:101E9000934272D07B681B684D4A93426DD07B6839
:101EA0001B684C4A934268D07B681B684A4A93423D
:101EB00063D07B681B68494A93425ED07B681B688D
:101EC000474A934259D07B681B68464A934254D094
:101ED0007B681B68444A93424FD07B681B68434A27
:101EE00093424AD07B681B68414A934245D07B6845
:101EF0001B68404A934240D07B681B683E4A93422D
:101F00003BD07B681B683D4A934236D07B681B6898
:101F10003B4A934231D07B681B683A4A93422CD0AB
:101F20007B681B68384A934227D07B681B68374A16
:101F3000934222D07B681B68354A93421DD07B6850
:101F40001B68344A934218D07B681B68324A93421C
:101F500013D07B681B68314A93420ED07B681B68A4
:101F60002F4A934209D07B681B682E4A934204D0C3
:101F70007B681B682C4A934201D1012300E00023B7
:101F8000002B15D07B685B6E7A68926E5A607B6816
:101F9000DB6E002B0CD07B68DB6E1A687B68DB6E17
:101FA00022F480721A607B681B6F7A68526F5A60E5
:101FB0007B68012283F835207B68002283F8342077
:101FC000002318461837BD4680BD00BF10000240F0
:101FD00028000240400002405800024070000240C9
:101FE00088000240A0000240B800024010040240F5
:101FF0002804024040040240580402407004024099
:1020000088040240A0040240B80402400854025868
:102010001C54025830540258445402585854025820
:102020006C540258805402589454025880B584B0BD
:1020300000AF78607B68002B01D1012337E27B6819
:1020400093F83530DBB2022B04D07B6880225A65CE
:1020500001232CE27B681B685C4A93424AD07B6870
:102060001B685B4A934245D07B681B68594A934280
:1020700040D07B681B68584A93423BD07B681B6802
:10208000564A934236D07B681B68554A934231D0FA
:102090007B681B68534A93422CD07B681B68524A6A
:1020A000934227D07B681B68504A934222D07B68BA
:1020B0001B684F4A93421DD07B681B684D4A934270
:1020C00018D07B681B684C4A934213D07B681B680E
:1020D0004A4A93420ED07B681B68494A934209D012
:1020E0007B681B68474A934204D07B681B68464A5A
:1020F000934201D1012300E00023002B00F08680F1
:102100007B68042283F835207B681B682F4A934242
:102110004AD07B681B682E4A934245D07B681B6877
:102120002C4A934240D07B681B682B4A93423BD099
:102130007B681B68294A934236D07B681B68284A13
:10214000934231D07B681B68264A93422CD07B682F
:102150001B68254A934227D07B681B68234A934219
:1021600022D07B681B68224A93421DD07B681B6883
:10217000204A934218D07B681B681F4A934213D0B1
:102180007B681B681D4A93420ED07B681B681C4A03
:10219000934209D07B681B681A4A934204D07B683B
:1021A0001B68194A934208D17B681B681A687B68D0
:1021B0001B6822F001021A6078E17B681B681A68CC
:1021C0007B681B6822F001021A606FE11000024078
:1021D00028000240400002405800024070000240C7
:1021E00088000240A0000240B800024010040240F3
:1021F0002804024040040240580402407004024097
:1022000088040240A0040240B80402407B681B68B6
:102210001A687B681B6822F00E021A607B681B68D4
:102220006C4A93424AD07B681B686B4A934245D004
:102230007B681B68694A934240D07B681B68684A88
:1022400093423BD07B681B68664A934236D07B68DA
:102250001B68654A934231D07B681B68634A93428E
:102260002CD07B681B68624A934227D07B681B682E
:10227000604A934222D07B681B685F4A93421DD01C
:102280007B681B685D4A934218D07B681B685C4A78
:10229000934213D07B681B685A4A93420ED07B68E6
:1022A0001B68594A934209D07B681B68574A93427E
:1022B00004D07B681B68564A934208D17B681B6830
:1022C0001A687B681B6822F001021A6007E07B68CD
:1022D0001B681A687B681B6822F001021A607B6821
:1022E0001B683C4A934272D07B681B683A4A93420F
:1022F0006DD07B681B68394A934268D07B681B6845
:10230000374A934263D07B681B68364A93425ED05B
:102310007B681B68344A934259D07B681B68334AF8
:10232000934254D07B681B68314A93424FD07B68FC
:102330001B68304A93424AD07B681B682E4A9342FE
:1023400045D07B681B682D4A934240D07B681B6850
:102350002B4A93423BD07B681B682A4A934236D073
:102360007B681B68284A934231D07B681B68274AE8
:1023700093422CD07B681B68254A934227D07B6808
:102380001B68244A934222D07B681B68224A9342EE
:102390001DD07B681B68214A934218D07B681B685C
:1023A0001F4A934213D07B681B681E4A93420ED08B
:1023B0007B681B681C4A934209D07B681B681B4AD8
:1023C000934204D07B681B68194A934232D101239F
:1023D00031E000BF100002402800024040000240EF
:1023E000580002407000024088000240A0000240F5
:1023F000B800024010040240280402404004024099
:10240000580402407004024088040240A0040240C4
:10241000B8040240085402581C5402583054025860
:1024200044540258585402586C540258805402586C
:10243000945402580023002B28D07B681B6E1A6826
:102440007B681B6E22F480721A607B689B6DFB6058
:102450007B68DB6D03F01F0301229A40FB685A6022
:102460007B685B6E7A68926E5A607B68DB6E002BCD
:102470000CD07B68DB6E1A687B68DB6E22F480729E
:102480001A607B681B6F7A68526F5A607B68012202
:1024900083F835207B68002283F834207B681B6D2D
:1024A000002B03D07B681B6D786898470023184683
:1024B0001037BD4680BD00BF80B489B000AF7860E2
:1024C00039600023FB61894B7B6194E13B681A68AA
:1024D0000121FB6901FA03F313403B613B69002BC7
:1024E00000F086813B685B6803F00303012B05D095
:1024F0003B685B6803F00303022B30D17B689B6869
:10250000BB61FB695B00032202FA03F3DB43BA6998
:102510001340BB613B68DA68FB695B0002FA03F3B6
:10252000BA691343BB617B68BA699A607B685B6870
:10253000BB610122FB6902FA03F3DB43BA69134072
:10254000BB613B685B681B0903F00102FB6902FA8F
:1025500003F3BA691343BB617B68BA695A603B688D
:102560005B6803F00303032B17D07B68DB68BB6158
:10257000FB695B00032202FA03F3DB43BA691340F1
:10258000BB613B689A68FB695B0002FA03F3BA69B6
:102590001343BB617B68BA69DA603B685B6803F030
:1025A0000303022B23D1FB69DA087B68083253F856
:1025B0002230BB61FB6903F007039B000F2202FA84
:1025C00003F3DB43BA691340BB613B681A69FB69DB
:1025D00003F007039B0002FA03F3BA691343BB61DC
:1025E000FB69DA087B680832B96943F822107B6816
:1025F0001B68BB61FB695B00032202FA03F3DB4348
:10260000BA691340BB613B685B6803F00302FB6976
:102610005B0002FA03F3BA691343BB617B68BA69D2
:102620001A603B685B6803F44033002B00F0E080E5
:102630002F4BD3F8F4302E4A43F00203C2F8F430A3
:102640002B4BD3F8F43003F00203FB60FB68294AFC
:10265000FB699B08023352F82330BB61FB6903F02E
:1026600003039B000F2202FA03F3DB43BA69134012
:10267000BB617B68204A934252D07B681F4A9342D9
:1026800031D07B681E4A93422BD07B681D4A93420F
:1026900025D07B681C4A93421FD07B681B4A93421B
:1026A00019D07B681A4A934213D07B68194A934227
:1026B0000DD07B68184A934207D07B68174A934233
:1026C00001D109232DE00A232BE0082329E0072369
:1026D00027E0062325E0052323E0042321E003234C
:1026E0001FE002231DE001231BE000BF8000005813
:1026F0000044025800040058000002580004025828
:1027000000080258000C0258001002580014025829
:1027100000180258001C02580020025800240258D9
:102720000023FA6902F0030292009340BA6913434E
:10273000BB613849FB699B080233BA6941F8232021
:102740004FF0B0431B68BB613B69DB43BA69134080
:10275000BB613B685B6803F48013002B03D0BA694C
:102760003B691343BB614FF0B042BB6913604FF04C
:10277000B0435B68BB613B69DB43BA691340BB6133
:102780003B685B6803F40013002B03D0BA693B6914
:102790001343BB614FF0B042BB6953607B695B6818
:1027A000BB613B69DB43BA691340BB613B685B6853
:1027B00003F40033002B03D0BA693B691343BB61B8
:1027C0007B69BA695A607B691B68BB613B69DB4303
:1027D000BA691340BB613B685B6803F48033002B2C
:1027E00003D0BA693B691343BB617B69BA691A605C
:1027F000FB690133FB613B681A68FB6922FA03F34A
:10280000002B7FF463AE00BF00BF2437BD465DF8E8
:10281000047B70470004005880B485B000AF786036
:102820000B467B807B681A697B881340002B02D0A3
:102830000123FB7301E00023FB73FB7B1846143775
:10284000BD465DF8047B704780B483B000AF78600C
:102850000B467B8013467B707B78002B03D07A88F5
:102860007B689A6103E07B881A047B689A6100BFE9
:102870000C37BD465DF8047B7047F0B58FB00AAFEA
:1028800078607B68002B01D1012316E17B681B680F
:10289000BB607B6893F8BD34DBB2002B06D17B684C
:1028A000002283F8BC2478680CF040F97B6803228E
:1028B00083F8BD24BB68DB6B03F48073002B02D16B
:1028C0007B6800221A617B681B68184607F04FFF7F
:1028D0007B681B683B607E686D4606F110040FCC78
:1028E0000FC50FCC0FC594E8030085E80300331D26
:1028F0000ECB386807F01AFE0346002B05D07B6824
:10290000022283F8BD240123D7E07B681B680021E5
:10291000184607F03DFF0023FB734AE0FA7B796815
:102920001346DB0013449B000B443D3301221A7015
:10293000FA7B79681346DB0013449B000B443C335D
:10294000FA7B1A70FA7BFB7B98B279681346DB003E
:1029500013449B000B44443302461A80FA7B796887
:102960001346DB0013449B000B44403300221A70D3
:10297000FA7B79681346DB0013449B000B44483311
:1029800000221A60FA7B79681346DB0013449B002F
:102990000B444C3300221A60FA7B79681346DB0043
:1029A00013449B000B44543300221A60FB7B013319
:1029B000FB73FA7B7B685B689A42AFD30023FB739F
:1029C00044E0FA7B79681346DB0013449B000B4418
:1029D00003F27D2300221A70FA7B79681346DB002C
:1029E00013449B000B4403F51F73FA7B1A70FA7BA8
:1029F00079681346DB0013449B000B4403F52073F6
:102A000000221A70FA7B79681346DB0013449B009E
:102A10000B4403F5227300221A60FA7B796813468F
:102A2000DB0013449B000B4403F5237300221A6060
:102A3000FA7B79681346DB0013449B000B4403F5D3
:102A4000257300221A60FB7B0133FB73FA7B7B68E2
:102A50005B689A42B5D37B681B683B607E686D46B5
:102A600006F110040FCC0FC50FCC0FC594E803007E
:102A700085E80300331D0ECB386807F0D5FE03460A
:102A8000002B05D07B68022283F8BD24012314E0CB
:102A90007B68002283F838207B68012283F8BD24FC
:102AA0007B685B6A012B02D1786801F08BF97B6847
:102AB0001B68184609F023F8002318461437BD4652
:102AC000F0BD80B584B000AF78607B681B68FB60A8
:102AD0007B6893F8BC34012B01D1022320E07B6892
:102AE000012283F8BC247B689B6A012B09D17B6897
:102AF0009B69012B05D0FB689B6B43F48032FB681C
:102B00009A637B681B68184607F020FE7B681B6889
:102B1000184608F0D3FF7B68002283F8BC2400230A
:102B200018461037BD4680BD90B58DB000AF7860B7
:102B30007B681B683B623B6AFB617B681B681846CD
:102B400009F091F80346002B40F0B7847B681B68BE
:102B5000184608F0F5FF0346002B00F0AD84FB6932
:102B600003F500639B681B0AC3F30D027B68C3F87F
:102B7000FC247B681B68184608F0E2FF034603F05C
:102B80000203022B07D17B681B685A697B681B68AC
:102B900002F002025A617B681B68184608F0D0FFF9
:102BA000034603F01003102B61D17B681B689A6900
:102BB0007B681B6822F010029A613B6A1B6ABB614A
:102BC000BB6903F00F021346DB0013449B0003F5BF
:102BD0001E737A68134404337B61BB695B0C03F09A
:102BE0000F03022B24D1BA6947F6F0731340002B70
:102BF00035D07B691969BB691B099BB2C3F30A0312
:102C00009BB21A46386A08F007FE7B691A69BB69ED
:102C10001B09C3F30A031A447B691A617B691A6AA8
:102C2000BB691B09C3F30A031A447B691A6216E0E5
:102C3000BB695B0C03F00F03062B10D17B6803F21A
:102C4000C44308221946386A08F0E6FD7B691A6A0F
:102C5000BB691B09C3F30A031A447B691A627B68C8
:102C60001B689A697B681B6842F010029A617B6856
:102C70001B68184608F064FF034603F40023B3F50D
:102C8000002F40F0A78000237B627B681B681846FA
:102C900008F069FFB86299E0BB6A03F00103002BFA
:102CA00000F08E807B681B687A6AD2B211461846A3
:102CB00008F08DFF38613B6903F00103002B0CD055
:102CC0007B6A5A01FB69134403F530631A460123FA
:102CD0009360796A786800F0EFFE3B6903F00803BF
:102CE000002B0CD07B6A5A01FB69134403F5306357
:102CF0001A4608239360796A786800F0C5FF3B693B
:102D000003F01003002B08D07B6A5A01FB691344BF
:102D100003F530631A46102393603B6903F0020306
:102D2000002B30D03B6A5B6903F08003802B09D114
:102D3000FB6903F500635B68FA6902F5006243F41E
:102D4000806353607A6A1346DB0013449B0003F5EB
:102D50001E737A68134404337B617B69DB78012B33
:102D600008D17B690022DA707B6ADBB21946786889
:102D70000CF010F87B6A5A01FB69134403F53063C9
:102D80001A46022393603B6903F02003002B08D00E
:102D90007B6A5A01FB69134403F530631A4620230A
:102DA00093603B6903F40053002B09D07B6A5A01FE
:102DB000FB69134403F530631A464FF400539360E4
:102DC0007B6A01337B62BB6A5B08BB62BB6A002B18
:102DD0007FF462AF7B681B68184608F0B1FE0346BB
:102DE00003F48023B3F5802F40F0DB807B681B6801
:102DF000184608F0D2FEB86200237B62CDE0BB6AC1
:102E000003F00103002B00F0C2807B681B687A6A24
:102E1000D2B21146184608F0F8FE38613B6903F05B
:102E20000103002B57D07B6A03F00F03012202FA43
:102E300003F3FB60FB6903F500635A6BFB68DB433C
:102E4000F96901F5006113404B637B6A5A01FB6924
:102E5000134403F510631A46012393607B681B69D2
:102E6000012B32D179687A6A1346DB0013449B0048
:102E70000B444C33196878687A6A1346DB001344B4
:102E80009B00034448331B68194478687A6A1346E8
:102E9000DB0013449B0003444C3319607B6A002B16
:102EA00013D179687A6A1346DB0013449B000B4404
:102EB00054331B68002B08D17B6818687B6803F2C9
:102EC000C4431A46012108F001FF7B6ADBB21946B0
:102ED00078680BF0DAFE3B6903F00803002B08D09A
:102EE0007B6A5A01FB69134403F510631A460823F1
:102EF00093603B6903F01003002B08D07B6A5A01F2
:102F0000FB69134403F510631A46102393603B6971
:102F100003F04003002B08D07B6A5A01FB6913447D
:102F200003F510631A46402393603B6903F00203E4
:102F3000002B23D0796A386A07F0D4FD7A6A1346E9
:102F4000DB0013449B0038337A68134404337B61FD
:102F50007B69DB78012B08D17B690022DA707B6A00
:102F6000DBB2194678680BF027FF7B6A5A01FB69D0
:102F7000134403F510631A46022393603B6903F080
:102F80008003002B03D0796A786800F008FD7B6A23
:102F900001337B62BB6A5B08BB62BB6A002B7FF4B8
:102FA0002EAF7B681B68184608F0CAFD034603F085
:102FB0000043B3F1004F22D1FB6903F500635B6866
:102FC000FA6902F5006223F0010353607B6893F80D
:102FD000F434012B08D17B68002283F8F42400210B
:102FE000786800F013FF02E078680BF0C5FE7B689C
:102FF0001B685A697B681B6802F000425A617B6853
:103000001B68184608F09CFD034603F40063B3F503
:10301000006F12D1FB6903F500639B6803F00103A5
:10302000012B02D178680BF081FE7B681B685A691E
:103030007B681B6802F400625A617B681B68184653
:1030400008F07EFD034603F00063B3F1006F21D169
:103050007B681B685A697B681B6802F000625A61D2
:103060007B6893F8F434002B11D17B68012283F83C
:10307000F4247B681B685B6D9B0803F00F027B6880
:10308000C3F8F8240121786800F0C0FE02E07868F7
:103090000BF04CFE7B681B68184608F051FD034698
:1030A00003F48053B3F5805F40F0B780FB6903F50C
:1030B00000635B68FA6902F5006223F00103536064
:1030C0007B681B681021184607F00CFD0023FB628B
:1030D00046E0FB6A5A01FB69134403F510631A4684
:1030E0004FF67F339360FB6A5A01FB69134403F583
:1030F00010631B68FA6A5101FA690A4402F510620A
:1031000023F400131360FB6A5A01FB69134403F5AF
:1031100030631A464FF67F339360FB6A5A01FB69AE
:10312000134403F530631B68FA6A5101FA690A44D3
:1031300002F5306223F400131360FB6A5A01FB6945
:10314000134403F530631B68FA6A5101FA690A44B3
:1031500002F5306243F000631360FB6A0133FB62E7
:103160007B685B68FA6A9A42B3D3FB6903F5006334
:10317000DB69FA6902F5006243F00113D3617B68F1
:103180001B6B002B16D0FB6903F50063D3F884306A
:10319000FA6902F5006243F00B03C2F88430FB6960
:1031A00003F500635B6CFA6902F5006243F00B0300
:1031B000536415E0FB6903F500635A69FB6903F585
:1031C0000063194642F22B0313434B61FB6903F57D
:1031D00000631B69FA6902F5006243F00B03136197
:1031E000FB6903F500631B68FA6902F5006223F4CA
:1031F000FE6313607B6818687B681B69D9B27B68C3
:1032000003F2C4431A4608F061FD7B681B685A69E3
:103210007B681B6802F480525A617B681B68184601
:1032200008F08EFC034603F40053B3F5005F24D18D
:103230007B681B68184608F025FD7B681B681846EC
:1032400007F0CDFC03461A467B68DA607B681C6891
:1032500001F090FD01467B68DB68DBB21A46204630
:1032600007F0D2F978680BF038FD7B681B685A6963
:103270007B681B6802F400525A617B681B68184621
:1032800008F05EFC034603F00803082B0AD17868B7
:103290000BF015FD7B681B685A697B681B6802F0A0
:1032A00008025A617B681B68184608F049FC03460F
:1032B00003F08003802B22D13B6A9B6923F08002BC
:1032C0003B6A9A6101237B6214E079687A6A13464B
:1032D000DB0013449B000B4403F27F231B78012B7C
:1032E00005D17B6ADBB21946786800F027FB7B6A60
:1032F00001337B627B685B687A6A9A42E5D37B68BC
:103300001B68184608F01CFC034603F48013B3F551
:10331000801F3BD101237B622BE07B6A5A01FB6952
:10332000134403F510631B68BB6179687A6A13461E
:10333000DB0013449B000B4440331B78012B15D159
:10334000BB69002B12DA79687A6A1346DB001344F2
:103350009B000B443F3301221A707B6ADBB263F09F
:103360007F03DBB21946786800F0E8FA7B6A013324
:103370007B627B685B687A6A9A42CED37B681B6803
:103380005A697B681B6802F480125A617B681B686B
:10339000184608F0D5FB034603F40013B3F5001FED
:1033A00055D101237B6245E07B6A5A01FB691344D6
:1033B00003F530631B68BB6179687A6A1346DB00EA
:1033C00013449B000B4403F520731B78012B2ED173
:1033D000BB69002B2BDABB6903F480327B68D3F81E
:1033E000FC3403F001039A4221D179687A6A1346CA
:1033F000DB0013449B000B4403F27F2301221A706D
:103400003B6A9B6943F080023B6A9A613B6A5B6955
:1034100003F08003002B0AD1FB6903F500635B68AE
:10342000FA6902F5006243F40073536007E07B6AB7
:1034300001337B627B685B687A6A9A42B4D37B68AB
:103440001B685A697B681B6802F400125A617B682A
:103450001B68184608F074FB034603F08043B3F181
:10346000804F0AD178680BF0B9FC7B681B685A69F9
:103470007B681B6802F080425A617B681B681846B3
:1034800008F05EFB034603F00403042B15D17B68B0
:103490001B685B68BB61BB6903F00403002B02D0AF
:1034A00078680BF0A9FC7B681B6859687B681B680F
:1034B000BA690A435A6000E000BF3437BD4690BD88
:1034C00080B582B000AF78600B46FB707B6893F8E4
:1034D000BC34012B01D1022313E07B68012283F865
:1034E000BC247B68FA7883F838207B681B68FA78FC
:1034F0001146184608F0BCFA7B68002283F8BC2409
:10350000002318460837BD4680BD80B584B000AFA3
:103510007860084611461A460346FB700B463B800E
:103520001346BB700023FB7297F90330002B0FDAB0
:10353000FB7803F00F021346DB0013449B00383383
:103540007A6813440433FB60FB6801225A700FE071
:10355000FB7803F00F021346DB0013449B0003F5D6
:103560001E737A6813440433FB60FB6800225A70B0
:10357000FB7803F00F03DAB2FB681A703A88FB6835
:10358000DA60FB68BA781A71FB685B78002B04D0AC
:10359000FB681B789AB2FB681A81BB78022B02D1B8
:1035A000FB6800225A717B6893F8BC34012B01D16F
:1035B00002230EE07B68012283F8BC247B681B6831
:1035C000F968184607F030FB7B68002283F8BC24BA
:1035D000FB7A18461037BD4680BD80B584B000AF79
:1035E00078600B46FB7097F90330002B0FDAFB78FD
:1035F00003F00F021346DB0013449B0038337A6854
:1036000013440433FB60FB6801225A700FE0FB781F
:1036100003F00F021346DB0013449B0003F51E73F7
:103620007A6813440433FB60FB6800225A70FB780D
:1036300003F00F03DAB2FB681A707B6893F8BC34AE
:10364000012B01D102230EE07B68012283F8BC2408
:103650007B681B68F968184607F06EFB7B680022E0
:1036600083F8BC24002318461037BD4680BD80B5C2
:1036700086B000AFF8607A603B600B46FB72FB7A65
:1036800003F00F021346DB0013449B0003F51E7387
:10369000FA68134404337B617B697A681A617B6939
:1036A0003A689A617B6900221A627B6900225A702B
:1036B000FB7A03F00F03DAB27B691A70FB681B69AF
:1036C000012B02D17A687B695A61FB7A03F00F0300
:1036D000002B09D1FB681868FB681B69DBB21A462E
:1036E000796907F055FE08E0FB681868FB681B69FC
:1036F000DBB21A46796907F0FBFB0023184618373E
:10370000BD4680BD80B483B000AF78600B46FB70CF
:10371000FB7803F00F0279681346DB0013449B002B
:103720000B4403F527731B6818460C37BD465DF83C
:10373000047B704780B586B000AFF8607A603B606C
:103740000B46FB72FB7A03F00F021346DB001344B7
:103750009B003833FA68134404337B617B697A68D1
:103760001A617B693A689A617B6900221A627B69F7
:1037700001225A70FB7A03F00F03DAB27B691A70E8
:10378000FB681B69012B02D17A687B695A61FB7A5D
:1037900003F00F03002B09D1FB681868FB681B6955
:1037A000DBB21A46796907F0F3FD08E0FB68186898
:1037B000FB681B69DBB21A46796907F099FB0023A5
:1037C00018461837BD4680BD80B584B000AF78601C
:1037D0000B46FB70FB7803F00F027B685B689A4234
:1037E00001D9012350E097F90330002B0FDAFB7861
:1037F00003F00F021346DB0013449B0038337A6852
:1038000013440433FB60FB6801225A700DE0FA7820
:103810001346DB0013449B0003F51E737A681344C0
:103820000433FB60FB6800225A70FB6801229A7027
:10383000FB7803F00F03DAB2FB681A707B6893F829
:10384000BC34012B01D102231EE07B68012283F8E6
:10385000BC247B681B68F968184608F035F8FB78CB
:1038600003F00F03002B0AD17B6818687B681B6983
:10387000D9B27B6803F2C4431A4608F027FA7B6882
:10388000002283F8BC24002318461037BD4680BDB3
:1038900080B584B000AF78600B46FB70FB7803F016
:1038A0000F027B685B689A4201D9012342E097F9D5
:1038B0000330002B0FDAFB7803F00F021346DB0016
:1038C00013449B0038337A6813440433FB60FB686D
:1038D00001225A700FE0FB7803F00F021346DB0061
:1038E00013449B0003F51E737A6813440433FB6092
:1038F000FB6800225A70FB6800229A70FB7803F084
:103900000F03DAB2FB681A707B6893F8BC34012BA2
:1039100001D102230EE07B68012283F8BC247B687E
:103920001B68F968184608F03DF87B68002283F8A8
:10393000BC24002318461037BD4680BD80B584B036
:1039400000AF78600B46FB7097F90330002B0CDA60
:10395000FB7803F00F021346DB0013449B0038335F
:103960007A6813440433FB600CE0FB7803F00F0229
:103970001346DB0013449B0003F51E737A6813445F
:103980000433FB607B681B68F968184607F05CFE2F
:103990000346FB72FB7A18461037BD4680BD80B5E2
:1039A0008AB002AF786039607B681B687B617B6995
:1039B0003B613A681346DB0013449B0038337A6856
:1039C00013440433FB60FB681A6AFB689B699A42E4
:1039D00001D901236CE0FB689A69FB681B6AD31A62
:1039E000FB61FB68DB68FA699A4202D9FB68DB6815
:1039F000FB61FB6903339B08BB612BE0FB689A69A1
:103A0000FB681B6AD31AFB61FB68DB68FA699A42A0
:103A100002D9FB68DB68FB61FB6903339B08BB6170
:103A2000FB6819693B68DAB2FB6998B27B681B696D
:103A3000DBB200930346786907F0B0FEFB681A69B1
:103A4000FB691A44FB681A61FB681A6AFB691A442D
:103A5000FB681A623B685A013B69134403F5106323
:103A60009B699BB2BA699A4209D8FB681A6AFB68DB
:103A70009B699A4203D2FB689B69002BBED1FB680D
:103A80009A69FB681B6A9A4211D83B6803F00F03DE
:103A9000012202FA03F3BB603B6903F500635A6B32
:103AA000BB68DB43396901F5006113404B630023B8
:103AB00018462037BD4680BD80B588B000AF78601D
:103AC00039607B681B68FB61FB69BB61FB693C3348
:103AD00004331B687B613B685A01BB69134403F5DF
:103AE00030639B683B617B681B69012B7BD13B6921
:103AF00003F00803002B15D07B69614A934240F222
:103B0000B9803B6903F40043002B00F0B3803B68AD
:103B10005A01BB69134403F530631A464FF400435E
:103B20009360A7E03B6903F02003002B09D03B68BA
:103B30005A01BB69134403F530631A46202393608E
:103B400098E03B6903F02803002B40F093807B69E9
:103B50004B4A93420FD93B6903F40043002B0AD030
:103B60003B685A01BB69134403F530631A464FF4AE
:103B7000004393607EE03A681346DB0013449B00E9
:103B800003F51E737A6813440433FB60FB68DA693B
:103B90003B685901BB690B4403F530631B69C3F3F0
:103BA0001203D21AFB681A623B68002B14D1FB681F
:103BB0009B69002B09D17B6818687B6803F2C443BA
:103BC0001A46012108F082F806E0FB681A69FB68D2
:103BD0001B6A1A44FB681A613B68DBB219467868B5
:103BE0000BF038F846E07B69264A934224D13B69C2
:103BF00003F40043002B0AD03B685A01BB6913440D
:103C000003F530631A464FF40043936032E03B699A
:103C100003F02003002B08D03B685A01BB69134412
:103C200003F530631A46202393603B68DBB21946E4
:103C300078680BF00FF81DE03B68002B14D1796811
:103C40003A681346DB0013449B000B4403F52573CD
:103C50001B68002B08D17B6818687B6803F2C4439B
:103C60001A46002108F032F83B68DBB21946786842
:103C70000AF0F0FF002318462037BD4680BD00BF84
:103C80000A30544F0A31544F80B586B000AF786087
:103C900039607B681B687B617B693B617B693C3376
:103CA00004331B68FB603B685A013B69134403F50E
:103CB00030639B68BB60FB68154A93420ED9BB68B2
:103CC00003F40043002B09D03B685A013B691344BD
:103CD00003F530631A464FF40043936078680AF0A6
:103CE000A7FFFB680A4A93420CD97B681B69012B2A
:103CF00008D17B6818687B6803F2C4431A46012127
:103D000007F0E4FF002318461837BD4680BD00BF0A
:103D10000A30544F80B485B000AF78600B46FB701A
:103D200013463B807B681B685B6ABB60FB78002B9B
:103D300007D13B8819047B681B68BA680A439A62FA
:103D400028E07B681B689B6A1B0CBA681344BB6045
:103D50000023FB730DE07B681A68FB7B40339B00FC
:103D600013445B681B0CBA681344BB60FB7B0133D4
:103D7000FB73FA7BFB78013B9A42ECD33B88180437
:103D80007B681968FB78013BBA68024340339B00AB
:103D90000B445A60002318461437BD465DF8047B77
:103DA000704780B483B000AF78600B467B807B683F
:103DB0001B687A885A62002318460C37BD465DF8A6
:103DC000047B704780B485B000AF78607B681B6867
:103DD000FB607B680122C3F800257B68002283F822
:103DE000F424FB689B6943F00062FB689A61FB68FE
:103DF0005A6D054B1343FA68536500231846143770
:103E0000BD465DF8047B70470300001080B483B0AA
:103E100000AF78600B46FB7000BF0C37BD465DF805
:103E2000047B704780B584B000AF7860194BDB68C5
:103E300003F00403042B0AD0164BDB6803F00703DE
:103E40007A689A4201D001231FE000231DE0114B44
:103E5000DB6823F007020F497B681343CB60FDF753
:103E60007BFCF86009E0FDF777FC0246FB68D31A9B
:103E7000B3F57A7F01D9012307E0064B5B6803F4B1
:103E80000053B3F5005FEED1002318461037BD464E
:103E900080BD00BF0048025880B400AF054BDB680E
:103EA000044A43F08073D36000BFBD465DF8047BD5
:103EB000704700BF0048025880B58CB000AF7860F2
:103EC0007B68002B02D1012300F01DBC7B681B68BE
:103ED00003F00103002B00F08780994B1B6903F06E
:103EE0003803FB62964B9B6ABB62FB6A102B07D0C0
:103EF000FB6A182B10D1BB6A03F00303022B0BD112
:103F00008F4B1B6803F40033002B6CD07B685B681D
:103F1000002B68D10123F6E37B685B68B3F5803F33
:103F200006D1874B1B68864A43F4803313602EE02A
:103F30007B685B68002B0CD1814B1B68804A23F4A3
:103F4000803313607E4B1B687D4A23F4802313600B
:103F50001DE07B685B68B3F5A02F0CD1784B1B6824
:103F6000774A43F480231360754B1B68744A43F40B
:103F7000803313600BE0724B1B68714A23F480336B
:103F800013606F4B1B686E4A23F4802313607B68B9
:103F90005B68002B13D0FDF7DFFB786208E0FDF7CC
:103FA000DBFB02467B6AD31A642B01D90323AAE305
:103FB000634B1B6803F40033002BF0D014E0FDF7D3
:103FC000CBFB786208E0FDF7C7FB02467B6AD31A99
:103FD000642B01D9032396E3594B1B6803F4003388
:103FE000002BF0D100E000BF7B681B6803F00203E8
:103FF000002B00F0CB80524B1B6903F038033B626F
:104000004F4B9B6AFB613B6A002B07D03B6A182B26
:1040100056D1FB6903F00303002B51D1484B1B68B9
:1040200003F00403002B05D07B68DB68002B01D173
:10403000012368E3424B1B6823F019027B68DB68AD
:104040003F4913430B60FDF787FB786208E0FDF7FB
:1040500083FB02467B6AD31A022B01D9032352E366
:10406000374B1B6803F00403002BF0D0FDF7A4FBD3
:10407000034641F20302934217D87B681B69402B29
:1040800008D12F4B5B6823F47C332D4A43F4003373
:1040900053607BE02A4B5B6823F47C327B681B69AE
:1040A0001B03274913434B6070E0254B5B6823F0EB
:1040B000FE427B681B691B06214913434B6065E088
:1040C0007B68DB68002B48D01D4B1B6823F019026E
:1040D0007B68DB681A4913430B60FDF73DFB786290
:1040E00008E0FDF739FB02467B6AD31A022B01D99F
:1040F000032308E3124B1B6803F00403002BF0D0EA
:10410000FDF75AFB034641F2030293421AD87B683B
:104110001B69402B08D10A4B5B6823F47C33084AA7
:1041200043F40033536031E0054B5B6823F47C3289
:104130007B681B691B03024913434B6026E000BFE9
:10414000004402589A4B5B6823F0FE427B681B696F
:104150001B06974913434B6018E0954B1B68944A24
:1041600023F001031360FDF7F7FA786208E0FDF72A
:10417000F3FA02467B6AD31A022B01D90323C2E267
:104180008B4B1B6803F00403002BF0D17B681B688A
:1041900003F01003002B00F0A980854B1B6903F08E
:1041A0003803BB61824B9B6A7B61BB69082B07D0DC
:1041B000BB69182B3AD17B6903F00303012B35D17E
:1041C0007B4B1B6803F48073002B05D07B68DB6995
:1041D000802B01D0012396E2FDF7EEFA034641F26F
:1041E0000302934217D87B681B6A202B08D1704BBF
:1041F0005B6823F0F8436E4A43F08043536075E0F8
:104200006B4B5B6823F0F8427B681B6A9B0668492E
:1042100013434B606AE0664BDB6823F07C527B689B
:104220001B6A1B0662491343CB605FE07B68DB6956
:10423000002B42D05E4B1B685D4A43F08003136045
:10424000FDF78AFA786208E0FDF786FA02467B6A93
:10425000D31A022B01D9032355E2554B1B6803F4F3
:104260008073002BF0D0FDF7A7FA034641F203025A
:10427000934217D87B681B6A202B08D14C4B5B6894
:1042800023F0F8434A4A43F0804353602EE0484B02
:104290005B6823F0F8427B681B6A9B064449134322
:1042A0004B6023E0424BDB6823F07C527B681B6A47
:1042B0001B063F491343CB6018E03D4B1B683C4A4B
:1042C00023F080031360FDF747FA786208E0FDF7FA
:1042D00043FA02467B6AD31A022B01D9032312E266
:1042E000334B1B6803F48073002BF0D17B681B6891
:1042F00003F00803002B36D07B685B69002B19D0D4
:104300002B4B5B6F2A4A43F001035367FDF724FAF6
:10431000786208E0FDF720FA02467B6AD31A022B86
:1043200001D90323EFE1224B5B6F03F00203002B63
:10433000F0D018E01E4B5B6F1D4A23F0010353675A
:10434000FDF70AFA786208E0FDF706FA02467B6A92
:10435000D31A022B01D90323D5E1154B5B6F03F070
:104360000203002BF0D17B681B6803F02003002BB5
:1043700039D07B689B69002B1CD00D4B1B680C4A05
:1043800043F480531360FDF7E7F9786208E0FDF726
:10439000E3F902467B6AD31A022B01D90323B2E167
:1043A000034B1B6803F40053002BF0D01BE000BF4D
:1043B000004402589B4B1B689A4A23F480531360B5
:1043C000FDF7CAF9786208E0FDF7C6F902467B6A94
:1043D000D31A022B01D9032395E1924B1B6803F4F6
:1043E0000053002BF0D17B681B6803F00403002B03
:1043F00000F081808C4B1B688B4A43F48073136000
:10440000FDF7AAF9786208E0FDF7A6F902467B6A93
:10441000D31A642B01D9032375E1834B1B6803F482
:104420008073002BF0D07B689B68012B06D17D4BFD
:104430001B6F7C4A43F0010313672DE07B689B6888
:10444000002B0CD1774B1B6F764A23F001031367C7
:10445000744B1B6F734A23F0040313671CE07B68E3
:104460009B68052B0CD16F4B1B6F6E4A43F0040306
:1044700013676C4B1B6F6B4A43F0010313670BE030
:10448000684B1B6F674A23F001031367654B1B6F73
:10449000644A23F0040313677B689B68002B15D0E4
:1044A000FDF75AF978620AE0FDF756F902467B6A91
:1044B000D31A41F28832934201D9032323E1594BA5
:1044C0001B6F03F00203002BEED014E0FDF744F95C
:1044D00078620AE0FDF740F902467B6AD31A41F29E
:1044E0008832934201D903230DE14E4B1B6F03F039
:1044F0000203002BEED17B685B6A002B00F0028187
:10450000484B1B6903F03803182B00F0BD807B6813
:104510005B6A022B40F09E80424B1B68414A23F0AD
:1045200080731360FDF718F9786208E0FDF714F95D
:1045300002467B6AD31A022B01D90323E3E0394BED
:104540001B6803F00073002BF0D1364B9A6A374B8F
:1045500013407A68916A7A68D26A12010A43314933
:1045600013438B627B681B6B013BC3F308027B68C0
:104570005B6B013B5B029BB21A437B689B6B013B0D
:104580001B0403F4FE031A437B68DB6B013B1B0631
:1045900003F0FE43234913430B63224BDB6A214A9A
:1045A00023F00103D3621F4B5A6B214B13407A68EF
:1045B000926CD2001B4913434B631A4BDB6A23F006
:1045C0000C027B681B6C17491343CB62154BDB6AEB
:1045D00023F002027B685B6C12491343CB62114BE0
:1045E000DB6A104A43F48033D3620E4BDB6A0D4A18
:1045F00043F40033D3620B4BDB6A0A4A43F4802353
:10460000D362084BDB6A074A43F00103D362054BD0
:104610001B68044A43F080731360FDF79DF87862CD
:1046200011E000BF00440258004802580CFCFFFF94
:104630000700FFFFFDF790F802467B6AD31A022BB2
:1046400001D903235FE0324B1B6803F00073002B9A
:10465000F0D057E02E4B1B682D4A23F08073136077
:10466000FDF77AF8786208E0FDF776F802467B6A93
:10467000D31A022B01D9032345E0254B1B6803F015
:104680000073002BF0D13DE0214B9B6A3B61204B36
:104690001B6BFB607B685B6A012B31D03B6903F0CD
:1046A00003027B689B6A9A422AD13B691B0903F08B
:1046B0003F027B68DB6A9A4222D1FB68C3F308029F
:1046C0007B681B6B013B9A421AD1FB685B0A03F0C3
:1046D0007F027B685B6B013B9A4211D1FB681B0C2C
:1046E00003F07F027B689B6B013B9A4208D1FB6819
:1046F0001B0E03F07F027B68DB6B013B9A4201D00B
:10470000012300E0002318463037BD4680BD00BFBE
:104710000044025880B586B000AF786039607B688D
:10472000002B01D101239CE18A4B1B6803F00F038E
:104730003A689A4210D9874B1B6823F00F028549CB
:104740003B6813430B60834B1B6803F00F033A680D
:104750009A4201D0012384E17B681B6803F00403C3
:10476000002B10D07B681A697B4B9B6903F07003A8
:104770009A4208D9784B9B6923F070027B681B69C9
:10478000754913438B617B681B6803F00803002B9A
:1047900010D07B685A69704BDB6903F070039A4252
:1047A00008D96D4BDB6923F070027B685B696A494D
:1047B0001343CB617B681B6803F01003002B10D000
:1047C0007B689A69644BDB6903F4E0639A4208D919
:1047D000614BDB6923F4E0627B689B695E491343AC
:1047E000CB617B681B6803F02003002B10D07B6833
:1047F000DA69594B1B6A03F070039A4208D9564B89
:104800001B6A23F070027B68DB69534913430B6218
:104810007B681B6803F00203002B10D07B68DA680A
:104820004D4B9B6903F00F039A4208D94A4B9B6991
:1048300023F00F027B68DB68474913438B617B6879
:104840001B6803F00103002B55D0434B9B6923F4F5
:1048500070627B689B68404913438B617B685B682F
:10486000022B07D13C4B1B6803F40033002B21D1F2
:104870000123F6E07B685B68032B07D1364B1B688E
:1048800003F00073002B15D10123EAE07B685B681D
:10489000012B07D1304B1B6803F48073002B09D127
:1048A0000123DEE02C4B1B6803F00403002B01D135
:1048B0000123D6E0284B1B6923F007027B685B6865
:1048C000254913430B61FCF747FF78610AE0FCF7C9
:1048D00043FF02467B69D31A41F28832934201D9E1
:1048E0000323BEE01C4B1B6903F038027B685B6846
:1048F000DB009A42EBD17B681B6803F00203002BBC
:1049000010D07B68DA68144B9B6903F00F039A425E
:1049100008D2114B9B6923F00F027B68DB680E49BC
:1049200013438B610B4B1B6803F00F033A689A42E9
:1049300014D2084B1B6823F00F0206493B6813434F
:104940000B60044B1B6803F00F033A689A4205D0D2
:10495000012386E000200052004402587B681B6857
:1049600003F00403002B10D07B681A693F4B9B694E
:1049700003F070039A4208D23C4B9B6923F070020B
:104980007B681B69394913438B617B681B6803F0A3
:104990000803002B10D07B685A69344BDB6903F0A5
:1049A00070039A4208D2314BDB6923F070027B68B6
:1049B0005B692E491343CB617B681B6803F01003CE
:1049C000002B10D07B689A69284BDB6903F4E06305
:1049D0009A4208D2254BDB6923F4E0627B689B692D
:1049E00022491343CB617B681B6803F02003002B33
:1049F00010D07B68DA691D4B1B6A03F070039A4282
:104A000008D21A4B1B6A23F070027B68DB691749D6
:104A100013430B6200F034F80246144B9B691B0AE7
:104A200003F00F031249CB5C03F01F0322FA03F3D8
:104A30003B610E4B9B6903F00F030D4AD35C03F0FF
:104A40001F033A6922FA03F30A4A13600A4A3B69D0
:104A500013600A4B1B681846FCF734FE0346FB73D1
:104A6000FB7B18461837BD4680BD00BF0044025886
:104A700000070108040000240000002408000024AE
:104A800080B489B000AFB34B1B6903F03803182B17
:104A900000F2558101A252F823F000BF014B00083B
:104AA0003F4D00083F4D00083F4D00083F4D0008B6
:104AB0003F4D00083F4D00083F4D0008274B0008C0
:104AC0003F4D00083F4D00083F4D00083F4D000896
:104AD0003F4D00083F4D00083F4D00082D4B00089A
:104AE0003F4D00083F4D00083F4D00083F4D000876
:104AF0003F4D00083F4D00083F4D0008334B000874
:104B0000944B1B6803F02003002B09D0914B1B68CA
:104B1000DB0803F00303904A22FA03F3BB6111E1BF
:104B20008D4BBB610EE18D4BBB610BE18C4BBB61CF
:104B300008E1884B9B6A03F003037B61854B9B6A0A
:104B40001B0903F03F033B61824BDB6A03F0010367
:104B5000FB60804B5B6BDB08C3F30C03FA6802FB62
:104B600003F307EE903AF8EE677AC7ED027A3B69F5
:104B7000002B00F0E1807B69022B00F083807B69D1
:104B8000022B00F2A1807B69002B03D07B69012BF3
:104B900056D099E06F4B1B6803F02003002B2DD0FB
:104BA0006C4B1B68DB0803F003036B4A22FA03F328
:104BB0007B607B6807EE903AF8EE676A3B6907EE28
:104BC000903AF8EE677A86EEA77A624B1B6BC3F3D6
:104BD000080307EE903AF8EE676A97ED026ADFED98
:104BE000615AC6EE257A76EEA77AF7EE006A77EE7E
:104BF000A67A67EE277AC7ED077A87E03B6907EE6A
:104C0000903AF8EE677ADFED586A86EEA77A514B54
:104C10001B6BC3F3080307EE903AF8EE676A97ED53
:104C2000026ADFED505AC6EE257A76EEA77AF7EEE5
:104C3000006A77EEA67A67EE277AC7ED077A65E015
:104C40003B6907EE903AF8EE677ADFED486A86EE48
:104C5000A77A404B1B6BC3F3080307EE903AF8EEBC
:104C6000676A97ED026ADFED3F5AC6EE257A76EE67
:104C7000A77AF7EE006A77EEA67A67EE277AC7ED95
:104C8000077A43E03B6907EE903AF8EE677ADFED8A
:104C9000386A86EEA77A2F4B1B6BC3F3080307EE27
:104CA000903AF8EE676A97ED026ADFED2E5AC6EE8B
:104CB000257A76EEA77AF7EE006A77EEA67A67EEA7
:104CC000277AC7ED077A21E03B6907EE903AF8EEC4
:104CD000677ADFED266A86EEA77A1E4B1B6BC3F35D
:104CE000080307EE903AF8EE676A97ED026ADFED87
:104CF0001D5AC6EE257A76EEA77AF7EE006A77EEB1
:104D0000A67A67EE277AC7ED077A00BF114B1B6BB7
:104D10005B0A03F07F0301333B603B6807EE903A88
:104D2000B8EE677AD7ED076AC6EE877AFCEEE77AC7
:104D300017EE903ABB6105E00023BB6102E0074B30
:104D4000BB6100BFBB6918462437BD465DF8047BD4
:104D5000704700BF004402580090D00300093D0096
:104D6000001BB700000000460024744C0024744A65
:104D7000001B374B80B582B000AFFFF781FE0246C3
:104D8000104B9B691B0A03F00F030F49CB5C03F028
:104D90001F0322FA03F37B600A4B9B6903F00F03A6
:104DA000094AD35C03F01F037A6822FA03F3074A27
:104DB0001360074A7B681360044B1B68184608376A
:104DC000BD4680BD004402580007010804000024CD
:104DD0000000002480B500AFFFF7CCFF0246064B71
:104DE000DB691B0903F007030449CB5C03F01F03D5
:104DF00022FA03F3184680BD004402580007010858
:104E000080B500AFFFF7B6FF0246064BDB691B0A11
:104E100003F007030449CB5C03F01F0322FA03F3FA
:104E2000184680BD004402580007010880B586B0CE
:104E300000AF78600023FB750023BB757B681B689F
:104E400003F00063002B3FD07B685B6EB3F5401F1F
:104E50002AD0B3F5401F24D8B3F5001F18D0B3F5FE
:104E6000001F1ED8002B03D0B3F5801F07D018E019
:104E7000A34BDB6AA24A43F40033D36215E07B689C
:104E800004330221184601F0D5F90346FB750CE006
:104E90007B6824330221184601F07EFA0346FB7535
:104EA00003E00123FB7500E000BFFB7D002B09D16F
:104EB000934B1B6D23F440127B685B6E9049134348
:104EC0000B6501E0FB7DBB757B681B6803F4807399
:104ED000002B3DD07B685B6D042B26D801A252F8D5
:104EE00023F000BFF94E0008074F0008194F0008D3
:104EF000314F0008314F0008814BDB6A804A43F490
:104F00000033D36215E07B6804330021184601F0BA
:104F100091F90346FB750CE07B68243300211846A9
:104F200001F03AFA0346FB7503E00123FB7500E04C
:104F300000BFFB7D002B09D1714B1B6D23F00702D5
:104F40007B685B6D6E4913430B6501E0FB7DBB75B0
:104F50007B681B6803F40073002B42D07B689B6D59
:104F6000B3F5807F2BD0B3F5807F25D8C02B28D018
:104F7000C02B21D8802B16D0802B1DD8002B02D01F
:104F8000402B07D018E05E4BDB6A5D4A43F40033E8
:104F9000D36217E07B6804330021184601F04AF918
:104FA0000346FB750EE07B6824330021184601F0B0
:104FB000F3F90346FB7505E00123FB7502E000BF32
:104FC00000E000BFFB7D002B09D14D4B1B6D23F48E
:104FD000E0727B689B6D4A4913430B6501E0FB7DE2
:104FE000BB757B681B6803F48063002B49D07B682A
:104FF000D3F8A430B3F5000F30D0B3F5000F2AD8A2
:10500000B3F5C00F2CD0B3F5C00F24D8B3F5800F83
:1050100018D0B3F5800F1ED8002B03D0B3F5001FB6
:1050200007D018E0364BDB6A354A43F40033D362CD
:1050300017E07B6804330021184601F0FBF80346B3
:10504000FB750EE07B6824330021184601F0A4F9BB
:105050000346FB7505E00123FB7502E000BF00E09D
:1050600000BFFB7D002B0AD1254B9B6D23F4600212
:105070007B68D3F8A430224913438B6501E0FB7DA4
:10508000BB757B681B6803F40063002B4BD07B6807
:10509000D3F8A830B3F1806F30D0B3F1806F2AD845
:1050A000B3F1407F2ED0B3F1407F24D8B3F1007F1D
:1050B00018D0B3F1007F1ED8002B03D0B3F1807F4E
:1050C00007D018E00E4BDB6A0D4A43F40033D3627D
:1050D00019E07B6804330021184601F0ABF8034661
:1050E000FB7510E07B6824330021184601F054F969
:1050F0000346FB7507E00123FB7504E000BF02E0F7
:105100000044025800BFFB7D002B0AD1994B9B6DD8
:1051100023F0E0627B68D3F8A830964913438B658F
:1051200001E0FB7DBB757B681B6803F00073002BFF
:1051300032D07B689B6C302B1CD0302B17D8202BA7
:105140000CD0202B13D8002B16D0102B0FD1894B4D
:10515000DB6A884A43F40033D3620EE07B68043391
:105160000221184601F066F80346FB7505E00123AD
:10517000FB7502E000BF00E000BFFB7D002B09D102
:105180007C4BDB6C23F030027B689B6C79491343CA
:10519000CB6401E0FB7DBB757B681B6803F4805327
:1051A000002B47D07B68DB6DB3F5804F30D0B3F573
:1051B000804F2AD8B3F5405F2CD0B3F5405F24D898
:1051C000B3F5005F18D0B3F5005F1ED8002B03D0F5
:1051D000B3F5805F07D018E0664BDB6A654A43F49D
:1051E0000033D36217E07B6804330021184601F0D6
:1051F00021F80346FB750EE07B6824330021184636
:1052000001F0CAF80346FB7505E00123FB7502E0D7
:1052100000BF00E000BFFB7D002B09D1554B1B6D8B
:1052200023F4E0427B68DB6D524913430B6501E0D8
:10523000FB7DBB757B681B6803F40053002B49D0D2
:105240007B681B6EB3F5A02F2ED0B3F5A02F28D806
:10525000B3F5802F2AD0B3F5802F22D8B3F5403F85
:1052600026D0B3F5403F1CD8B3F5003F10D0B3F5BE
:10527000003F16D8002B1DD0B3F5803F11D17B68BD
:1052800004330121184600F0D5FF0346FB7512E0F8
:105290007B6824330121184601F07EF80346FB7534
:1052A00009E00123FB7506E000BF04E000BF02E057
:1052B00000BF00E000BFFB7D002B09D12D4B1B6D13
:1052C00023F4E0227B681B6E2A4913430B6501E03F
:1052D000FB7DBB757B681B6803F48043002B4DD0BE
:1052E0007B68D3F8AC30B3F1A04F2ED0B3F1A04F10
:1052F00028D8B3F1804F2AD0B3F1804F22D8B3F130
:10530000405F26D0B3F1405F1CD8B3F1005F10D0EE
:10531000B3F1005F16D8002B1DD0B3F1805F11D11F
:105320007B6804330121184600F084FF0346FB75B7
:1053300012E07B6824330121184601F02DF8034662
:10534000FB7509E00123FB7506E000BF04E000BF28
:1053500002E000BF00E000BFFB7D002B0CD1054B3D
:105360009B6D23F0E0427B68D3F8AC3001491343D6
:105370008B6503E000440258FB7DBB757B681B68AE
:1053800003F40043002B2FD07B68DB6EB3F1005F8A
:105390000ED0B3F1005F14D8002B15D0B3F1805FAD
:1053A0000FD1AF4BDB6AAE4A43F40033D3620CE05B
:1053B0007B6804330121184600F03CFF0346FB756F
:1053C00003E00123FB7500E000BFFB7D002B09D14A
:1053D000A34B1B6D23F040527B68DB6EA049134347
:1053E0000B6501E0FB7DBB757B681B6803F0807378
:1053F000002B32D07B685B6C032B1BD801A252F8C8
:1054000023F000BF3B540008155400082354000843
:105410003B540008924BDB6A914A43F40033D36259
:105420000CE07B6804330221184600F003FF0346BA
:10543000FB7503E00123FB7500E000BFFB7D002B43
:1054400009D1874BDB6C23F003027B685B6C8449DA
:105450001343CB6401E0FB7DBB757B681B6803F4E1
:105460008003002B00F086807E4B1B687D4A43F44E
:1054700080731360FCF770F9386109E0FCF76CF990
:1054800002463B69D31A642B02D90323FB7505E05E
:10549000744B1B6803F48073002BEFD0FB7D002B53
:1054A00066D16F4B1A6F7B68D3F8B030534003F46A
:1054B0004073002B13D06A4B1B6F23F44073FB60C7
:1054C000674B1B6F664A43F480331367644B1B6F53
:1054D000634A23F480331367614AFB6813677B6870
:1054E000D3F8B030B3F5807F15D1FCF735F93861CA
:1054F0000BE0FCF731F902463B69D31A41F28832DE
:10550000934202D90323FB7505E0554B1B6F03F053
:105510000203002BEDD0FB7D002B26D17B68D3F856
:10552000B03003F44073B3F5407F0DD14C4B1B6991
:1055300023F47C527B68D3F8B03019094A4B0B40F6
:10554000474913430B6105E0454B1B69444A23F46B
:105550007C531361424B1A6F7B68D3F8B030C3F3AE
:105560000B033F4913430B6704E0FB7DBB7501E070
:10557000FB7DBB757B681B6803F00103002B00F00B
:1055800085807B689B6F282B66D801A252F823F098
:105590006D5600085956000859560008595600081B
:1055A000595600085956000859560008595600081F
:1055B0003556000859560008595600085956000833
:1055C00059560008595600085956000859560008FF
:1055D0004756000859560008595600085956000801
:1055E00059560008595600085956000859560008DF
:1055F0006D560008595600085956000859560008BB
:1056000059560008595600085956000859560008BE
:105610006D5600085956000859560008595600089A
:10562000595600085956000859560008595600089E
:105630006D5600087B6804330121184600F0FAFD1E
:105640000346FB7513E07B6824330121184600F004
:10565000A3FE0346FB750AE00123FB7507E000BFCC
:105660000044025800480258CFFFFF0000BFFB7DF6
:10567000002B09D1964B5B6D23F038027B689B6F42
:10568000934913434B6501E0FB7DBB757B681B6849
:1056900003F00203002B38D07B685B6F052B21D809
:1056A00001A252F823F000BFEB560008C1560008D3
:1056B000D3560008EB560008EB560008EB560008DE
:1056C0007B6804330121184600F0B4FD0346FB75E6
:1056D0000CE07B6824330121184600F05DFE034690
:1056E000FB7503E00123FB7500E000BFFB7D002B91
:1056F00009D1774B5B6D23F007027B685B6F7449C0
:1057000013434B6501E0FB7DBB757B681B6803F0B1
:105710000403002B3AD07B68D3F89030052B21D8B6
:1057200001A252F823F000BF6B5700084157000850
:10573000535700086B5700086B5700086B57000859
:105740007B6804330121184600F074FD0346FB75A5
:105750000CE07B6824330121184600F01DFE03464F
:10576000FB7503E00123FB7500E000BFFB7D002B10
:105770000AD1574B9B6D23F007027B68D3F890301A
:10578000534913438B6501E0FB7DBB757B681B6848
:1057900003F02003002B4BD07B68D3F88C30B3F19F
:1057A000A04F2ED0B3F1A04F28D8B3F1804F2AD00C
:1057B000B3F1804F22D8B3F1405F26D0B3F1405F00
:1057C0001CD8B3F1005F10D0B3F1005F16D8002BE6
:1057D0001DD0B3F1805F11D17B68043300211846DE
:1057E00000F028FD0346FB7512E07B68243302219C
:1057F000184600F0D1FD0346FB7509E00123FB7557
:1058000006E000BF04E000BF02E000BF00E000BF10
:10581000FB7D002B0AD12E4B5B6D23F0E0427B68B1
:10582000D3F88C302A4913434B6501E0FB7DBB75EF
:105830007B681B6803F04003002B4DD07B68D3F8D6
:105840009830B3F5A05F2ED0B3F5A05F28D8B3F59C
:10585000805F2AD0B3F5805F22D8B3F5406F26D0A1
:10586000B3F5406F1CD8B3F5006F10D0B3F5006FDF
:1058700016D8002B1DD0B3F5806F11D17B6804338F
:105880000021184600F0D6FC0346FB7512E07B6849
:1058900024330221184600F07FFD0346FB7509E022
:1058A0000123FB7506E000BF04E000BF02E000BF7B
:1058B00000E000BFFB7D002B0CD1054B9B6D23F45A
:1058C000E0527B68D3F89830014913438B6503E0BD
:1058D00000440258FB7DBB757B681B6803F08003A6
:1058E000002B4BD07B68D3F89C30B3F5204F2ED0E3
:1058F000B3F5204F28D8B3F5004F2AD0B3F5004FA9
:1059000022D8B3F5C04F26D0B3F5C04F1CD8B3F59D
:10591000804F10D0B3F5804F16D8002B1DD0B3F5B3
:10592000005F11D17B6804330021184600F082FC2F
:105930000346FB7512E07B6824330221184600F011
:105940002BFD0346FB7509E00123FB7506E000BF54
:1059500004E000BF02E000BF00E000BFFB7D002BC1
:105960000AD19D4B9B6D23F460427B68D3F89C3039
:10597000994913438B6501E0FB7DBB757B681B6810
:1059800003F00803002B1AD07B68D3F88030B3F5FE
:10599000805F0AD17B6824330221184600F0FCFCAA
:1059A0000346002B01D00123BB758B4B5B6D23F4A9
:1059B00040527B68D3F88030874913434B657B683E
:1059C0001B6803F01003002B1AD07B68D3F89430C7
:1059D000B3F5807F0AD17B6824330221184600F09A
:1059E000DBFC0346002B01D00123BB757A4B9B6D7A
:1059F00023F440727B68D3F89430774913438B6566
:105A00007B681B6803F40023002B34D07B68D3F839
:105A1000A030B3F5003F1DD0B3F5003F17D8002BE1
:105A200003D0B3F5803F09D011E07B680433002137
:105A3000184600F0FFFB0346FB750CE07B6824333F
:105A40000221184600F0A8FC0346FB7503E0012381
:105A5000FB7500E000BFFB7D002B0AD15E4B9B6D08
:105A600023F440327B68D3F8A0305B4913438B6545
:105A700001E0FB7DBB757B681B6803F48023002B72
:105A800033D07B68D3F88430B3F5401F1CD0B3F516
:105A9000401F16D8B3F5801F03D0B3F5001F07D001
:105AA0000FE04D4BDB6A4C4A43F40033D3620CE009
:105AB0007B6824330121184600F06EFC0346FB7519
:105AC00003E00123FB7500E000BFFB7D002B0AD142
:105AD000414B5B6D23F440127B68D3F884303E4920
