:020000040800F2
:100000000000082461060008E9040008EF04000865
:10001000F5040008FB0400080105000800000000CA
:1000200000000000000000000000000007050008BC
:100030001505000800000000230500083105000830
:10004000B1060008B1060008B1060008B1060008B4
:10005000B1060008B1060008B1060008B1060008A4
:10006000B1060008B1060008B1060008B106000894
:10007000B1060008B1060008B1060008B106000884
:10008000B1060008B1060008B1060008B106000874
:10009000B1060008B1060008B1060008B106000864
:1000A000B1060008B1060008B1060008B106000854
:1000B000B1060008B1060008B1060008B106000844
:1000C000B1060008B1060008B1060008B106000834
:1000D000B1060008B1060008B1060008B106000824
:1000E000B1060008B106000800000000B1060008D3
:1000F000B1060008B1060008B1060008B106000804
:10010000B1060008B1060008B1060008B1060008F3
:10011000B1060008B1060008B1060008B1060008E3
:10012000B1060008B1060008B1060008B1060008D3
:10013000B1060008B1060008B1060008B1060008C3
:1001400000000000000000000000000000000000AF
:10015000B1060008B1060008B1060008B1060008A3
:10016000B1060008B1060008B1060008B106000893
:10017000B1060008B1060008B1060008B106000883
:10018000B1060008B1060008B1060008B106000873
:10019000B1060008B1060008B1060008B106000863
:1001A000B1060008B1060008B1060008B106000853
:1001B000B1060008B1060008B1060008B106000843
:1001C000B1060008B1060008B1060008B106000833
:1001D000B10600083D050008B1060008B106000898
:1001E000B1060008B1060008B1060008B106000813
:1001F000B1060008B1060008B1060008B106000803
:10020000B1060008B1060008B1060008B1060008F2
:10021000B1060008B1060008B1060008B1060008E2
:10022000B1060008B1060008B10600080000000091
:10023000B1060008B106000800000000B106000881
:10024000B1060008B1060008B1060008B1060008B2
:10025000B1060008B1060008B1060008B1060008A2
:10026000B1060008B1060008B1060008B106000892
:10027000B1060008B1060008B10600080000000041
:10028000B1060008B1060008B10600080000000031
:0802900000000000B1060008A7
:1002980010B5054C237833B9044B13B10448AFF3B8
:1002A80000800123237010BD840100240000000099
:1002B800D07D000808B5034B1BB103490348AFF3D1
:1002C800008008BD0000000088010024D07D0008DF
:1002D800034613F8012B002AFBD1181A013870477E
:1002E80080B485B000AF194BD3F8E030174A43F01B
:1002F8000403C2F8E030154BD3F8E03003F00403F0
:10030800FB60FB68114BD3F8E030104A43F08003E0
:10031800C2F8E0300D4BD3F8E03003F08003BB6047
:10032800BB680A4BD3F8E030084A43F00103C2F82F
:10033800E030064BD3F8E03003F001037B607B68C4
:1003480000BF1437BD465DF8047B7047004402586F
:10035800B0B586B000AF0E4B3C461D460FCD0FC45E
:1003680095E8030084E8030000F0A0F900F012F813
:10037800FFF7B6FF06F0B0FF3B461846FFF7A8FFA9
:1003880003469AB23B461146184607F065F8F3E76C
:10039800E87D000880B59CB000AF07F124034C222B
:1003A8000021184607F008FD3B1D202200211846B1
:1003B80007F002FD022001F0CBFE00233B60354B25
:1003C8009B69344A43F440439361324B9B6903F47D
:1003D80040433B60304BDB6A2F4A43F00103D36252
:1003E8002D4BDB6A03F001033B603B6800BF294BE0
:1003F8009B6903F40053B3F5005FF8D1274B9B6A60
:1004080023F00303254A43F00203936201237B622E
:100418004FF48033BB620223BB640223FB640123D5
:100428003B6550237B650223BB650223FB650223E2
:100438003B660C237B660023BB660023FB6607F143
:100448002403184601F0CEFE0346002B01D000F02D
:1004580027F83F237B600323BB600023FB6008234E
:100468003B6140237B614023BB614FF48063FB61A8
:1004780040233B623B1D0421184602F0DFFA034685
:10048800002B01D000F00CF802F08EFC00BF703792
:10049800BD4680BD00480258000400580044025878
:1004A80080B400AF72B600BFFEE7000080B483B02E
:1004B80000AF0A4BD3F8F430084A43F00203C2F8FD
:1004C800F430064BD3F8F43003F002037B607B680A
:1004D80000BF0C37BD465DF8047B704700440258E6
:1004E80080B400AFFEE780B400AFFEE780B400AF91
:1004F800FEE780B400AFFEE780B400AFFEE780B44B
:1005080000AF00BFBD465DF8047B704780B400AF04
:1005180000BFBD465DF8047B704780B400AF00BFE4
:10052800BD465DF8047B704780B500AF00F030F938
:1005380000BF80BD80B500AF024800F090FD00BF4D
:1005480080BD00BF9818002480B400AF374BD3F8A3
:100558008830364A43F47003C2F88830344B1B683D
:1005680003F00F03062B07D8314B1B6823F00F034A
:100578002F4A43F0070313602E4B1B682D4A43F0A4
:10058800010313602B4B00221A612A4B1A68294970
:10059800294B13400B60264B1B6803F00803002B04
:1005A80007D0234B1B6823F00F03214A43F00703AE
:1005B8001360204B00229A611E4B0022DA611D4B0A
:1005C80000221A621B4B1D4A9A621A4B1C4ADA62B5
:1005D800184B1C4A1A63174B00225A63154B194AC9
:1005E8009A63144B0022DA63124B164A1A64114BB1
:1005F80000225A640F4B1B680E4A23F480231360B1
:100608000C4B00221A66104B1A68104B1340B3F1BA
:10061800005F02D20E4B01221A600E4B43F2D20247
:100628001A6000BFBD465DF8047B704700ED00E02E
:1006380000200052004402587FEDF6EA0002020250
:100648000000FF01800201010010005C0000FFFFB4
:100658000881005100400052DFF834D0FFF774FFE2
:100668000C480D490D4A002302E0D458C450043305
:10067800C4188C42F9D30A4A0A4C002301E01360DB
:100688000432A242FBD307F073FBFFF761FE704709
:10069800000008240000002484010024607E000873
:1006A80084010024A01C0024FEE7000080B582B06D
:1006B80000AF032000F08CF902F086FB0246154BD0
:1006C8009B691B0A03F00F031349CB5C03F01F035C
:1006D80022FA03F37B600F4B9B6903F00F030E4A6A
:1006E800D35C03F01F037A6822FA03F30B4A136002
:1006F8000B4A7B6813600F2000F014F80346002BA8
:1007080001D0012302E0FFF7D1FE00231846083785
:10071800BD4680BD00440258487E000804000024FD
:100728000000002480B582B000AF7860154B1B78BC
:10073800002B01D1012321E0134B1A68114B1B78C0
:1007480019464FF47A73B3FBF1F3B2FBF3F318468F
:1007580000F071F90346002B01D001230EE07B68FD
:100768000F2B0AD8002279684FF0FF3000F03BF9D0
:10077800064A7B681360002300E001231846083707
:10078800BD4680BD0C0000240000002408000024A1
:1007980080B400AF064B1B781A46064B1B681344FF
:1007A800044A136000BFBD465DF8047B704700BF74
:1007B8000C000024C403002480B400AF034B1B6862
:1007C8001846BD465DF8047B704700BFC40300248B
:1007D80080B584B000AF7860FFF7EEFFB8607B6843
:1007E800FB60FB68B3F1FF3F05D00A4B1B781A4644
:1007F800FB681344FB6000BFFFF7DEFF0246BB68DF
:10080800D31AFA689A42F7D800BF00BF1037BD461E
:1008180080BD00BF0C00002480B400AF034B1B68F0
:100828001B0C1846BD465DF8047B70470010005C41
:1008380080B485B000AF78607B6803F00703FB6085
:100848000B4BDB68BB60BA684FF6FF031340BB6015
:10085800FB681A02BB681A43064B1343BB60044A81
:10086800BB68D36000BF1437BD465DF8047B704792
:1008780000ED00E00000FA0580B400AF044BDB682F
:100888001B0A03F007031846BD465DF8047B704752
:1008980000ED00E080B483B000AF0346FB80B7F9F9
:1008A8000630002B0BDBFB8803F01F020749B7F962
:1008B80006305B09012000FA02F241F8232000BF4C
:1008C8000C37BD465DF8047B704700BF00E100E0CF
:1008D80080B483B000AF03463960FB80B7F90630B7
:1008E800002B0ADB3B68DAB20C49B7F90630120173
:1008F800D2B20B4483F800230AE03B68DAB2084915
:10090800FB8803F00F03043B1201D2B20B441A76A2
:1009180000BF0C37BD465DF8047B704700E100E07E
:1009280000ED00E080B489B000AFF860B9607A608B
:10093800FB6803F00703FB61FB69C3F10703042BA2
:1009480028BF0423BB61FB690433062B02D9FB696A
:10095800033B00E000237B614FF0FF32BB6902FAE2
:1009680003F3DA43BB681A407B699A404FF0FF31C2
:100978007B6901FA03F3D9437B680B40134318469C
:100988002437BD465DF8047B7047000080B582B00F
:1009980000AF78607B68013BB3F1807F01D301230E
:1009A8000FE00A4A7B68013B53600F214FF0FF308C
:1009B800FFF78EFF054B00229A60044B07221A604E
:1009C800002318460837BD4680BD00BF10E000E090
:1009D80080B582B000AF78607868FFF729FF00BF64
:1009E8000837BD4680BD80B586B000AF0346B96004
:1009F8007A60FB81FFF740FF78617A68B9687869A7
:100A0800FFF790FF0246B7F90E3011461846FFF778
:100A18005FFF00BF1837BD4680BD80B582B000AF0C
:100A28000346FB80B7F906301846FFF733FF00BFCF
:100A38000837BD4680BD80B582B000AF7860786861
:100A4800FFF7A4FF034618460837BD4680BD0000DF
:100A580080B489B000AF786039600023FB61894BAE
:100A68007B6194E13B681A680121FB6901FA03F391
:100A780013403B613B69002B00F086813B685B6853
:100A880003F00303012B05D03B685B6803F0030305
:100A9800022B30D17B689B68BB61FB695B0003223A
:100AA80002FA03F3DB43BA691340BB613B68DA68B7
:100AB800FB695B0002FA03F3BA691343BB617B6805
:100AC800BA699A607B685B68BB610122FB6902FABC
:100AD80003F3DB43BA691340BB613B685B681B09DE
:100AE80003F00102FB6902FA03F3BA691343BB611D
:100AF8007B68BA695A603B685B6803F00303032BA1
:100B080017D07B68DB68BB61FB695B00032202FAD4
:100B180003F3DB43BA691340BB613B689A68FB691E
:100B28005B0002FA03F3BA691343BB617B68BA69D5
:100B3800DA603B685B6803F00303022B23D1FB698F
:100B4800DA087B68083253F82230BB61FB6903F08E
:100B580007039B000F2202FA03F3DB43BA69134031
:100B6800BB613B681A69FB6903F007039B0002FA43
:100B780003F3BA691343BB61FB69DA087B6808327F
:100B8800B96943F822107B681B68BB61FB695B008D
:100B9800032202FA03F3DB43BA691340BB613B68E3
:100BA8005B6803F00302FB695B0002FA03F3BA69AE
:100BB8001343BB617B68BA691A603B685B6803F4DE
:100BC8004033002B00F0E0802F4BD3F8F4302E4A4E
:100BD80043F00203C2F8F4302B4BD3F8F43003F09F
:100BE8000203FB60FB68294AFB699B08023352F841
:100BF8002330BB61FB6903F003039B000F2202FA59
:100C080003F3DB43BA691340BB617B68204A934214
:100C180052D07B681F4A934231D07B681E4A934268
:100C28002BD07B681D4A934225D07B681C4A93428F
:100C38001FD07B681B4A934219D07B681A4A93429B
:100C480013D07B68194A93420DD07B68184A9342A7
:100C580007D07B68174A934201D109232DE00A2364
:100C68002BE0082329E0072327E0062325E00523B6
:100C780023E0042321E003231FE002231DE00123D6
:100C88001BE000BF800000580044025800040058D0
:100C9800000002580004025800080258000C0258CC
:100CA800001002580014025800180258001C02587C
:100CB80000200258002402580023FA6902F00302B7
:100CC80092009340BA691343BB613849FB699B089A
:100CD8000233BA6941F823204FF0B0431B68BB6167
:100CE8003B69DB43BA691340BB613B685B6803F44B
:100CF8008013002B03D0BA693B691343BB614FF0E3
:100D0800B042BB6913604FF0B0435B68BB613B699D
:100D1800DB43BA691340BB613B685B6803F40013AB
:100D2800002B03D0BA693B691343BB614FF0B04253
:100D3800BB6953607B695B68BB613B69DB43BA692C
:100D48001340BB613B685B6803F40033002B03D09E
:100D5800BA693B691343BB617B69BA695A607B69AD
:100D68001B68BB613B69DB43BA691340BB613B68E5
:100D78005B6803F48033002B03D0BA693B691343E3
:100D8800BB617B69BA691A60FB690133FB613B6827
:100D98001A68FB6922FA03F3002B7FF463AE00BFE5
:100DA80000BF2437BD465DF8047B70470004005837
:100DB800F0B58FB00AAF78607B68002B01D10123B2
:100DC80016E17B681B68BB607B6893F8BD33DBB2B8
:100DD800002B06D17B68002283F8BC23786806F0D4
:100DE80083FC7B68032283F8BD23BB68DB6B03F4B9
:100DF8008073002B02D17B6800221A617B681B6814
:100E0800184603F050FB7B681B683B607E686D46A4
:100E180006F110040FCC0FC50FCC0FC594E80300E2
:100E280085E80300331D0ECB386803F01BFA034630
:100E3800002B05D07B68022283F8BD230123D7E06D
:100E48007B681B680021184603F03EFB0023FB73F8
:100E58004AE0FA7B79681346DB009B1A9B000B4437
:100E68003D3301221A70FA7B79681346DB009B1A1E
:100E78009B000B443C33FA7B1A70FA7BFB7B98B2DD
:100E880079681346DB009B1A9B000B4442330246E9
:100E98001A80FA7B79681346DB009B1A9B000B4487
:100EA8003F3300221A70FA7B79681346DB009B1ADD
:100EB8009B000B44443300221A60FA7B796813467E
:100EC800DB009B1A9B000B44483300221A60FA7B14
:100ED80079681346DB009B1A9B000B4450330022B1
:100EE8001A60FB7B0133FB73FA7B7B685B689A4271
:100EF800AFD30023FB7344E0FA7B79681346DB0029
:100F08009B1A9B000B4403F2FD1300221A70FA7B14
:100F180079681346DB009B1A9B000B4403F5FE73AC
:100F2800FA7B1A70FA7B79681346DB009B1A9B00E0
:100F38000B4403F2FF1300221A70FA7B79681346F8
:100F4800DB009B1A9B000B4403F5017300221A6017
:100F5800FA7B79681346DB009B1A9B000B4403F568
:100F6800027300221A60FA7B79681346DB009B1A29
:100F78009B000B4403F5047300221A60FB7B0133CA
:100F8800FB73FA7B7B685B689A42B5D37B681B6806
:100F98003B607E686D4606F110040FCC0FC50FCC80
:100FA8000FC594E8030085E80300331D0ECB3868AD
:100FB80003F0D6FA0346002B05D07B68022283F89B
:100FC800BD23012314E07B68002283F838207B6866
:100FD800012283F8BD237B685B6A012B02D1786804
:100FE80001F086F87B681B68184604F06EFB002346
:100FF80018461437BD46F0BD80B584B000AF7860A0
:101008007B681B68FB607B6893F8BC33012B01D1BC
:10101800022320E07B68012283F8BC237B689B6A5B
:10102800012B09D17B689B69012B05D0FB689B6B61
:1010380043F48032FB689A637B681B68184603F0A8
:1010480021FA7B681B68184604F01EFB7B680022A7
:1010580083F8BC23002318461037BD4680BD90B5E1
:101068008DB000AF78607B681B683B623B6AFB61B0
:101078007B681B68184604F0DCFB0346002B40F035
:10108800BE837B681B68184604F040FB0346002BB0
:1010980000F0B4837B681B68184604F037FB0346EE
:1010A80003F00203022B07D17B681B685A697B682F
:1010B8001B6802F002025A617B681B68184604F03C
:1010C80025FB034603F01003102B61D17B681B68D6
:1010D8009A697B681B6822F010029A613B6A1B6A56
:1010E800BB61BB6903F00F021346DB009B1A9B0030
:1010F80003F5FC737A68134404337B61BB695B0CAA
:1011080003F00F03022B24D1BA6947F6F07313409A
:10111800002B35D07B69D968BB691B099BB2C3F327
:101128000A039BB21A46386A04F05CF97B69DA68EC
:10113800BB691B09C3F30A031A447B69DA607B693C
:101148009A69BB691B09C3F30A031A447B699A614C
:1011580016E0BB695B0C03F00F03062B10D17B680C
:1011680003F5717308221946386A04F03BF97B6964
:101178009A69BB691B09C3F30A031A447B699A611C
:101188007B681B689A697B681B6842F010029A6149
:101198007B681B68184604F0B9FA034603F4002379
:1011A800B3F5002F6ED100237B627B681B6818465D
:1011B80004F0BFFAB86262E0BB6A03F00103002BD7
:1011C80057D07B681B687A6AD2B21146184604F079
:1011D800E4FA38613B6903F00103002B0CD07B6A09
:1011E8005A01FB69134403F530631A4601239360DF
:1011F800796A786800F0D2FD3B6903F00803002B98
:101208000CD07B6A5A01FB69134403F530631A4614
:1012180008239360796A786800F0CCFE3B6903F094
:101228001003002B08D07B6A5A01FB69134403F5AD
:1012380030631A46102393603B6903F02003002BA8
:1012480008D07B6A5A01FB69134403F530631A46D8
:10125800202393603B6903F40053002B09D07B6A79
:101268005A01FB69134403F530631A464FF40053DF
:1012780093607B6A01337B62BB6A5B08BB62BB6AB3
:10128800002B99D17B681B68184604F03FFA034687
:1012980003F48023B3F5802F40F0C4807B681B687B
:1012A800184604F060FAB86200237B62B6E0BB6AB5
:1012B80003F00103002B00F0AB807B681B687A6A9F
:1012C800D2B21146184604F086FA38613B6903F039
:1012D8000103002B57D07B6A03F00F03012202FAA7
:1012E80003F3FB60FB6903F500635A6BFB68DB43A0
:1012F800F96901F5006113404B637B6A5A01FB6988
:10130800134403F510631A46012393607B681B6935
:10131800012B32D179687A6A1346DB009B1A9B004D
:101328000B444833196878687A6A1346DB009B1ABD
:101338009B00034444331B68194478687A6A13464F
:10134800DB009B1A9B000344483319607B6A002B1F
:1013580013D179687A6A1346DB009B1A9B000B4409
:1013680050331B68002B08D17B6818687B6803F52D
:1013780071731A46012104F08FFA7B6ADBB21946B1
:10138800786806F05EFA3B6903F00803002B08D082
:101398007B6A5A01FB69134403F510631A46082354
:1013A80093603B6903F01003002B08D07B6A5A0155
:1013B800FB69134403F510631A46102393603B69D5
:1013C80003F04003002B08D07B6A5A01FB691344E1
:1013D80003F510631A46402393603B6903F0020348
:1013E800002B0CD0796A386A03F018FA7B6A5A0124
:1013F800FB69134403F510631A46022393603B69A3
:1014080003F08003002B03D0796A786800F038FC79
:101418007B6A01337B62BB6A5B08BB62BB6A002BD9
:101428007FF445AF7B681B68184604F06FF90346E4
:1014380003F00043B3F1004F22D1FB6903F50063C9
:101448005B68FA6902F5006223F0010353607B6868
:1014580093F8F433012B08D17B68002283F8F42336
:101468000021786800F068FE02E0786806F060FA0B
:101478007B681B685A697B681B6802F000425A61E6
:101488007B681B68184604F041F9034603F40063BF
:10149800B3F5006F12D1FB6903F500639B6803F095
:1014A8000103012B02D1786806F01CFA7B681B68DF
:1014B8005A697B681B6802F400625A617B681B6882
:1014C800184604F023F9034603F00063B3F1006FF4
:1014D80021D17B681B685A697B681B6802F000622F
:1014E8005A617B6893F8F433002B11D17B68012291
:1014F80083F8F4237B681B685B6D9B0803F00F027D
:101508007B68C3F8F8230121786800F015FE02E033
:10151800786806F0E7F97B681B68184604F0F6F867
:10152800034603F48053B3F5805F40F0B780FB694E
:1015380003F500635B68FA6902F5006223F00103B2
:1015480053607B681B681021184603F067F9002375
:10155800FB6246E0FB6A5A01FB69134403F510631A
:101568001A464FF67F339360FB6A5A01FB691344AE
:1015780003F510631B68FA6A5101FA690A4402F517
:10158800106223F400131360FB6A5A01FB691344C9
:1015980003F530631A464FF67F339360FB6A5A01AE
:1015A800FB69134403F530631B68FA6A5101FA6951
:1015B8000A4402F5306223F400131360FB6A5A01EF
:1015C800FB69134403F530631B68FA6A5101FA6931
:1015D8000A4402F5306243F000631360FB6A01338A
:1015E800FB627B685B68FA6A9A42B3D3FB6903F5CE
:1015F8000063DB69FA6902F5006243F00113D36105
:101608007B681B6B002B16D0FB6903F50063D3F8CE
:101618008430FA6902F5006243F00B03C2F88430A3
:10162800FB6903F500635B6CFA6902F5006243F03D
:101638000B03536415E0FB6903F500635A69FB6902
:1016480003F50063194642F22B0313434B61FB6910
:1016580003F500631B69FA6902F5006243F00B03A6
:101668001361FB6903F500631B68FA6902F5006200
:1016780023F4FE6313607B6818687B681B69D9B222
:101688007B6803F571731A4604F006F97B681B68DA
:101698005A697B681B6802F480525A617B681B6830
:1016A800184604F033F8034603F40053B3F5005F1B
:1016B80024D17B681B68184604F0CAF87B681B684D
:1016C800184603F024F903461A467B68DA607B68FB
:1016D8001C6801F0F3FC01467B68DB68DBB21A4644
:1016E800204602F02DFE786806F0D3F87B681B6868
:1016F8005A697B681B6802F400525A617B681B6850
:10170800184604F003F8034603F00803082B0AD12F
:10171800786806F0B0F87B681B685A697B681B68B4
:1017280002F008025A617B681B68184603F0EEFF56
:10173800034603F48013B3F5801F0FD100237B62A7
:101748007B6ADBB21946786806F012F97B681B6879
:101758005A697B681B6802F480125A617B681B68AF
:10176800184603F0D3FF034603F40013B3F5001F34
:101778000FD100237B627B6ADBB21946786806F0DA
:10178800E5F87B681B685A697B681B6802F40012DD
:101798005A617B681B68184603F0B8FF034603F0DC
:1017A8008043B3F1804F0AD1786806F0F3F87B687C
:1017B8001B685A697B681B6802F080425A617B6823
:1017C8001B68184603F0A2FF034603F00403042B2A
:1017D80015D17B681B685B68BB61BB6903F00403B8
:1017E800002B02D0786806F0E3F87B681B6859681C
:1017F8007B681B68BA690A435A6000E000BF343747
:10180800BD4690BD80B582B000AF78600B46FB70D6
:101818007B6893F8BC33012B01D1022313E07B686A
:10182800012283F8BC237B68FA7883F838207B6828
:101838001B68FA781146184603F000FF7B680022FF
:1018480083F8BC23002318460837BD4680BD80B501
:1018580084B000AF7860084611461A460346FB700C
:101868000B463B801346BB700023FB7297F903308D
:10187800002B0FDAFB7803F00F021346DB009B1AEC
:101888009B0038337A6813440433FB60FB680122F9
:101898005A700FE0FB7803F00F021346DB009B1A27
:1018A8009B0003F5FC737A6813440433FB60FB6800
:1018B80000225A70FB7803F00F03DAB2FB681A7043
:1018C8003A88FB689A60FB68BA78DA70FB685B78DC
:1018D800002B04D0FB681B789AB2FB68DA80BB78CF
:1018E800022B02D1FB6800221A717B6893F8BC3383
:1018F800012B01D102230EE07B68012283F8BC236F
:101908007B681B68F968184603F026F87B68002294
:1019180083F8BC23FB7A18461037BD4680BD80B5D6
:1019280084B000AF78600B46FB7097F90330002B4A
:101938000FDAFB7803F00F021346DB009B1A9B00BB
:1019480038337A6813440433FB60FB6801225A7009
:101958000FE0FB7803F00F021346DB009B1A9B0095
:1019680003F5FC737A6813440433FB60FB680022B8
:101978005A70FB7803F00F03DAB2FB681A707B68C1
:1019880093F8BC33012B01D102230EE07B680122BE
:1019980083F8BC237B681B68F968184603F064F871
:1019A8007B68002283F8BC23002318461037BD4605
:1019B80080BD80B586B000AFF8607A603B600B46AA
:1019C800FB72FB7A03F00F021346DB009B1A9B00A5
:1019D80003F5FC73FA68134404337B617B697A6806
:1019E800DA607B693A685A617B6900229A617B698F
:1019F80000225A70FB7A03F00F03DAB27B691A707F
:101A0800FB681B69012B02D17A687B691A61FB7A32
:101A180003F00F03002B09D1FB681868FB681B69EA
:101A2800DBB21A46796903F047FB08E0FB681868DF
:101A3800FB681B69DBB21A46796903F0F1F80023E9
:101A480018461837BD4680BD80B483B000AF7860B3
:101A58000B46FB70FB7803F00F0279681346DB0036
:101A68009B1A9B000B4403F505731B6818460C373B
:101A7800BD465DF8047B704780B586B000AFF8605E
:101A88007A603B600B46FB72FB7A03F00F02134649
:101A9800DB009B1A9B003833FA68134404337B61DC
:101AA8007B697A68DA607B693A685A617B690022E7
:101AB8009A617B6901225A70FB7A03F00F03DAB24C
:101AC8007B691A70FB681B69012B02D17A687B69F4
:101AD8001A61FB7A03F00F03002B09D1FB68186821
:101AE800FB681B69DBB21A46796903F0E5FA08E07E
:101AF800FB681868FB681B69DBB21A46796903F052
:101B08008FF8002318461837BD4680BD80B584B0CD
:101B180000AF78600B46FB70FB7803F00F027B6820
:101B28005B689A4201D9012350E097F90330002BF2
:101B38000FDAFB7803F00F021346DB009B1A9B00B9
:101B480038337A6813440433FB60FB6801225A7007
:101B58000DE0FA781346DB009B1A9B0003F5FC7333
:101B68007A6813440433FB60FB6800225A70FB68F0
:101B780001229A70FB7803F00F03DAB2FB681A703F
:101B88007B6893F8BC33012B01D102231EE07B68EC
:101B9800012283F8BC237B681B68F968184603F0A8
:101BA80079FCFB7803F00F03002B0AD17B681868D7
:101BB8007B681B69D9B27B6803F571731A4603F019
:101BC8006BFE7B68002283F8BC230023184610377D
:101BD800BD4680BD80B584B000AF78600B46FB7011
:101BE800FB7803F00F027B685B689A4201D90123F6
:101BF80042E097F90330002B0FDAFB7803F00F026D
:101C08001346DB009B1A9B0038337A68134404336D
:101C1800FB60FB6801225A700FE0FB7803F00F02AB
:101C28001346DB009B1A9B0003F5FC737A68134488
:101C38000433FB60FB6800225A70FB6800229A702C
:101C4800FB7803F00F03DAB2FB681A707B6893F82D
:101C5800BC33012B01D102230EE07B68012283F8FB
:101C6800BC237B681B68F968184603F081FC7B6815
:101C7800002283F8BC23002318461037BD4680BDD8
:101C880080B58AB002AF786039607B681B687B6179
:101C98007B693B613A681346DB009B1A9B0038332B
:101CA8007A6813440433FB60FB689A69FB685B69D4
:101CB8009A4201D901236CE0FB685A69FB689B6969
:101CC800D31AFB61FB689B68FA699A4202D9FB68E0
:101CD8009B68FB61FB6903339B08BB612BE0FB68D6
:101CE8005A69FB689B69D31AFB61FB689B68FA69B0
:101CF8009A4202D9FB689B68FB61FB6903339B0826
:101D0800BB61FB68D9683B68DAB2FB6998B27B684B
:101D18001B69DBB200930346786903F025FBFB6877
:101D2800DA68FB691A44FB68DA60FB689A69FB6940
:101D38001A44FB689A613B685A013B69134403F5EE
:101D480010639B699BB2BA699A4209D8FB689A6981
:101D5800FB685B699A4203D2FB685B69002BBED1C2
:101D6800FB685A69FB689B699A4211D83B6803F083
:101D78000F03012202FA03F3BB603B6903F500631A
:101D88005A6BBB68DB43396901F5006113404B634B
:101D9800002318462037BD4680BD000080B586B0B8
:101DA80000AF786039607B681B687B617B693B6149
:101DB8007B693C3304331B68FB603B685A013B6911
:101DC800134403F530639B68BB607B681B69012B78
:101DD80040F0A080BB6803F00803002B15D0FB6817
:101DE800724A934240F2DD80BB6803F40043002B43
:101DF80000F0D7803B685A013B69134403F5306310
:101E08001A464FF400439360CBE0BB6803F020030D
:101E1800002B09D03B685A013B69134403F5306332
:101E28001A4620239360BCE0BB6803F02803002B0C
:101E380040F0B780FB685D4A93420FD9BB6803F452
:101E48000043002B0AD03B685A013B69134403F551
:101E580030631A464FF400439360A2E079683A6809
:101E68001346DB009B1A9B000B4403F501731A68A9
:101E78003B6859013B690B4403F530631B69C3F3A5
:101E88001203D11A78683A681346DB009B1A9B0044
:101E9800034403F50573196079683A681346DB0053
:101EA8009B1A9B000B4403F50273196878683A681B
:101EB8001346DB009B1A9B00034403F501731B6860
:101EC800194478683A681346DB009B1A9B00034460
:101ED80003F5027319603B68002B14D179683A68DE
:101EE8001346DB009B1A9B000B4403F504731B6825
:101EF800002B08D17B6818687B6803F571731A4654
:101F0800012103F0C9FC3B68DBB21946786805F08B
:101F18007DFC46E0FB68264A934224D1BB6803F463
:101F28000043002B0AD03B685A013B69134403F570
:101F380030631A464FF40043936032E0BB6803F005
:101F48002003002B08D03B685A013B69134403F572
:101F580030631A46202393603B68DBB219467868E1
:101F680005F054FC1DE03B68002B14D179683A68F1
:101F78001346DB009B1A9B000B4403F504731B6894
:101F8800002B08D17B6818687B6803F571731A46C3
:101F9800002103F081FC3B68DBB21946786805F044
:101FA80035FC002318461837BD4680BD0A30544F0B
:101FB8000A31544F80B586B000AF786039607B68CD
:101FC8001B687B617B693B617B693C3304331B681D
:101FD800FB603B685A013B69134403F530639B6817
:101FE800BB60FB68154A93420ED9BB6803F40043F3
:101FF800002B09D03B685A013B69134403F5306351
:102008001A464FF400439360786805F0EDFBFB68CF
:102018000A4A93420CD97B681B69012B08D17B685B
:1020280018687B6803F571731A46012103F034FCC4
:10203800002318461837BD4680BD00BF0A30544FEC
:1020480080B485B000AF78600B46FB7013463B80C8
:102058007B681B685B6ABB60FB78002B07D13B88F9
:1020680019047B681B68BA680A439A6228E07B688F
:102078001B689B6A1B0CBA681344BB600023FB7384
:102088000DE07B681A68FB7B40339B0013445B6858
:102098001B0CBA681344BB60FB7B0133FB73FA7BF0
:1020A800FB78013B9A42ECD33B8818047B6819689B
:1020B800FB78013BBA68024340339B000B445A60EB
:1020C800002318461437BD465DF8047B704780B47A
:1020D80083B000AF78600B467B807B681B687A888A
:1020E8005A62002318460C37BD465DF8047B7047DA
:1020F80080B485B000AF78607B681B68FB607B6844
:102108000122C3F8FC237B68002283F8F423FB68D0
:102118009B6943F00062FB689A61FB685A6D054B46
:102128001343FA685365002318461437BD465DF813
:10213800047B70470300001080B483B000AF786060
:102148000B46FB7000BF0C37BD465DF8047B70473B
:1021580080B584B000AF7860194BDB6803F00403E6
:10216800042B0AD0164BDB6803F007037A689A42FF
:1021780001D001231FE000231DE0114BDB6823F091
:1021880007020F497B681343CB60FEF715FBF86025
:1021980009E0FEF711FB0246FB68D31AB3F57A7F14
:1021A80001D9012307E0064B5B6803F40053B3F53C
:1021B800005FEED1002318461037BD4680BD00BF32
:1021C8000048025880B400AF054BDB68044A43F06E
:1021D8008073D36000BFBD465DF8047B704700BFC5
:1021E8000048025880B58CB000AF78607B68002B3F
:1021F80002D1012300F01CBC7B681B6803F00103BB
:10220800002B00F087809E4B1B6903F03803FB62AC
:102218009B4B9B6ABB62FB6A102B07D0FB6A182B8F
:1022280010D1BB6A03F00303022B0BD1944B1B683C
:1022380003F40033002B6CD07B685B68002B68D1FB
:102248000123F5E37B685B68B3F5803F06D18C4BCF
:102258001B688B4A43F4803313602EE07B685B680D
:10226800002B0CD1864B1B68854A23F480331360FE
:10227800834B1B68824A23F4802313601DE07B682C
:102288005B68B3F5A02F0CD17D4B1B687C4A43F4E7
:10229800802313607A4B1B68794A43F480331360B8
:1022A8000BE0774B1B68764A23F480331360744B3A
:1022B8001B68734A23F4802313607B685B68002BD8
:1022C80013D0FEF779FA786208E0FEF775FA02464D
:1022D8007B6AD31A642B01D90323A9E3684B1B68D3
:1022E80003F40033002BF0D014E0FEF765FA7862AF
:1022F80008E0FEF761FA02467B6AD31A642B01D91B
:10230800032395E35E4B1B6803F40033002BF0D1E5
:1023180000E000BF7B681B6803F00203002B00F09D
:10232800CA80574B1B6903F038033B62544B9B6AC6
:10233800FB613B6A002B07D03B6A182B56D1FB691F
:1023480003F00303002B51D14D4B1B6803F004032A
:10235800002B05D07B68DB68002B01D1012367E3E4
:10236800474B1B6823F019027B68DB684449134319
:102378000B60FEF721FA786208E0FEF71DFA0246C4
:102388007B6AD31A022B01D9032351E33C4B1B6808
:1023980003F00403002BF0D0FEF73EFA034641F2A7
:1023A8000302934217D87B681B69402B08D1344B32
:1023B8005B6823F47C33324A43F4003353607AE099
:1023C8002F4B5B6823F47C327B681B691B032C4909
:1023D80013434B606FE02A4B5B6823F0FE427B6837
:1023E8001B691B06264913434B6064E07B68DB6866
:1023F800002B47D0224B1B6823F019027B68DB684F
:102408001F4913430B60FEF7D7F9786208E0FEF71F
:10241800D3F902467B6AD31A022B01D9032307E3B7
:10242800174B1B6803F00403002BF0D0FEF7F4F9F8
:10243800034641F20302934217D87B681B69402B7D
:1024480008D10F4B5B6823F47C330D4A43F4003307
:10245800536030E00A4B5B6823F47C327B681B696D
:102468001B03074913434B6025E0054B5B6823F0CA
:10247800FE427B681B691B06014913434B601AE047
:10248800004402589E4B1B689D4A23F001031360C9
:10249800FEF792F9786208E0FEF78EF902467B6A49
:1024A800D31A022B01D90323C2E2954B1B6803F010
:1024B8000403002BF0D17B681B6803F01003002B8A
:1024C80000F0A9808E4B1B6903F03803BB618C4B6D
:1024D8009B6A7B61BB69082B07D0BB69182B3AD173
:1024E8007B6903F00303012B35D1854B1B6803F48B
:1024F8008073002B05D07B68DB69802B01D001231A
:1025080096E2FEF789F9034641F20302934217D88F
:102518007B681B6A202B08D1794B5B6823F0F84352
:10252800774A43F08043536075E0754B5B6823F04E
:10253800F8427B681B6A9B06714913434B606AE04B
:102548006F4BDB6823F07C527B681B6A1B066C4967
:102558001343CB605FE07B68DB69002B42D0684B9C
:102568001B68674A43F080031360FEF725F9786219
:1025780008E0FEF721F902467B6AD31A022B01D93B
:10258800032355E25E4B1B6803F48073002BF0D0E5
:10259800FEF742F9034641F20302934217D87B68DB
:1025A8001B6A202B08D1564B5B6823F0F843544A2A
:1025B80043F0804353602EE0514B5B6823F0F842B0
:1025C8007B681B6A9B064E4913434B6023E04C4BC8
:1025D800DB6823F07C527B681B6A1B06484913435F
:1025E800CB6018E0464B1B68454A23F08003136014
:1025F800FEF7E2F8786208E0FEF7DEF802467B6A4A
:10260800D31A022B01D9032312E23D4B1B6803F4B2
:102618008073002BF0D17B681B6803F00803002B44
:1026280036D07B685B69002B19D0354B5B6F344A19
:1026380043F001035367FEF7BFF8786208E0FEF73E
:10264800BBF802467B6AD31A022B01D90323EFE1B8
:102658002B4B5B6F03F00203002BF0D018E0284BE4
:102668005B6F274A23F001035367FEF7A5F87862EA
:1026780008E0FEF7A1F802467B6AD31A022B01D9BB
:102688000323D5E11E4B5B6F03F00203002BF0D14F
:102698007B681B6803F02003002B39D07B689B699B
:1026A800002B19D0164B1B68154A43F4805313604E
:1026B800FEF782F8786208E0FEF77EF802467B6A49
:1026C800D31A022B01D90323B2E10D4B1B6803F483
:1026D8000053002BF0D01BE0094B1B68084A23F479
:1026E80080531360FEF768F878620BE0FEF764F831
:1026F80002467B6AD31A022B04D9032398E100BF50
:1027080000440258A34B1B6803F40053002BEDD17F
:102718007B681B6803F00403002B00F081809E4B4C
:102728001B689D4A43F480731360FEF745F878628E
:1027380008E0FEF741F802467B6AD31A642B01D9F8
:10274800032375E1944B1B6803F48073002BF0D0CE
:102758007B689B68012B06D18E4B1B6F8D4A43F01B
:10276800010313672DE07B689B68002B0CD1894B14
:102778001B6F884A23F001031367864B1B6F854A3A
:1027880023F0040313671CE07B689B68052B0CD1BE
:10279800804B1B6F7F4A43F0040313677D4B1B6F0D
:1027A8007C4A43F0010313670BE07A4B1B6F794AAD
:1027B80023F001031367774B1B6F764A23F004035A
:1027C80013677B689B68002B15D0FDF7F5FF7862CF
:1027D8000AE0FDF7F1FF02467B6AD31A41F288321C
:1027E800934201D9032323E16A4B1B6F03F00203D1
:1027F800002BEED014E0FDF7DFFF78620AE0FDF76A
:10280800DBFF02467B6AD31A41F28832934201D930
:1028180003230DE15F4B1B6F03F00203002BEED186
:102828007B685B6A002B00F002815A4B1B6903F03E
:102838003803182B00F0BD807B685B6A022B40F0E0
:102848009580544B1B68534A23F080731360FDF73F
:10285800B3FF786208E0FDF7AFFF02467B6AD31A40
:10286800022B01D90323E3E04A4B1B6803F00073F2
:10287800002BF0D1474B9A6A484B13407A68916A0B
:102888007A68D26A12010A43424913438B627B6811
:102898001B6B013BC3F308027B685B6B013B5B026C
:1028A8009BB21A437B689B6B013B1B0403F4FE033A
:1028B8001A437B68DB6B013B1B0603F0FE4335497B
:1028C80013430B63334BDB6A324A23F00103D362B1
:1028D800304B5A6B324B13407A68926CD2002D49B8
:1028E80013434B632B4BDB6A23F00C027B681B6C96
:1028F80028491343CB62274BDB6A23F002027B682B
:102908005B6C24491343CB62224BDB6A214A43F4B4
:102918008033D3621F4BDB6A1E4A43F40033D36211
:102928001C4BDB6A1B4A43F48023D362194BDB6AD6
:10293800184A43F00103D362164B1B68154A43F04B
:1029480080731360FDF738FF786208E0FDF734FF05
:1029580002467B6AD31A022B01D9032368E00D4B88
:102968001B6803F00073002BF0D060E0094B1B6874
:10297800084A23F080731360FDF71EFF786211E0A8
:10298800FDF71AFF02467B6AD31A022B0AD90323E2
:102998004EE000BF00440258004802580CFCFFFFFC
:1029A8000700FFFF244B1B6803F00073002BE7D1DF
:1029B8003DE0214B9B6A3B611F4B1B6BFB607B68B7
:1029C8005B6A012B31D03B6903F003027B689B6A89
:1029D8009A422AD13B691B0903F03F027B68DB6AF4
:1029E8009A4222D1FB68C3F308027B681B6B013B48
:1029F8009A421AD1FB685B0A03F07F027B685B6B23
:102A0800013B9A4211D1FB681B0C03F07F027B68E3
:102A18009B6B013B9A4208D1FB681B0E03F07F02B7
:102A28007B68DB6B013B9A4201D0012300E0002365
:102A380018463037BD4680BD0044025880B586B080
:102A480000AF786039607B68002B01D101239CE1DD
:102A58008A4B1B6803F00F033A689A4210D9874BD8
:102A68001B6823F00F0285493B6813430B60834BB7
:102A78001B6803F00F033A689A4201D0012384E1EE
:102A88007B681B6803F00403002B10D07B681A696D
:102A98007B4B9B6903F070039A4208D9784B9B697A
:102AA80023F070027B681B69754913438B617B684F
:102AB8001B6803F00803002B10D07B685A69704B21
:102AC800DB6903F070039A4208D96D4BDB6923F088
:102AD80070027B685B696A491343CB617B681B683A
:102AE80003F01003002B10D07B689A69644BDB69F4
:102AF80003F4E0639A4208D9614BDB6923F4E0628E
:102B08007B689B695E491343CB617B681B6803F054
:102B18002003002B10D07B68DA69594B1B6A03F03D
:102B280070039A4208D9564B1B6A23F070027B68DF
:102B3800DB69534913430B627B681B6803F002038C
:102B4800002B10D07B68DA684D4B9B6903F00F03AC
:102B58009A4208D94A4B9B6923F00F027B68DB68CD
:102B6800474913438B617B681B6803F00103002B03
:102B780055D0434B9B6923F470627B689B6840493E
:102B880013438B617B685B68022B07D13C4B1B6846
:102B980003F40033002B21D10123F6E07B685B6846
:102BA800032B07D1364B1B6803F00073002B15D19C
:102BB8000123EAE07B685B68012B07D1304B1B6877
:102BC80003F48073002B09D10123DEE02C4B1B6832
:102BD80003F00403002B01D10123D6E0284B1B6925
:102BE80023F007027B685B68254913430B61FDF7F7
:102BF800E3FD78610AE0FDF7DFFD02467B69D31A41
:102C080041F28832934201D90323BEE01C4B1B6971
:102C180003F038027B685B68DB009A42EBD17B6883
:102C28001B6803F00203002B10D07B68DA68144B92
:102C38009B6903F00F039A4208D2114B9B6923F05A
:102C48000F027B68DB680E4913438B610B4B1B68D3
:102C580003F00F033A689A4214D2084B1B6823F01A
:102C68000F0206493B6813430B60044B1B6803F0D3
:102C78000F033A689A4205D0012386E000200052EB
:102C8800004402587B681B6803F00403002B10D033
:102C98007B681A693F4B9B6903F070039A4208D21C
:102CA8003C4B9B6923F070027B681B6939491343CD
:102CB8008B617B681B6803F00803002B10D07B68CE
:102CC8005A69344BDB6903F070039A4208D2314BDE
:102CD800DB6923F070027B685B692E491343CB6183
:102CE8007B681B6803F01003002B10D07B689A697F
:102CF800284BDB6903F4E0639A4208D2254BDB6971
:102D080023F4E0627B689B6922491343CB617B68AB
:102D18001B6803F02003002B10D07B68DA691D4B79
:102D28001B6A03F070039A4208D21A4B1B6A23F0FD
:102D380070027B68DB69174913430B6200F044F8A3
:102D48000246144B9B691B0A03F00F031249CB5C24
:102D580003F01F0322FA03F33B610E4B9B6903F058
:102D68000F030D4AD35C03F01F033A6922FA03F3F9
:102D78000A4A13600A4A3B6913600A4B1B681846E3
:102D8800FDF7D0FC0346FB73FB7B18461837BD469E
:102D980080BD00BF00440258487E0008040000249B
:102DA800000000240800002480B400AF054B1B6815
:102DB800044A43F40023136000BFBD465DF8047B5A
:102DC800704700BF0044025880B489B000AFB34BCD
:102DD8001B6903F03803182B00F2558101A252F841
:102DE80023F000BF512E00088F3000088F300008F4
:102DF8008F3000088F3000088F3000088F300008AF
:102E08008F300008772E00088F3000088F300008B8
:102E18008F3000088F3000088F3000088F3000088E
:102E28008F3000087D2E00088F3000088F30000892
:102E38008F3000088F3000088F3000088F3000086E
:102E48008F300008832E0008944B1B6803F0200382
:102E5800002B09D0914B1B68DB0803F00303904A51
:102E680022FA03F3BB6111E18D4BBB610EE18D4B7F
:102E7800BB610BE18C4BBB6108E1884B9B6A03F09B
:102E880003037B61854B9B6A1B0903F03F033B618E
:102E9800824BDB6A03F00103FB60804B5B6BDB0852
:102EA800C3F30C03FA6802FB03F307EE903AF8EE5B
:102EB800677AC7ED027A3B69002B00F0E1807B69F5
:102EC800022B00F083807B69022B00F2A1807B69D2
:102ED800002B03D07B69012B56D099E06F4B1B6800
:102EE80003F02003002B2DD06C4B1B68DB0803F08C
:102EF80003036B4A22FA03F37B607B6807EE903A80
:102F0800F8EE676A3B6907EE903AF8EE677A86EE64
:102F1800A77A624B1B6BC3F3080307EE903AF8EEEF
:102F2800676A97ED026ADFED615AC6EE257A76EE9A
:102F3800A77AF7EE006A77EEA67A67EE277AC7EDEA
:102F4800077A87E03B6907EE903AF8EE677ADFED9B
:102F5800586A86EEA77A514B1B6BC3F3080307EE3A
:102F6800903AF8EE676A97ED026ADFED505AC6EEBE
:102F7800257A76EEA77AF7EE006A77EEA67A67EEFC
:102F8800277AC7ED077A65E03B6907EE903AF8EED5
:102F9800677ADFED486A86EEA77A404B1B6BC3F36E
:102FA800080307EE903AF8EE676A97ED026ADFEDDC
:102FB8003F5AC6EE257A76EEA77AF7EE006A77EEE4
:102FC800A67A67EE277AC7ED077A43E03B6907EEF2
:102FD800903AF8EE677ADFED386A86EEA77A2F4BDB
:102FE8001B6BC3F3080307EE903AF8EE676A97ED98
:102FF800026ADFED2E5AC6EE257A76EEA77AF7EE4C
:10300800006A77EEA67A67EE277AC7ED077A21E09D
:103018003B6907EE903AF8EE677ADFED266A86EEAE
:10302800A77A1E4B1B6BC3F3080307EE903AF8EE22
:10303800676A97ED026ADFED1D5AC6EE257A76EECD
:10304800A77AF7EE006A77EEA67A67EE277AC7EDD9
:10305800077A00BF114B1B6B5B0A03F07F03013338
:103068003B603B6807EE903AB8EE677AD7ED076A9F
:10307800C6EE877AFCEEE77A17EE903ABB6105E078
:103088000023BB6102E0074BBB6100BFBB69184668
:103098002437BD465DF8047B704700BF00440258E2
:1030A8000090D00300093D00001BB7000000004657
:1030B8000024744C0024744A001B374B80B582B03E
:1030C80000AFFFF781FE0246104B9B691B0A03F015
:1030D8000F030F49CB5C03F01F0322FA03F37B6055
:1030E8000A4B9B6903F00F03094AD35C03F01F03E3
:1030F8007A6822FA03F3074A1360074A7B68136069
:10310800044B1B6818460837BD4680BD004402586A
:10311800487E0008040000240000002480B586B022
:1031280000AF78600023FB750023BB757B681B68C4
:1031380003F00063002B3FD07B685B6EB3F5401F44
:103148002AD0B3F5401F24D8B3F5001F18D0B3F523
:10315800001F1ED8002B03D0B3F5801F07D018E03E
:10316800AB4BDB6AAA4A43F40033D36215E07B68B1
:1031780004330221184600F011FF0346FB750CE0EA
:103188007B6824330221184600F0BAFF0346FB751A
:1031980003E00123FB7500E000BFFB7D002B09D194
:1031A8009B4B1B6D23F440127B685B6E984913435D
:1031B8000B6501E0FB7DBB757B681B6803F48073BE
:1031C800002B3DD07B685B6D042B26D801A252F8FA
:1031D80023F000BFF1310008FF3100081132000868
:1031E8002932000829320008894BDB6A884A43F4EF
:1031F8000033D36215E07B6804330021184600F0E1
:10320800CDFE0346FB750CE07B682433002118468D
:1032180000F076FF0346FB7503E00123FB7500E031
:1032280000BFFB7D002B09D1794B1B6D23F00702F2
:103238007B685B6D764913430B6501E0FB7DBB75CD
:103248007B681B6803F40073002B42D07B689B6D7E
:10325800B3F5807F2BD0B3F5807F25D8C02B28D03D
:10326800C02B21D8802B16D0802B1DD8002B02D044
:10327800402B07D018E0664BDB6A654A43F40033FD
:10328800D36217E07B6804330021184600F086FEFD
:103298000346FB750EE07B6824330021184600F0D6
:1032A8002FFF0346FB7505E00123FB7502E000BF15
:1032B80000E000BFFB7D002B09D1554B1B6D23F4AB
:1032C800E0727B689B6D524913430B6501E0FB7DFF
:1032D800BB757B681B6803F48063002B49D07B684F
:1032E800D3F8A430B3F5000F30D0B3F5000F2AD8C7
:1032F800B3F5C00F2CD0B3F5C00F24D8B3F5800FA9
:1033080018D0B3F5800F1ED8002B03D0B3F5001FDB
:1033180007D018E03E4BDB6A3D4A43F40033D362E2
:1033280017E07B6804330021184600F037FE034697
:10333800FB750EE07B6824330021184600F0E0FEA0
:103348000346FB7505E00123FB7502E000BF00E0C2
:1033580000BFFB7D002B0AD12D4B9B6D23F460022F
:103368007B68D3F8A4302A4913438B6501E0FB7DC1
:10337800BB757B681B6803F40063002B4CD07B682B
:10338800D3F8A830B3F1806F30D0B3F1806F2AD86A
:10339800B3F1407F2CD0B3F1407F24D8B3F1007F44
:1033A80018D0B3F1007F1ED8002B03D0B3F1807F73
:1033B80007D018E0164BDB6A154A43F40033D36292
:1033C80017E07B6804330021184600F0E7FD034648
:1033D800FB750EE07B6824330021184600F090FE50
:1033E8000346FB7505E00123FB7502E000BF00E022
:1033F80000BFFB7D002B0DD1054B9B6D23F0E062D8
:103408007B68D3F8A830024913438B6504E000BFFA
:1034180000440258FB7DBB757B681B6803F0007392
:10342800002B32D07B689B6C302B1CD0302B17D8EC
:10343800202B0CD0202B13D8002B16D0102B0FD1FB
:10344800AF4BDB6AAE4A43F40033D3620EE07B68CD
:1034580004330221184600F0A1FD0346FB7505E080
:103468000123FB7502E000BF00E000BFFB7D002BDD
:1034780009D1A34BDB6C23F030027B689B6CA0491D
:103488001343CB6401E0FB7DBB757B681B6803F4C9
:103498008053002B47D07B68DB6DB3F5804F30D06D
:1034A800B3F5804F2AD8B3F5405F2CD0B3F5405F11
:1034B80024D8B3F5005F18D0B3F5005F1ED8002BF1
:1034C80003D0B3F5805F07D018E08D4BDB6A8C4AD8
:1034D80043F40033D36217E07B68043300211846B5
:1034E80000F05CFD0346FB750EE07B682433002189
:1034F800184600F005FE0346FB7505E00123FB7541
:1035080002E000BF00E000BFFB7D002B09D17C4B2F
:103518001B6D23F4E0427B68DB6D794913430B652F
:1035280001E0FB7DBB757B681B6803F40053002B2F
:1035380049D07B681B6EB3F5A02F2ED0B3F5A02F12
:1035480028D8B3F5802F2AD0B3F5802F22D8B3F529
:10355800403F26D0B3F5403F1CD8B3F5003F10D00C
:10356800B3F5003F16D8002B1DD0B3F5803F11D11D
:103578007B6804330121184600F010FD0346FB75F3
:1035880012E07B6824330121184600F0B9FD034698
:10359800FB7509E00123FB7506E000BF04E000BFEE
:1035A80002E000BF00E000BFFB7D002B09D1544BB7
:1035B8001B6D23F4E0227B681B6E514913430B6596
:1035C80001E0FB7DBB757B681B6803F48043002B1F
:1035D8004BD07B68D3F8AC30B3F1A04F2ED0B3F109
:1035E800A04F28D8B3F1804F2AD0B3F1804F22D80A
:1035F800B3F1405F26D0B3F1405F1CD8B3F1005F50
:1036080010D0B3F1005F16D8002B1DD0B3F1805F46
:1036180011D17B6804330121184600F0BFFC034632
:10362800FB7512E07B6824330121184600F068FD21
:103638000346FB7509E00123FB7506E000BF04E0C3
:1036480000BF02E000BF00E000BFFB7D002B0AD1F5
:103658002B4B9B6D23F0E0427B68D3F8AC302849B4
:1036680013438B6501E0FB7DBB757B681B6803F426
:103678000043002B2FD07B68DB6EB3F1005F0ED0C8
:10368800B3F1005F14D8002B15D0B3F1805F0FD1D0
:103698001B4BDB6A1A4A43F40033D3620CE07B68A5
:1036A80004330121184600F079FC0346FB7503E05A
:1036B8000123FB7500E000BFFB7D002B09D1104BF7
:1036C8001B6D23F040527B68DB6E0D4913430B657D
:1036D80001E0FB7DBB757B681B6803F08073002BE2
:1036E80033D07B685B6C032B1CD801A252F823F003
:1036F800333700080D3700081B3700083337000838
:1037080000440258B84BDB6AB74A43F40033D3622B
:103718000CE07B6804330221184600F03FFC0346A6
:10372800FB7503E00123FB7500E000BFFB7D002B68
:1037380009D1AD4BDB6C23F003027B685B6CAA49B3
:103748001343CB6401E0FB7DBB757B681B6803F406
:103758008003002B00F08680A44B1B68A34A43F427
:1037680080731360FDF728F8386109E0FDF724F845
:1037780002463B69D31A642B02D90323FB7505E083
:103788009A4B1B6803F48073002BEFD0FB7D002B52
:1037980066D1954B1A6F7B68D3F8B030534003F469
:1037A8004073002B13D0904B1B6F23F44073FB60C6
:1037B8008D4B1B6F8C4A43F4803313678A4B1B6F06
:1037C800894A23F480331367874AFB6813677B6849
:1037D800D3F8B030B3F5807F15D1FCF7EDFF386131
:1037E8000BE0FCF7E9FF02463B69D31A41F2883245
:1037F800934202D90323FB7505E07B4B1B6F03F053
:103808000203002BEDD0FB7D002B26D17B68D3F87B
:10381800B03003F44073B3F5407F0DD1724B1B6990
:1038280023F47C527B68D3F8B0301909704B0B40F5
:103838006D4913430B6105E06B4B1B696A4A23F41E
:103848007C531361684B1A6F7B68D3F8B030C3F3AD
:103858000B03654913430B6704E0FB7DBB7501E06F
:10386800FB7DBB757B681B6803F00103002B7ED0D2
:103878007B689B6F282B67D801A252F823F000BF02
:1038880057390008513900085139000851390008E2
:1038980051390008513900085139000851390008D8
:1038A8002D390008513900085139000851390008EC
:1038B80051390008513900085139000851390008B8
:1038C8003F390008513900085139000851390008BA
:1038D8005139000851390008513900085139000898
:1038E8005739000851390008513900085139000882
:1038F8005139000851390008513900085139000878
:103908005739000851390008513900085139000861
:103918005139000851390008513900085139000857
:10392800573900087B6804330121184600F036FB3C
:103938000346FB750CE07B6824330121184600F030
:10394800DFFB0346FB7503E00123FB7500E000BFC6
:10395800FB7D002B09D1244B5B6D23F038027B687B
:103968009B6F214913434B6501E0FB7DBB757B6869
:103978001B6803F00203002B3ED07B685B6F052BAE
:1039880020D801A252F823F0D3390008A939000839
:10399800BB390008D3390008D3390008D3390008E7
:1039A8007B6804330121184600F0F8FA0346FB75DA
:1039B8000CE07B6824330121184600F0A1FB034684
:1039C800FB7503E00123FB7500E000BFFB7D002BC6
:1039D80010D1054B5B6D23F007027B685B6F0249D2
:1039E80013434B6508E000BF0044025800480258E2
:1039F800CFFFFF00FB7DBB757B681B6803F00403EA
:103A0800002B39D07B68D3F89030052B20D801A241
:103A180052F823F05F3A0008353A0008473A0008A0
:103A28005F3A00085F3A00085F3A00087B68043391
:103A38000121184600F0B2FA0346FB750CE07B68DA
:103A480024330121184600F05BFB0346FB7503E0B5
:103A58000123FB7500E000BFFB7D002B0AD1B74BAB
:103A68009B6D23F007027B68D3F89030B34913436A
:103A78008B6501E0FB7DBB757B681B6803F0200349
:103A8800002B4BD07B68D3F88C30B3F1A04F2ED0ED
:103A9800B3F1A04F28D8B3F1804F2AD0B3F1804FAB
:103AA80022D8B3F1405F26D0B3F1405F1CD8B3F100
:103AB800005F10D0B3F1005F16D8002B1DD0B3F112
:103AC800805F11D17B6804330021184600F066FA44
:103AD8000346FB7512E07B6824330221184600F088
:103AE8000FFB0346FB7509E00123FB7506E000BFE9
:103AF80004E000BF02E000BF00E000BFFB7D002B38
:103B08000AD18E4B5B6D23F0E0427B68D3F88C3092
:103B18008A4913434B6501E0FB7DBB757B681B68D5
:103B280003F04003002B4BD07B68D3F89830B3F5F3
:103B3800A05F2ED0B3F5A05F28D8B3F5805F2AD058
:103B4800B3F5805F22D8B3F5406F26D0B3F5406F48
:103B58001CD8B3F5006F10D0B3F5006F16D8002B42
:103B68001DD0B3F5806F11D17B680433002118464E
:103B780000F014FA0346FB7512E07B682433022137
:103B8800184600F0BDFA0346FB7509E00123FB75F2
:103B980006E000BF04E000BF02E000BF00E000BF95
:103BA800FB7D002B0AD1654B9B6D23F4E0527B68AB
:103BB800D3F89830614913438B6501E0FB7DBB75F1
:103BC8007B681B6803F08003002B4BD07B68D3F81D
:103BD8009C30B3F5204F2ED0B3F5204F28D8B3F53D
:103BE800004F2AD0B3F5004F22D8B3F5C04F26D0E6
:103BF800B3F5C04F1CD8B3F5804F10D0B3F5804F44
:103C080016D8002B1DD0B3F5005F11D17B680433A3
:103C18000021184600F0C2F90346FB7512E07B68E4
:103C280024330221184600F06BFA0346FB7509E0BD
:103C38000123FB7506E000BF04E000BF02E000BFFF
:103C480000E000BFFB7D002B0AD13C4B9B6D23F4A9
:103C580060427B68D3F89C30384913438B6501E098
:103C6800FB7DBB757B681B6803F00803002B1AD02B
:103C78007B68D3F88030B3F5805F0AD17B68243342
:103C88000221184600F03CFA0346002B01D001231C
:103C9800BB752A4B5B6D23F440527B68D3F88030A8
:103CA800264913434B657B681B6803F01003002B00
:103CB8001AD07B68D3F89430B3F5807F0AD17B683B
:103CC80024330221184600F01BFA0346002B01D0CA
:103CD8000123BB75194B9B6D23F440727B68D3F8A5
:103CE8009430164913438B657B681B6803F40023E3
:103CF800002B36D07B68D3F8A030B3F5003F1FD037
:103D0800B3F5003F17D8002B03D0B3F5803F09D097
:103D180011E07B6804330021184600F03FF90346A0
:103D2800FB750EE07B6824330221184600F0E8F9A1
:103D38000346FB7505E00123FB7502E000440258C9
:103D480000BFFB7D002B0AD1934B9B6D23F44032BF
:103D58007B68D3F8A030904913438B6501E0FB7D65
:103D6800BB757B681B6803F48023002B33D07B680A
:103D7800D3F88430B3F5401F1CD0B3F5401F16D8D4
:103D8800B3F5801F03D0B3F5001F07D00FE0824BB7
:103D9800DB6A814A43F40033D3620CE07B68243346
:103DA8000121184600F0ACF90346FB7503E0012336
:103DB800FB7500E000BFFB7D002B0AD1764B5B6DE5
:103DC80023F440127B68D3F88430734913434B655E
:103DD80001E0FB7DBB757B681B6803F48033002B17
:103DE80029D07B68DB6C002B03D0B3F5803F07D06C
:103DF8000FE0694BDB6A684A43F40033D3620BE097
:103E08007B6804330221184600F0C8F80346FB75A6
:103E180002E00123FB7500BFFB7D002B09D15E4B3F
:103E2800DB6C23F480327B68DB6C5B491343CB6427
:103E380001E0FB7DBB757B681B6803F00053002B1A
:103E48000AD07B6824330221184600F059F903464A
:103E5800002B01D00123BB757B681B6803F400337A
:103E6800002B30D07B68DB6FB3F5407F17D0B3F5FC
:103E7800407F11D8B3F5007F13D0B3F5007F0BD87E
:103E8800002B10D0B3F5807F06D1434BDB6A424A42
:103E980043F40033D36207E00123FB7504E000BF5D
:103EA80002E000BF00E000BFFB7D002B09D13A4BC8
:103EB8005B6D23F440727B68DB6F374913434B65B6
:103EC80001E0FB7DBB757B681B6803F48013002B46
:103ED80008D0314B1B6D23F000427B681B6F2E49C5
:103EE80013430B657B681B6803F08053002B09D0D4
:103EF800294B1B6923F480427B68D3F8B4302649E8
:103F080013430B617B681B6803F40013002B08D074
:103F1800214B1B6D23F080727B689B6E1E491343F7
:103F28000B657B681B6803F08043002B0DD01A4B90
:103F38001B69194A23F400431361174B1A697B68FC
:103F4800D3F8B830144913430B617B681B68002B06
:103F580008DA114BDB6C23F040527B681B6D0E496D
:103F68001343CB647B681B6803F40003002B09D060
:103F7800094B5B6D23F440027B68D3F8883006490F
:103F880013434B65BB7D002B01D1002300E00123C7
:103F980018461837BD4680BD0044025880B584B025
:103FA80000AF786039600023FB73534B9B6A03F0C2
:103FB8000303032B01D1012399E04F4B1B684E4AA1
:103FC80023F080631360FCF7F7FBB86008E0FCF7A8
:103FD800F3FB0246BB68D31A022B01D9032386E000
:103FE800454B1B6803F00063002BF0D1424B9B6AE2
:103FF80023F47C327B681B681B033F4913438B62A5
:104008007B685B68013BC3F308027B689B68013BE4
:104018005B029BB21A437B68DB68013B1B0403F419
:10402800FE031A437B681B69013B1B0603F0FE4332
:10403800314913438B63304BDB6A23F0C0027B6842
:104048005B692D491343CB622B4BDB6A23F02002BB
:104058007B689B6928491343CB62274BDB6A264A56
:1040680023F01003D362244BDA6B244B13407A6895
:10407800D269D20020491343CB631F4BDB6A1E4A27
:1040880043F01003D3623B68002B06D11A4BDB6A5E
:10409800194A43F40023D3620FE03B68012B06D191
:1040A800154BDB6A144A43F48013D36205E0124BC4
:1040B800DB6A114A43F40013D3620F4B1B680E4AA4
:1040C80043F080631360FCF777FBB86008E0FCF707
:1040D80073FB0246BB68D31A022B01D9032306E0FF
:1040E800054B1B6803F00063002BF0D0FB7B1846E0
:1040F8001037BD4680BD00BF004402580700FFFFCF
:1041080080B584B000AF786039600023FB73534BEF
:104118009B6A03F00303032B01D1012399E04F4B62
:104128001B684E4A23F080531360FCF745FBB860C8
:1041380008E0FCF741FB0246BB68D31A022B01D901
:10414800032386E0454B1B6803F00053002BF0D196
:10415800424B9B6A23F07C727B681B681B053F49B6
:1041680013438B627B685B68013BC3F308027B687F
:104178009B68013B5B029BB21A437B68DB68013B8F
:104188001B0403F4FE031A437B681B69013B1B06EF
:1041980003F0FE43314913430B64304BDB6A23F4CD
:1041A80040627B685B692D491343CB622B4BDB6A0A
:1041B80023F400727B689B6928491343CB62274B21
:1041C800DB6A264A23F48073D362244B5A6C244B4F
:1041D80013407A68D269D200204913434B641F4BBD
:1041E800DB6A1E4A43F48073D3623B68002B06D116
:1041F8001A4BDB6A194A43F48003D3620FE03B6829
:10420800012B06D1154BDB6A144A43F40003D36231
:1042180005E0124BDB6A114A43F08073D3620F4BFF
:104228001B680E4A43F080531360FCF7C5FAB86068
:1042380008E0FCF7C1FA0246BB68D31A022B01D981
:10424800032306E0054B1B6803F00053002BF0D056
:10425800FB7B18461037BD4680BD00BF004402589E
:104268000700FFFF84B080B584B000AF786007F125
:104278001C0080E80E003B6B012B20D17B689B6BF8
:1042880023F480327B689A637B68DA682A4B134090
:104298007A68D3607B68DB6823F440127B68DA6055
:1042A800FB6C012B05D17B68DB6843F480127B68CB
:1042B800DA60786801F04EFB0346FB731AE07B680E
:1042C800DB6843F040027B68DA60786801F042FB03
:1042D8000346FB733B6C002B06D17B689B6B43F456
:1042E80080327B689A6305E07B689B6B23F480329D
:1042F8007B689A63BB6A012B16D17B68DB6D9AB227
:104308007B68DA657B68DA6D0C4B13437A68D36592
:104318007B689B6843F006027B689A607B689B68B1
:1043280043F020027B689A60FB7B18461037BD4635
:10433800BDE8804004B07047BFFFBDFF0000EE033A
:1043480080B487B000AFF860B9601346FB71FB79A1
:10435800022B65D1BB68414A934206D9BB68404AE3
:10436800934202D20F237B6162E0BB683C4A9342CE
:1043780006D3BB683B4A934202D20E237B6157E0C7
:10438800BB68384A934206D3BB68374A934202D285
:104398000D237B614CE0BB68334A934206D3BB686C
:1043A800324A934202D80C237B6141E0BB682F4A12
:1043B800934206D9BB682E4A934202D80B237B61ED
:1043C80036E0BB682A4A934206D9BB68294A934219
:1043D80002D80A237B612BE0BB68264A934206D9A0
:1043E800BB68254A934202D209237B6120E0BB685F
:1043F800214A934206D3BB68204A934202D8082335
:104408007B6115E0BB681D4A934206D9BB681C4A0C
:10441800934202D207237B610AE006237B6107E00F
:10442800FB79002B02D109237B6101E009237B6121
:10443800FB68DB6823F47052FB68DA60FB68DA68B3
:104448007B699B0203F470531A43FB68DA6000230C
:1044580018461C37BD465DF8047B7047BFACD800D2
:10446800C0E1E4000024F400807306019F491A01AA
:10447800FF2C31013FA44C0100366E011FABA60191
:104488000048E80180B483B000AF78607B689B681F
:1044980043F001027B689A60002318460C37BD463A
:1044A8005DF8047B704780B483B000AF78607B68A8
:1044B8009B6823F001027B689A60002318460C373A
:1044C800BD465DF8047B704780B584B000AF786066
:1044D8000B46FB700023FB607B68DB6823F0C0425F
:1044E8007B68DA60FB78012B15D17B68DB6843F0C9
:1044F80000527B68DA600120FCF76AF9FB68013337
:10450800FB60786801F095F90346012B1ED0FB6823
:10451800312BF0D91AE0FB78002B15D17B68DB68CA
:1045280043F080427B68DA600120FCF751F9FB68B0
:104538000133FB60786801F07CF90346002B05D055
:10454800FB68312BF0D901E0012305E0FB68322B31
:1045580001D1012300E0002318461037BD4680BD75
:1045680084B080B586B000AF786007F1240080E899
:104578000E000023FB757B68FB6000233B6109E0AC
:104588007A683B6940339B00134400225A603B69B8
:1045980001333B613B690E2BF2D9FB6C002B1CD11C
:1045A800FB6803F500635B68FA6802F5006243F094
:1045B800020353607B689B6B23F400127B689A6349
:1045C8007B681B6843F040027B681A607B681B6845
:1045D80043F080027B681A6005E07B689B6B43F4BC
:1045E80000127B689A63FB6803F560631A46002330
:1045F8001360FB6803F500631946FB6803F5006365
:104608001A460B681360BB6B012B0CD1FB6A002B9D
:1046180004D10021786800F061F908E00121786888
:1046280000F05CF903E00321786800F057F91021E5
:10463800786800F0F3F80346002B01D00123FB75DE
:10464800786800F01DF90346002B01D00123FB75A3
:10465800FB6803F500631A4600231361FB6803F542
:1046680000631A4600235361FB6803F500631A468A
:104678000023D36100233B6143E03B695A01FB6897
:10468800134403F510631B6803F00043B3F1004FB4
:1046980018D13B69002B0AD13B695A01FB681344C6
:1046A80003F510631A464FF00063136013E03B698B
:1046B8005A01FB68134403F510631A464FF0904300
:1046C800136008E03B695A01FB68134403F5106363
:1046D8001A46002313603B695A01FB68134403F52B
:1046E80010631A46002313613B695A01FB6813449F
:1046F80003F510631A464FF67F3393603B69013325
:104708003B617B6A3A699A42B7D300233B6143E035
:104718003B695A01FB68134403F530631B6803F0D7
:104728000043B3F1004F18D13B69002B0AD13B6914
:104738005A01FB68134403F530631A464FF00063CF
:10474800136013E03B695A01FB68134403F53063B7
:104758001A464FF09043136008E03B695A01FB6822
:10476800134403F530631A46002313603B695A016A
:10477800FB68134403F530631A46002313613B6951
:104788005A01FB68134403F530631A464FF67F332A
:1047980093603B6901333B617B6A3A699A42B7D3BC
:1047A800FB6803F500631B69FA6802F5006223F4ED
:1047B800807313617B6800229A617B686FF0804286
:1047C8005A613B6B002B05D17B689B6943F0100253
:1047D8007B689A617B689A690E4B13437A68936188
:1047E800FB6B002B05D07B689B6943F008027B6854
:1047F8009A61FB6C012B05D17B689A69064B1343C0
:104808007A689361FB7D18461837BD46BDE880403D
:1048180004B0704700383C800400004080B485B084
:1048280000AF786039600023FB60FB680133FB60F0
:10483800124A934201D903231AE07B681B69002BB3
:10484800F3DA0023FB603B689B0143F020027B689E
:104858001A61FB680133FB60084A934201D90323BC
:1048680006E07B681B6903F02003202BF1D00023AE
:1048780018461437BD465DF8047B7047400D0300A9
:1048880080B485B000AF78600023FB60FB6801331B
:10489800FB60114A934201D9032317E07B681B6927
:1048A800002BF3DA0023FB607B6810221A61FB6897
:1048B8000133FB60084A934201D9032306E07B6871
:1048C8001B6903F01003102BF1D00023184614378E
:1048D800BD465DF8047B7047400D030080B485B089
:1048E80000AF78600B46FB707B68FB60FB6803F5E4
:1048F80000631A68FB78F96801F5006113430B60DF
:10490800002318461437BD465DF8047B704780B411
:1049180087B000AF78607B683B613B6903F5006353
:104928009B6803F00603FB60FB68002B02D10023A1
:10493800FB750AE0FB68022B02D0FB68062B02D14C
:104948000223FB7501E00F23FB75FB7D18461C371E
:10495800BD465DF8047B704780B485B000AF7860D1
:1049680039607B68FB603B681B78BB603B685B78A1
:10497800012B39D1FB6803F50063DA693B681B78C2
:1049880003F00F03012101FA03F39BB2F96801F563
:1049980000611343CB61BB685A01FB68134403F5FC
:1049A80010631B6803F40043002B53D1BB685A0102
:1049B800FB68134403F510631A683B689B68C3F3EC
:1049C8000A013B68DB789B041943BB689B050B43D2
:1049D8001A43BB685901FB680B4403F51063194679
:1049E800204B13430B6035E0FB6803F50063DA697D
:1049F8003B681B7803F00F03012101FA03F31B0442
:104A0800F96801F500611343CB61BB685A01FB6883
:104A1800134403F530631B6803F40043002B19D1DA
:104A2800BB685A01FB68134403F530631A683B6896
:104A38009B68C3F30A013B68DB789B040B431A436A
:104A4800BB685901FB680B4403F530631946054BF5
:104A580013430B60002318461437BD465DF8047BEA
:104A6800704700BF0080001080B485B000AF786048
:104A780039607B68FB603B681B78BB603B685B7890
:104A8800012B61D1BB685A01FB68134403F510631D
:104A98001B6803F00043B3F1004F1FD1BB685A01F4
:104AA800FB68134403F510631B68BA685101FA6880
:104AB8000A4402F5106243F000631360BB685A01B0
:104AC800FB68134403F510631B68BA685101FA6860
:104AD8000A4402F5106243F080431360FB6803F553
:104AE8000063DA6B3B681B7803F00F03012101FABE
:104AF80003F39BB2DB43F96801F500611340CB6314
:104B0800FB6803F50063DA693B681B7803F00F0361
:104B1800012101FA03F39BB2DB43F96801F5006157
:104B28001340CB61BB685A01FB68134403F510635B
:104B38001A68BB685901FB680B4403F510631946F2
:104B4800354B13400B6060E0BB685A01FB681344A7
:104B580003F530631B6803F00043B3F1004F1FD126
:104B6800BB685A01FB68134403F530631B68BA68D5
:104B78005101FA680A4402F5306243F00063136099
:104B8800BB685A01FB68134403F530631B68BA68B5
:104B98005101FA680A4402F5306243F08043136019
:104BA800FB6803F50063DA6B3B681B7803F00F03BF
:104BB800012101FA03F31B04DB43F96801F50061E5
:104BC8001340CB63FB6803F50063DA693B681B7825
:104BD80003F00F03012101FA03F31B04DB43F96817
:104BE80001F500611340CB61BB685A01FB681344AF
:104BF80003F530631A68BB685901FB680B4403F579
:104C080030631946054B13400B60002318461437D0
:104C1800BD465DF8047B7047007833EC0078F3EF0D
:104C280080B58AB002AFF860B9601346FB71FB68C3
:104C3800FB61BB681B78BB61BB685B78012B40F0EC
:104C48006381BB685B69002B32D1BB695A01FB6980
:104C5800134403F510631A69BB695901FB690B44D6
:104C680003F510631946A54B13400B61BB695A0144
:104C7800FB69134403F510631B69BA695101FA69AA
:104C88000A4402F5106243F400231361BB695A0118
:104C9800FB69134403F510631A69BB695901FB6981
:104CA8000B4403F510631946954B13400B6174E0F0
:104CB800BB695A01FB69134403F510631A69BB69A0
:104CC8005901FB690B4403F5106319468C4B1340DB
:104CD8000B61BB695A01FB69134403F510631A6938
:104CE800BB695901FB690B4403F510631946834BF3
:104CF80013400B61BB695A01FB69134403F5106348
:104D08001A69BB685969BB689B680B44591EBB6824
:104D18009B68B1FBF3F3D9047A4B0B40B96948019E
:104D2800F969014401F5106113430B61BB695A012C
:104D3800FB69134403F510631A69BB685B69C3F325
:104D48001203B9694801F969014401F51061134377
:104D58000B61BB68DB78012B1FD1BB695A01FB696A
:104D6800134403F510631B69BA695101FA690A44CF
:104D780002F5106223F0C0431361BB695A01FB6955
:104D8800134403F510631B69BA695101FA690A44AF
:104D980002F5106243F000531361FB79012B4BD1EC
:104DA800BB681B69002B09D0BB695A01FB69134416
:104DB80003F510631A46BB681B695361BB68DB784F
:104DC800012B28D1FB6903F500639B6803F480730A
:104DD800002B10D1BB695A01FB69134403F510631A
:104DE8001B68BA695101FA690A4402F5106243F076
:104DF800005313600FE0BB695A01FB69134403F5C4
:104E080010631B68BA695101FA690A4402F5106215
:104E180043F080531360BB695A01FB69134403F5DF
:104E280010631B68BA695101FA690A4402F51062F5
:104E380043F00443136033E1BB695A01FB6913442F
:104E480003F510631B68BA695101FA690A4402F54F
:104E5800106243F004431360BB68DB78012B15D064
:104E6800BB685B69002B00F01B81FB6903F50063DD
:104E78005A6BBB681B7803F00F03012101FA03F397
:104E8800F96901F5006113434B6309E1FB6903F517
:104E980000639B6803F48073002B10D1BB695A012F
:104EA800FB69134403F510631B68BA695101FA6979
:104EB8000A4402F5106243F0005313600FE0BB6927
:104EC8005A01FB69134403F510631B68BA69510161
:104ED800FA690A4402F5106243F080531360BB6814
:104EE800D968BB681A78BB685B6998B2FB7900938C
:104EF8000346F86800F038FAD2E000BFFFFF07E089
:104F08000000F8FF0000F81FBB695A01FB69134451
:104F180003F530631A69BB695901FB690B4403F552
:104F280030631946614B13400B61BB695A01FB6939
:104F3800134403F530631A69BB695901FB690B44D3
:104F480003F5306319465A4B13400B61BB685B6924
:104F5800002B23D1BB695A01FB69134403F5306365
:104F68001A69BB689B68C3F31203B9694801F969F8
:104F7800014401F5306113430B61BB695A01FB69B8
:104F8800134403F530631B69BA695101FA690A448D
:104F980002F5306243F40023136133E0BB685A69B9
:104FA800BB689B6813445A1EBB689B68B2FBF3F34B
:104FB800FB82BB695A01FB69134403F530631A6924
:104FC800FB8AD9043B4B0B40B9694801F969014494
:104FD80001F5306113430B61BB695A01FB69134446
:104FE80003F530631A69BB689B68F98A01FB03F310
:104FF800C3F31203B9694801F969014401F5306145
:1050080013430B61FB79012B0DD1BB68DB68002BC7
:1050180009D0BB68D968BB695A01FB69134403F519
:1050280030630A465A61BB68DB78012B28D1FB69DB
:1050380003F500639B6803F48073002B10D1BB69F0
:105048005A01FB69134403F530631B68BA695101BF
:10505800FA690A4402F5306243F0005313600FE026
:10506800BB695A01FB69134403F530631B68BA69CD
:105078005101FA690A4402F5306243F08053136023
:10508800BB695A01FB69134403F530631B68BA69AD
:105098005101FA690A4402F5306243F0044313608F
:1050A800002318462037BD4680BD00BF0000F8FF2A
:1050B800FFFF07E00000F81F80B487B000AFF8607A
:1050C800B9601346FB71FB687B61BB681B783B6169
:1050D800BB685B78012B40F0CD80BB685B69002B17
:1050E80032D13B695A017B69134403F510631A698D
:1050F8003B6959017B690B4403F510631946984BCA
:1051080013400B613B695A017B69134403F5106333
:105118001B693A6951017A690A4402F5106243F43D
:10512800002313613B695A017B69134403F510633B
:105138001A693B6959017B690B4403F510631946E9
:10514800884B13400B614EE03B695A017B6913445D
:1051580003F510631A693B6959017B690B4403F530
:10516800106319467F4B13400B613B695A017B69F9
:10517800134403F510631A693B6959017B690B44B1
:1051880003F510631946764B13400B61BB685A69E7
:10519800BB689B689A4203D9BB689A68BB685A6126
:1051A8003B695A017B69134403F510631B693A692B
:1051B80051017A690A4402F5106243F4002313612D
:1051C8003B695A017B69134403F510631A69BB688C
:1051D8005B69C3F31203396948017969014401F530
:1051E800106113430B61FB79012B1ED1BB681B694E
:1051F800002B09D03B695A017B69134403F51063FE
:105208001A46BB681B6953613B695A017B691344A1
:1052180003F510631B683A6951017A690A4402F57B
:10522800106243F00443136092E03B695A017B69C2
:10523800134403F510631B683A6951017A690A44FB
:1052480002F5106243F004431360BB685B69002BEE
:105258007ED07B6903F500635A6BBB681B7803F04B
:105268000F03012101FA03F3796901F50061134382
:105278004B636DE03B695A017B69134403F5306366
:105288001A693B6959017B690B4403F53063194678
:10529800344B13400B613B695A017B69134403F596
:1052A80030631A693B6959017B690B4403F5306324
:1052B80019462B4B13400B61BB685B69002B03D06D
:1052C800BB689A68BB685A613B695A017B69134499
:1052D80003F530631B693A6951017A690A4402F59A
:1052E800306243F4002313613B695A017B6913441C
:1052F80003F530631A69BB689B68C3F31203396905
:1053080048017969014401F5306113430B61FB7968
:10531800012B0DD1BB68DB68002B09D0BB68D968AD
:105328003B695A017B69134403F530630A465A61A5
:105338003B695A017B69134403F530631B683A697A
:1053480051017A690A4402F5306243F0044313605C
:10535800002318461C37BD465DF8047B704700BF24
:10536800FFFF07E00000F8FF80B489B000AFF860E5
:10537800B96011461A460B46FB711346BB80FB68A1
:105388007B61BB68FB6197F82830002B23D1BB8871
:1053980003339B083B610023BB6118E0FB791A03C8
:1053A8007B69134403F580531A46FB691B68136035
:1053B800FB690133FB61FB690133FB61FB69013365
:1053C800FB61FB690133FB61BB690133BB61BA69EE
:1053D8003B699A42E2D3002318462437BD465DF85C
:1053E800047B704780B48BB000AFF860B960134697
:1053F800FB80FB68BB61BB687B62FB889B089BB238
:105408007B61FB8803F00303FB8300233B6214E00A
:10541800BB6903F580531A687B6A1A607B6A01339B
:105428007B627B6A01337B627B6A01337B627B6AC6
:1054380001337B623B6A01333B623A6A7B699A4279
:10544800E6D3FB8B002B1ED000233B62BB6903F520
:1054580080531A4607F1100312681A603A693B6ACA
:10546800DBB2DB0022FA03F3DAB27B6A1A703B6A1A
:1054780001333B627B6A01337B62FB8B013BFB831D
:10548800FB8B002BEAD17B6A18462C37BD465DF8AA
:10549800047B704780B485B000AF786039607B6862
:1054A800FB603B681B78BB603B685B78012B2CD1A9
:1054B800BB685A01FB68134403F510631B68002B93
:1054C80012DBBB68002B0FD0BB685A01FB68134482
:1054D80003F510631B68BA685101FA680A4402F5BB
:1054E800106223F080431360BB685A01FB681344C1
:1054F80003F510631B68BA685101FA680A4402F59B
:10550800106243F4001313602BE0BB685A01FB6878
:10551800134403F530631B68002B12DBBB68002BB8
:105528000FD0BB685A01FB68134403F530631B684E
:10553800BA685101FA680A4402F5306223F08043E0
:105548001360BB685A01FB68134403F530631B689A
:10555800BA685101FA680A4402F5306243F400134C
:105568001360002318461437BD465DF8047B704766
:1055780080B485B000AF786039607B68FB603B68B9
:105588001B78BB603B685B78012B28D1BB685A014C
:10559800FB68134403F510631B68BA685101FA6885
:1055A8000A4402F5106223F4001313603B68DB78A9
:1055B800032B03D03B68DB78022B38D1BB685A0138
:1055C800FB68134403F510631B68BA685101FA6855
:1055D8000A4402F5106243F08053136027E0BB6869
:1055E8005A01FB68134403F530631B68BA6851011C
:1055F800FA680A4402F5306223F4001313603B682A
:10560800DB78032B03D03B68DB78022B0FD1BB6818
:105618005A01FB68134403F530631B68BA685101EB
:10562800FA680A4402F5306243F08053136000239D
:1056380018461437BD465DF8047B704780B485B0C2
:1056480000AF78600B46FB707B68FB60FB6803F576
:1056580000631B68FA6802F5006223F4FE631360B6
:10566800FB6803F500631A68FB781B0103F4FE630B
:10567800F96801F5006113430B60002318461437DD
:10568800BD465DF8047B704780B485B000AF786094
:105698007B68FB60FB6803F560631B68FA6802F5CA
:1056A800606223F003031360FB6803F500635B6823
:1056B800FA6802F5006223F00203536000231846DB
:1056C8001437BD465DF8047B704780B485B000AFE1
:1056D80078607B68FB60FB6803F560631B68FA68A9
:1056E80002F5606223F003031360FB6803F50063AF
:1056F8005B68FA6802F5006243F002035360002316
:1057080018461437BD465DF8047B704780B485B0F1
:1057180000AF78607B685B69FB607B689B69FA68AF
:105728001340FB60FB6818461437BD465DF8047BE0
:10573800704780B485B000AF78607B68FB60FB6819
:1057480003F500639B69BB60FB6803F50063DB69D5
:10575800BA681340BB60BB681B0C18461437BD46BB
:105768005DF8047B704780B485B000AF78607B68D3
:10577800FB60FB6803F500639B69BB60FB6803F58E
:105788000063DB69BA681340BB60BB689BB218460C
:105798001437BD465DF8047B704780B485B000AF10
:1057A80078600B46FB707B68FB60FB785A01FB68EE
:1057B800134403F530639B68BB60FB6803F5006323
:1057C8005B69BA681340BB60BB6818461437BD46AE
:1057D8005DF8047B704780B487B000AF78600B46F3
:1057E800FB707B687B617B6903F500631B693B6128
:1057F8007B6903F500635B6BFB60FB7803F00F03C9
:10580800FA6822FA03F3DB01DBB23A6913433B611E
:10581800FB785A017B69134403F510639B683A6966
:105828001340BB60BB6818461C37BD465DF8047B57
:10583800704780B483B000AF78607B685B6903F021
:10584800010318460C37BD465DF8047B704700001D
:1058580080B485B000AF78607B68FB60FB6803F5B7
:1058680010631A68FB6803F510631946094B134067
:105878000B60FB6803F500635B68FA6802F5006279
:1058880043F480735360002318461437BD465DF80F
:10589800047B704700F8FFFF80B487B000AFF86062
:1058A8000B467A60FB72FB687B61FB683C33043310
:1058B8001B683B613B69264A93420AD97B6903F519
:1058C80030631B6803F00043B3F1004F01D100239C
:1058D80037E07B6903F530631A46002313617B695F
:1058E80003F530631B697A6902F5306243F40023DB
:1058F80013617B6903F530631B697A6902F53062CD
:1059080043F0180313617B6903F530631B697A69F7
:1059180002F5306243F0C0431361FB7A012B0FD1CB
:105928007B6903F530631A467B6853617B6903F52D
:1059380030631B687A6902F5306243F08023136094
:10594800002318461C37BD465DF8047B704700BF2E
:105958000A30544F80B485B000AF78600023FB60F4
:10596800FB680133FB60134A934201D903231AE011
:105978007B681B69002BF3DA0023FB607B681B69DB
:1059880043F001027B681A61FB680133FB60094A36
:10599800934201D9032306E07B681B6903F00103E6
:1059A800012BF1D0002318461437BD465DF8047B5F
:1059B800704700BF400D030080B584B000AF786029
:1059C8000B46FB704FF4077002F08EF9F860FB6825
:1059D800002B05D17B680022C3F8BC22022366E0B5
:1059E8007B68FA68C3F8BC227B681B7C002B19D142
:1059F8004FF4007302228121786802F052F87B6824
:105A080001221A874FF4007302220121786802F0FC
:105A180048F87B680122A3F878217B681022A3F854
:105A28004E2016E0402302228121786802F039F8DE
:105A38007B6801221A87402302220121786802F03C
:105A480030F87B680122A3F878217B681022A3F83C
:105A58004E20082303228221786802F022F87B680E
:105A68000122A3F84C207B68D3F8C0321B68984702
:105A7800FB680022C3F81422FB680022C3F818222E
:105A88007B681B7C002B09D1FB68D3F804224FF4F8
:105A980000730121786802F0F3F807E0FB68D3F897
:105AA800042240230121786802F0EAF8002318460E
:105AB8001037BD4680BD80B582B000AF78600B4618
:105AC800FB708121786802F012F87B6800221A873F
