:020000040800F2
:100000000000082429070008390500083B050008FE
:100010003D0500083F0500084105000800000000FC
:100020000000000000000000000000004305000880
:1000300045050008000000004705000849050008C4
:100040007907000879070008790700087907000890
:100050007907000879070008790700087907000880
:100060007907000879070008790700087907000870
:100070007907000879070008790700087907000860
:100080007907000879070008790700087907000850
:100090007907000879070008790700087907000840
:1000A0007907000879070008790700087907000830
:1000B0004D0500087907000879070008790700084E
:1000C0007907000879070008790700087907000810
:1000D0007907000879070008790700087907000800
:1000E000590500087907000800000000790700089A
:1000F00079070008790700087907000879070008E0
:1001000079070008790700087907000879070008CF
:1001100079070008790700087907000879070008BF
:1001200079070008790700087907000879070008AF
:10013000790700087907000879070008790700089F
:1001400000000000000000000000000000000000AF
:10015000790700087907000879070008790700087F
:10016000790700087907000879070008790700086F
:10017000790700087907000879070008790700085F
:10018000790700087907000879070008790700084F
:10019000790700087907000879070008790700083F
:1001A000790700087907000879070008790700082F
:1001B000790700087907000879070008790700081F
:1001C000790700087907000879070008790700080F
:1001D0007907000861050008790700087907000819
:1001E00079070008790700087907000879070008EF
:1001F00079070008790700087907000879070008DF
:1002000079070008790700087907000879070008CE
:1002100079070008790700087907000879070008BE
:100220007907000879070008790700080000000036
:100230007907000879070008000000007907000826
:10024000790700087907000879070008790700088E
:10025000790700087907000879070008790700087E
:10026000790700087907000879070008790700086E
:1002700079070008790700087907000800000000E6
:1002800079070008790700087907000800000000D6
:080290000000000079070008DE
:1002A00010B5054C237833B9044B13B10448AFF3B0
:1002B00000800123237010BD6001002400000000B5
:1002C0007868000808B5034B1BB103490348AFF336
:1002D000008008BD00000000640100247868000868
:1002E00001F0FF01102A2BDB10F0070F08D010F8E7
:1002F000013B013A8B422DD010F0070F42B3F6D1EB
:10030000F0B441EA012141EA014122F007047FF003
:1003100000070023F0E80256083C85EA010586EA5A
:10032000010685FA47F5A3FA87F586FA47F6A5FA96
:1003300087F68EB9EED1F0BC01F0FF0102F00702A2
:1003400032B110F8013B013A83EA010313B1F8D14D
:100350000020704701387047002D06BF354603382E
:10036000073815F0010F07D1013015F4807F02BF67
:10037000013015F4C03F0130F0BC0138704700BFB8
:1003800010B588B014220021012403A805F006FC52
:10039000244B25480721D3F8E02042F00402C3F89B
:1003A000E020D3F8E02002F004020092009AD3F893
:1003B000E02042F08002C3F8E020D3F8E02002F011
:1003C00080020192019AD3F8E02042F00102C3F8C2
:1003D000E0200122D3F8E03003F001030293029BF6
:1003E00000F09CFB4FF400524FF4881303A90E4811
:1003F0000594CDE9032300F0A5FA072303A90A48D1
:10040000CDE9033402230024CDE9053400F09AFA43
:1004100022462146282000F041FA282000F070FAF8
:1004200008B010BD004402580008025800B59DB045
:100430004C22002109A805F0B1FB2022002101A8CF
:1004400005F0ACFB022001F005F900230093254BD9
:100450009A6942F440429A619A6902F440420092D9
:10046000214AD16A41F00101D162D26A02F001024F
:100470000092009A9A699204FCD5012221204FF43F
:1004800080334FF00C0C0F9214925022CDE90903E7
:10049000022309A8CDE91233CDE91523CDE917339D
:1004A0000023CDE919C31B9301F000F908B172B61E
:1004B000FEE73F22032308210390CDE901234023D7
:1004C0004FF48062CDE90413042106930DEB010083
:1004D000CDE9072301F01CFC08B172B6FEE71DB0A0
:1004E0005DF804FB004802580004005808B500F00D
:1004F0006BF9FFF79BFFFFF743FF04F0EBFA00F007
:10050000BBF8024802F0F2FAFEE700BF80010024C7
:1005100072B6FEE7074B82B0D3F8F42042F0020235
:10052000C3F8F420D3F8F43003F002030193019BE5
:1005300002B0704700440258FEE7FEE7FEE7FEE720
:10054000FEE770477047704700F06CB9014802F051
:1005500010BB00BF800100244FF4005000F0E3BA4C
:10056000014800F0D9BC00BFB4D60024B0F5005F4C
:1005700001D103F029BB70470B4A0346116810B53F
:1005800009B90A491160106809490A4C0344091B5A
:100590008B4206D905F0CAFA0C2303604FF0FF30F6
:1005A00010BD1360FCE700BF7C010024F0DD0024D7
:1005B0000000082400040000254AD2F8883043F4E3
:1005C0007003C2F88830234A136803F00F03062B28
:1005D00005D8136823F00F0343F0070313601E4B85
:1005E0001A6842F001021A6000221A611B4A196857
:1005F0000A4018491A600A68120705D50A6822F0ED
:100600000F0242F007020A60002215499A61DA617E
:100610001A6299621349D962134919635A6399633B
:10062000DA6319645A64196821F4802119601A6622
:100630000E4B1B681B0C1B04B3F1005F03D20C4B69
:100640000122C3F808210B4B43F2D2021A60704713
:1006500000ED00E000200052004402587FEDF6EA71
:10066000000202020000FF01800201010010005C94
:1006700000800051004000521022002100B589B0D6
:100680000DEB020005F08AFA002315484FF0804276
:1006900003938360C0E900234FF0FF32CDE90133BB
:1006A000C0E903238023836102F07AFB08B1FFF7DE
:1006B0002FFF4FF4805304A90948049302F0AAFBCA
:1006C00008B1FFF725FF002301A905480193039313
:1006D00002F060FC08B1FFF71BFF09B05DF804FBF6
:1006E000800100240368B3F1804F07B517D10D4B8B
:1006F0001C20D3F8E82042F00102C3F8E8200022D1
:10070000D3F8E830114603F001030193019B00F098
:10071000C5F81C2003B05DF804EB00F0F1B803B09D
:100720005DF804FB00440258DFF834D0FFF744FFC3
:100730000C480D490D4A002302E0D458C45004333C
:10074000C4188C42F9D30A4A0A4C002301E0136012
:100750000432A242FBD305F0EFF9FFF7C7FE704762
:1007600000000824000000246001002498F1000823
:1007700060010024F0DD0024FEE7000038B50F4BD7
:100780000546187808B9012038BD4FF47A730C4A31
:10079000B3FBF0F31068B0FBF3F000F0BFF80446D1
:1007A0000028F0D10F2DEED8024629464FF0FF3039
:1007B00000F074F8034B20461D60E5E708000024B4
:1007C000000000240C00002410B5032000F054F8B1
:1007D00001F0FEF90F49104A8B69C3F30323D35C80
:1007E00003F01F03D8408B6903F00F03D35C0B4A5F
:1007F00003F01F0320FA03F31360094B18600F2066
:10080000FFF7BCFF044618B9FFF784FE204610BD71
:100810000124FBE70044025890680008040000240B
:1008200000000024034A044B11681B780B4413603A
:10083000704700BFCC01002408000024014B186859
:10084000704700BFCC01002438B50446FFF7F6FF1F
:100850000546631C1EBF044B1B78E418FFF7EEFF30
:10086000431BA342FAD338BD08000024014B18688B
:10087000000C70470010005C07490302CA6803F4CB
:10088000E06322F4E0621204120C134343F0BF63EE
:1008900043F40033CB60704700ED00E0164B30B5F9
:1008A000DC68C4F30224C4F10705231D042D28BF0E
:1008B0000425062B4FF0FF338CBF033C002403FAC2
:1008C00005F5002803FA04F321EA050122EA0302F0
:1008D00001FA04F141EA02034FEA0313DBB206DB3B
:1008E00000F1604000F5614080F8003330BD00F059
:1008F0000F00024A1354F9E700ED00E014ED00E0A8
:10090000002808DB0123420900F01F0003FA00F071
:10091000014B43F82200704700E100E00138B0F1DC
:10092000807F0BD24FF0E023054AF0215861002070
:1009300082F82310072298611A61704701207047DE
:1009400000ED00E02DE9F74F0023DFF8CC914FF0E8
:10095000B0440A6832FA03F502D103B0BDE8F08F63
:100960004FF0010E0EFA03FE1EEA020200F0BD80F7
:100970004E684FEA43084FF0030C06F003050CFAEB
:1009800008FC6F1E6FEA0C0C012F34D8876807EA49
:100990000C0ACF6807FA08F747EA0A078760476832
:1009A00027EA0E0EC6F300179F4047EA0E0747607E
:1009B000C768022D07EA0C0E8F6807FA08F747EAA6
:1009C0000E07C76019D14FEAD30A03F0070B4FF0A7
:1009D0000F0E00EB8A0A4FEA8B0BDAF820700EFA42
:1009E0000BFE27EA0E0E0F6907FA0BF747EA0E0710
:1009F000CAF8207001E0032DDAD1076805FA08F57E
:100A000016F4403F07EA0C0747EA050707606CD079
:100A1000D9F8F45023F0030703F0030C4FF00F0E46
:100A200045F0020507F1B0474FEA8C0CC9F8F450C5
:100A300007F58067D9F8F45005F002050195019D8E
:100A40000EFA0CF5D7F8088028EA050E314DA842B9
:100A50004DD005F58065A8424BD005F58065A842CC
:100A600049D005F58065A84247D005F58065A842C4
:100A700045D005F58065A84243D005F58065A842BC
:100A800041D005F58065A8423FD005F58065A842B4
:100A90003DD005F58065A8420CBF09250A2505FA59
:100AA0000CF516F4801F45EA0E05BD606FEA0207DB
:100AB00025680CBF3D40154316F4001F256065688E
:100AC0000CBF3D40154316F4003F6560D4F88450D8
:100AD0000CBF3D401543F603C4F88450D4F8805051
:100AE00054BF3D401543C4F88050013331E7002521
:100AF000D5E70125D3E70225D1E70325CFE7042574
:100B0000CDE70525CBE70625C9E70725C7E7082573
:100B1000C5E700BF00000258004402580AB18161D5
:100B200070470904FBE74FF0B042D2F88810014249
:100B300008B503D0C2F88800FFF718FD08BDF0B56E
:100B400004468BB060B390F8BD34056803F0FF0233
:100B50001BB980F8BC2404F021F903236E46271D3D
:100B600084F8BD34EB6B254613F4807355F8100BF5
:100B700008BF236102F042FB0FCD0FC60FCD0FC699
:100B800095E80300254686E8030097E80E0055F82F
:100B9000100B02F073FA064620B1022384F8BD342C
:100BA000012552E00146206802F02EFB3046D4F8C1
:100BB00004C024264FF0010E0146C2B20130944514
:100BC0001BD8002324261946D8B20133844522D8E5
:100BD0006E460FCD0FC60FCD0FC695E8030086E811
:100BE000030097E80E00206802F08EFB0123054603
:100BF000F0B1022284F8BD24D2E706FB024383F859
:100C00003DE083F83C20A3F8442083F84010596568
:100C1000C3E91211D1E706FB004282F87D1282F887
:100C20007C0282F88012C2F89412C2E9A211CBE7CA
:100C300084F8380084F8BD34636A012B02D1204661
:100C400000F0F4FC206802F001FF28460BB0F0BD74
:100C500010B50446006894F8BC34012B15D001236C
:100C600084F8BC34A36A012B06D1A369012B03D0FD
:100C7000836B43F48033836302F0BAFA206802F096
:100C8000D7FE002084F8BC0410BD0220FCE710B59C
:100C900090F8BC240446012A0BD0012280F83810B9
:100CA00080F8BC24006802F0B3FE002084F8BC0485
:100CB00010BD0220FCE770B501F00F0611F0800FA7
:100CC00005464FF0240006EBC6044FEA84041FD00B
:100CD00004F13C0100FB06500124294480F83D400A
:100CE000CA604A780E700B7102B10E81022B04BFEC
:100CF00000234B7195F8BC34012B12D001232868D6
:100D000085F8BC3402F0C1FB002085F8BC0470BD3E
:100D100004F51F7100FB06500024294480F87D4231
:100D2000DEE70220F3E710B5044601F00F0011F0F2
:100D3000800F4FF0240200EBC0034FEA830316D06C
:100D400003F13C0102FB00420123214482F83D30C3
:100D5000087094F8BC34012B12D00123206884F869
:100D6000BC3402F0D1FB002084F8BC0410BD03F5B4
:100D70001F7102FB00420023214482F87D32E7E725
:100D80000220F3E738B501F00F05242404FB050128
:100D900004FB050401F51F71C4F894320023C4F864
:100DA0008C22C4F89C3284F87D3284F87C5203692A
:100DB0000068012B08BFC4F89022DAB21DB902F016
:100DC000F9FB002038BD02F0C5FCFAE701F00F0185
:100DD000242303FB0100D0F89C02704738B501F0D2
:100DE0000F05242404FB050104FB05043C31636565
:100DF0000023E264E365012384F83C5084F83D302D
:100E000003690068012B08BF2265DAB21DB902F040
:100E1000D1FB002038BD02F09DFCFAE738B501F0A7
:100E20000F05436804469D422CD811F0800F4FF007
:100E300024001ED000FB0541012300FB05423C318C
:100E400082F83D3001230D708B7094F8BC249A42D7
:100E50001AD0206884F8BC3402F086FD2DB904F263
:100E6000C442217C206802F043FE002084F8BC04C8
:100E700038BD00FB01431A4603F51F71002382F8B9
:100E80007D32DFE70120F3E70220F1E738B501F01A
:100E90000F02436804469A422AD802EBC20311F0BB
:100EA000800F4FF024004FEA830318D003F13C0178
:100EB00000FB02400123214480F83D3000250A70E8
:100EC0008D7094F8BC34012B14D00123206884F871
:100ED000BC3402F074FD284684F8BC5438BD03F5D8
:100EE0001F7100FB02400023214480F87D32E5E7BA
:100EF0000120F3E70220F1E701F00F030A0603EBFC
:100F0000C3034FEA83034CBF03F13C0103F51F7198
:100F10000144006802F0C8BB2DE9F04F066889B0B3
:100F20000446304602F0CFFD0390002840F06F8168
:100F3000206802F099FD002800F06981D6F8083891
:100F400006F500652068C3F30D23C4F8FC3402F0F5
:100F50008BFD810704D52268536903F002035361B6
:100F6000206802F081FDC2062CD52268936923F027
:100F700010039361D6F82080C8F3434308F00F07AD
:100F8000022B40F0478147F6F07318EA030F14D0A4
:100F90002423C8F30A19304603FB07474A46D7F80B
:100FA0008C1202F0C1FCD7F88C324B44C7F88C325B
:100FB000D7F89C324B44C7F89C322268936943F0BF
:100FC00010039361206802F04FFD030300F13481A8
:100FD000206802F049FD47030CD5274606F5106A44
:100FE0004FF00009206802F04BFD0490049B002B99
:100FF00040F0EA81206802F037FD002813DA6B68C0
:1010000023F001036B6094F8F434012B40F08582E7
:101010000021204684F8F41400F01BFB2268536979
:1010200003F000435361206802F01EFD00050AD55D
:10103000AB68D90702D5204603F036FF2268536912
:1010400003F400635361206802F00EFD020114D521
:1010500023685A6902F000625A6194F8F424002A65
:1010600040F05F820121204684F8F4145B6DC3F3E5
:101070008303C4F8F83400F0ECFA206802F0F4FCC2
:10108000C30433D56B681021206823F001036B6023
:1010900002F0E8F806F510634FF67F3162680398B6
:1010A000824200F24782EB6943F00113EB61236B4C
:1010B000002B00F05982D5F8843043F00B03C5F8BB
:1010C00084306B6C43F00B036B64D6F8003804F289
:1010D000C442217C23F4FE632068C6F8003802F085
:1010E00007FD2268536903F480535361206802F0BE
:1010F000BBFC870416D5206802F0E9FC206802F0EA
:10110000B9F92768E06000F029FF227B01463846E4
:1011100001F0FEFF204603F0B4FE2268536903F499
:1011200000535361206802F09FFC000707D520465A
:1011300003F0A3FE2268536903F00803536120689B
:1011400002F092FC010600F11A82206802F08CFC89
:10115000C2020CD5A04606F5126901276368BB429E
:1011600000F226822268536903F4801353612068D9
:1011700002F07AFC83022DD5D4F804E0234606F56C
:10118000326001218E4520D993F8A4C20268BCF1D7
:10119000010F40F02382002A80F22082D4F8FC74F0
:1011A00002F4803207F00107BA4240F0178283F858
:1011B000A3C2B26942F08002B2617269170600F1FF
:1011C0000D826B6843F400736B602268536903F40B
:1011D00000135361206802F047FC410007D5204608
:1011E00003F086FE2268536903F080435361206850
:1011F00002F03AFC42070AD523685D686B0702D506
:10120000204603F079FE226853682B43536009B0EF
:10121000BDE8F08F062B7FF4D0AE082204F2C44163
:101220003046C8F30A1802F07FFB242303FB07476C
:10123000D7F89C324344BEE606F53068A246002744
:10124000206802F015FC0490049B002B3FF4C0AE14
:10125000049BD80776D55FFA87FB2068594602F0D1
:1012600017FC10F0010F81461CD001232068216972
:10127000C8F8083000F530630129D0F840C003EB0E
:1012800047139A6840F08B80110707D5A7498C4512
:1012900008D9100406D54FF4004202E091065AD551
:1012A00020229A6019F0080F21D008239F48C8F81F
:1012B000083023681A6C03F53063824203EB47134E
:1012C000996804D9090402D54FF400419960204679
:1012D000059203F0BBFD954B059A9A4207D9216907
:1012E000012904D104F2C442206802F001FC19F083
:1012F000100F02D01023C8F8083019F0020F14D0D4
:1013000073691A0603D56B6843F480636B609AF8BF
:101310007F32012B06D10023594620468AF87F32BE
:1013200003F0DEFD0223C8F8083019F0200F02D0C8
:101330002023C8F8083019F4005F03D04FF400539D
:10134000C8F80830049B013708F120080AF1240A84
:101350005B08049378E712F0280FA3D173498C45FA
:1013600001D9120497D41A69DAF89832C2F312023A
:101370009B1ACAF89C326FB9D4F894222AB904F2A5
:10138000C442012102F0B4FB04E0D4F88C221344DF
:10139000C4F88C325946204603F05EFD82E764496A
:1013A0008C4507D111043FF576AF9006F2D5202287
:1013B0009A60EFE7002FEDD1D4F89432002BE9D1F9
:1013C00004F2C4423946DDE7049BDB0740F19C8010
:1013D0005FFA89FB2068594602F063FB10F0010FA9
:1013E000804620D0012109F00F026B6B01FA02F256
:1013F00023EA02036B630B46CAF80810216999427D
:101400000DD1D7E912231344FB64B9F1000F06D1C3
:10141000636D23B904F2C442206802F069FB5946A7
:10142000204603F022FD18F0080F02D00823CAF866
:10143000083018F0100F02D01023CAF8083018F046
:10144000400F02D04023CAF8083018F0020F12D023
:101450004946304601F006FF97F83F30012B07D18F
:101460004FF000035946204687F83F3003F03CFD1B
:101470000223CAF8083018F0800F45D0FA6D7B6D52
:101480009A4241D89B1ABA6C21689342059128BFB1
:10149000134603339B08069301F5106303EB4913CE
:1014A0000793079B06989969FA6D89B27B6D814213
:1014B00028D39A420CD3059B09F00F010120D3F8E1
:1014C000342800FA01F122EA0102C3F834281BE0B3
:1014D000A3EB0208BB6C5A460598984528BF98466E
:1014E00008F103039B080693237C00931FFA88F3FB
:1014F000F96C02F01BF9FB6C4344FB64FB6D434445
:10150000FB65CEE79A42D6D2049B09F10109243744
:101510000AF1200A5B08049368E5204603F0DCFC2E
:101520007CE5204603F0C0FCA7E500BF0A30544F1D
:101530000A31544F9960203353F8202C22F40012C2
:1015400043F8202CC3F8E811D3F8E02122F400126C
:10155000C3F8E021D3F8E02142F00062C3F8E021B3
:10156000039A0132039299E56B6943F4005343F007
:101570002B036B612B6943F00B032B61A5E5B3696A
:10158000012704F27F284FF0240923F08003B36180
:101590006368BB427FF6D9AD09FB07F318F8033047
:1015A000012B03D1F9B22046FFF7A6FC0137EFE784
:1015B00098F86430D9F80020012B09D1002A07DA05
:1015C00067F07F01204688F86330C9B2FFF794FCCA
:1015D000013708F1240809F12009BFE5013124335E
:1015E0002030CFE50068120470B5446A19B922436F
:1015F0008262002070BD836A4D1E04EB13440023F9
:101600005E1CDBB29D4205D83F31224300EB8100D6
:101610004260EEE7403300EB83035B6804EB134466
:101620003346EDE7036800205962704702680021E5
:10163000012380F8F414C0F800350846936943F09C
:1016400000639361536D43F0805343F0030353658C
:101650007047704738B5104CE36813F0040FE36827
:1016600005D103F00703181A18BF012038BD23F075
:1016700007031843E060FFF7E1F8054663689B0441
:1016800001D50020F2E7FFF7D9F8401BB0F57A7FCB
:10169000F4D90120EAE700BF00480258024AD368A3
:1016A00043F08073D360704700480258F8B5044691
:1016B00008B901208BE00368DF075ED423689E072A
:1016C00000F1AF802368DA0627D59E4B1A69996A24
:1016D00002F03802082A07D0182A40F0078101F0EA
:1016E0000302012A40F002811B68DB0502D5E36991
:1016F000802BDED1FFF7BAF841F20303216A98424A
:10170000904B00F2EC805A68202922F0F8420CBF7E
:1017100042F0804242EA81625A602368190700F170
:10172000278123689A0600F1488123685D071ED54A
:10173000854D2B6843F480732B60FFF77FF80646D6
:101740002B68DA0540F15E81A3687E4D012B40F0E5
:1017500060812B6F43F001032B6741F28837FFF75D
:101760006DF8784E0546336F9B0740F17881606ACB
:10177000002840F07B81002029E0724B1A69996AA9
:1017800002F03802102A05D0182A0AD101F003020B
:10179000022A06D11B689D0390D56368002B8DD16A
:1017A00087E76268B2F5803F12D11A6842F480324E
:1017B0001A60FFF743F8634E0546336898033FF518
:1017C0007DAFFFF73BF8401B6428F6D90320F8BD36
:1017D0005C4D2B689AB923F480332B602B6823F47B
:1017E00080232B60FFF72AF806462B6899037FF5C4
:1017F00065AFFFF723F8801B6428F6D9E6E7B2F55A
:10180000A02F07D143F480232B602B6843F480334F
:101810002B60CEE723F480332B602B6823F48023E6
:10182000F6E7484BE1681A69986A12F0380203D06B
:10183000182A2BD1820729D11B685B0702D5002902
:101840003FF437AF3F4D2A6822F019020A432A605D
:10185000FEF7F4FF06462B685F0711D5FFF706F881
:1018600041F20303226998426B6822D823F47C3347
:10187000402A0CBF43F4003343EA02336B6021E794
:10188000FEF7DCFF801B0228E5D99FE71A68A9B1A3
:1018900022F019022B4D0A431A60FEF7CFFF0646CD
:1018A0002B685807DAD4FEF7C9FF801B0228F7D946
:1018B0008CE723F0FE4343EA0263DFE722F00102F4
:1018C000204E1A60FEF7BAFF0546336859077FF5C8
:1018D000F9AEFEF7B3FF401B0228F6D976E7DA68C7
:1018E00022F07C5242EA0162DA6016E7E2696AB3EA
:1018F0001A68144D42F080021A60FEF79FFF0646F8
:101900002B68DF0511D5FEF7B1FF41F20303226A10
:10191000984210D86B68202A23F0F8430CBF43F09C
:10192000804343EA82636B60F7E6FEF787FF801B24
:101930000228E5D94AE7EB6823F07C5343EA0263C7
:10194000EB60EAE600440258004802581A689F4ECD
:1019500022F080021A60FEF771FF05463368D80551
:101960007FF5DBAEFEF76AFF401B0228F6D92DE7B4
:101970006369964D83B16B6F43F001036B67FEF7AC
:101980005DFF06466B6F9B073FF5CBAEFEF756FF3C
:10199000801B0228F6D919E76B6F23F001036B67F0
:1019A000FEF74CFF06466B6F9F077FF5BAAEFEF75A
:1019B00045FF801B0228F6D908E7A369834D83B150
:1019C0002B6843F480532B60FEF738FF06462B68E4
:1019D00098043FF5AAAEFEF731FF801B0228F6D926
:1019E000F4E62B6823F480532B60FEF727FF0646AE
:1019F0002B6899047FF599AEFEF720FF801B022823
:101A0000F6D9E3E6FEF71AFF801B64287FF698AE4E
:101A1000DCE6B3B92B6F41F2883723F001032B6763
:101A20002B6F23F004032B67FEF708FF06462B6F8E
:101A300098077FF59CAEFEF701FF801BB842F6D9F0
:101A4000C4E6052B2B6F03D143F004032B6780E61C
:101A500023F001032B672B6F23F004037CE6FEF7D2
:101A6000EDFE401BB8427FF67EAEAFE6574D2B69C8
:101A700003F03803182B7AD02B68022823F08073E8
:101A80002B6067D1FEF7DAFE06462B6899015BD41E
:101A9000AB6AA26A23F47C7323F003031343E26A64
:101AA00043EA0213AB62636BA26B013B013A5B0238
:101AB00012049BB202F4FE021343226B013AC2F3FA
:101AC00008021343E26B013A120602F0FE4213438E
:101AD0002B63EB6A23F00103EB626B6BA26C23F4C4
:101AE0007F4323F0F80343EAC2036B63EB6A226C83
:101AF00023F00C031343EB62EB6A626C23F00203E6
:101B00001343EB62EB6A43F48033EB62EB6A43F41A
:101B10000033EB62EB6A43F48023EB62EB6A43F041
:101B20000103EB622B6843F080732B60FEF786FEA7
:101B3000264D04462B689A013FF51DAEFEF77EFE4A
:101B4000001B0228F6D941E6FEF778FE801B02282A
:101B50009BD93BE6FEF772FE04462B689B017FF59E
:101B60000AAEFEF76BFE001B0228F6D92EE601280E
:101B7000AA6A2B6B3FF42BAE02F00301A06A8142EC
:101B80007FF497ADC2F30512E16A8A427FF491AD0A
:101B9000226BC3F30801013A91427FF48AAD626B74
:101BA000C3F34621013A91427FF483ADA26BC3F3A4
:101BB0000641013A91427FF47CADE06BC3F30663CA
:101BC0000138181A18BF012001E600BF004402586E
:101BD000484B1A6902F03802102A30B500F08680AE
:101BE000182A0CD0002A40F083801A68424812F06C
:101BF000200F03D01B68C3F3C103D84030BD996ADE
:101C00009D6ADC6A15F47C7FC5F305105A6BF5D02C
:101C1000C2F3CC0204F0010407EE900A01F00301C4
:101C20006243B7EE006AF8EEE76A012907EE902AF0
:101C3000FAEEE97A4CD002293CD0002948D11A6842
:101C4000920627D519682C4AC1F3C1011B6BCA4003
:101C5000C3F3080307EE102AF8EEC75A85EEA67AFA
:101C600006EE903AF8EEE66A76EEA77A77EE867A96
:101C7000204B67EE877A1B6BC3F34623013307EED5
:101C8000103AF8EEC76A87EEA67AFCEEC77A17EE2E
:101C9000900AB3E71B6BC3F3080307EE103AB8EEE4
:101CA000C77A77EE277A77EE867A9FED146A86EE0A
:101CB000267ADDE71B6BC3F3080307EE103AB8EE94
:101CC000C77A77EE277A77EE867A9FED0D6AEEE790
:101CD0001B6BC3F3080307EE103AB8EEC77A77EE32
:101CE000277A77EE867A9FED076AE0E7064885E770
:101CF000064883E7004402580090D0030024744C47
:101D0000001B374B0024744A001BB70000093D003C
:101D10002DE9F0410D46044610B90120BDE8F081DF
:101D2000884A136803F00F038B42C0F09380236846
:101D30005F0700F19B801E070BD583496669C86960
:101D400000F07000864204D9CA6922F07002324362
:101D5000CA61D8060BD57C49A669C86900F4E06061
:101D6000864204D9CA6922F4E0623243CA61990604
:101D70000BD57549E669086A00F07000864204D9FF
:101D80000A6A22F0700232430A629A070BD56E4942
:101D9000E668886900F00F00864204D98A6922F05B
:101DA0000F0232438A61DF076ED423689E0700F179
:101DB000A18064490A6802F00F02AA4200F2A880DA
:101DC000580700F1B18019070BD55F496569C869EB
:101DD00000F07000854204D2CA6922F070022A43E2
:101DE000CA61DA060BD55849A569C86900F4E060F4
:101DF000854204D2CA6922F4E0622A43CA619B0682
:101E00000BD5514AE069116A01F07001884204D291
:101E1000136A23F0700303431362FFF7D9FE4A49A4
:101E20004A4A8B69C3F30323D35C03F01F03D840F2
:101E30008B6903F00F03D35C454A03F01F0320FABC
:101E400003F31360434B1860434BBDE8F04118683F
:101E5000FEF794BC136823F00F030B431360136861
:101E600003F00F038B427FF458AF60E736492669D1
:101E7000886900F0700086427FF65DAF8A6922F0C3
:101E8000700232438A6156E72F4BA1689A6922F4A7
:101E900070620A439A6162681B68022A1DD113F4BA
:101EA000003F3FF43AAF284E41F28838336923F0BF
:101EB000070313433361FEF7C1FC074633696268C9
:101EC00003F03803B3EBC20F3FF46FAFFEF7B6FC7D
:101ED000C01B4045F2D9032020E7032A02D113F0AA
:101EE000007FDEE7012A02D113F4807FD9E713F0E7
:101EF000040FD6E71449E668886900F00F008642AF
:101F0000BFF457AF8A6922F00F0232438A6150E76B
:101F10000A6822F00F022A430A600A6802F00F02E0
:101F2000AA427FF4FAAE4BE707492569886900F0B9
:101F300070008542BFF447AF8A6922F070022A43DD
:101F40008A6140E70020005200440258906800086F
:101F500004000024000000240C00002410B50C4CE8
:101F6000FFF736FE0B49A369C3F30323CA5CA369D9
:101F700002F01F0203F00F0320FA02F2CB5C03F021
:101F80001F0322FA03F0044B1860044B1A6010BDC3
:101F90000044025890680008040000240000002457
:101FA000F8B53A4C06460D46A36A03F00303032B2B
:101FB00069D0236823F080632360FEF73FFC074667
:101FC00023681A014BD4A36A326823F47C3343EAB2
:101FD0000233A362B368F268013B013A5B02120468
:101FE0009BB202F4FE0213437268013AC2F3080284
:101FF00013433269013A120602F0FE421343A3630F
:10200000E36A726923F0C0031343E362E36AB269CF
:1020100023F020031343E362E36A23F01003E36237
:10202000E36BF26923F47F4323F0F80343EAC2032E
:10203000E363E36A43F01003E362E36AB5B943F490
:102040000023E362114C236843F080632360FEF7B2
:10205000F5FB054623681B010FD5002005E0FEF7C0
:10206000EDFBC01B0228ABD90320F8BD012D0CBF2E
:1020700043F4801343F40013E3E7FEF7DFFB401B58
:102080000228E7D9F0E70120EFE700BF004402583B
:10209000F8B53A4C06460D46A36A03F00303032B3A
:1020A00069D0236823F080532360FEF7C7FB0746FF
:1020B00023689A004BD4A36A326823F07C7343EA06
:1020C0000253A362B368F268013B013A5B02120457
:1020D0009BB202F4FE0213437268013AC2F3080293
:1020E00013433269013A120602F0FE42134323649D
:1020F000E36A726923F440631343E362E36AB269FB
:1021000023F400731343E362E36A23F48073E3620E
:10211000636CF26923F47F4323F0F80343EAC203BC
:102120006364E36A43F48073E362E36AB5B943F43A
:102130008003E362114C236843F080532360FEF771
:102140007DFB054623689B000FD5002005E0FEF7C8
:1021500075FBC01B0228ABD90320F8BD012D0CBFB5
:1021600043F4000343F08073E3E7FEF767FB401B93
:102170000228E7D9F0E70120EFE700BF004402584A
:102180002DE9F8430668054616F0006609D0436E4F
:10219000B3F5001F2ED013D8F3B1B3F5801F21D0B3
:1021A00001262B68DC0540F1EA806B6D042B00F200
:1021B000E580DFE813F024002B00DD002900290072
:1021C000B3F5401FECD1A64A0026696E136D23F4C7
:1021D00040130B431365E4E7A14AD36A43F4003389
:1021E000D362F0E702210430FFF7DAFE064600284A
:1021F000D7D1E8E702212430FFF74AFFF6E7984AF3
:10220000D36A43F40033D362344604E00021281D2E
:10221000FFF7C6FE0446002C40F0B380904A696D7B
:10222000136D23F007030B4313652B6898050DD539
:10223000AB6D802B00F0C28000F2A580002B00F077
:10224000B180402B00F0B480012634462B6859053C
:1022500010D5D5F8A430B3F5800F00F0D48000F28B
:10226000B580002B00F0C380B3F5001F00F0C580DF
:10227000012634462B681A0510D5D5F8A830B3F1DD
:10228000007F00F0E58000F2C680002B00F0D480D3
:10229000B3F1807F00F0D680012634462B689B0185
:1022A0000DD5AB6C202B00F0EF8000F2DB80002B13
:1022B00000F0DB80102B00F0E180012634462B6813
:1022C000DF040FD5EB6DB3F5005F00F0018100F284
:1022D000E380002B00F0F080B3F5805F00F0F28027
:1022E000012634462B6898040FD52B6EB3F5003FBA
:1022F00000F00E8100F2F480002B00F0FA80B3F5BC
:10230000803F00F0FF80012634462B68590410D529
:10231000D5F8AC30B3F1005F00F01B8100F2008112
:10232000002B00F00681B3F1805F00F00C810126E4
:1023300034462B681A040DD5EB6EB3F1805F00F0C4
:102340001081B3F1005F00F01A81002B00F00E81C4
:10235000012634462B68DB0140F127816B6C032B8F
:1023600000F26781DFE813F0180113015F01180123
:10237000002105F12400FFF78BFE4BE701263446D0
:1023800053E7264651E7C02B03D0B3F5807F7FF497
:102390005BAFCCB9324AA96D136D23F4E0730B43E4
:1023A000136553E72E4AD36A43F40033D362F0E750
:1023B0000021281DFFF7F4FD0446EAE7002105F19E
:1023C0002400FFF765FEF7E726463FE7B3F5C00FA9
:1023D00003D0B3F5000F7FF44BAFD4B9204AD5F842
:1023E000A410936D23F460030B43936542E71C4AEA
:1023F000D36A43F40033D362EFE70021281DFFF7CF
:10240000CFFD0446E9E7002105F12400FFF740FE77
:10241000F7E726462EE7B3F1407F03D0B3F1806F94
:102420007FF43AAFD4B90E4AD5F8A810936D23F0D3
:10243000E0630B43936531E7094AD36A43F4003301
:10244000D362EFE70021281DFFF7AAFD0446E9E764
:10245000002105F12400FFF71BFEF7E726461DE7E4
:1024600000440258302B7FF428AF9CB99D4AA96CD8
:10247000D36C23F030030B43D36420E7994AD36A2B
:1024800043F40033D362F0E70221281DFFF788FDF3
:102490000446EAE7264612E7B3F5405F03D0B3F5FA
:1024A000804F7FF41DAFCCB98E4AE96D136D23F4D4
:1024B000E0430B43136515E78A4AD36A43F40033BC
:1024C000D362F0E70021281DFFF76AFD0446EAE722
:1024D000002105F12400FFF7DBFDF7E7264601E7C1
:1024E00023F48032B2F5802F03D0B3F5403F7FF460
:1024F0000AAF9CB97B4A296E136D23F4E0230B438A
:10250000136502E70121281DFFF74AFD0446F0E7A5
:10251000012105F12400FFF7BBFDF7E72646F4E6AD
:1025200023F08052B2F1804F03D0B3F1405F7FF4CB
:10253000FEAEA4B96B4AD5F8AC10936D23F0E0431E
:102540000B439365F5E60121281DFFF729FD04469D
:10255000EFE7012105F12400FFF79AFDF7E7264692
:10256000E7E6604AD36A43F40033D3626CB95D4A4C
:10257000E96E136D23F040530B431365EAE6012126
:10258000281DFFF70DFD0446F0E72646E2E6554A12
:10259000D36A43F40033D362002C4DD1514A696CA5
:1025A000D36C23F003030B43D3642B685F024DD538
:1025B0004D4F3B6843F480733B60FEF73FF9804624
:1025C0003B68D8053AD5002C6CD1464BD5F8B00005
:1025D0001A6F424012F4407F0BD01A6F196F22F429
:1025E000407241F480311967196F21F48031196705
:1025F0001A67B0F5807F40D0D5F8B030394903F480
:102600004072B2F5407F49D10869384A20F47C50C5
:1026100002EA131202430A61C3F30B03314A116F3A
:102620000B43136712E00221281DFFF7B9FC044693
:10263000B2E701263446B8E72646B6E7FEF7FEF8CD
:10264000A0EB08006428BBD9032634462B68DA07C0
:1026500008D5AB6F102B3CD026D85BB3082B32D0FB
:10266000012634462B689B074FD56B6F052B62D82C
:10267000DFE803F0433E5B434343FEF7DFF8DFF858
:102680006480074641F28839D8F870309907B3D48E
:10269000FEF7D4F8C01B4845F6D9D5E70A6922F4FD
:1026A0007C52B8E72646D1E723F00802202A01D061
:1026B000182BD5D19CB90B4AA96F536D23F0380361
:1026C0000B435365CEE70121281DFFF769FC044643
:1026D000F0E7012105F12400FFF7DAFCF7E72646D1
:1026E000C0E700BF0044025800480258CFFFFF0077
:1026F0000121281DFFF754FC0446FCB9A64A696F66
:10270000536D23F007030B4353652B685F0727D5F1
:10271000D5F89030052B00F23981DFE813F0160070
:1027200011003101160016001600012105F12400E8
:10273000FFF7AEFCE0E701263446E6E72646E4E78D
:102740000121281DFFF72CFC0446002C40F02181BC
:10275000914AD5F89010936D23F007030B439365CE
:102760002B68980610D5D5F88C30B3F1005F00F0D7
:102770002E8100F21381002B00F01981B3F1805FEC
:1027800000F01F81012634462B68590610D5D5F874
:102790009830B3F5006F00F03B8100F22081002BF0
:1027A00000F02681B3F5806F00F02C8101263446BD
:1027B0002B681A0610D5D5F89C30B3F5804F00F081
:1027C000488100F22D81002B00F03381B3F5005FCA
:1027D00000F03981012634462B681B0714D5D5F843
:1027E0008030B3F5805F07D1022105F12400FFF7A7
:1027F0004FFC002818BF0126674AD5F88010536D9A
:1028000023F440530B4353652B68DF0614D5D5F8EA
:102810009430B3F5807F07D1022105F12400FFF742
:1028200037FC002818BF01265B4AD5F89410936D39
:1028300023F440730B4393652B6818031AD5D5F81E
:10284000A010B1F5803F00F00C81B1F5003F06D03B
:10285000002940F00C81281DFFF7A2FB0446002C44
:1028600040F008814C4AD5F8A010936D23F4403312
:102870000B4393652B6859031CD5D5F88430B3F509
:10288000001F00F0F980B3F5401F08D0B3F5801F9A
:1028900040F0F980404AD36A43F40033D362002CFD
:1028A00040F0F4803C4AD5F88410536D23F4401373
:1028B0000B4353652B68DA0309D5EB6C002B00F052
:1028C000E780B3F5803F00F0F180012634462B68A5
:1028D0009B0007D5022105F12400FFF7D9FB002852
:1028E00018BF01262B689F030AD5E96FB1F5807FD9
:1028F00000F0F28000F2E280002900F0E58001267D
:10290000DC0206D52449286F0A6D22F000420243FA
:102910000A65D80007D52049D5F8B4000A6922F421
:10292000804202430A61990206D51B49A86E0A6DCE
:1029300022F0807202430A655A0009D5164A1169CD
:1029400021F4004111611169D5F8B800014311610A
:10295000002B06DA1049286DCA6C22F0405202435F
:10296000CA641B0207D50C4AD5F88810536D23F4AE
:1029700040030B435365301E18BF0120BDE8F883A8
:10298000012105F12400FFF783FBDDE60126344633
:10299000E6E62646E4E600BF0044025823F08052F3
:1029A000B2F1804F03D0B3F1405F7FF4EBAEA4B936
:1029B0004D4AD5F88C10536D23F0E0430B4353651B
:1029C000E2E60021281DFFF7EBFA0446EFE70221BB
:1029D00005F12400FFF75CFBF7E72646D4E623F475
:1029E0008062B2F5805F03D0B3F5406F7FF4DEAE56
:1029F000A4B93D4AD5F89810936D23F4E0530B43E6
:102A00009365D5E60021281DFFF7CAFA0446EFE7D3
:102A1000022105F12400FFF73BFBF7E72646C7E656
:102A200023F40052B2F5004F03D0B3F5C04F7FF44A
:102A3000D1AEA4B92C4AD5F89C10936D23F4604311
:102A40000B439365C8E60021281DFFF7A9FA044649
:102A5000EFE7022105F12400FFF71AFBF7E726460E
:102A6000BAE6022105F12400FFF712FBF6E6012683
:102A70003446FFE62646FDE6012105F12400FFF776
:102A800007FB04460BE70126344613E7264611E709
:102A9000154AD36A43F40033D3626CB9124AE96C25
:102AA000D36C23F480330B43D36410E70221281D39
:102AB000FFF776FA0446F0E7264608E721F480722D
:102AC000B2F5007F7FF41BAF64B90748426D22F472
:102AD00040720A43426513E70348C26A42F4003277
:102AE000C262F1E726460BE70044025890F83D30F9
:102AF000012B33D1022380F83D300368DA6842F0BD
:102B00000102DA60164A93421AD0B3F1804F17D00F
:102B1000A2F57C42934213D002F5806293420FD01B
:102B200002F5806293420BD002F57842934207D0BF
:102B3000A2F56C42934203D002F59432934207D13E
:102B40009968084A0A40062A06D0B2F5803F03D0A9
:102B50001A6842F001021A60002070470120704795
:102B60000000014007000100704770477047704740
:102B7000704703681A69910710B504460FD5DA68E3
:102B800092070CD56FF002021A61012202779B694D
:102B9000990700F08580FFF7E9FF0023237723687A
:102BA0001A69520710D5DA6850070DD56FF0040284
:102BB00020461A61022222779B6913F4407F75D068
:102BC000FFF7D4FF0023237723681A6911070FD575
:102BD000DA6812070CD56FF0080220461A61042249
:102BE0002277DB699B0767D0FFF7C0FF00232377BD
:102BF00023681A69D00610D5DA68D1060DD56FF0B2
:102C0000100220461A6108222277DB6913F4407F04
:102C100058D0FFF7ABFF0023237723681A69D20748
:102C200008D5DA68D00705D56FF0010220461A6191
:102C3000FFF79AFF23681A69110608D5DA681206A9
:102C400005D56FF0800220461A6100F0EEF9236886
:102C50001A69D00508D5DA68110605D56FF48072B7
:102C600020461A6100F0E2F923681A69520608D575
:102C7000DA68500605D56FF0400220461A61FFF76A
:102C800077FF23681A69910622D5DA6892061FD564
:102C90006FF0200220461A61BDE8104000F0C4B970
:102CA000FFF763FF2046FFF762FF76E7FFF75DFF60
:102CB0002046FFF75CFF85E7FFF757FF2046FFF749
:102CC00056FF93E7FFF751FF2046FFF750FFA2E7BB
:102CD00010BD0000304A0368904212D0B0F1804F1E
:102CE0000FD0A2F57C4290420BD002F58062904258
:102CF00007D002F58062904203D002F578429042FC
:102D000019D14A6823F070031343234A90421DD01F
:102D1000B0F1804F1AD0A2F57C42904216D002F555
:102D20008062904212D002F5806290420ED002F58D
:102D3000784290420AD0194A904207D002F5806248
:102D4000904203D002F58062904203D123F4407395
:102D5000CA6813434A6923F08003134303608B68F6
:102D6000C3620B6883620C4B98420FD003F58063FB
:102D700098420BD003F57053984207D003F5806357
:102D8000984203D003F58063984201D10B69036335
:102D900001234361704700BF000001400040014033
:102DA00010B5044650B390F83D3003F0FF021BB954
:102DB00080F83C20FDF796FC02232068211D84F852
:102DC0003D30FFF787FF0123002084F8483084F866
:102DD0003E3084F83F3084F8403084F8413084F845
:102DE000423084F8433084F8443084F8453084F825
:102DF000463084F8473084F83D3010BD0120FCE7B0
:102E0000114310B5846841EA032324F47F4423432B
:102E1000836010BD70B590F83C300446012B4FF034
:102E2000020300F0AE80012280F83D30564B80F85E
:102E30003C20006885682B4083600B68702B57D05E
:102E40003DD8502B6AD01ED8402B00F0818006D888
:102E5000202B0ED00BD833F010020AD00122012310
:102E600084F83D30002384F83C30104670BD302B90
:102E7000F4D1826822F4401222F070021A4342F028
:102E8000070282603EE0602BE9D14D68CE68016A9E
:102E900021F0100101628269036A22F4704223F07A
:102EA000A00342EA063243EA0513826103628368A3
:102EB00023F4401323F0700343F0670346E0B3F5B7
:102EC000005F21D004D8B3F5805218BF0122C6E7B5
:102ED0002E498B42CDD005D823F01001B1F5801FCB
:102EE000C7D0BCE72A498B42C3D010318B42F7E7E9
:102EF000CB68D1E90121FFF783FF2268936843F093
:102F0000770393600022AAE7CB68D1E90121FFF79C
:102F100077FF2268936843F48043F2E74A68CE68FB
:102F2000016A056A21F00A0125F001050A430562DC
:102F3000836923F0F00343EA061383610262836826
:102F400023F4401323F0700343F057038360D9E761
:102F50004A68CE68016A056A21F00A0125F0010578
:102F60000A430562836923F0F00343EA0613836191
:102F70000262836823F4401323F0700343F0470395
:102F8000E4E71A4671E700BF8800CEFF200010007A
:102F90003000100030B590F83C30012B4FF00203A8
:102FA0003DD080F83D301F4D0368AB425A689C68A5
:102FB00003D005F58065AB4203D122F470024D6861
:102FC0002A430D6822F070022A435A60154A934240
:102FD0001AD0B3F1804F17D0A2F57C42934213D0A0
:102FE00002F5806293420FD002F5806293420BD0CB
:102FF00002F57842934207D0A2F56C42934203D087
:1030000002F59432934204D1896824F080020A4385
:103010009A60012380F83D30002380F83C30184648
:1030200030BD00BF0000014070477047704700008E
:1030300082B00023104A0193019B01330193019B4D
:10304000934216D80369002BF6DA00230A4A01934B
:10305000036943F001030361019B01330193019B69
:10306000934206D8036913F00103F5D1184602B064
:1030700070470320FBE700BF400D030084B038B564
:1030800005AD044685E80E000A9B012B2FD1836B0A
:1030900023F480338363C36823F4840323F0400361
:1030A000C360C36823F44013C360119B012B03D199
:1030B000C36843F48013C3602046FFF7B9FF089B41
:1030C000012B10D1E36D9BB2E365E36D43F07B739D
:1030D00043F40033E365A36843F00603A360A368E9
:1030E00043F02003A360BDE8384004B07047C368D4
:1030F00043F04003C360FFF79BFF0E9B23B9A36B14
:1031000043F48033A363DAE7A36B23F48033F9E756
:10311000022A4AD1274B284A0B44934239D9274BDC
:10312000274A0B44934236D9A1F57403254AA3F5E7
:103130001053934231D9A1F18373234AA3F5E74396
:1031400093422CD3214B224A0B44934229D9214B41
:10315000214A0B44934226D3204B214A0B449342ED
:1031600023D3A1F1B7731F4AA3F5585393421ED33B
:103170001D4B1E4A0B44934234BF07230623C268EB
:1031800022F47052C260C26842EA8323C360002006
:1031900070470F23F3E70E23F1E70D23EFE70C232E
:1031A000EDE70B23EBE70A23E9E70923E7E7082329
:1031B000E5E700BF405327FFFF340C00401E1BFF14
:1031C0003F420F007F4F120020D6130060B6E5FE8D
:1031D0005FE3160000D3CEFE40771B00C05BB3FE5A
:1031E000C091210020753800E05459FEE09C410058
:1031F000836843F00103836000207047836823F0F5
:10320000010383600020704738B5C3680129054673
:1032100023F0C043C3600FD1C368002443F00053C0
:10322000C36001200134FDF70FFB6B69D90714D48B
:10323000322CF6D1012038BD0029FBD1C3680C46E1
:1032400043F08043C36001200134FDF7FDFA6B6950
:10325000DA0702D5322CF6D1ECE7A4F1320358425A
:103260005841E8E782B00023104A0193019B0133E3
:103270000193019B934216D80369002BF6DA89016A
:1032800000230A4A41F0200101930161019B0133AF
:103290000193019B934206D8036913F02003F5D1F3
:1032A000184602B070470320FBE700BF400D030043
:1032B00082B000230F4A0193019B01330193019BCC
:1032C000934214D80369002BF6DA0023094A0193CC
:1032D00010230361019B01330193019B934206D8A4
:1032E000036913F01003F5D1184602B070470320AC
:1032F000FBE700BF400D0300D0F800381943C0F8C9
:10330000001800207047000084B02DE9F8430446FF
:1033100009A80E46139D80E80E000023194603F10C
:103320004002013304EB82020F2B5160F7D104F508
:103330000067002D6CD17B6843F002037B60A36BB8
:1033400023F40013A363236843F04003236023683E
:1033500043F0800323600023C4F8003ED4F8003813
:10336000C4F800380E9B012B59D10B99002954D178
:1033700020464FF67F38FFF7BFFF10212046FFF7AA
:1033800071FF01462046FFF793FF0843002304F531
:103390001062C0B24FF0904C19464FF0006E0038EA
:1033A0003B617B6118BF0120FB61B34239D1002230
:1033B00004F530634FF0904C4FF0006E11464FF61D
:1033C0007F38B24240D13B6923F480733B610023D4
:1033D000A3616FF0804363610C9B1BB9A36943F049
:1033E0001003A361A269224B1343A3610F9B1BB17E
:1033F000A36943F00803A361012D05D1A36943F03C
:10340000804343F00403A361BDE8F84304B0704770
:10341000A36B43F40013A3639DE71946A8E70321B8
:10342000A6E7D2F80090B9F1000F0BDA3BB9C2F869
:1034300000E011610133C2F808802032B5E7C2F81C
:1034400000C0F6E71160F4E7D3F80090B9F1000F7F
:103450000BDA3AB9C3F800E019610132C3F8088009
:103460002033AEE7C3F800C0F6E71960F4E700BF09
:1034700000383C80D0F8083813F0060004D013F070
:10348000020F14BF02200F20704730B50D780124C1
:1034900000F5006205F00F0300EB45109C404B78EF
:1034A000012BD36918D11C43D461D0F800391A0418
:1034B00010D4CA68D0F80049C2F30A030A7923433A
:1034C00043EA824343EA855343F0805343F4004385
:1034D000C0F80039002030BD43EA0444D461D0F87C
:1034E000003B1B04F6D4CB68D0F8002BC3F30A03CF
:1034F00013430A7943EA824343F0805343F4004381
:10350000C0F8003BE6E7000010B50A78497800EB08
:10351000421300F50060012902F00F0222D1D3F816
:10352000001900290BDAD3F8001941F00061C3F843
:103530000019D3F8001941F08041C3F800190121A6
:10354000C46B01FA02F224EA0204C463C16921EAED
:103550000202C261154AD3F800190A40C3F80029D3
:10356000002010BDD3F8001B00290BDAD3F8001B94
:1035700041F00061C3F8001BD3F8001B41F080410B
:10358000C3F8001B4FF48031C46B01FA02F224EA45
:103590000204C463C16921EA0202C261044AD3F889
:1035A000001B0A40C3F8002BDAE700BF007833ECB9
:1035B0000078F3EF4B78DFF8ECC0012BF0B50E7814
:1035C0008D6900EB4614364F46D104F51063BDB942
:1035D0001D692F401F611D6945F400251D611D698E
:1035E00005EA0C05012A1D6123D14A6902B15A611D
:1035F000D4F8003943F00443C4F800390020F0BD8A
:10360000D3F810E00EEA0C0CC3F810C0D3F810C0C9
:103610000CEA07071F61CF68AF421D6945F400251A
:1036200038BF8F611D618D691F69C5F312053D4368
:10363000D8E7D4F8003943F00443C4F800398B6963
:10364000002BDBD006F00F060123D0F83428B3405E
:103650001343C0F83438D1E7D4F8100B04F53063C5
:1036600000EA0C001861186938401861C86805B193
:1036700088611D69012AC861C0F3120045F4002564
:103680001D611D6940EA0500186102D10A6902B195
:103690005A61D4F8003B43F00443C4F8003BADE763
:1036A000FFFF07E00000F8FF002382B04A78019393
:1036B000012A0B784FEA43131ED100F51060C2585F
:1036C000C118002A02DB002002B07047C25842F045
:1036D0000062C250C25842F08042C25042F21072A0
:1036E000019B01330193019B934201D90120EBE738
:1036F0000B68002BF4DBE6E700F53060C258C11818
:10370000002AE0DAC25842F00062C250C25842F0C9
:103710008042C25042F21072019B01330193019B1F
:103720009342E3D80B68002BF6DBCCE710B59DF88D
:10373000084044B9033301329B0800EB023001EB2F
:1037400083038B4201D1002010BD51F8042B02608D
:10375000F7E700002DE9F3414D780F78012D8B69D3
:1037600000EB47140E79DFF8B4C1DFF8B4E140F0A4
:103770008E8004F51065D5F810806BBB08EA0C0C40
:10378000C5F810C0D5F810C04CF4002CC5F810C016
:10379000D5F810C00CEA0E0EC5F810E0012A4ED183
:1037A0004B6903B16B61012E0CD1D0F8083813F4CA
:1037B000807FD4F800390CBF43F0005343F08053AE
:1037C000C4F80039D4F8003943F00443C4F8003990
:1037D000002002B0BDE8F08108EA0E0E012EC5F807
:1037E00010E0D5F810E00EEA0C0CD1F80CE0C5F8AA
:1037F00010C00EEB030CD5F810800CF1FF3CBCFBA5
:10380000FEFEDFF820C10CEACE4C4CEA080CC5F8ED
:1038100010C0C3F3120CD5F810E04CEA0E0CC5F83A
:1038200010C0BBD1D5F810C02CF0C04CC5F810C0EA
:10383000D5F810C04CF0005CC5F810C0AEE7D4F865
:103840000059012E45F00445C4F800590BD0002B57
:10385000BED007F00F020127D0F8343897401F433D
:10386000C0F83478B4E7D0F808589BB215F4807FDC
:10387000D4F800590CBF45F0005545F08055C4F808
:10388000005900923A460969FFF750FFA0E7D4F8C3
:10389000105B04F5306705EA0E053D613D6905EAF8
:1038A0000C053D61CD681BBB3B69C5F312051D438B
:1038B0003D613B6943F400233B61012A02D10B695E
:1038C00003B17B61012E0CD1D0F8083813F4807F4E
:1038D000D4F8003B0CBF43F0005343F08053C4F8CE
:1038E000003BD4F8003B43F00443C4F8003B6FE7CF
:1038F0002B44DFF830C0D7F810E0013BB3FBF5F301
:103900009BB25D430CEAC34343EA0E03CD61C5F3AA
:1039100012053B613B691D433D61CEE7FFFF07E0B8
:103920000000F8FF0000F81F0346900802F00302B1
:1039300070B5002403F58055844210D301EB80005C
:1039400062B103F580531C680023D90024FA01F109
:10395000C154013399B28A42F7D1104470BD2E6828
:1039600041F824600134E7E74A780B78012A00EB3C
:10397000431012D1D0F80029002A06DB2BB1D0F871
:10398000003923F08043C0F80039D0F8003943F4FF
:103990000013C0F8003900207047D0F8002B002A2F
:1039A00006DB2BB1D0F8003B23F08043C0F8003B8E
:1039B000D0F8003B43F40013C0F8003BEBE70B7872
:1039C0004A7800EB43100B79012AA3F10203DBB222
:1039D0000FD1D0F80029012B22F40012C0F80029E1
:1039E00005D8D0F8003943F08053C0F800390020E2
:1039F0007047D0F8002B012B22F40012C0F8002BE6
:103A0000F5D8D0F8003B43F08053C0F8003BEEE718
:103A1000D0F80038090123F4FE6301F4FE61C0F818
:103A20000038D0F800381943C0F80018002070475B
:103A3000D0F8003E23F00303C0F8003ED0F804386D
:103A400023F00203C0F8043800207047D0F8003E8D
:103A500023F00303C0F8003ED0F8043843F002031B
:103A6000C0F80438002070474269806910407047F0
:103A7000D0F8183800F50060C0691840000C704795
:103A8000D0F8183800F50060C069184080B270475F
:103A900000EB411100F50060D1F8082B406910409F
:103AA000704710B5D0F81048D0F8343800EB41100A
:103AB00001F00F0100F51060CB408068DB01DBB244
:103AC0002343184010BD406900F001007047D0F852
:103AD000003923F4FF6323F00703C0F80039D0F85E
:103AE000043843F48073C0F80438002070470000A5
:103AF00030B5056C00F530630F4CA54203D9D0F802
:103B0000004B002C16DB002401291C611C6944F4C5
:103B100000241C611C6944F018041C611C6944F0F9
:103B2000C0441C6106D15A61D0F8003B43F08023A9
:103B3000C0F8003B002030BD0A30544F10B586B0AD
:103B4000094C012300224FF4805101A801F07AFAB8
:103B5000214601A801F036FE4FF480520349204669
:103B600001F0C0FE06B010BDD0410024D0010024F9
:103B70000B4A00234FF0FF30DFED0A7AB2EC017AF6
:103B8000B4EEE77AF1EE10FAC8BF184603F101036C
:103B9000C8BFF0EE477AB3F5006FEFD1704700BFB2
:103BA000D001002400000000054B0022002101325A
:103BB000196059600833B2F5805FF8D1704700BFD3
:103BC000D0410024000000004FF0804300202DE988
:103BD000F041854C4FF00008844F25463E462DEDC0
:103BE000028B5862FFF7E0FF21460346B3F5967F4C
:103BF00003F1010306F1020601F10801BBBF16F84B
:103C0000022C16F8010C41F8088C42EA002241F817
:103C1000048CBFBF12B207EE902AF8EEE77A41EDAE
:103C2000027AB3F5805FE1D1FFF788FFFFF7A0FFCD
:103C3000064605EBC00393ED001A93ED010AB7EEBB
:103C4000C11AB7EEC00A02F02BFCB0EE408BFFF7B2
:103C5000ABFF0023B3F5967F03F10103C4F80480A2
:103C600007F10207B8BF97F8562204F10804B7BF5E
:103C700097F8571244F8088C42EA012212B2BEBFEC
:103C800007EE902AF8EEE77A44ED027AB3F5805F0A
:103C9000E0D1FFF753FFFFF76BFF05EBC00393ED98
:103CA000001A93ED010AB7EEC11AB7EEC00A02F08E
:103CB000F7FB4FF4167330EE480B734307EE103AE0
:103CC000BBEEE97B9FED306BB8FE477BBCEEC77B5C
:103CD00020EE060B17EE103A5B0007EE103A40F2AA
:103CE0005723B8EE477B06FB03339FED295B27EE96
:103CF000067B9FED296B9FED2A3B87EE054B80EEFF
:103D0000067B06EE103A4FF080435B6AB8EE466BD6
:103D10009FED252B9FED261B34EE077B9FED264B59
:103D200026EE046BA6EE038B27EE023B9FED246B81
:103D300023EE063B83EE016B9FED233B36EE061B25
:103D400081EE036B9FED221B27EE017B27EE027BAA
:103D500027EE047B87EE050B9FED1F7BB8FE466BBD
:103D6000BCEEC66BB8EE466B38EE408B28EE038B8C
:103D700088EE070B9FED1A7BBDEC028BA6EE070BBE
:103D8000BDE8F081AFF3008000000000FC58444122
:103D90000000000000C08240D8E4BF86D2739D407E
:103DA000000000000000303F21020EA14ACD2E3F4E
:103DB000000000500052F741182D4454FB210940E7
:103DC0000000004A78DEB1414379073B6B456E3F06
:103DD0000000000000B88240182D4454FB21294007
:103DE0004379073B6B455E3FD0410024B0C40024BB
:103DF000D0F8D43200EB830010B5D0F8C04284B1C3
:103E0000D0F8C4325BB194F80002FF2807D09B6859
:103E1000214694F801229847FF2384F800320020BD
:103E200000E0032010BD00000A2303800048704713
:103E30008C00002470B5822106460F4800F094FBE8
:103E4000012105460C4800F08FFB812104460A48F9
:103E500000F08AFB0DB11022AA711CB14022227120
:103E60000022627118B14022027100224271432384
:103E70000148338070BD00BF48000024FFF7DABF5F
:103E800070B5822106460F4800F06EFB0121054601
:103E90000C4800F069FB812104460A4800F064FBED
:103EA0000DB11022AA711CB100222271022262718E
:103EB00018B100220271022242714323014833806B
:103EC00070BD00BF4800002438B5D0F8D432044695
:103ED000B03350F823508DB101F055F8C5F80C02FD
:103EE000D4F8D40205F5037104EB8004D5F804027C
:103EF000D4F8C432DB689847002038BD0320FCE7C3
:103F0000F8B5D0F8D4620A4600EB8606D6F8C0525F
:103F100045B301F00F0C142707FB0C07BC6994B1E3
:103F2000D0F8C8324FF0240E0EFB0C339B6CB4FB60
:103F3000F3FC03FB1C4434B923462246BC6101F068
:103F40006EF820460DE0D6F8C43200271C69C5F88B
:103F50001472002CF5D005F50471D5F80802A047BD
:103F60003846F8BD0320FCE7D0F8D43200EB8303D9
:103F70002DE9F3414FF00008D3F8C07205460E4614
:103F80008DF80580ADF80680002F6ED00A7812F00B
:103F900060042ED0202C64D1CC8891F801C00CB3E1
:103FA000120613D5D3F8C4322246394660469B68C0
:103FB0009847F28839462846072A28BF072200F08A
:103FC00048FD4446204602B0BDE8F081402C394609
:103FD00087F800C228BF4024224687F8014200F03B
:103FE0004DFDEEE7D3F8C432224660469B68984701
:103FF000E8E74F780B2F34D801A353F827F000BF20
:1040000031400008C53F00086340000863400008D5
:1040100063400008634000086340000863400008F4
:104020006340000863400008474000085B40000808
:1040300090F89C32032B14D102220DF106013C466C
:1040400000F007FDBEE790F89C32032B09D1012256
:104050000DF1050100F0FDFCB4E790F89C32032B54
:10406000B0D03146284600F0CDFC0324AAE700BFBB
:1040700038B504460025812100F0ADFF012120461E
:10408000258700F0A8FF82212046A4F8785100F08F
:10409000A2FFD4F8D432E56404EB8303D3F8C02242
:1040A0008AB1D3F8C4325B689847D4F8D432B033BD
:1040B00054F8230000F070FFD4F8D432B03344F841
:1040C0002350C4F8BC52002038BD70B504464FF4EC
:1040D000077000F05DFF054630B9D4F8D432B03334
:1040E00044F82300022547E04FF40772002101F055
:1040F00055FDD4F8D432B03344F82350237CC4F8AF
:10410000BC52002B3AD14FF4007302228121204689
:1041100000F055FF01264FF4007326873146022236
:10412000204600F04CFF102303228221A4F878617E
:104130002046A4F84E30082300F041FFD4F8D432D2
:104140000026012104EB8303A4F84C10D3F8C432F9
:10415000C5F804621B689847D5F80422C5F81462B4
:10416000C5F81862002ABDD0257C012185B94FF41D
:104170000073204600F05CFF284670BD01264023F6
:1041800002228121204600F01AFF40232687C5E73E
:1041900040232046354600F04BFFEDE739B1D0F81B
:1041A000D43200EB8300C0F8C41200207047032013
:1041B0007047D0F8D432B03350F823302BB1002000
:1041C000C3F80812C3F81022704703207047D0F8D4
:1041D000D432B03350F823301BB10020C3F804129E
:1041E000704703207047D0F8D432B03350F8232002
:1041F00010B57AB1D2F8144201236CB9C2F8143266
:104200008121D2F81032D2F80822C36200F007FFF1
:10421000204610BD0320FCE71846FAE7D0F8D42268
:10422000B03250F8222010B582B1047CD2F80422BA
:1042300034B94FF40073012100F0FAFE204610BD9E
:1042400040230121002400F0F3FEF7E70324F5E703
:1042500078B10023C0F8B832C0F8C432C0F8D03208
:1042600009B1C0F8B4120123027080F89C3200F04A
:1042700047BE03207047002313B50446ADF806304F
:1042800081B1CB6AC0F8B81223B10DF1060098478E
:10429000C4F8D002D4F8D83200200133C4F8D832A0
:1042A00002B010BD0320FBE700F080BED0F8B832AA
:1042B0000BB11B6818471846704708B5D0F8B832DC
:1042C0005B689847002818BF032008BD38B500F286
:1042D000AA250446284600F08AFB012394F8AA1276
:1042E000C4F89432B4F8B032C4F8983201F01F0325
:1042F000012B08D0022B0CD08BB929462046BDE8F3
:10430000384000F04FB929462046BDE8384000F05B
:104310009FBA29462046BDE8384000F0C8BA20467A
:1043200001F08001BDE8384000F05EBE70B5044683
:10433000164609BBD0F89432032B0CD1D0E9573282
:1043400093420AD99B1A31469A42C0F85C3128BF81
:104350001A4600F0A0FB002070BD90F89C32032BA1
:1043600006D1D0F8B8321B6913B1C0F8D4129847FF
:10437000204600F098FBEEE790F89C32032BEAD140
:10438000D0F8B8329B69002BE5D00022BDE8704020
:10439000C0F8D422184773B504461646002941D107
:1043A000D0F89422022A0FD1D0E90752954214D9AD
:1043B000AA1A01913146C26100F058FB019B1A46CE
:1043C0001946204600F034FE94F8A03213B10023C1
:1043D00084F8A032002002B070BD0ED182699542EF
:1043E0000BD8D0F89852AA4207D20A46019100F0A1
:1043F0003DFB019BC4F89832E1E794F89C32032B13
:1044000008D1D4F8B832DB6823B100222046C4F8C2
:10441000D42298478021204600F0E6FD204600F097
:104420004DFBD1E790F89C32032BD3D1D0F8B832B2
:104430005B69002BCED00022C0F8D42202B0BDE8C8
:1044400070401847F8B501230021044680F89C32DB
:10445000D0F8B832C0F894124160C0F8A41280F8C5
:10446000A012B3B90026002240250127402311469F
:10447000204600F0A4FD2B46002280212046A4F80F
:104480006471C4F8605100F09AFD3046A78425623B
:10449000F8BD5B68002BE5D098470028E2D00326E2
:1044A000E1E701740020704790F89C32DBB280F89D
:1044B0009D32042380F89C320020704790F89C3293
:1044C000042B04D190F89D32DBB280F89C3200209E
:1044D000704708B590F89C22032A05D1D0F8B8326D
:1044E00013B1DB6903B19847002008BDD0F8D4228E
:1044F000AE3250F8222008B542B190F89C32032B1E
:1045000002D1136A23B19847002000E0032008BDC0
:104510001846FCE7D0F8D422AE3250F8222008B575
:1045200042B190F89C32032B02D1536A23B19847D1
:10453000002000E0032008BD1846FCE7002070477B
:10454000012208B580F89C22D0F8B8220AB90020D0
:1045500008BD5268017990470028F8D00320F7E79A
:10456000002070470020704710B5428803789A42B7
:104570000AD904782044234444789BB2052CF6D110
:1045800084788C42F3D110BD0020FCE710B50446BE
:10459000802100F029FD00212046BDE8104000F0F8
:1045A00023BD00002DE9F3410D7804460E4605F0C9
:1045B0006005202D14D0402D12D0002D40F00A812E
:1045C0004F78092F00F20681DFE817F00B01340164
:1045D000040123010401860016000401F300A20077
:1045E000D4F8D43231462046AE3354F823309B6899
:1045F00002B0BDE8F04118470023ADF806304B8803
:104600001A0A013A062A37D8DFE802F0041C2936D4
:1046100036515B00D0F8B4321B680DF10601207CE6
:104620009847F288002A00F00181BDF806301BB3DC
:104630009A42014628BF1A46ADF80620204600F0EF
:1046400008FA1CE0027CD0F8B83232B99B6A0DF14E
:104650000600984702234370E3E7DB6AF7E7DBB223
:10466000052B09D8DFE803F0030F13171B1FD0F841
:10467000B4325B68002BD0D12046FFF787FF284675
:1046800002B0BDE8F081D0F8B4329B68F2E7D0F810
:10469000B432DB68EEE7D0F8B4321B69EAE7D0F851
:1046A000B4325B69E6E7D0F8B4329B69E2E7037C99
:1046B000002BE1D1D0F8B8320DF106005B6B9847C2
:1046C000AFE7037C002BD7D1D0F8B8320DF106004C
:1046D0001B6B98470723BEE78B88002BCCD1CB8878
:1046E000002BC9D14E887F2EC6D890F89C32032B60
:1046F000C2D0F1B280F89E1200F088FC204600F093
:10470000D2F91EB1022384F89C32B8E70123FAE7FC
:104710008E784E4F012E3E7003D9FFF737FF0325E9
:10472000ADE790F89C32022B5FFA83F809D0B8F11C
:10473000030F18D0FFF72AFF39782046FFF7BDFD99
:10474000EDE7002E72D001214160FFF7AFFD054675
:10475000204625B1FFF71AFF84F89C828FE700F00E
:10476000A2F90323CFE75EB902233146466080F801
:104770009C32FFF7A2FD204600F095F935467EE712
:104780004168012952D0C9B2FFF797FD3978204618
:104790006160FFF78BFD0646002847D02046FFF7F3
:1047A000F5FE21792046FFF788FD022384F89C322C
:1047B000E4E7CA88012A7FF45FAF90F89C120229CF
:1047C000CBB205D833B10146002341F8083F35E7A5
:1047D000032B04D020460025FFF7D8FE4FE7011D2C
:1047E0002CE790F89C32013B022BF3D8CB88022BAC
:1047F0007FF442AF0123C360D0F8A4320BB103238E
:10480000C360022204F10C0120463D4600F021F96C
:1048100035E74B88012B02D1C4F8A43206E0022B05
:104820007FF42AAF8B881B0A80F8A032204600F064
:104830003AF924E790F89C32013B022BCAD84B8806
:10484000012B7FF41CAF0023E6E700BFD0C100249A
:1048500070B50B7804460E4603F06002402A01D082
:104860005B061FD494F89C32013B022B1AD8317995
:104870002046012917D8FFF773FE88B9D4F8B8325B
:104880009B686BB1C4F8D402314620469847054670
:10489000F3881BB915B9204600F005F9284670BD0C
:1048A0000325F5E720460025FFF770FEF6E770B513
:1048B0000B7804460D468A8803F060030E79202B9E
:1048C00053D0402B51D063BB4B78012B3BD0032BF3
:1048D00020D033BB90F89C32022BD9B261D003298F
:1048E0001FD106F00F0312F0800F4FF0140202FBED
:1048F000030367D09B8CA3B106F07F05013505EB60
:10490000850500EB850516F07F0367D12B60022239
:10491000294653E090F89C32022BDAB237D0032AB2
:1049200003D02046FFF732FE0BE04B8833B9710607
:1049300004D0EB8813B9314600F056FB204600F056
:10494000B2F8002070BD90F89C32022BDAB21ED073
:10495000032AE6D14B88002BF3D1730602D03146EF
:1049600000F04BFB204600F09EF831462046FFF752
:10497000F9FD0028E5D1D4F8B832C4F8D4029B6818
:10498000002BDED029462046BDE87040184772064D
:10499000C7D0314600F028FB8021204600F024FBE0
:1049A000CFE77106BDD113064FF000034FF00202AE
:1049B0004CBF00F1140100F5AA710B60204600F015
:1049C00048F8BEE7B3F86431002BAAD006F07F05A3
:1049D000142303FB050505F5AA7594E73146204627
:1049E00000F0BEFA08B1012390E728608FE70B784A
:1049F00003704B7843704B8843808B888380CB88CF
:104A0000C380704710B50446802100F0EDFA002104
:104A10002046BDE8104000F0E7BA30B588B1002468
:104A2000013823460134055D002DFAD1DBB2013394
:104A30005B0013800B7003234B70022310F8012FCF
:104A400002B930BDCA545A1C0233D2B2DBB28D5403
:104A5000F4E710B502241346C0F89442C0E90622D8
:104A60000A46002100F0DBFA002010BD08B513460D
:104A70000A46002100F0D3FA002008BD10B5032437
:104A80001346C0F89442C0E956220A46002100F0BD
:104A9000CFFA002010BD08B513460A46002100F0E9
:104AA000C7FA002008BD08B504220023C0F89422EC
:104AB00019461A4600F0B3FA002008BD08B50522D1
:104AC0000023C0F8942219461A4600F0B1FA0020DB
:104AD00008BD000008B500220F491048FFF7B8FBD9
:104AE00008B1FBF715FD0E490C48FFF7C4FB08B1F0
:104AF000FBF70EFD0B490948FFF750FB08B1FBF728
:104B000007FD0648FFF7D0FB08B1FBF701FDBDE844
:104B10000840FCF7C3BD00BFAC000024D4C1002492
:104B200010000024980000240020704700207047E7
:104B30000020704710B5064C002206492046FFF7BA
:104B400038FB05492046FFF742FB002010BD00BF9F
:104B5000D4C10024B0CC0024B0C4002410B5094C4A
:104B60000A46D4F8BC32D3F8143243B90146204681
:104B7000FFF71FFB2046BDE81040FFF734BB0120C4
:104B800010BD00BFD4C100240FB413B504AB094C51
:104B90004FF4006153F8042B2046019301F032F8E2
:104BA00081B22046FFF7DAFF002002B0BDE81040D6
:104BB00004B07047B0CC002438B5124B98421ED9CF
:104BC00010F8012CA2F15A0462426241002411E063
:104BD000C55C52B1522D08D1013B4418CA1AC11804
:104BE000084800F0CDFF204638BDA5F15A03013436
:104BF0005A425A4163B28B42EAD30024F3E70022BF
:104C0000E4E700BFB0C4002470B50F4DA84218D926
:104C100010F8012CA2F1FF046242624100240BE073
:104C2000C65C22B11EB9013B1844401B70BDA6F101
:104C3000FF0301345A425A4163B28B42F0D3002041
:104C4000F4E70022EAE700BFB0C4002438B5134CF3
:104C5000134D031B0968B3F5F86F2B78B8BF4418E0
:104C60005BB9FFF7A9FFA0B921460E48FFF7AFFADD
:104C70000C48FFF7D3FA002038BDFFF7C5FF014607
:104C80000028F1D00848FFF77FFF0023034C2B706A
:104C9000EAE7012304462B70E6E700BFB0C4002416
:104CA000B0D40024D4C10024A06800081223014815
:104CB0000B807047C8000024042301480B80704714
:104CC000DC000024002370B54D1C1E46040FB0F11B
:104CD000204F4FEA001034BF3034373401F813400E
:104CE00005F813600133DCB2A242EFD870BD0000BA
:104CF0001A2310B50B800A4BD3F80008D3F8082804
:104D000080180AD0D3F8044808220649FFF7DAFFD2
:104D1000042210312046FFF7D5FF034810BD00BF25
:104D200000E0F11FE2000024E000002410B5044C74
:104D30000A4604482146FFF770FE204610BD00BF1A
:104D4000B4D40024A368000810B5044C0A460448F3
:104D50002146FFF762FE204610BD00BFB4D40024F8
:104D6000B668000810B5044C0A4604482146FFF70F
:104D700054FE204610BD00BFB4D40024CC68000807
:104D800010B5044C0A4604482146FFF746FE20466B
:104D900010BD00BFB4D40024D768000830B5B7B048
:104DA00004461422002102A800F0F8FEBC220021D3
:104DB00007A800F0F3FE2268214B9A423DD14FF440
:104DC000802307A807934FF440132893FDF7D8F9E1
:104DD00008B1FBF79DFB1B4CFCF760FC4FF4C05285
:104DE0000025D4F8E03002A9174843F00103C4F8C5
:104DF000E030D4F8E03003F001030093009B02237D
:104E0000CDE902230323CDE904530A230693FBF7DC
:104E100099FDD4F8D83065202A46294643F000632E
:104E2000C4F8D830D4F8D83003F000630193019B64
:104E3000FBF734FD6520FBF763FD37B030BD00BFE5
:104E400000000840004402580000025800F2C4412B
:104E5000D0F80805FFF73ABA242303FB0103D0F882
:104E60000805D3F88C22FFF761BA242303FB010362
:104E7000D0F80805DA6CFFF78EBAD0F80805FFF70E
:104E800028BBC16810B5044621B1022901D0FBF747
:104E90003FFB0121D4F80805FFF703FBD4F8080510
:104EA000BDE81040FFF7CEBA10B50446D0F80805AB
:104EB000FFF7FAFA2268D2F8003E43F00103C2F885
:104EC000003E236A23B1034A136943F006031361CA
:104ED00010BD00BF00ED00E0D0F80805FFF7EEBA06
:104EE000D0F80805FFF716BBD0F80805FFF7FEBAA3
:104EF000D0F80805FFF722BBD0F80805FFF720BB64
:104F000008B5037802462BBB13481449C0F808259E
:104F1000C2F8C80209220363C0E900120222C0E9F4
:104F20000833C0E90323C0E90623C0E90A33FBF7CD
:104F300006FE08B1FBF7ECFA80210748FCF772FB8C
:104F4000402200210448FCF74DFB80220121024849
:104F5000FCF748FB002008BDB4D600240000084040
:104F600011F0800FD0F8C8324FF0240217BF01F0C3
:104F70007F0102FB013102FB013191F83E0008BFC5
:104F800091F87E027047D0F8C802FBF71FBF0000FF
:104F900000487047C0DB00247047000003289ABF18
:104FA000014B185C03207047E568000808B5D0F88D
:104FB000C802FBF74DFEBDE80840FFF7EFBF10B594
:104FC0001446D0F8C8021A462346FBF774FEBDE823
:104FD0001040FFF7E3BF08B5D0F8C802FBF7A3FE07
:104FE000BDE80840FFF7DABF08B5D0F8C802FBF704
:104FF00015FFBDE80840FFF7D1BF08B5D0F8C802DB
:10500000FBF744FFBDE80840FFF7C8BF08B5D0F87C
:10501000C802FBF73CFEBDE80840FFF7BFBF08B57C
:10502000D0F8C802FBF7DAFEBDE80840FFF7B6BFCC
:1050300008B5D0F8C802FBF7A5FEBDE80840FFF7A9
:10504000ADBF000010B4B1F5807F04462648A270C1
:10505000E3702180606027D011D9B1F5806F2FD027
:10506000B1F5805F1BD14FF00111204A4FF066531C
:105070000020C4E9022123615DF8044B7047102928
:1050800028D040290BD14FF072534FF04011184AED
:1050900000202361C4E902215DF8044B70474FF002
:1050A000FF305DF8044B70474FF06E534FF0101116
:1050B000104A00202361C4E902215DF8044B7047C7
:1050C0004FF004110C4A4FF06A530020C4E902214A
:1050D0002361D1E74FF00121084A4FF076530020B9
:1050E000C4E902212361C7E7EC700008EC680008FE
:1050F0006A6900080A690008F2680008EA6A00089C
:105100002DE9F04F8446141D8A088A462646254616
:105110004FEAC20993462DED068B8DB0029262468E
:10512000099018464A44019300EB4007634602EB9E
:1051300009014FEA001E4FEAC00C9046FF0001EB48
:1051400009000A9493ED007A083391ED006A083261
:10515000D0ED006A083111ED012A37EE064AD0ED94
:10516000012A37EE467A52ED027A083013ED016AD1
:1051700052ED015A37EEA63A77EEE67AD4ED003AD0
:1051800035EEA25A54ED014A76EE026A744436EEC8
:10519000426A75EEE25A34EE032A76EE852A34EE40
:1051A000434A76EEC56A03ED022A37EE253A43ED0F
:1051B000012A37EE657A15ED012A76EE675A95EDEC
:1051C000005A77EE867AD6ED002A16ED016A63EE74
:1051D000021A23EE053A984525EE855A654465EE98
:1051E000825A3E4424EE842A64EEA64A23EE844A80
:1051F00063EEA66A67EE063A27EE866A27EE227A03
:1052000067EEA27A35EE215A75EEC35A76EE826ABF
:1052100074EEC44A77EEA37A36EE477A42ED026A1C
:1052200042ED014A01ED025A41ED015A40ED027A88
:1052300000ED017A86D1019BBDF808209B00042A6D
:105240000B929BB2079340F2B5800798089200EB4F
:1052500040030A9C4FEA9B02099EDB00A046029293
:1052600006EB021C0693C300D200A6460593002756
:105270000301019403920493019B341D039A304669
:1052800013ED010A3D469119D3ED000A62441EED6B
:10529000011ADEED001A634618ED012AD8ED002A46
:1052A00014ED017A5D4493ED006AD2ED006AAA45DF
:1052B000D1ED007A77EE063AD0ED015A37EE467A14
:1052C00091ED015A37EEA69A93ED016A77EEE67AF0
:1052D000D2ED016A75EE864A75EE268A75EEC65ADB
:1052E00035EE665A33EEC93A75EEE76A37EE054A8F
:1052F00034EEE86A37EE457A77EEA57A61EE03AAD6
:1053000021EE868A20EE04AA20EEA65A62EE079AC3
:1053100062EEA75A21EE833A21EE066A20EE844A15
:1053200060EE266A22EE877A62EE277A73EE893A79
:1053300074EEA84A38EE2A8A36EE436A44ED013A02
:1053400035EE0A5AC0ED014A76EEC46A81ED008A54
:1053500075EEA95A81ED016A77EEC77A83ED005A9E
:10536000C3ED016A4C44C2ED005A4844C2ED017AD3
:1053700049444B444A4493D8019B0137059A083667
:105380000CF1080C13440193049B9E44069B984423
:10539000029BBB427FF470AF089A9B46079B920822
:1053A0009B00042A08929BB2079303D94FEACB09CA
:1053B00018464CE7099B0B9A203353ED047A013AC7
:1053C00013ED087A03F1200353ED0A4A53ED095A0D
:1053D00037EE275A53ED0B3A37EE677A53ED0E6AE4
:1053E00013ED0D6A53ED0F7A36EEA44A76EEE46AB9
:1053F00076EE654A36EE256A77EEA35A77EEE37AC3
:1054000075EE043A35EE445A37EE244A37EE647AA4
:1054100043ED103A75EE864A03ED0E5A35EEC66A34
:1054200003ED0C4A77EEE65A03ED0A7A77EEA67A98
:1054300043ED0F4A03ED0D6A43ED0B5A43ED097A34
:10544000BBD10DB0BDEC068BBDE8F08F2DE9F04F60
:105450008A46111D1F4603EB430E4FEA9A028C4603
:105460000E464FEACE0E144665462DED088B8DB0E4
:105470004FEAC409A34602921201019303460A911E
:105480001044C4EB44710993644603EB090800EB34
:10549000C101099B4FEA071C0A44FF0091ED007A05
:1054A0000833D2ED004A083153ED027A083050ED4E
:1054B000026A37EE243A10ED012A77EE644AD2ED03
:1054C000012A37EEA65A13ED017A77EEE67A11ED4E
:1054D000014A083277EE026A54ED013A34EE226A4C
:1054E000D4ED005A34EE624A644437EE427A76EEE6
:1054F000862A35EE032A76EEC66A35EE435A43ED28
:10550000012A37EEC46A03ED022A77EE847A15ED9C
:10551000012A34EE874A95ED003A37EE647AD6EDEB
:10552000001A56ED014A66EE022A26EE036A9845F5
:1055300024EE033A3D4424EE024A764423EE852AC3
:1055400063EEA63A65EEA66A65EE855A27EEA45A82
:1055500067EE244A67EEA17A27EE217A36EE046AD6
:1055600032EEC33A32EE664A35EE477A75EEA36AFA
:1055700077EEA47A01ED024A41ED016A00ED023AAC
:1055800000ED016A02ED027A42ED017A86D1019BBB
:10559000BDF808209B00042A0B929BB2079340F2AF
:1055A000B5800798089200EB40030A9C4FEA9B02E3
:1055B000099EDB00A046029206EB021C0693C30084
:1055C000D200A64605930027030101940392049399
:1055D000019B341D039A304613ED011A3D46911983
:1055E000D3ED001A62441EED012ADEED002A634667
:1055F00018ED013AD8ED003A54ED017A5D4493ED8F
:10560000006AD2ED006AAA45D1ED005A37EE864A0B
:1056100090ED017A77EEC67A91ED015A35EEA69AB1
:1056200093ED016A75EEE65AD2ED016A77EE064A0D
:1056300075EE269A37EE467A35EE665A34EE496AAA
:1056400074EEE90A77EEC56A77EE857A35EE875A09
:1056500037EE657A62EE068A22EEA0BA21EE268A3D
:1056600061EE85AA63EE275A23EE87AA34EE094A33
:1056700022EE866A62EE200A61EEA66A04ED014A15
:1056800021EE055A4C4463EEA77A23EE077A74EEB6
:10569000A94A78EECB8A36EE206A38EE6A4AC0ED27
:1056A000014A76EE856AC1ED008A75EECA5A81ED2F
:1056B000016A77EE877A83ED004AC3ED016A4844B8
:1056C000C2ED005A4944C2ED017A4B444A4493D892
:1056D000019B0137059A08360CF1080C134401931D
:1056E000049B9E44069B9844029BBB427FF470AF90
:1056F000089A9B46079B92089B00042A08929BB23B
:10570000079303D94FEACB0918464CE7099B0B9A3C
:10571000203353ED047A013A53ED024A03F120039A
:1057200013ED107A53ED0E5A37EE276A53ED0D6ADA
:1057300035EEA44A53ED0B3A13ED095A37EE677A6A
:1057400053ED0F7A75EEE45A76EEC54A36EE855A79
:1057500077EEA36A77EEE37A76EE043A36EE446AA1
:1057600037EE644A37EE247A26EE006A76EE854AF2
:1057700076EEC56A37EEA55A03ED0E6A77EEE57A46
:1057800063EE805A24EE004A27EE007A43ED105A69
:1057900066EE806A64EE805A03ED0C4A25EE006ADC
:1057A00003ED0A7A67EE807A43ED0D6A43ED0F5AF6
:1057B00003ED0B6A43ED097AABD10DB0BDEC088B5C
:1057C000BDE8F08F70B5044680780D460128218829
:1057D0006268A38906D02846FFF792FCE378012B84
:1057E00008D070BD94ED040A2846FFF72FFEE37839
:1057F000012BF6D12846A368E2892188BDE87040D4
:1058000000F000B82DE9F04F520085B04C0800219F
:105810000192A21E029404F1010E0C4603920A4664
:105820004E1C029902340A44F600A4B2D200851933
:1058300004368118D5F800C0043206440F680244CB
:105840002F6004EB0E05C1F800C0E700ED00D2F8B0
:1058500000A0D6F8009000EB070C00EB050804351B
:10586000C6F800A004374619019DC2F800902146F1
:105870001A882B44039D07444FEAC209AC4202EB4D
:105880000E052BD8ED0000EB090AA24209F104092C
:1058900000EB050B05F104058144C1D9DCED007A6C
:1058A00005449AED007A8CED007ACAED007AD7F8BB
:1058B00000C0D9F800A0C7F800A0C9F800C0D8F807
:1058C0000070DBF800C0C8F800C0CBF80070376883
:1058D000D5F800C0C6F800C02F60A1E705B0BDE84C
:1058E000F08F00BF2DE9F04197082DED028B84B0B9
:1058F00077D000F1200401F110053E464FF000087A
:1059000014ED080A54ED077A20EE000A67EEA77A34
:1059100030EE270AB5EEC00AF1EE10FAC0F2C180EF
:10592000B5EE400AB1EEC08AF1EE10FA00F1D48073
:1059300005ED048A14ED060A54ED057A20EE000AFE
:1059400067EEA77A30EE270AB5EEC00AF1EE10FA3C
:10595000C0F2A480B5EE400AB1EEC08AF1EE10FAB2
:1059600000F1A88005ED038A14ED040A54ED037AD2
:1059700020EE000A67EEA77A30EE270AB5EEC00ADD
:10598000F1EE10FAC0F28780B5EE400AB1EEC08A9F
:10599000F1EE10FA00F1978005ED028A14ED020A8B
:1059A00054ED017A20EE000A67EEA77A30EE270A5E
:1059B000B5EEC00AF1EE10FA6ADBB5EE400AB1EEC0
:1059C000C08AF1EE10FA00F1908005ED018A013EE7
:1059D00004F1200405F1100592D100EB471001EB12
:1059E000071112F003024ED090ED000A0023D0ED13
:1059F000017A20EE000A67EEA77A37EE800AB5EE4C
:105A0000C00AF1EE10FA4FDBB5EE400AB1EEC08AE3
:105A1000F1EE10FA72D481ED008A013A33D090EDA4
:105A2000020A0023D0ED037A20EE000A67EEA77A7F
:105A300037EE800AB5EEC00AF1EE10FA36DBB5EEAD
:105A4000400AB1EEC08AF1EE10FA60D481ED018A0D
:105A5000012A18D090ED040A0023D0ED057A20EE3B
:105A6000000A67EEA77A30EE270AB5EEC00AF1EE1B
:105A700010FA1DDBB5EE400AB1EEC08AF1EE10FA65
:105A80004ED481ED028A04B0BDEC028BBDE8F081FA
:105A900045F8048C9BE745F8088C7FE745F80C8CAB
:105AA00062E745F8108C45E70B60B6E74B60CFE73F
:105AB0008B60E8E7CDE90212019000F0F3FC019859
:105AC000DDE902124EE7CDE90212019000F0EAFC96
:105AD0000198DDE902125FE7CDE90212019000F0C2
