:020000040800F2
:100000000000082465060008290500082B050008E3
:100010002D0500082F05000831050008000000002C
:100020000000000000000000000000003305000890
:1000300035050008000000003705000839050008F4
:10004000B5060008B5060008B5060008B5060008A4
:10005000B5060008B5060008B5060008B506000894
:10006000B5060008B5060008B5060008B506000884
:10007000B5060008B5060008B5060008B506000874
:10008000B5060008B5060008B5060008B506000864
:10009000B5060008B5060008B5060008B506000854
:1000A000B5060008B5060008B5060008B506000844
:1000B000B5060008B5060008B5060008B506000834
:1000C000B5060008B5060008B5060008B506000824
:1000D000B5060008B5060008B5060008B506000814
:1000E0003D050008B506000800000000B506000840
:1000F000B5060008B5060008B5060008B5060008F4
:10010000B5060008B5060008B5060008B5060008E3
:10011000B5060008B5060008B5060008B5060008D3
:10012000B5060008B5060008B5060008B5060008C3
:10013000B5060008B5060008B5060008B5060008B3
:1001400000000000000000000000000000000000AF
:10015000B5060008B5060008B5060008B506000893
:10016000B5060008B5060008B5060008B506000883
:10017000B5060008B5060008B5060008B506000873
:10018000B5060008B5060008B5060008B506000863
:10019000B5060008B5060008B5060008B506000853
:1001A000B5060008B5060008B5060008B506000843
:1001B000B5060008B5060008B5060008B506000833
:1001C000B5060008B5060008B5060008B506000823
:1001D000B506000845050008B5060008B506000884
:1001E000B5060008B5060008B5060008B506000803
:1001F000B5060008B5060008B5060008B5060008F3
:10020000B5060008B5060008B5060008B5060008E2
:10021000B5060008B5060008B5060008B5060008D2
:10022000B5060008B5060008B50600080000000085
:10023000B5060008B506000800000000B506000875
:10024000B5060008B5060008B5060008B5060008A2
:10025000B5060008B5060008B5060008B506000892
:10026000B5060008B5060008B5060008B506000882
:10027000B5060008B5060008B50600080000000035
:10028000B5060008B5060008B50600080000000025
:0802900000000000B5060008A3
:1002A00010B5054C237833B9044B13B10448AFF3B0
:1002B00000800123237010BD6001002400000000B5
:1002C000FC50000808B5034B1BB103490348AFF3CA
:1002D000008008BD0000000064010024FC500008FC
:1002E00001F0FF01102A2BDB10F0070F08D010F8E7
:1002F000013B013A8B422DD010F0070F42B3F6D1EB
:10030000F0B441EA012141EA014122F007047FF003
:1003100000070023F0E80256083C85EA010586EA5A
:10032000010685FA47F5A3FA87F586FA47F6A5FA96
:1003300087F68EB9EED1F0BC01F0FF0102F00702A2
:1003400032B110F8013B013A83EA010313B1F8D14D
:100350000020704701387047002D06BF354603382E
:10036000073815F0010F07D1013015F4807F02BF67
:10037000013015F4C03F0130F0BC0138704700BFB8
:1003800010B588B014220021012403A804F034FA27
:10039000244B25480721D3F8E02042F00402C3F89B
:1003A000E020D3F8E02002F004020092009AD3F893
:1003B000E02042F08002C3F8E020D3F8E02002F011
:1003C00080020192019AD3F8E02042F00102C3F8C2
:1003D000E0200122D3F8E03003F001030293029BF6
:1003E00000F03AFB4FF400524FF4881303A90E4873
:1003F0000594CDE9032300F043FA072303A90A4833
:10040000CDE9033402230024CDE9053400F038FAA5
:1004100022462146282000F0DFF9282000F00EFABD
:1004200008B010BD004402580008025800B59DB045
:100430004C22002109A804F0DFF92022002101A8A4
:1004400004F0DAF9022001F0A3F800230093254B11
:100450009A6942F440429A619A6902F440420092D9
:10046000214AD16A41F00101D162D26A02F001024F
:100470000092009A9A699204FCD5012221204FF43F
:1004800080334FF00C0C0F9214925022CDE90903E7
:10049000022309A8CDE91233CDE91523CDE917339D
:1004A0000023CDE919C31B9301F09EF808B172B681
:1004B000FEE73F22032308210390CDE901234023D7
:1004C0004FF48062CDE90413042106930DEB010083
:1004D000CDE9072301F0BAFB08B172B6FEE71DB003
:1004E0005DF804FB004802580004005808B500F00D
:1004F00009F9FFF79BFFFFF743FF03F08DFEFEE7CF
:1005000072B6FEE7074B82B0D3F8F42042F0020245
:10051000C3F8F420D3F8F43003F002030193019BF5
:1005200002B0704700440258FEE7FEE7FEE7FEE730
:10053000FEE770477047704700F012B94FF4005063
:1005400000F08FBA014800F085BC00BF6816002497
:10055000B0F5005F03D16421014803F0A1BE7047EC
:10056000640400240B4A0346116810B509B90A490E
:100570001160106809490A4C0344091B8B4206D9D3
:1005800004F002F90C2303604FF0FF3010BD13603C
:10059000FCE700BF7C010024A81D00240000082403
:1005A00000040000254AD2F8883043F47003C2F8F2
:1005B0008830234A136803F00F03062B05D813680D
:1005C00023F00F0343F0070313601E4B1A6842F039
:1005D00001021A6000221A611B4A19680A40184970
:1005E0001A600A68120705D50A6822F00F0242F065
:1005F00007020A60002215499A61DA611A6299625B
:100600001349D962134919635A639963DA63196408
:100610005A64196821F4802119601A660E4B1B6810
:100620001B0C1B04B3F1005F03D20C4B0122C3F877
:1006300008210B4B43F2D2021A60704700ED00E034
:1006400000200052004402587FEDF6EA0002020248
:100650000000FF01800201010010005C00800051D9
:1006600000400052DFF834D0FFF79CFF0C480D49E2
:100670000D4A002302E0D458C4500433C4188C42FD
:10068000F9D30A4A0A4C002301E013600432A24263
:10069000FBD304F07FF8FFF729FF70470000082420
:1006A0000000002460010024A8510008600100241B
:1006B000A41D0024FEE7000038B50F4B054618784E
:1006C00008B9012038BD4FF47A730C4AB3FBF0F33C
:1006D0001068B0FBF3F000F0BFF804460028F0D13A
:1006E0000F2DEED8024629464FF0FF3000F074F887
:1006F000034B20461D60E5E70800002400000024AD
:100700000C00002410B5032000F054F801F0FEF9AD
:100710000F49104A8B69C3F30323D35C03F01F0313
:10072000D8408B6903F00F03D35C0B4A03F01F031F
:1007300020FA03F31360094B18600F20FFF7BCFF8A
:10074000044618B9FFF7DEFE204610BD0124FBE782
:100750000044025814510008040000240000002442
:10076000034A044B11681B780B441360704700BFA9
:100770008001002408000024014B1868704700BF66
:100780008001002438B50446FFF7F6FF0546631CD8
:100790001EBF044B1B78E418FFF7EEFF431BA34278
:1007A000FAD338BD08000024014B1868000C7047CC
:1007B0000010005C07490302CA6803F4E06322F4F6
:1007C000E0621204120C134343F0BF6343F400339E
:1007D000CB60704700ED00E0164B30B5DC68C4F329
:1007E0000224C4F10705231D042D28BF0425062B70
:1007F0004FF0FF338CBF033C002403FA05F50028BB
:1008000003FA04F321EA050122EA030201FA04F1E2
:1008100041EA02034FEA0313DBB206DB00F160405A
:1008200000F5614080F8003330BD00F00F00024A4F
:100830001354F9E700ED00E014ED00E0002808DBB8
:100840000123420900F01F0003FA00F0014B43F8B6
:100850002200704700E100E00138B0F1807F0BD248
:100860004FF0E023054AF0215861002082F8231060
:10087000072298611A6170470120704700ED00E07F
:100880002DE9F74F0023DFF8CC914FF0B0440A6810
:1008900032FA03F502D103B0BDE8F08F4FF0010E3C
:1008A0000EFA03FE1EEA020200F0BD804E684FEA17
:1008B00043084FF0030C06F003050CFA08FC6F1E0A
:1008C0006FEA0C0C012F34D8876807EA0C0ACF684E
:1008D00007FA08F747EA0A078760476827EA0E0E13
:1008E000C6F300179F4047EA0E074760C768022D0E
:1008F00007EA0C0E8F6807FA08F747EA0E07C76089
:1009000019D14FEAD30A03F0070B4FF00F0E00EB9B
:100910008A0A4FEA8B0BDAF820700EFA0BFE27EAF0
:100920000E0E0F6907FA0BF747EA0E07CAF8207098
:1009300001E0032DDAD1076805FA08F516F4403F07
:1009400007EA0C0747EA050707606CD0D9F8F450AE
:1009500023F0030703F0030C4FF00F0E45F00205E0
:1009600007F1B0474FEA8C0CC9F8F45007F58067DF
:10097000D9F8F45005F002050195019D0EFA0CF529
:10098000D7F8088028EA050E314DA8424DD005F56C
:100990008065A8424BD005F58065A84249D005F591
:1009A0008065A84247D005F58065A84245D005F589
:1009B0008065A84243D005F58065A84241D005F581
:1009C0008065A8423FD005F58065A8423DD005F579
:1009D0008065A8420CBF09250A2505FA0CF516F416
:1009E000801F45EA0E05BD606FEA020725680CBF4F
:1009F0003D40154316F4001F256065680CBF3D405F
:100A0000154316F4003F6560D4F884500CBF3D4098
:100A10001543F603C4F88450D4F8805054BF3D40C9
:100A20001543C4F88050013331E70025D5E701258F
:100A3000D3E70225D1E70325CFE70425CDE7052538
:100A4000CBE70625C9E70725C7E70825C5E700BFA7
:100A500000000258004402580AB18161704709043D
:100A6000FBE74FF0B042D2F88810014208B503D03E
:100A7000C2F88800FFF76CFD08BDF0B504468BB0E6
:100A800060B390F8BD34056803F0FF021BB980F82D
:100A9000BC2403F025FD03236E46271D84F8BD34D6
:100AA000EB6B254613F4807355F8100B08BF2361D8
:100AB00002F0A0F80FCD0FC60FCD0FC695E80300CA
:100AC000254686E8030097E80E0055F8100B01F064
:100AD000D1FF064620B1022384F8BD34012552E03F
:100AE0000146206802F08CF83046D4F804C0242671
:100AF0004FF0010E0146C2B2013094451BD80023CD
:100B000024261946D8B20133844522D86E460FCD2B
:100B10000FC60FCD0FC695E8030086E8030097E8DF
:100B20000E00206802F0ECF801230546F0B1022225
:100B300084F8BD24D2E706FB024383F83DE083F846
:100B40003C20A3F8442083F840105965C3E91211F2
:100B5000D1E706FB004282F87D1282F87C0282F81F
:100B60008012C2F89412C2E9A211CBE784F83800CF
:100B700084F8BD34636A012B02D1204600F0F4FCF6
:100B8000206802F05FFC28460BB0F0BD10B50446AB
:100B9000006894F8BC34012B15D0012384F8BC34D0
:100BA000A36A012B06D1A369012B03D0836B43F405
:100BB0008033836302F018F8206802F035FC0020CF
:100BC00084F8BC0410BD0220FCE710B590F8BC24EA
:100BD0000446012A0BD0012280F8381080F8BC248A
:100BE000006802F011FC002084F8BC0410BD022053
:100BF000FCE770B501F00F0611F0800F05464FF0CD
:100C0000240006EBC6044FEA84041FD004F13C0123
:100C100000FB06500124294480F83D40CA604A7810
:100C20000E700B7102B10E81022B04BF00234B71B9
:100C300095F8BC34012B12D00123286885F8BC3408
:100C400002F01FF9002085F8BC0470BD04F51F7187
:100C500000FB06500024294480F87D42DEE7022094
:100C6000F3E710B5044601F00F0011F0800F4FF0CC
:100C7000240200EBC0034FEA830316D003F13C01CA
:100C800002FB00420123214482F83D30087094F8B1
:100C9000BC34012B12D00123206884F8BC3402F04C
:100CA0002FF9002084F8BC0410BD03F51F7102FB6E
:100CB00000420023214482F87D32E7E70220F3E777
:100CC00038B501F00F05242404FB050104FB0504DD
:100CD00001F51F71C4F894320023C4F88C22C4F8C3
:100CE0009C3284F87D3284F87C5203690068012BC1
:100CF00008BFC4F89022DAB21DB902F057F90020FB
:100D000038BD02F023FAFAE701F00F01242303FBB8
:100D10000100D0F89C02704738B501F00F0524247B
:100D200004FB050104FB05043C3163650023E26418
:100D3000E365012384F83C5084F83D300369006882
:100D4000012B08BF2265DAB21DB902F02FF900208D
:100D500038BD02F0FBF9FAE738B501F00F0543683A
:100D600004469D422CD811F0800F4FF024001ED075
:100D700000FB0541012300FB05423C3182F83D3078
:100D800001230D708B7094F8BC249A421AD020680D
:100D900084F8BC3402F0E4FA2DB904F2C442217C98
:100DA000206802F0A1FB002084F8BC0438BD00FBE1
:100DB00001431A4603F51F71002382F87D32DFE7F5
:100DC0000120F3E70220F1E738B501F00F02436894
:100DD00004469A422AD802EBC20311F0800F4FF06A
:100DE00024004FEA830318D003F13C0100FB0240CA
:100DF0000123214480F83D3000250A708D7094F85D
:100E0000BC34012B14D00123206884F8BC3402F0D8
:100E1000D2FA284684F8BC5438BD03F51F7100FB94
:100E200002400023214480F87D32E5E70120F3E70A
:100E30000220F1E701F00F030A0603EBC3034FEAB8
:100E400083034CBF03F13C0103F51F7101440068AB
:100E500002F026B92DE9F04F066889B00446304605
:100E600002F02DFB0390002840F06F81206802F013
:100E7000F7FA002800F06981D6F8083806F5006511
:100E80002068C3F30D23C4F8FC3402F0E9FA8107AB
:100E900004D52268536903F002035361206802F00D
:100EA000DFFAC2062CD52268936923F01003936100
:100EB000D6F82080C8F3434308F00F07022B40F018
:100EC000478147F6F07318EA030F14D02423C8F3C0
:100ED0000A19304603FB07474A46D7F88C1202F03E
:100EE0001FFAD7F88C324B44C7F88C32D7F89C32B3
:100EF0004B44C7F89C322268936943F01003936116
:100F0000206802F0ADFA030300F13481206802F09A
:100F1000A7FA47030CD5274606F5106A4FF00009DB
:100F2000206802F0A9FA0490049B002B40F0EA81AB
:100F3000206802F095FA002813DA6B6823F00103A9
:100F40006B6094F8F434012B40F085820021204638
:100F500084F8F41400F01BFB2268536903F000438B
:100F60005361206802F07CFA00050AD5AB68D90706
:100F700002D5204603F03AFB2268536903F400636C
:100F80005361206802F06CFA020114D523685A6993
:100F900002F000625A6194F8F424002A40F05F8263
:100FA0000121204684F8F4145B6DC3F38303C4F875
:100FB000F83400F0ECFA206802F052FAC30433D59A
:100FC0006B681021206823F001036B6001F046FE7E
:100FD00006F510634FF67F3162680398824200F293
:100FE0004782EB6943F00113EB61236B002B00F0A8
:100FF0005982D5F8843043F00B03C5F884306B6C0C
:1010000043F00B036B64D6F8003804F2C442217C31
:1010100023F4FE632068C6F8003802F065FA2268FF
:10102000536903F480535361206802F019FA87046E
:1010300016D5206802F047FA206801F017FF2768EC
:10104000E06000F029FF227B0146384601F05CFD9C
:10105000204603F0B8FA2268536903F40053536141
:10106000206802F0FDF9000707D5204603F0A7FA33
:101070002268536903F008035361206802F0F0F915
:10108000010600F11A82206802F0EAF9C2020CD5CA
:10109000A04606F5126901276368BB4200F226826A
:1010A0002268536903F480135361206802F0D8F971
:1010B00083022DD5D4F804E0234606F532600121E1
:1010C0008E4520D993F8A4C20268BCF1010F40F00C
:1010D0002382002A80F22082D4F8FC7402F4803249
:1010E00007F00107BA4240F0178283F8A3C2B26941
:1010F00042F08002B2617269170600F10D826B68DE
:1011000043F400736B602268536903F40013536166
:10111000206802F0A5F9410007D5204603F08AFABD
:101120002268536903F080435361206802F098F904
:1011300042070AD523685D686B0702D5204603F095
:101140007DFA226853682B43536009B0BDE8F08FE5
:10115000062B7FF4D0AE082204F2C4413046C8F317
:101160000A1802F0DDF8242303FB0747D7F89C3266
:101170004344BEE606F53068A2460027206802F028
:1011800073F90490049B002B3FF4C0AE049BD80776
:1011900076D55FFA87FB2068594602F075F910F0A2
:1011A000010F81461CD0012320682169C8F808304E
:1011B00000F530630129D0F840C003EB47139A686B
:1011C00040F08B80110707D5A7498C4508D910043A
:1011D00006D54FF4004202E091065AD520229A60CB
:1011E00019F0080F21D008239F48C8F80830236859
:1011F0001A6C03F53063824203EB4713996804D9F4
:10120000090402D54FF4004199602046059203F08D
:10121000BFF9954B059A9A4207D92169012904D152
:1012200004F2C442206802F05FF919F0100F02D0F6
:101230001023C8F8083019F0020F14D073691A0689
:1012400003D56B6843F480636B609AF87F32012B9F
:1012500006D10023594620468AF87F3203F0E2F98E
:101260000223C8F8083019F0200F02D02023C8F854
:10127000083019F4005F03D04FF40053C8F8083069
:10128000049B013708F120080AF1240A5B08049343
:1012900078E712F0280FA3D173498C4501D91204C5
:1012A00097D41A69DAF89832C2F312029B1ACAF874
:1012B0009C326FB9D4F894222AB904F2C4420121B5
:1012C00002F012F904E0D4F88C221344C4F88C32F2
:1012D0005946204603F062F982E764498C4507D1FC
:1012E00011043FF576AF9006F2D520229A60EFE721
:1012F000002FEDD1D4F89432002BE9D104F2C4428E
:101300003946DDE7049BDB0740F19C805FFA89FBEF
:101310002068594602F0C1F810F0010F804620D035
:10132000012109F00F026B6B01FA02F223EA0203BA
:101330006B630B46CAF80810216999420DD1D7E9B1
:1013400012231344FB64B9F1000F06D1636D23B976
:1013500004F2C442206802F0C7F85946204603F060
:1013600026F918F0080F02D00823CAF8083018F040
:10137000100F02D01023CAF8083018F0400F02D026
:101380004023CAF8083018F0020F12D04946304600
:1013900001F064FC97F83F30012B07D14FF00003B8
:1013A0005946204687F83F3003F040F90223CAF837
:1013B000083018F0800F45D0FA6D7B6D9A4241D805
:1013C0009B1ABA6C21689342059128BF13460333D8
:1013D0009B08069301F5106303EB49130793079BE2
:1013E00006989969FA6D89B27B6D814228D39A4239
:1013F0000CD3059B09F00F010120D3F8342800FA23
:1014000001F122EA0102C3F834281BE0A3EB020831
:10141000BB6C5A460598984528BF984608F10303C7
:101420009B080693237C00931FFA88F3F96C01F064
:1014300079FEFB6C4344FB64FB6D4344FB65CEE7E4
:101440009A42D6D2049B09F1010924370AF1200AF5
:101450005B08049368E5204603F0E0F87CE520464D
:1014600003F0C4F8A7E500BF0A30544F0A31544FC7
:101470009960203353F8202C22F4001243F8202CDA
:10148000C3F8E811D3F8E02122F40012C3F8E021F8
:10149000D3F8E02142F00062C3F8E021039A013260
:1014A000039299E56B6943F4005343F02B036B619E
:1014B0002B6943F00B032B61A5E5B369012704F207
:1014C0007F284FF0240923F08003B3616368BB4297
:1014D0007FF6D9AD09FB07F318F80330012B03D1D0
:1014E000F9B22046FFF7A6FC0137EFE798F8643021
:1014F000D9F80020012B09D1002A07DA67F07F0113
:10150000204688F86330C9B2FFF794FC013708F130
:10151000240809F12009BFE5013124332030CFE54B
:101520000068120470B5446A19B92243826200202F
:1015300070BD836A4D1E04EB134400235E1CDBB2B6
:101540009D4205D83F31224300EB81004260EEE727
:10155000403300EB83035B6804EB13443346EDE751
:10156000036800205962704702680021012380F857
:10157000F414C0F800350846936943F000639361A2
:10158000536D43F0805343F0030353657047704736
:1015900038B5104CE36813F0040FE36805D103F08D
:1015A0000703181A18BF012038BD23F0070318439A
:1015B000E060FFF7E1F8054663689B0401D5002071
:1015C000F2E7FFF7D9F8401BB0F57A7FF4D9012094
:1015D000EAE700BF00480258024AD36843F080732C
:1015E000D360704700480258F8B5044608B9012096
:1015F0008BE00368DF075ED423689E0700F1AF80AD
:101600002368DA0627D59E4B1A69996A02F03802D8
:10161000082A07D0182A40F0078101F00302012AA6
:1016200040F002811B68DB0502D5E369802BDED127
:10163000FFF7BAF841F20303216A9842904B00F297
:10164000EC805A68202922F0F8420CBF42F0804218
:1016500042EA81625A602368190700F127812368F2
:101660009A0600F1488123685D071ED5854D2B68D9
:1016700043F480732B60FFF77FF806462B68DA058A
:1016800040F15E81A3687E4D012B40F060812B6F9D
:1016900043F001032B6741F28837FFF76DF8784E6E
:1016A0000546336F9B0740F17881606A002840F05F
:1016B0007B81002029E0724B1A69996A02F0380296
:1016C000102A05D0182A0AD101F00302022A06D1F5
:1016D0001B689D0390D56368002B8DD187E76268F6
:1016E000B2F5803F12D11A6842F480321A60FFF7D7
:1016F00043F8634E0546336898033FF57DAFFFF727
:101700003BF8401B6428F6D90320F8BD5C4D2B68DC
:101710009AB923F480332B602B6823F480232B6049
:10172000FFF72AF806462B6899037FF565AFFFF7A8
:1017300023F8801B6428F6D9E6E7B2F5A02F07D17D
:1017400043F480232B602B6843F480332B60CEE777
:1017500023F480332B602B6823F48023F6E7484B77
:10176000E1681A69986A12F0380203D0182A2BD15E
:10177000820729D11B685B0702D500293FF437AFE8
:101780003F4D2A6822F019020A432A60FEF7F4FF4F
:1017900006462B685F0711D5FFF706F841F20303F1
:1017A000226998426B6822D823F47C33402A0CBF0C
:1017B00043F4003343EA02336B6021E7FEF7DCFFBA
:1017C000801B0228E5D99FE71A68A9B122F0190207
:1017D0002B4D0A431A60FEF7CFFF06462B685807C9
:1017E000DAD4FEF7C9FF801B0228F7D98CE723F073
:1017F000FE4343EA0263DFE722F00102204E1A6053
:10180000FEF7BAFF0546336859077FF5F9AEFEF7D4
:10181000B3FF401B0228F6D976E7DA6822F07C5243
:1018200042EA0162DA6016E7E2696AB31A68144DA7
:1018300042F080021A60FEF79FFF06462B68DF0524
:1018400011D5FEF7B1FF41F20303226A984210D886
:101850006B68202A23F0F8430CBF43F0804343EA2F
:1018600082636B60F7E6FEF787FF801B0228E5D9ED
:101870004AE7EB6823F07C5343EA0263EB60EAE655
:1018800000440258004802581A689F4E22F0800215
:101890001A60FEF771FF05463368D8057FF5DBAEA9
:1018A000FEF76AFF401B0228F6D92DE76369964DC3
:1018B00083B16B6F43F001036B67FEF75DFF064674
:1018C0006B6F9B073FF5CBAEFEF756FF801B0228E0
:1018D000F6D919E76B6F23F001036B67FEF74CFF36
:1018E00006466B6F9F077FF5BAAEFEF745FF801B7C
:1018F0000228F6D908E7A369834D83B12B6843F426
:1019000080532B60FEF738FF06462B6898043FF59E
:10191000AAAEFEF731FF801B0228F6D9F4E62B6849
:1019200023F480532B60FEF727FF06462B689904AB
:101930007FF599AEFEF720FF801B0228F6D9E3E67B
:10194000FEF71AFF801B64287FF698AEDCE6B3B979
:101950002B6F41F2883723F001032B672B6F23F0A5
:1019600004032B67FEF708FF06462B6F98077FF5E9
:101970009CAEFEF701FF801BB842F6D9C4E6052BEA
:101980002B6F03D143F004032B6780E623F00103A0
:101990002B672B6F23F004037CE6FEF7EDFE401B64
:1019A000B8427FF67EAEAFE6574D2B6903F03803A1
:1019B000182B7AD02B68022823F080732B6067D114
:1019C000FEF7DAFE06462B6899015BD4AB6AA26A81
:1019D00023F47C7323F003031343E26A43EA021304
:1019E000AB62636BA26B013B013A5B0212049BB2D8
:1019F00002F4FE021343226B013AC2F308021343BE
:101A0000E26B013A120602F0FE4213432B63EB6ACB
:101A100023F00103EB626B6BA26C23F47F4323F092
:101A2000F80343EAC2036B63EB6A226C23F00C03F6
:101A30001343EB62EB6A626C23F002031343EB6225
:101A4000EB6A43F48033EB62EB6A43F40033EB62FE
:101A5000EB6A43F48023EB62EB6A43F00103EB6231
:101A60002B6843F080732B60FEF786FE264D0446FC
:101A70002B689A013FF51DAEFEF77EFE001B022883
:101A8000F6D941E6FEF778FE801B02289BD93BE69B
:101A9000FEF772FE04462B689B017FF50AAEFEF747
:101AA0006BFE001B0228F6D92EE60128AA6A2B6BD2
:101AB0003FF42BAE02F00301A06A81427FF497ADA0
:101AC000C2F30512E16A8A427FF491AD226BC3F33F
:101AD0000801013A91427FF48AAD626BC3F346215B
:101AE000013A91427FF483ADA26BC3F30641013A00
:101AF00091427FF47CADE06BC3F306630138181AA2
:101B000018BF012001E600BF00440258484B1A6983
:101B100002F03802102A30B500F08680182A0CD066
:101B2000002A40F083801A68424812F0200F03D048
:101B30001B68C3F3C103D84030BD996A9D6ADC6A53
:101B400015F47C7FC5F305105A6BF5D0C2F3CC02B7
:101B500004F0010407EE900A01F003016243B7EEBE
:101B6000006AF8EEE76A012907EE902AFAEEE97AB0
:101B70004CD002293CD0002948D11A68920627D5BA
:101B800019682C4AC1F3C1011B6BCA40C3F3080397
:101B900007EE102AF8EEC75A85EEA67A06EE903ABE
:101BA000F8EEE66A76EEA77A77EE867A204B67EE55
:101BB000877A1B6BC3F34623013307EE103AF8EE26
:101BC000C76A87EEA67AFCEEC77A17EE900AB3E7EB
:101BD0001B6BC3F3080307EE103AB8EEC77A77EE33
:101BE000277A77EE867A9FED146A86EE267ADDE70D
:101BF0001B6BC3F3080307EE103AB8EEC77A77EE13
:101C0000277A77EE867A9FED0D6AEEE71B6BC3F3BA
:101C1000080307EE103AB8EEC77A77EE277A77EE28
:101C2000867A9FED076AE0E7064885E7064883E77E
:101C3000004402580090D0030024744C001B374B22
:101C40000024744A001BB70000093D002DE9F04153
:101C50000D46044610B90120BDE8F081884A13689A
:101C600003F00F038B42C0F0938023685F0700F1FD
:101C70009B801E070BD583496669C86900F0700018
:101C8000864204D9CA6922F070023243CA61D8067A
:101C90000BD57C49A669C86900F4E060864204D986
:101CA000CA6922F4E0623243CA6199060BD57549CC
:101CB000E669086A00F07000864204D90A6A22F0D8
:101CC000700232430A629A070BD56E49E66888694A
:101CD00000F00F00864204D98A6922F00F023243D5
:101CE0008A61DF076ED423689E0700F1A1806449F2
:101CF0000A6802F00F02AA4200F2A880580700F119
:101D0000B18019070BD55F496569C86900F070009B
:101D1000854204D2CA6922F070022A43CA61DA06F7
:101D20000BD55849A569C86900F4E060854204D222
:101D3000CA6922F4E0622A43CA619B060BD5514A64
:101D4000E069116A01F07001884204D2136A23F03D
:101D5000700303431362FFF7D9FE4A494A4A8B696D
:101D6000C3F30323D35C03F01F03D8408B6903F054
:101D70000F03D35C454A03F01F0320FA03F31360FB
:101D8000434B1860434BBDE8F0411868FEF794BC24
:101D9000136823F00F030B431360136803F00F0362
:101DA0008B427FF458AF60E736492669886900F0B6
:101DB000700086427FF65DAF8A6922F0700232437E
:101DC0008A6156E72F4BA1689A6922F470620A4330
:101DD0009A6162681B68022A1DD113F4003F3FF428
:101DE0003AAF284E41F28838336923F00703134392
:101DF0003361FEF7C1FC07463369626803F03803BC
:101E0000B3EBC20F3FF46FAFFEF7B6FCC01B40450B
:101E1000F2D9032020E7032A02D113F0007FDEE786
:101E2000012A02D113F4807FD9E713F0040FD6E71B
:101E30001449E668886900F00F008642BFF457AF86
:101E40008A6922F00F0232438A6150E70A6822F061
:101E50000F022A430A600A6802F00F02AA427FF4C6
:101E6000FAAE4BE707492569886900F070008542A2
:101E7000BFF447AF8A6922F070022A438A6140E7C3
:101E800000200052004402581451000804000024AD
:101E9000000000240C00002410B50C4CFFF736FEA7
:101EA0000B49A369C3F30323CA5CA36902F01F02B1
:101EB00003F00F0320FA02F2CB5C03F01F0322FAB7
:101EC00003F0044B1860044B1A6010BD0044025824
:101ED000145100080400002400000024F8B53A4C16
:101EE00006460D46A36A03F00303032B69D023685B
:101EF00023F080632360FEF73FFC074623681A0146
:101F00004BD4A36A326823F47C3343EA0233A362DE
:101F1000B368F268013B013A5B0212049BB202F41F
:101F2000FE0213437268013AC2F308021343326996
:101F3000013A120602F0FE421343A363E36A726998
:101F400023F0C0031343E362E36AB26923F0200382
:101F50001343E362E36A23F01003E362E36BF26985
:101F600023F47F4323F0F80343EAC203E363E36A05
:101F700043F01003E362E36AB5B943F40023E3627C
:101F8000114C236843F080632360FEF7F5FB0546A0
:101F900023681B010FD5002005E0FEF7EDFBC01BF9
:101FA0000228ABD90320F8BD012D0CBF43F48013E8
:101FB00043F40013E3E7FEF7DFFB401B0228E7D9F9
:101FC000F0E70120EFE700BF00440258F8B53A4CB3
:101FD00006460D46A36A03F00303032B69D023686A
:101FE00023F080532360FEF7C7FB074623689A005F
:101FF0004BD4A36A326823F07C7343EA0253A36292
:10200000B368F268013B013A5B0212049BB202F42E
:10201000FE0213437268013AC2F3080213433269A5
:10202000013A120602F0FE4213432364E36A726926
:1020300023F440631343E362E36AB26923F4007359
:102040001343E362E36A23F48073E362636CF2692F
:1020500023F47F4323F0F80343EAC2036364E36A93
:1020600043F48073E362E36AB5B943F48003E36247
:10207000114C236843F080532360FEF77DFB054637
:1020800023689B000FD5002005E0FEF775FBC01B01
:102090000228ABD90320F8BD012D0CBF43F4000387
:1020A00043F08073E3E7FEF767FB401B0228E7D9A4
:1020B000F0E70120EFE700BF004402582DE9F843A4
:1020C0000668054616F0006609D0436EB3F5001F9A
:1020D0002ED013D8F3B1B3F5801F21D001262B6881
:1020E000DC0540F1EA806B6D042B00F2E580DFE84F
:1020F00013F024002B00DD0029002900B3F5401F58
:10210000ECD1A64A0026696E136D23F440130B43ED
:102110001365E4E7A14AD36A43F40033D362F0E7DE
:1021200002210430FFF7DAFE06460028D7D1E8E79F
:1021300002212430FFF74AFFF6E7984AD36A43F4B6
:102140000033D362344604E00021281DFFF7C6FEA9
:102150000446002C40F0B380904A696D136D23F063
:1021600007030B4313652B6898050DD5AB6D802BCA
:1021700000F0C28000F2A580002B00F0B180402B5F
:1021800000F0B480012634462B68590510D5D5F8E7
:10219000A430B3F5800F00F0D48000F2B580002B9E
:1021A00000F0C380B3F5001F00F0C580012634465F
:1021B0002B681A0510D5D5F8A830B3F1007F00F0D0
:1021C000E58000F2C680002B00F0D480B3F1807F60
:1021D00000F0D680012634462B689B010DD5AB6CF0
:1021E000202B00F0EF8000F2DB80002B00F0DB8082
:1021F000102B00F0E180012634462B68DF040FD558
:10220000EB6DB3F5005F00F0018100F2E380002B7D
:1022100000F0F080B3F5805F00F0F28001263446D4
:102220002B6898040FD52B6EB3F5003F00F00E819C
:1022300000F2F480002B00F0FA80B3F5803F00F04C
:10224000FF80012634462B68590410D5D5F8AC30F0
:10225000B3F1005F00F01B8100F20081002B00F061
:102260000681B3F1805F00F00C81012634462B68B3
:102270001A040DD5EB6EB3F1805F00F01081B3F15D
:10228000005F00F01A81002B00F00E810126344619
:102290002B68DB0140F127816B6C032B00F2678117
:1022A000DFE813F0180113015F011801002105F1A7
:1022B0002400FFF78BFE4BE70126344653E7264602
:1022C00051E7C02B03D0B3F5807F7FF45BAFCCB96F
:1022D000324AA96D136D23F4E0730B43136553E782
:1022E0002E4AD36A43F40033D362F0E70021281D5D
:1022F000FFF7F4FD0446EAE7002105F12400FFF7AB
:1023000065FEF7E726463FE7B3F5C00F03D0B3F508
:10231000000F7FF44BAFD4B9204AD5F8A410936DC9
:1023200023F460030B43936542E71C4AD36A43F4EA
:102330000033D362EFE70021281DFFF7CFFD0446ED
:10234000E9E7002105F12400FFF740FEF7E7264604
:102350002EE7B3F1407F03D0B3F1806F7FF43AAF43
:10236000D4B90E4AD5F8A810936D23F0E0630B435F
:10237000936531E7094AD36A43F40033D362EFE748
:102380000021281DFFF7AAFD0446E9E7002105F119
:102390002400FFF71BFEF7E726461DE7004402581E
:1023A000302B7FF428AF9CB99D4AA96CD36C23F0E5
:1023B00030030B43D36420E7994AD36A43F40033D4
:1023C000D362F0E70221281DFFF788FD0446EAE703
:1023D000264612E7B3F5405F03D0B3F5804F7FF494
:1023E0001DAFCCB98E4AE96D136D23F4E0430B4366
:1023F000136515E78A4AD36A43F40033D362F0E7E2
:102400000021281DFFF76AFD0446EAE7002105F1D7
:102410002400FFF7DBFDF7E7264601E723F48032CF
:10242000B2F5802F03D0B3F5403F7FF40AAF9CB9DB
:102430007B4A296E136D23F4E0230B43136502E7F7
:102440000121281DFFF74AFD0446F0E7012105F1AF
:102450002400FFF7BBFDF7E72646F4E623F08052A1
:10246000B2F1804F03D0B3F1405F7FF4FEAEA4B968
:102470006B4AD5F8AC10936D23F0E0430B439365A2
:10248000F5E60121281DFFF729FD0446EFE70121AC
:1024900005F12400FFF79AFDF7E72646E7E6604AD4
:1024A000D36A43F40033D3626CB95D4AE96E136DAD
:1024B00023F040530B431365EAE60121281DFFF783
:1024C0000DFD0446F0E72646E2E6554AD36A43F49A
:1024D0000033D362002C4DD1514A696CD36C23F088
:1024E00003030B43D3642B685F024DD54D4F3B680C
:1024F00043F480733B60FEF73FF980463B68D805A4
:102500003AD5002C6CD1464BD5F8B0001A6F42403A
:1025100012F4407F0BD01A6F196F22F4407241F40D
:1025200080311967196F21F4803119671A67B0F586
:10253000807F40D0D5F8B030394903F44072B2F50D
:10254000407F49D10869384A20F47C5002EA1312CE
:1025500002430A61C3F30B03314A116F0B43136744
:1025600012E00221281DFFF7B9FC0446B2E701265C
:102570003446B8E72646B6E7FEF7FEF8A0EB0800BB
:102580006428BBD9032634462B68DA0708D5AB6F1D
:10259000102B3CD026D85BB3082B32D00126344612
:1025A0002B689B074FD56B6F052B62D8DFE803F0D4
:1025B000433E5B434343FEF7DFF8DFF864800746A2
:1025C00041F28839D8F870309907B3D4FEF7D4F8BF
:1025D000C01B4845F6D9D5E70A6922F47C52B8E712
:1025E0002646D1E723F00802202A01D0182BD5D1A6
:1025F0009CB90B4AA96F536D23F038030B43536505
:10260000CEE70121281DFFF769FC0446F0E7012110
:1026100005F12400FFF7DAFCF7E72646C0E700BF24
:102620000044025800480258CFFFFF000121281D36
:10263000FFF754FC0446FCB9A64A696F536D23F0BA
:1026400007030B4353652B685F0727D5D5F89030F8
:10265000052B00F23981DFE813F01600110031017B
:10266000160016001600012105F12400FFF7AEFC4C
:10267000E0E701263446E6E72646E4E70121281D87
:10268000FFF72CFC0446002C40F02181914AD5F83C
:102690009010936D23F007030B4393652B68980606
:1026A00010D5D5F88C30B3F1005F00F02E8100F228
:1026B0001381002B00F01981B3F1805F00F01F81BE
:1026C000012634462B68590610D5D5F89830B3F555
:1026D000006F00F03B8100F22081002B00F026818A
:1026E000B3F5806F00F02C81012634462B681A0662
:1026F00010D5D5F89C30B3F5804F00F0488100F23A
:102700002D81002B00F03381B3F5005F00F039819B
:10271000012634462B681B0714D5D5F88030B3F555
:10272000805F07D1022105F12400FFF74FFC00284C
:1027300018BF0126674AD5F88010536D23F4405323
:102740000B4353652B68DF0614D5D5F89430B3F5E9
:10275000807F07D1022105F12400FFF737FC002814
:1027600018BF01265B4AD5F89410936D23F440738B
:102770000B4393652B6818031AD5D5F8A010B1F553
:10278000803F00F00C81B1F5003F06D0002940F0F9
:102790000C81281DFFF7A2FB0446002C40F00881A5
:1027A0004C4AD5F8A010936D23F440330B43936546
:1027B0002B6859031CD5D5F88430B3F5001F00F001
:1027C000F980B3F5401F08D0B3F5801F40F0F980C1
:1027D000404AD36A43F40033D362002C40F0F480C3
:1027E0003C4AD5F88410536D23F440130B435365D2
:1027F0002B68DA0309D5EB6C002B00F0E780B3F50A
:10280000803F00F0F180012634462B689B0007D5FD
:10281000022105F12400FFF7D9FB002818BF01268B
:102820002B689F030AD5E96FB1F5807F00F0F28035
:1028300000F2E280002900F0E5800126DC0206D5E6
:102840002449286F0A6D22F0004202430A65D8002D
:1028500007D52049D5F8B4000A6922F48042024322
:102860000A61990206D51B49A86E0A6D22F0807292
:1028700002430A655A0009D5164A116921F400413C
:1028800011611169D5F8B80001431161002B06DA16
:102890001049286DCA6C22F040520243CA641B02E0
:1028A00007D50C4AD5F88810536D23F440030B4329
:1028B0005365301E18BF0120BDE8F883012105F1E2
:1028C0002400FFF783FBDDE601263446E6E62646D4
:1028D000E4E600BF0044025823F08052B2F1804F7A
:1028E00003D0B3F1405F7FF4EBAEA4B94D4AD5F805
:1028F0008C10536D23F0E0430B435365E2E6002157
:10290000281DFFF7EBFA0446EFE7022105F124004A
:10291000FFF75CFBF7E72646D4E623F48062B2F5C6
:10292000805F03D0B3F5406F7FF4DEAEA4B93D4ABB
:10293000D5F89810936D23F4E0530B439365D5E6D7
:102940000021281DFFF7CAFA0446EFE7022105F12E
:102950002400FFF73BFBF7E72646C7E623F40052C7
:10296000B2F5004F03D0B3F5C04F7FF4D1AEA4B998
:102970002C4AD5F89C10936D23F460430B43936568
:10298000C8E60021281DFFF7A9FA0446EFE7022157
:1029900005F12400FFF71AFBF7E72646BAE6022105
:1029A00005F12400FFF712FBF6E601263446FFE6A8
:1029B0002646FDE6012105F12400FFF707FB04464A
:1029C0000BE70126344613E7264611E7154AD36A7A
:1029D00043F40033D3626CB9124AE96CD36C23F42C
:1029E00080330B43D36410E70221281DFFF776FAEA
:1029F0000446F0E7264608E721F48072B2F5007F2E
:102A00007FF41BAF64B90748426D22F440720A4359
:102A1000426513E70348C26A42F40032C262F1E73A
:102A200026460BE70044025882B00023104A019367
:102A3000019B01330193019B934216D80369002B3C
:102A4000F6DA00230A4A0193036943F001030361A4
:102A5000019B01330193019B934206D8036913F054
:102A60000103F5D1184602B070470320FBE700BF11
:102A7000400D030084B038B505AD044685E80E006E
:102A80000A9B012B2FD1836B23F480338363C368AC
:102A900023F4840323F04003C360C36823F440138A
:102AA000C360119B012B03D1C36843F48013C3603F
:102AB0002046FFF7B9FF089B012B10D1E36D9BB2B5
:102AC000E365E36D43F07B7343F40033E365A36890
:102AD00043F00603A360A36843F02003A360BDE8AE
:102AE000384004B07047C36843F04003C360FFF749
:102AF0009BFF0E9B23B9A36B43F48033A363DAE7F8
:102B0000A36B23F48033F9E7022A4AD1274B284AE2
:102B10000B44934239D9274B274A0B44934236D969
:102B2000A1F57403254AA3F51053934231D9A1F1BD
:102B30008373234AA3F5E74393422CD3214B224AC4
:102B40000B44934229D9214B214A0B44934226D36B
:102B5000204B214A0B44934223D3A1F1B7731F4A60
:102B6000A3F5585393421ED31D4B1E4A0B44934268
:102B700034BF07230623C26822F47052C260C268C1
:102B800042EA8323C360002070470F23F3E70E233C
:102B9000F1E70D23EFE70C23EDE70B23EBE70A2327
:102BA000E9E70923E7E70823E5E700BF405327FFEC
:102BB000FF340C00401E1BFF3F420F007F4F1200EE
:102BC00020D6130060B6E5FE5FE3160000D3CEFE0C
:102BD00040771B00C05BB3FEC09121002075380018
:102BE000E05459FEE09C4100836843F00103836098
:102BF00000207047836823F0010383600020704742
:102C000038B5C3680129054623F0C043C3600FD11E
:102C1000C368002443F00053C36001200134FDF772
:102C2000B1FD6B69D90714D4322CF6D1012038BD1F
:102C30000029FBD1C3680C4643F08043C3600120E8
:102C40000134FDF79FFD6B69DA0702D5322CF6D10E
:102C5000ECE7A4F1320358425841E8E782B0002380
:102C6000104A0193019B01330193019B934216D8B3
:102C70000369002BF6DA890100230A4A41F020019A
:102C800001930161019B01330193019B934206D89B
:102C9000036913F02003F5D1184602B070470320F2
:102CA000FBE700BF400D030082B000230F4A0193F1
:102CB000019B01330193019B934214D80369002BBC
:102CC000F6DA0023094A019310230361019B0133C3
:102CD0000193019B934206D8036913F01003F5D1C9
:102CE000184602B070470320FBE700BF400D030009
:102CF000D0F800381943C0F80018002070470000D1
:102D000084B02DE9F843044609A80E46139D80E8D7
:102D10000E000023194603F14002013304EB820246
:102D20000F2B5160F7D104F50067002D6CD17B6843
:102D300043F002037B60A36B23F40013A3632368B7
:102D400043F040032360236843F0800323600023A3
:102D5000C4F8003ED4F80038C4F800380E9B012BAC
:102D600059D10B99002954D120464FF67F38FFF7EF
:102D7000BFFF10212046FFF771FF01462046FFF7F5
:102D800093FF0843002304F51062C0B24FF0904C4B
:102D900019464FF0006E00383B617B6118BF01207F
:102DA000FB61B34239D1002204F530634FF0904CFF
:102DB0004FF0006E11464FF67F38B24240D13B696A
:102DC00023F480733B610023A3616FF08043636150
:102DD0000C9B1BB9A36943F01003A361A269224BAA
:102DE0001343A3610F9B1BB1A36943F00803A361C5
:102DF000012D05D1A36943F0804343F00403A3618F
:102E0000BDE8F84304B07047A36B43F40013A36319
:102E10009DE71946A8E70321A6E7D2F80090B9F18B
:102E2000000F0BDA3BB9C2F800E011610133C2F8C0
:102E300008802032B5E7C2F800C0F6E71160F4E779
:102E4000D3F80090B9F1000F0BDA3AB9C3F800E0FB
:102E500019610132C3F808802033AEE7C3F800C01F
:102E6000F6E71960F4E700BF00383C80D0F8083876
:102E700013F0060004D013F0020F14BF02200F203D
:102E8000704730B50D78012400F5006205F00F039E
:102E900000EB45109C404B78012BD36918D11C43A3
:102EA000D461D0F800391A0410D4CA68D0F80049A7
:102EB000C2F30A030A79234343EA824343EA855370
:102EC00043F0805343F40043C0F80039002030BD84
:102ED00043EA0444D461D0F8003B1B04F6D4CB6829
:102EE000D0F8002BC3F30A0313430A7943EA824361
:102EF00043F0805343F40043C0F8003BE6E7000092
:102F000010B50A78497800EB421300F500600129FA
:102F100002F00F0222D1D3F8001900290BDAD3F8FE
:102F2000001941F00061C3F80019D3F8001941F00D
:102F30008041C3F800190121C46B01FA02F224EAAE
:102F40000204C463C16921EA0202C261154AD3F8CE
:102F500000190A40C3F80029002010BDD3F8001B57
:102F600000290BDAD3F8001B41F00061C3F8001B05
:102F7000D3F8001B41F08041C3F8001B4FF48031AF
:102F8000C46B01FA02F224EA0204C463C16921EAB3
:102F90000202C261044AD3F8001B0A40C3F8002BA6
:102FA000DAE700BF007833EC0078F3EF4B78DFF816
:102FB000ECC0012BF0B50E788D6900EB4614364F4E
:102FC00046D104F51063BDB91D692F401F611D690D
:102FD00045F400251D611D6905EA0C05012A1D61E6
:102FE00023D14A6902B15A61D4F8003943F004434D
:102FF000C4F800390020F0BDD3F810E00EEA0C0C44
:10300000C3F810C0D3F810C00CEA07071F61CF68DF
:10301000AF421D6945F4002538BF8F611D618D6980
:103020001F69C5F312053D43D8E7D4F8003943F0D2
:103030000443C4F800398B69002BDBD006F00F067F
:103040000123D0F83428B3401343C0F83438D1E713
:10305000D4F8100B04F5306300EA0C00186118690D
:1030600038401861C86805B188611D69012AC861C6
:10307000C0F3120045F400251D611D6940EA0500FA
:10308000186102D10A6902B15A61D4F8003B43F0D9
:103090000443C4F8003BADE7FFFF07E00000F8FF82
:1030A000002382B04A780193012A0B784FEA431338
:1030B0001ED100F51060C258C118002A02DB0020A2
:1030C00002B07047C25842F00062C250C25842F08B
:1030D0008042C25042F21072019B01330193019B66
:1030E000934201D90120EBE70B68002BF4DBE6E704
:1030F00000F53060C258C118002AE0DAC25842F028
:103100000062C250C25842F08042C25042F2107275
:10311000019B01330193019B9342E3D80B68002B81
:10312000F6DBCCE710B59DF8084044B90333013213
:103130009B0800EB023001EB83038B4201D100209E
:1031400010BD51F8042B0260F7E700002DE9F341B0
:103150004D780F78012D8B6900EB47140E79DFF85D
:10316000B4C1DFF8B4E140F08E8004F51065D5F805
:1031700010806BBB08EA0C0CC5F810C0D5F810C065
:103180004CF4002CC5F810C0D5F810C00CEA0E0E97
:10319000C5F810E0012A4ED14B6903B16B61012ED5
:1031A0000CD1D0F8083813F4807FD4F800390CBF64
:1031B00043F0005343F08053C4F80039D4F8003989
:1031C00043F00443C4F80039002002B0BDE8F081A8
:1031D00008EA0E0E012EC5F810E0D5F810E00EEA50
:1031E0000C0CD1F80CE0C5F810C00EEB030CD5F8B0
:1031F00010800CF1FF3CBCFBFEFEDFF820C10CEAA6
:10320000CE4C4CEA080CC5F810C0C3F3120CD5F82C
:1032100010E04CEA0E0CC5F810C0BBD1D5F810C0B8
:103220002CF0C04CC5F810C0D5F810C04CF0005CB4
:10323000C5F810C0AEE7D4F80059012E45F004459A
:10324000C4F800590BD0002BBED007F00F020127A5
:10325000D0F8343897401F43C0F83478B4E7D0F83A
:1032600008589BB215F4807FD4F800590CBF45F084
:10327000005545F08055C4F8005900923A46096956
:10328000FFF750FFA0E7D4F8105B04F5306705EABC
:103290000E053D613D6905EA0C053D61CD681BBB2E
:1032A0003B69C5F312051D433D613B6943F40023AF
:1032B0003B61012A02D10B6903B17B61012E0CD164
:1032C000D0F8083813F4807FD4F8003B0CBF43F0EB
:1032D000005343F08053C4F8003BD4F8003B43F064
:1032E0000443C4F8003B6FE72B44DFF830C0D7F845
:1032F00010E0013BB3FBF5F39BB25D430CEAC34323
:1033000043EA0E03CD61C5F312053B613B691D43E2
:103310003D61CEE7FFFF07E00000F8FF0000F81F67
:103320000346900802F0030270B5002403F58055AF
:10333000844210D301EB800062B103F580531C6816
:103340000023D90024FA01F1C154013399B28A4211
:10335000F7D1104470BD2E6841F824600134E7E7CE
:103360004A780B78012A00EB431012D1D0F80029DB
:10337000002A06DB2BB1D0F8003923F08043C0F8D7
:103380000039D0F8003943F40013C0F800390020A8
:103390007047D0F8002B002A06DB2BB1D0F8003B99
:1033A00023F08043C0F8003BD0F8003B43F4001307
:1033B000C0F8003BEBE70B784A7800EB43100B7941
:1033C000012AA3F10203DBB20FD1D0F80029012BAF
:1033D00022F40012C0F8002905D8D0F8003943F0D3
:1033E0008053C0F8003900207047D0F8002B012B23
:1033F00022F40012C0F8002BF5D8D0F8003B43F0BF
:103400008053C0F8003BEEE7D0F80038090123F400
:10341000FE6301F4FE61C0F80038D0F800381943AB
:10342000C0F8001800207047D0F8003E23F00303D6
:10343000C0F8003ED0F8043823F00203C0F8043886
:1034400000207047D0F8003E23F00303C0F8003E90
:10345000D0F8043843F00203C0F804380020704765
:103460004269806910407047D0F8183800F5006054
:10347000C0691840000C7047D0F8183800F500609B
:10348000C069184080B2704700EB411100F5006040
:10349000D1F8082B40691040704710B5D0F810489B
:1034A000D0F8343800EB411001F00F0100F5106046
:1034B000CB408068DB01DBB22343184010BD40697C
:1034C00000F001007047D0F8003923F4FF6323F0C7
:1034D0000703C0F80039D0F8043843F48073C0F80B
:1034E000043800207047000030B5056C00F53063EB
:1034F0000F4CA54203D9D0F8004B002C16DB00245A
:1035000001291C611C6944F400241C611C6944F0FD
:1035100018041C611C6944F0C0441C6106D15A6146
:10352000D0F8003B43F08023C0F8003B002030BDC2
:103530000A30544FD0F8D43200EB830010B5D0F8E5
:10354000C04284B1D0F8C4325BB194F80002FF28C5
:1035500007D09B68214694F801229847FF2384F8FE
:103560000032002000E0032010BD00000A23038089
:10357000004870478C00002470B5822106460F4831
:1035800000F094FB012105460C4800F08FFB8121DF
:1035900004460A4800F08AFB0DB11022AA711CB142
:1035A000402222710022627118B140220271002271
:1035B000427143230148338070BD00BF480000249E
:1035C000FFF7DABF70B5822106460F4800F06EFBA8
:1035D000012105460C4800F069FB812104460A4898
:1035E00000F064FB0DB11022AA711CB100222271FF
:1035F0000222627118B10022027102224271432339
:103600000148338070BD00BF4800002438B5D0F8B1
:10361000D4320446B03350F823508DB101F055F840
:10362000C5F80C02D4F8D40205F5037104EB80044C
:10363000D5F80402D4F8C432DB689847002038BDBE
:103640000320FCE7F8B5D0F8D4620A4600EB860602
:10365000D6F8C05245B301F00F0C142707FB0C0736
:10366000BC6994B1D0F8C8324FF0240E0EFB0C3375
:103670009B6CB4FBF3FC03FB1C4434B92346224689
:10368000BC6101F06EF820460DE0D6F8C432002788
:103690001C69C5F81472002CF5D005F50471D5F835
:1036A0000802A0473846F8BD0320FCE7D0F8D43222
:1036B00000EB83032DE9F3414FF00008D3F8C0720B
:1036C00005460E468DF80580ADF80680002F6ED0B9
:1036D0000A7812F060042ED0202C64D1CC8891F8A6
:1036E00001C00CB3120613D5D3F8C43222463946B2
:1036F00060469B689847F28839462846072A28BFC3
:10370000072200F048FD4446204602B0BDE8F081A3
:10371000402C394687F800C228BF4024224687F84B
:10372000014200F04DFDEEE7D3F8C4322246604678
:103730009B689847E8E74F780B2F34D801A353F8DC
:1037400027F000BF7537000809370008A7370008C1
:10375000A7370008A7370008A7370008A7370008D1
:10376000A7370008A7370008A73700088B370008DD
:103770009F37000890F89C32032B14D102220DF1E0
:1037800006013C4600F007FDBEE790F89C32032B93
:1037900009D101220DF1050100F0FDFCB4E790F81C
:1037A0009C32032BB0D03146284600F0CDFC0324D8
:1037B000AAE700BF38B504460025812100F0ADFF1F
:1037C00001212046258700F0A8FF82212046A4F889
:1037D000785100F0A2FFD4F8D432E56404EB8303FF
:1037E000D3F8C0228AB1D3F8C4325B689847D4F8C2
:1037F000D432B03354F8230000F070FFD4F8D43240
:10380000B03344F82350C4F8BC52002038BD70B522
:1038100004464FF4077000F05DFF054630B9D4F858
:10382000D432B03344F82300022547E04FF4077246
:10383000002100F0E1FFD4F8D432B03344F8235033
:10384000237CC4F8BC52002B3AD14FF400730222FF
:103850008121204600F055FF01264FF40073268792
:1038600031460222204600F04CFF10230322822121
:10387000A4F878612046A4F84E30082300F041FFF8
:10388000D4F8D4320026012104EB8303A4F84C10B1
:10389000D3F8C432C5F804621B689847D5F80422EF
:1038A000C5F81462C5F81862002ABDD0257C012134
:1038B00085B94FF40073204600F05CFF284670BDC8
:1038C0000126402302228121204600F01AFF4023D6
:1038D0002687C5E740232046354600F04BFFEDE73D
:1038E00039B1D0F8D43200EB8300C0F8C412002004
:1038F000704703207047D0F8D432B03350F82330EB
:103900002BB10020C3F80812C3F81022704703201F
:103910007047D0F8D432B03350F823301BB10020B8
:10392000C3F80412704703207047D0F8D432B03384
:1039300050F8232010B57AB1D2F8144201236CB9A3
:10394000C2F814328121D2F81032D2F80822C362B0
:1039500000F007FF204610BD0320FCE71846FAE7F9
:10396000D0F8D422B03250F8222010B582B1047CB5
:10397000D2F8042234B94FF40073012100F0FAFEAA
:10398000204610BD40230121002400F0F3FEF7E79C
:103990000324F5E778B10023C0F8B832C0F8C43288
:1039A000C0F8D03209B1C0F8B4120123027080F817
:1039B0009C3200F047BE03207047002313B5044635
:1039C000ADF8063081B1CB6AC0F8B81223B10DF161
:1039D00006009847C4F8D002D4F8D832002001334A
:1039E000C4F8D83202B010BD0320FBE700F080BE5F
:1039F000D0F8B8320BB11B6818471846704708B5A5
:103A0000D0F8B8325B689847002818BF032008BD7B
:103A100038B500F2AA250446284600F08AFB0123A7
:103A200094F8AA12C4F89432B4F8B032C4F89832B8
:103A300001F01F03012B08D0022B0CD08BB92946B3
:103A40002046BDE8384000F04FB929462046BDE881
:103A5000384000F09FBA29462046BDE8384000F0C3
:103A6000C8BA204601F08001BDE8384000F05EBED3
:103A700070B50446164609BBD0F89432032B0CD11E
:103A8000D0E9573293420AD99B1A31469A42C0F87C
:103A90005C3128BF1A4600F0A0FB002070BD90F8F2
:103AA0009C32032B06D1D0F8B8321B6913B1C0F891
:103AB000D4129847204600F098FBEEE790F89C322D
:103AC000032BEAD1D0F8B8329B69002BE5D0002255
:103AD000BDE87040C0F8D422184773B504461646B6
:103AE000002941D1D0F89422022A0FD1D0E90752FF
:103AF000954214D9AA1A01913146C26100F058FBCF
:103B0000019B1A461946204600F034FE94F8A03274
:103B100013B1002384F8A032002002B070BD0ED192
:103B2000826995420BD8D0F89852AA4207D20A4629
:103B3000019100F03DFB019BC4F89832E1E794F855
:103B40009C32032B08D1D4F8B832DB6823B10022B1
:103B50002046C4F8D42298478021204600F0E6FD94
:103B6000204600F04DFBD1E790F89C32032BD3D1D7
:103B7000D0F8B8325B69002BCED00022C0F8D42236
:103B800002B0BDE870401847F8B501230021044693
:103B900080F89C32D0F8B832C0F894124160C0F876
:103BA000A41280F8A012B3B90026002240250127F4
:103BB00040231146204600F0A4FD2B460022802120
:103BC0002046A4F86471C4F8605100F09AFD3046B4
:103BD000A7842562F8BD5B68002BE5D098470028D4
:103BE000E2D00326E1E701740020704790F89C3290
:103BF000DBB280F89D32042380F89C3200207047AD
:103C000090F89C32042B04D190F89D32DBB280F8FE
:103C10009C320020704708B590F89C22032A05D1F9
:103C2000D0F8B83213B1DB6903B19847002008BD62
:103C3000D0F8D422AE3250F8222008B542B190F824
:103C40009C32032B02D1136A23B19847002000E075
:103C5000032008BD1846FCE7D0F8D422AE3250F855
:103C6000222008B542B190F89C32032B02D1536A4E
:103C700023B19847002000E0032008BD1846FCE768
:103C800000207047012208B580F89C22D0F8B822A5
:103C90000AB9002008BD5268017990470028F8D081
:103CA0000320F7E7002070470020704710B54288D6
:103CB00003789A420AD904782044234444789BB27A
:103CC000052CF6D184788C42F3D110BD0020FCE79E
:103CD00010B50446802100F029FD00212046BDE8F2
:103CE000104000F023BD00002DE9F3410D7804469B
:103CF0000E4605F06005202D14D0402D12D0002D69
:103D000040F00A814F78092F00F20681DFE817F0B2
:103D10000B01340104012301040186001600040193
:103D2000F300A200D4F8D43231462046AE3354F822
:103D300023309B6802B0BDE8F04118470023ADF87E
:103D400006304B881A0A013A062A37D8DFE802F013
:103D5000041C293636515B00D0F8B4321B680DF1D3
:103D60000601207C9847F288002A00F00181BDF806
:103D700006301BB39A42014628BF1A46ADF806200A
:103D8000204600F008FA1CE0027CD0F8B83232B9C4
:103D90009B6A0DF10600984702234370E3E7DB6A54
:103DA000F7E7DBB2052B09D8DFE803F0030F1317A1
:103DB0001B1FD0F8B4325B68002BD0D12046FFF730
:103DC00087FF284602B0BDE8F081D0F8B4329B6886
:103DD000F2E7D0F8B432DB68EEE7D0F8B4321B6912
:103DE000EAE7D0F8B4325B69E6E7D0F8B4329B6911
:103DF000E2E7037C002BE1D1D0F8B8320DF10600E8
:103E00005B6B9847AFE7037C002BD7D1D0F8B83273
:103E10000DF106001B6B98470723BEE78B88002B2C
:103E2000CCD1CB88002BC9D14E887F2EC6D890F834
:103E30009C32032BC2D0F1B280F89E1200F088FCB5
:103E4000204600F0D2F91EB1022384F89C32B8E774
:103E50000123FAE78E784E4F012E3E7003D9FFF70B
:103E600037FF0325ADE790F89C32022B5FFA83F809
:103E700009D0B8F1030F18D0FFF72AFF3978204690
:103E8000FFF7BDFDEDE7002E72D001214160FFF785
:103E9000AFFD0546204625B1FFF71AFF84F89C8246
:103EA0008FE700F0A2F90323CFE75EB90223314682
:103EB000466080F89C32FFF7A2FD204600F095F99D
:103EC00035467EE74168012952D0C9B2FFF797FD18
:103ED000397820466160FFF78BFD0646002847D001
:103EE0002046FFF7F5FE21792046FFF788FD0223E3
:103EF00084F89C32E4E7CA88012A7FF45FAF90F827
:103F00009C120229CBB205D833B10146002341F8F7
:103F1000083F35E7032B04D020460025FFF7D8FEE5
:103F20004FE7011D2CE790F89C32013B022BF3D8A0
:103F3000CB88022B7FF442AF0123C360D0F8A432B8
:103F40000BB10323C360022204F10C0120463D465D
:103F500000F021F935E74B88012B02D1C4F8A432D7
:103F600006E0022B7FF42AAF8B881B0A80F8A03270
:103F7000204600F03AF924E790F89C32013B022BEE
:103F8000CAD84B88012B7FF41CAF0023E6E700BFA3
:103F90008401002470B50B7804460E4603F06002DD
:103FA000402A01D05B061FD494F89C32013B022BBF
:103FB0001AD831792046012917D8FFF773FE88B93E
:103FC000D4F8B8329B686BB1C4F8D40231462046AD
:103FD00098470546F3881BB915B9204600F005F946
:103FE000284670BD0325F5E720460025FFF770FE43
:103FF000F6E770B50B7804460D468A8803F0600337
:104000000E79202B53D0402B51D063BB4B78012B22
:104010003BD0032B20D033BB90F89C32022BD9B27B
:1040200061D003291FD106F00F0312F0800F4FF06B
:10403000140202FB030367D09B8CA3B106F07F053B
:10404000013505EB850500EB850516F07F0367D18B
:104050002B600222294653E090F89C32022BDAB200
:1040600037D0032A03D02046FFF732FE0BE04B88FF
:1040700033B9710604D0EB8813B9314600F056FB12
:10408000204600F0B2F8002070BD90F89C32022B60
:10409000DAB21ED0032AE6D14B88002BF3D1730687
:1040A00002D0314600F04BFB204600F09EF831462E
:1040B0002046FFF7F9FD0028E5D1D4F8B832C4F85E
:1040C000D4029B68002BDED029462046BDE8704014
:1040D00018477206C7D0314600F028FB80212046E1
:1040E00000F024FBCFE77106BDD113064FF00003AB
:1040F0004FF002024CBF00F1140100F5AA710B60F1
:10410000204600F048F8BEE7B3F86431002BAAD08F
:1041100006F07F05142303FB050505F5AA7594E752
:104120003146204600F0BEFA08B1012390E728602E
:104130008FE70B7803704B7843704B8843808B88F4
:104140008380CB88C380704710B50446802100F07F
:10415000EDFA00212046BDE8104000F0E7BA30B586
:1041600088B10024013823460134055D002DFAD1C1
:10417000DBB201335B0013800B7003234B7002230F
:1041800010F8012F02B930BDCA545A1C0233D2B202
:10419000DBB28D54F4E710B502241346C0F8944204
:1041A000C0E906220A46002100F0DBFA002010BD1B
:1041B00008B513460A46002100F0D3FA002008BDD6
:1041C00010B503241346C0F89442C0E956220A46AB
:1041D000002100F0CFFA002010BD08B513460A46B2
:1041E000002100F0C7FA002008BD08B50422002312
:1041F000C0F8942219461A4600F0B3FA002008BD10
:1042000008B505220023C0F8942219461A4600F08A
:10421000B1FA002008BD000008B500220F4910487F
:10422000FFF7B8FB08B1FCF76BF90E490C48FFF734
:10423000C4FB08B1FCF764F90B490948FFF750FBD0
:1042400008B1FCF75DF90648FFF7D0FB08B1FCF7B1
:1042500057F9BDE80840FDF7BFB900BFAC00002426
:1042600088010024100000249800002400207047DA
:10427000002070470020704710B5064C0022064908
:104280002046FFF738FB05492046FFF742FB002098
:1042900010BD00BF88010024640C002464040024C5
:1042A00010B5094C0A46D4F8BC32D3F8143243B9DD
:1042B00001462046FFF71FFB2046BDE81040FFF7F0
:1042C00034BB012010BD00BF880100240FB413B51A
:1042D00004AB094C4FF4006153F8042B20460193C2
:1042E00000F0BEFA81B22046FFF7DAFF002002B0EC
:1042F000BDE8104004B07047640C002438B5124B80
:1043000098421ED910F8012CA2F15A04624262416F
:10431000002411E0C55C52B1522D08D1013B441874
:10432000CA1AC118084800F059FA204638BDA5F14C
:104330005A0301345A425A4163B28B42EAD30024F1
:10434000F3E70022E4E700BF6404002470B50F4DDA
:10435000A84218D910F8012CA2F1FF046242624170
:1043600000240BE0C65C22B11EB9013B1844401B7F
:1043700070BDA6F1FF0301345A425A4163B28B4229
:10438000F0D30020F4E70022EAE700BF6404002431
:1043900038B5134C134D031B0968B3F5F86F2B7830
:1043A000B8BF44185BB9FFF7A9FFA0B921460E4872
:1043B000FFF7AFFA0C48FFF7D3FA002038BDFFF73C
:1043C000C5FF01460028F1D00848FFF77FFF002312
:1043D000034C2B70EAE7012304462B70E6E700BF8D
:1043E000640400246414002488010024245100087B
:1043F000122301480B807047C800002404230148A1
:104400000B807047DC000024002370B54D1C1E4655
:10441000040FB0F1204F4FEA001034BF303437346E
:1044200001F8134005F813600133DCB2A242EFD863
:1044300070BD00001A2310B50B800A4BD3F800089A
:10444000D3F8082880180AD0D3F80448082206496F
:10445000FFF7DAFF042210312046FFF7D5FF0348AB
:1044600010BD00BF00E0F11FE2000024E0000024C6
:1044700010B5044C0A4604482146FFF770FE20465A
:1044800010BD00BF681400242751000810B5044C6B
:104490000A4604482146FFF762FE204610BD00BFD1
:1044A000681400243A51000810B5044C0A46044828
:1044B0002146FFF754FE204610BD00BF68140024BB
:1044C0005051000810B5044C0A4604482146FFF735
:1044D00046FE204610BD00BF681400245B51000852
:1044E00030B5B7B004461422002102A800F084F9C8
:1044F000BC22002107A800F07FF92268214B9A42D4
:104500003DD14FF4802307A807934FF4401328931D
:10451000FDF7D4FD08B1FBF7F3FF1B4CFDF75CF88A
:104520004FF4C0520025D4F8E03002A9174843F0F8
:104530000103C4F8E030D4F8E03003F00103009345
:10454000009B0223CDE902230323CDE904530A2370
:104550000693FCF795F9D4F8D83065202A46294609
:1045600043F00063C4F8D830D4F8D83003F00063C7
:104570000193019BFCF730F96520FCF75FF937B038
:1045800030BD00BF0000084000440258000002583F
:1045900000F2C441D0F80805FFF73ABA242303FB20
:1045A0000103D0F80805D3F88C22FFF761BA242361
:1045B00003FB0103D0F80805DA6CFFF78EBAD0F8D8
:1045C0000805FFF728BBC16810B5044621B10229D0
:1045D00001D0FBF795FF0121D4F80805FFF703FB95
:1045E000D4F80805BDE81040FFF7CEBA10B5044670
:1045F000D0F80805FFF7FAFA2268D2F8003E43F037
:104600000103C2F8003E236A23B1034A136943F051
:104610000603136110BD00BF00ED00E0D0F80805EF
:10462000FFF7EEBAD0F80805FFF716BBD0F808057B
:10463000FFF7FEBAD0F80805FFF722BBD0F808054F
:10464000FFF720BB08B5037802462BBB134814497B
:10465000C0F80825C2F8C80209220363C0E90012A5
:104660000222C0E90833C0E90323C0E90623C0E9F8
:104670000A33FCF702FA08B1FBF742FF8021074832
:10468000FCF76EFF402200210448FCF749FF80221E
:1046900001210248FCF744FF002008BD68160024F1
:1046A0000000084011F0800FD0F8C8324FF024020B
:1046B00017BF01F07F0102FB013102FB013191F8CC
:1046C0003E0008BF91F87E027047D0F8C802FCF7A0
:1046D0001BBB000000487047741B0024704700009B
:1046E00003289ABF014B185C0320704769510008EA
:1046F00008B5D0F8C802FCF749FABDE80840FFF752
:10470000EFBF10B51446D0F8C8021A462346FCF78E
:1047100070FABDE81040FFF7E3BF08B5D0F8C80253
:10472000FCF79FFABDE80840FFF7DABF08B5D0F8FC
:10473000C802FCF711FBBDE80840FFF7D1BF08B580
:10474000D0F8C802FCF740FBBDE80840FFF7C8BF3F
:1047500008B5D0F8C802FCF738FABDE80840FFF702
:10476000BFBF08B5D0F8C802FCF7D6FABDE80840CC
:10477000FFF7B6BF08B5D0F8C802FCF7A1FABDE84C
:104780000840FFF7ADBF0000014B1868704700BF3D
:10479000FC00002470B50D4D0D4C641BA4100026C8
:1047A000A64209D10B4D0C4C00F0A8FC641BA410D0
:1047B0000026A64205D170BD55F8043B9847013646
:1047C000EEE755F8043B98470136F2E7A0510008A0
:1047D000A0510008A0510008A45100080A449142C9
:1047E00000F1FF3300D1704710B511F8014B03F809
:1047F000014F9142F9D110BD02440346934200D1CA
:10480000704703F8011BF9E730B51446002C9BB044
:1048100005461A4605DA8B2303604FF0FF301BB0C4
:1048200030BD4FF40273ADF80C3014BF04F1FF3308
:104830002346029305934FF6FF7300910491ADF860
:104840000E3069461E9B00F075F8431CBCBF8B23DD
:104850002B60002CE3D0009B00221A70DFE70000E1
:1048600007B5009313460A46014603480068FFF760
:10487000CBFF03B05DF804FBFC0000242DE9F047FA
:104880008E689E4282460C4690461F4638D88A89DA
:1048900012F4906F32D025680969A5EB01096569AA
:1048A00005EB450505EBD57501334B446D109D4275
:1048B00038BF1D46530531D5294600F055FB064645
:1048C00050B90C23CAF80030A38943F04003A381F8
:1048D0004FF0FF30BDE8F08721694A46FFF77EFFC1
:1048E000A38923F4906343F08003A381266165616B
:1048F0004E44A5EB09052660A5603E46BE4200D9A0
:104900003E4620683246414600F0A8FAA3689B1B49
:10491000A3602368334423600020DBE72A4600F0CD
:1049200097FB06460028E1D12169504600F0B0FA15
:10493000C7E700002DE9F04F98468B891B069DB014
:1049400007460D4614460ED50B6963B9402100F0A9
:104950000BFB2860286120B90C233B604FF0FF302F
:10496000D1E040236B610023099320238DF8293087
:10497000CDF80C803023DFF8A8818DF82A304FF075
:10498000010923469A4613F8012B0AB1252AF9D1C9
:10499000BAEB040B0BD05B46224629463846FFF79C
:1049A0006DFF013000F0AA80099A5A4409929AF8E2
:1049B0000030002B00F0A28000234FF0FF32CDE941
:1049C00005230AF1010A049307938DF853301A93D3
:1049D0005446052214F8011B5148FBF781FC049A48
:1049E000D8B9D00644BF20238DF85330110744BFF7
:1049F0002B238DF853309AF800302A2B15D0079AC4
:104A0000544600204FF00A0C214611F8013B303B80
:104A1000092B4ED9B0B1079214E0A0EB080309FAB4
:104A200003F313430493A246D2E7039B191D1B68AB
:104A30000391002BBBBF5B4242F002020793079336
:104A4000B8BF049223782E2B0CD163782A2B35D152
:104A5000039B1A1D1B680392002BB8BF4FF0FF3356
:104A600002340593DFF8C8A0217803225046FBF7F3
:104A700037FC40B14023A0EB0A0003FA00F0049B8E
:104A800003430134049314F8011B26488DF82810C1
:104A90000622FBF725FC002838D0234B1BBB039BC9
:104AA000073323F0070308330393099B3344099327
:104AB00067E70CFB02320C460120A5E70023013416
:104AC000059319464FF00A0C204610F8012B303A96
:104AD000092A03D9002BC5D00591C3E70CFB01219E
:104AE00004460123F0E703AB00932A460F4B04A9C9
:104AF0003846AFF30080421C0646D6D1AB895B0630
:104B00003FF52CAF09981DB0BDE8F08F03AB0093C3
:104B10002A46064B04A9384600F07AF8EBE700BFB6
:104B20006D51000877510008000000007D48000822
:104B3000735100082DE9F047164699468A680B69BB
:104B4000DDF820809342B8BF1346336091F84320CC
:104B500007460C460AB1013333602368990642BF09
:104B6000336802333360256815F0060506D104F179
:104B7000190AE36832689B1AAB4226DC94F843209A
:104B8000131E226818BF012392062BD404F143029E
:104B900049463846C04701301ED02368E568326870
:104BA00003F00603042B08BFAD1AA36822690CBFEB
:104BB00025EAE57500259342C4BF9B1AED1800262F
:104BC0001A34B5421AD1002008E001235246494662
:104BD0003846C047013003D14FF0FF30BDE8F087C1
:104BE0000135C6E7E1185A1C302081F84300224401
:104BF00094F8451082F843100233C7E70123224698
:104C000049463846C0470130E6D00136D9E70000B2
:104C10002DE9FF470F7E0C9D782F914680460C466C
:104C20009A4601F1430207D8622F0AD8002F00F0FC
:104C3000D880582F00F0A38004F1420584F8427018
:104C40003AE0A7F16303152BF6D801A151F823F040
:104C5000A94C0008BD4C0008394C0008394C00082C
:104C6000394C0008394C0008BD4C0008394C00088C
:104C7000394C0008394C0008394C0008C94D00086F
:104C8000ED4C0008AB4D0008394C0008394C0008C9
:104C9000EB4D0008394C0008ED4C0008394C000879
:104CA000394C0008B34D00082B681A1D1B682A6098
:104CB00004F1420584F842300123A3E0206829680A
:104CC000060601F104030AD50E682B60002E03DAF4
:104CD0002D23764284F843305E480A2319E00E689B
:104CE0002B6010F0400F18BF36B2EFE72B6820683A
:104CF000191D2960010601D51E6802E04606FBD594
:104D00001E8854486F2F0CBF08230A23002184F803
:104D100043106568A560002DA2BF216821F0040141
:104D200021600EB9002D4DD01546B6FBF3F103FB03
:104D30001167C75D05F8017D3746BB420E46F4D9C1
:104D4000082B0BD12368DE0708D5236961689942D7
:104D5000DEBF302305F8013C05F1FF35521B22610F
:104D6000CDF800A04B4603AA21464046FFF7E2FEDD
:104D700001304CD14FF0FF3004B0BDE8F08735482A
:104D800081F845702968236851F8046B29601D0675
:104D900014D5DF0744BF43F0200323601EB9236806
:104DA00023F0200323601023B0E7236843F020039F
:104DB00023607823284884F84530E3E7590648BF44
:104DC000B6B2E6E71546BBE72B6826686169181D91
:104DD000286035061B6801D5196002E07006FBD516
:104DE0001980002323611546BAE72B681A1D2A6033
:104DF0001D68626800212846FBF772FA08B1401B63
:104E0000606063682361002384F84330A8E7236966
:104E10002A4649464046D0470130ABD023689B071D
:104E200013D4E068039B9842B8BF1846A4E7012357
:104E3000324649464046D04701309BD00135E368B1
:104E400003995B1AAB42F2DCEBE7002504F119068B
:104E5000F5E700BF7E5100088F510008884210B569
:104E600001EB020402D98442234607D8431EA14223
:104E700008D011F8012B03F8012FF8E7024401468E
:104E80008A4200D110BD13F8014D02F8014DF7E739
:104E900037B5002944D051F8043C0190002BA1F112
:104EA0000404B8BFE41800F013F91E4A019813680F
:104EB00033B96360146003B0BDE8304000F00EB950
:104EC000A34208D9256861198B4201BF19685B6844
:104ED00049192160EDE71A465B680BB1A342FAD984
:104EE00011685518A5420BD1246821445418A342D7
:104EF0001160E0D11C685B68536021441160DAE7FF
:104F000002D90C230360D6E7256861198B4204BFE0
:104F100019685B68636004BF491921605460CAE77F
:104F200003B030BD941D002470B50E4E0C463168A0
:104F3000054611B900F0BCF830602146284600F063
:104F4000B7F8431C0AD0C41C24F00304A04207D0C5
:104F5000211A284600F0ACF8013001D14FF0FF349F
:104F6000204670BD981D00242DE9F041CD1C25F090
:104F7000030508350C2D38BF0C25002D074601DB35
:104F8000A94205D90C233B6000263046BDE8F081DC
:104F90002E4E00F09DF833681C4634BB2946384637
:104FA000FFF7C2FF431C04464DD134682646002E4D
:104FB00040D123683146384604EB030800F078F806
:104FC00080453AD1216803356D1A25F0030508356F
:104FD0000C2D38BF0C2529463846FFF7A5FF0130B8
:104FE0002BD023682B4423600EE02268521B1ED472
:104FF0000B2A16D96119A342256018BF596063684E
:1050000008BF316062514B60384604F10B0600F076
:1050100065F826F00706231DF21AB6D09B1BA35095
:10502000B3E76268A3420CBF32605A60ECE72346E4
:105030006468B2E734467668B9E70C233B603846CB
:1050400000F04CF8A1E72560DEE700BF941D0024C6
:105050002DE9F041804614460E4621B9BDE8F041E5
:105060001146FFF781BF2AB9FFF712FF25462846F0
:10507000BDE8F08100F038F88442074602D8B4EB6E
:10508000500F12D821464046FFF76EFF0546002814
:10509000EDD0BC422246314628BF3A46FFF79EFB80
:1050A00031464046FFF7F4FEE1E73546DFE7000012
:1050B00038B5064D0023044608462B60FBF752FA2C
:1050C000431C02D12B6803B1236038BD9C1D002412
:1050D000014800F011B800BFA01D0024014800F0F5
:1050E0000CB800BFA01D002451F8043C181F002B71
:1050F000BCBF0B58C018704770477047F8B500BF69
:10510000F8BC08BC9E467047F8B500BFF8BC08BCA8
:045110009E46704700
:105114000000000001020304010203040607080959
:1051240025640053544D6963726F656C65637472D2
:105134006F6E6963730053544D3332205669727431
:1051440075616C20436F6D506F727400434443204B
:10515400436F6E6669670043444320496E74657209
:10516400666163650000030103232D302B20006872
:105174006C4C006566674546470030313233343540
:1051840036373839414243444546003031323334AE
:0C519400353637383961626364656600A7
:0451A000C50200083C
:0451A400A10200085C
:1051A8000090D0030090D003010000001000000020
:1051B8000F380008B5370008AD36000800000000B9
:1051C80035350008453600080D3600080000000097
:1051D8000000000000000000C5350008793500080F
:1051E800C13500086D35000809024300020100C0FE
:1051F8003209040000010202010005240010010523
:105208002401000104240202052406000107058286
:105218000308001009040100020A00000007050144
:105228000240000007058102400000000A06000253
:105238000000004001000000794200086D420008AB
:10524800714200089143000875420008F1430008C4
:10525800FD430008714400088D44000835440008E7
:10526800A9440008C54400081201000202020040D7
:1052780083044057000201020301000004030904EB
:105288001A030000000000000000000000000000F9
:1052980000000000000000000000000000010024E1
:1052A80000000000000000000000000000000000F6
:1052B80000000000000000000000000000000000E6
:1052C80000000000000000000000000000000000D6
:1052D80000000000000000000000000000000000C6
:1052E80000000000000000000000000000000000B6
:1052F80000000000000000000000000000000000A6
:040000050800066584
:00000001FF
